:030000000220D10A
:0C20D100787FE4F6D8FD75810F0221181D
:0425550041006800D9
:10258500900000E0146011146012146014146015BA
:1025950024047016E4FF800FE4FF80027F0102121D
:0B25A500197F0180027F0212001E223D
:10243100E4FFEF75F008A4240AF582E43400F58383
:10244100E0FCA3E0FDEF75F008A4240EF582E4346E
:1024510000F583ECF0A3EDF0EF75F008A42410F57E
:1024610082E43400F583E4F00FEFB408C59000185E
:032471007401F003
:012474002245
:1025B000E4FEEE75F008A42410F582E43400F583FF
:1025C000E4F00EEEB408EBEF75F008A42410F582E9
:0825D000E43400F5837401F00E
:0125D80022E0
:101B0D00E4FEEE75F008A42410F582E43400F583AC
:101B1D00E0B40102AB060EEEB408E7EF6077EB75AB
:101B2D00F008A4240EF582E43400F583E0FEA3E072
:101B3D00FF7C007D3C1214C2EF24FFFFEE34FFFE4C
:101B4D007C007D3C1214B0EB75F008A4240EF582D8
:101B5D00E43400F583EEF0A3EFF0EB75F008A42468
:101B6D000EF582E43400F583E0FEA3E0FFD3940884
:101B7D00EE9407500BEF9400EE94004003021C0B03
:101B8D00EB75F008A4240EF582E43400F583740798
:101B9D00F0A304F022EB75F008A4240EF582E434D2
:101BAD0000F583E0FEA3E0FF7C007D3C1214C2EF44
:101BBD002401FFE43EFE7C007D3C1214B0EB75F079
:101BCD0008A4240EF582E43400F583EEF0A3EFF0C3
:101BDD00EB75F008A4240EF582E43400F583E0FEE5
:101BED00A3E0D39408EE94074014EB75F008A424F9
:0E1BFD000EF582E43400F583E4F0A3743CF0AE
:011C0B0022B6
:100A4F00900049EFF0B410004003020CCC900A6301
:100A5F00F8282873020A93020A96020ABC020AEACD
:100A6F00020B0F020B32020B56020B7A020B9E0285
:100A7F000BC2020BE5020C08020C2B020C52020CEB
:100A8F008C020CAB020CCC900068E0640260030295
:100A9F000CD1900049E0FF1220427F647E001226A5
:100AAF00019000007401F0122431020B7590006860
:100ABF00E064026003020CD1900049E0FF12204273
:100ACF007F647E00122601900007E0B40104E4F079
:100ADF0080069000077401F0E48044900068E064A1
:100AEF00026003020CD1900049E0FF1220427F64A4
:100AFF007E001226019000007403F07F01020CC7E4
:100B0F00900068E064026003020CD1900049E0FF9E
:100B1F001220427F647E00122601E4900000F0FF55
:100B2F00020CC7900068E064026003020CD19000D1
:100B3F0049E0FF1220427F647E001226017F0112DE
:100B4F0025B0E41F020C4C900068E06402600302C1
:100B5F000CD1900049E0FF1220427F647E001226E4
:100B6F00017F021225B0E4FF020C4C900068E06494
:100B7F00026003020CD1900049E0FF1220427F6413
:100B8F007E001226017F031225B0E4FF020C4C9069
:100B9F000068E064026003020CD1900049E0FF128C
:100BAF0020427F647E001226017F041225B0E4FFED
:100BBF00020C4C900068E064026003020CD19000BC
:100BCF0049E0FF1220427F647E001226017F05124A
:100BDF0025B0E4FF8067900068E064026003020CB8
:100BEF00D1900049E0FF1220427F647E001226015F
:100BFF007F061225B0E4FF8044900068E064026035
:100C0F0003020CD1900049E0FF1220427F467E0084
:100C1F00122601E4FF121B0DE4FF8021900068E013
:100C2F0064026003020CD1900049E0FF1220427F62
:100C3F00467E001226017F01121B0DE4FF121219CE
:100C4F00020CD1900068E064027077900049E0FFD9
:100C5F001220427F647E001226017F0312121912A6
:100C6F001686EF60047F0180027F021212197FE85F
:100C7F007E03122601E4900000F0FF803B90006895
:100C8F00E06402703D900049E0FF1220427F647ED5
:100C9F0000122601E4900000F0FF801C900068E035
:100CAF00B4021F900049E0FF1220427F647E0012C1
:100CBF002601E4900000F0FF12001E8005E4900072
:100CCF0068F0900049E0FFD394004012EF94105069
:100CDF000D900068E004F07F0A7E00022601E49088
:040CEF000068F02287
:1021E700121D871224ED7FD07E07122601121EECE6
:1021F7001225D912285812286CE4FF12001E121952
:10220700D9120A4F900008E0B4010A122585E4901C
:102217000008F080E9900008E0B4021E900000E09A
:10222700FF640160D9EF640260D4122399E490003F
:1022370008F07F0AFE12260180C4900008E0B4036C
:10224700BD121D8712285812286C122585E49000AC
:0422570008F080AA61
:10046700B6A8CAB1C9E8D6C33A00BCD320D2BB00EC
:10047700B7D620D6D300BCF520D2BB00CEB400C976
:10048700E800D6C300B7D600D6D300BDF8003100C8
:1004970032003300340035003600B3F600B1A32034
:1004A70020B4E600B7B52020BBD800B1A320B4E63E
:1004B70020B3C920B9A600B1A320B4E620CAA7205B
:1004C700B0DC00B1A320B4E620D6D02E2E2E00C17A
:1004D700AACFB5C8CB3AC2BDD6BEB6AB00C1AACF6C
:1004E700B5B5E7BBB03A2031333536373430323320
:1004F700363700D7B4CCAC00D7D4B6AF00CAD6B61F
:10050700AF00BBFAD0B5B1DBB6AFD7F73A00BFD56E
:10051700CFD0003C2D2D2D002D2D2D3E00CFF2C923
:10052700CF00CFF2CFC200B4EDCEF300BFD500CFDE
:10053700D000BECD00D0F700C3A600C2B500B6A854
:10054700CAB1C9E8D6C300CAD6B6AF2FD7D4B6AF9B
:1005570000C8A1CFFBCFC2B0E000CFC2B0E0B0B4BB
:10056700BCFC00B9D820BBFA20D6D02E2E2E00B95D
:10057700D820BBFA20B3C920B9A600B2E2CAD4B3C7
:10058700CCD0F2B2B7CFFE202020202C20CEBAC18B
:10059700E9BEEA2020CEBAC1E9BEEAB9FEB9FE201B
:1005A700202020B2FAC6B7D0CDBAC53A2043483387
:1005B7003230323430422D322020352E37B4E733F3
:1005C700323078323430B5E3D5F320D6A7B3D652DC
:1005D70041383830332F524138383036BFD8D6C635
:1005E7002CD6A7B3D63556BACD332E3356B5E7D169
:1005F700B92020D6A7B3D6B4A5C3FE2CBCFCC5CC66
:10060700C9A8C3E8B9A6C4DC2020202020202020C8
:100617002020202020202020202020CFD4CABED771
:10062700D6D0CDBFC9B7C5B4F3B5BD3332783332F1
:10063700A1A2343878343820BBF2363478363420E7
:10064700202020C4DABDA8B4D6CCE5D7D6D0CED3E7
:10065700EBD0D0BEE0C9E8B6A8202020202020207B
:100667002020202020202020202020D6A7B3D6C657
:10067700C1C4BBCBAEC6BDBEEDB6AFBCB0B4B9D678
:10068700B1BEEDB6AFB9A6C4DC20202020202020C3
:10069700202020B9E2B1EAA1A2B7B4B0D7A1A2C97C
:1006A700C1CBB8B9A6C4DCA3ACB9E2B1EAB8DFB62E
:1006B700C8D3EBBFEDB6C8BFC9B5F7D6A7B3D6CE7B
:1006C700C4D7D6D3EBBBE6CDBCC1BDD6D6BBECBA3F
:1006D700CDCFD4CABEC4A3CABD202020202020204D
:1006E700202020000718204040808080E018040266
:1006F70002010101808080404020180701010102AA
:10070700020418E0071F3F7F7FFFFFFFE0F8FCFEB2
:10071700FEFFFFFFFFFFFF7F7F3F1F07FFFFFFFE7C
:10072700FEFCF8E01824428181422418183C7EFF21
:10073700FF7E3C18FFFFFFFFFFFFFFFF000001FCEC
:100747007FFC6618663066607FFE7E7A665A66DAD8
:0C0757007EB27FB2676600CE018C00000D
:0C26B500AC07122819AF0412269F7FB05A
:1026C100C2A5D2A4D2A2C2A38F80C2A3D2A3D2A5F3
:0126D10022E6
:062723007F0F1226C1FF2A
:1027290030A6FDC2A5D2A4C2A28F80C2A3D2A3D2D1
:02273900A522D7
:0A2673007FFF1226C11227297FC342
:10267D00C2A5D2A2D2A48F80C2A3D2A37580FFC25D
:09268D00A2D2A3D2A4C2A4AF8022
:012696002221
:101D8700C2A77F327E00122601D2A77F327E0012C1
:101D97002601E4FF1226C17F041227297F0112269C
:101DA700C17F081227297F031227251227237F10B7
:101DB7001227257F111227257F121226C11F1227EE
:101DC700297F201226C17F271227297F211226C1AA
:101DD7007F271227297F301226C17FEF1227297FFD
:101DE700311226C17FEF1227297F401227257F5006
:101DF7001227257F601227257F611227257F621210
:101E070027257F701227257F711227257F721227BA
:101E1700257F801227257F901226C17F80122729D0
:101E27007FE01227257FF01227257FF11226C1FFB9
:031E370002272956
:08269700900052E0FFE92AFD6A
:10269F00AE077F601226C1AF061227297F70122660
:0626AF00C1AF050227295E
:10280400E4FF12267DAE07EE54F7FEE4FF1226C164
:05281400AF06022729B8
:10281900E4FF12267DAE07EE4408FEE4FF1226C14E
:05282900AF06022729A3
:10276A007F1212267DAE07EE549F4410FE7F12128E
:06277A0026C1FF02272921
:102780007F1212267DAE07EE54BF4430FE7F121238
:0627900026C1FF0227290B
:102796007F1212267DAE07EE54F74404FE7F121216
:0627A60026C1FF022729F5
:1027AC007F1212267DAE07EE54FD4401FE7F1212FD
:0627BC0026C1FF022729DF
:1027C2007F1212267DAE07EE54FE4402FE7F1212E5
:0627D20026C1FF022729C9
:102753001228047FE01226C1E4FF1227297FF0121A
:0727630026C17FA80227290F
:10282E00E4FF12267DAE07EE54FEFEE4FF1226C133
:05283E00AF060227298E
:0926D2001227AC12275312282E26
:1026DB007F1012267DAE07EE54DFFE7F101226C14F
:0426EB00FF0227299A
:1024B900EF24FE601314601914601F240370247F35
:1024C900F11226C1E4FF80187FF11226C17F5080E6
:1024D9000F7FF11226C17FA080067FF11226C11F4E
:0424E900122729226B
:0F23EC00E075F005A404FF7BFF7A04798C7D7403
:1023FB0090004DEBF0A3EAF0A3E9F01226B59000A4
:10240B004DE0FBA3E0FAA3E0F912149760179000DC
:10241B004DA3E475F00112152DA9F0FA121497FFD4
:06242B0012272980D922CE
:0928940075F00A842430FB7D601C
:08289D001226B5AF0302272942
:101C0C009000557430F0A37401F07B147D507F0A62
:071C1C00900052EFF0A90552
:101C2300122804E4FA900055E0FFEAC39F40030240
:101C33001CCFEA701A122697E4FCECC39B40030204
:101C43001CCB7FB01226C17FFF1227290C80EBEA41
:101C5300D394004054900055E014FFEA9F504A90FB
:101C63000052E0FFE92AFD1226BC900056E0601BFB
:101C73007F801227297C01EB14FFECC39F5008E4FB
:101C8300FF1227290C80F07F0180197FFF1227297B
:101C93007C01EB14FFECC39F50087FFF1227290C34
:101CA30080F07FFF122729801F900055E0146A708F
:101CB30017122697E4FCECC39B500D7FB01226C18C
:0C1CC3007FFF1227290C80EE0A021C286B
:011CCF0022F2
:0422CE00A3F07B01FD
:0B22D200900052EFF0A3EDF0A3EBF042
:1022DD00122804E4900059F0900055E0FF90005949
:1022ED00E0C39F5042E4FC900054E0FFECC39F50CC
:1022FD002E900052E02CFF900059E0FE900053E02C
:10230D002EFD1226BC900056E0FBA3E475F00112E1
:10231D00152DA9F0FA121497FF1227290C80C890D9
:07232D000059E004F080B14B
:012334002286
:101857009000507440F0A37401F07B167D487F0917
:1018670090004DEFF0A3EDF0A3EBF0900051E09066
:10187700004D7003021926E0FFA3E0FDA3E0FBA3E0
:10188700E0900055F0A37401F0121C1C90004DE08D
:10189700FFA3E0FD9000557408F0A374FFF0A37454
:1018A70006F074EB1222CE90004DE0FF900050E05E
:1018B700FE90004EE02E24F8FD9000557408F0A32A
:1018C70074FFF0A37406F074FB1222CE90004FE071
:1018D700FF90004DE02F14FFA3E0FD900055740822
:1018E700F0A374FFF0A37406F0A374F3F07B011266
:1018F70022D290004FE0FF90004DE02F14FF9000A0
:1019070050E0FE90004EE02E24F8FD90005574083C
:10191700F0A374FFF0A37407F0A374030219D2E0D5
:10192700FFA3E0FDA3E0FBA3E0900055F0E4A3F0E4
:10193700121C1C90004DE0FFA3E0FD9000557408B9
:10194700F0A374FFF0A37407F0A3740BF07B0112EC
:1019570022D290004DE0FF900050E0FE90004EE054
:101967002E24F8FD9000557408F0A374FFF0A374BB
:1019770007F0A3741BF07B011222D290004FE0FF07
:1019870090004DE02F14FFA3E0FD9000557408F080
:10199700A374FFF0A37407F0A37413F07B01122262
:1019A700D290004FE0FF90004DE02F14FF900050C1
:1019B700E0FE90004EE02E24F8FD9000557408F0EC
:1019C700A374FFF0A37407F0A37423F07B01122222
:0219D700D2221A
:102858007FC012267DAE07EE4480FE7FC01226C1DF
:04286800FF0227291B
:10286C007FC412267DAE07EE4480FE7FC41226C1C3
:04287C00FF02272907
:1027D8007FC412267DAE07EE54FE4402FE7FC4126B
:0627E80026C1FF022729B3
:1027EE007FC412267DAE07EE44014402FE7FC41262
:0627FE0026C1FF0227299D
:10262800EF2458FFEE34FCFEE434FFFDE434FFFCF5
:10263800E47B407A01F9F81215437BB47AFC79FF00
:0526480078FF1224756B
:01264D00226A
:10264E00EF2480FFEE34FCFEE434FFFDE434FFFCA7
:10265E00E47BF0FAF9F81215437BEC7AFC79FF78FB
:04266E00FF122475BE
:012672002245
:100F9200E4F9900000E0600302102ED3EF9400EE1B
:100FA20094004027EF9460EE9400501FED94D0EC33
:100FB20094004017ED94F0EC9400500F900007E07D
:100FC2006401600302121609021216D3EF9468EE4E
:100FD2009400401DEF94D0EE94005015ED94D0ECA7
:100FE2009400400DED94F0EC940050057902021249
:100FF20016D3EF94D8EE94005003021216EF9438F1
:10100200EE94014003021216ED94D0EC94005003CA
:10101200021216ED94F0EC940040030212169000B6
:1010220007E060030212167903021216900000E034
:1010320064037032D3EF94D8EE9400500302121678
:10104200EF9438EE94014003021216ED94D0EC9422
:10105200005003021216ED94F0EC940040030212C9
:10106200167904021216900000E064016003021176
:10107200ECD3EF9428EE9400401DEF9448EE9400D8
:101082005015ED944AEC9400400DED94AEEC9400B2
:1010920050057905021216D3EF9450EE9400401DCC
:1010A200EF9470EE94005015ED944AEC9400400DCC
:1010B200ED94AEEC940050057906021216D3EF942B
:1010C20078EE9400401DEF9498EE94005015ED9444
:1010D2004AEC9400400DED94AEEC94005005790773
:1010E200021216D3EF94A0EE9400401DEF94C0EECE
:1010F20094005015ED944AEC9400400DED94AEEC42
:10110200940050057908021216D3EF94C8EE9400A9
:10111200401DEF94E8EE94005015ED944AEC9400D3
:10112200400DED94AEEC940050057909021216D3ED
:10113200EF94F0EE9400401DEF9410EE94015015E0
:10114200ED944AEC9400400DED94AEEC9400500501
:10115200790A021216D3EF94A0EE9400401DEF9488
:10116200D8EE94005015ED940CEC9400400DED94E3
:101172003CEC94005005790B021216D3EF94E8EE82
:101182009400401CEF9420EE94015014ED940CEC6A
:101192009400400CED943CEC94005004790C807463
:1011A200D3EF9470EE9400401CEF94D0EE94005074
:1011B20014ED94D0EC9400400CED94F0EC940050BB
:1011C20004790D804FD3EF94D8EE94004046EF940B
:1011D20038EE9401503EED94D0EC94004036ED94FC
:1011E200F0EC9400502E790E802A900000E0B402B8
:1011F20023D3EF94D8EE9400401AEF9438EE940182
:101202005012ED94D0EC9400400AED94F0EC94006E
:061212005002790FAF014C
:0112180022B3
:1019D900E490004AF0FE7FC41226C17F81122729B4
:1019E9007FFF1226C11227297F0F12267DEF20E3E0
:1019F90003021B07E4FD7F0F12267DEF7003FE80B3
:101A09000BEDB431027E010DEDB432EAEE70030242
:101A19001AFB1227D87F647E001226EF1227EE7F69
:101A2900647E001226EF7FC112267DAE077FFF126A
:101A390026C11227297FC212267D900049EFF01294
:101A49002673EF5403FD122673EF540CF97FFF122E
:101A590026C1122729AF067E00EF7802C333CE33A1
:101A6900CED8F9FFED5403FDEF4DFDAC06900049CA
:101A7900E07E007802C333CE33CED8F9FBAA067EC6
:101A890000E9540C7802CEC313CE13D8F9FFEE4AFD
:101A9900FEEF4BFF90004BEEF0A3EFF0C3ED94B4D3
:101AA900EC9403504DED945EEC9400404590004B4E
:101AB900E0FEA3E0FF94B0EE94035036EF945CEEA1
:101AC9009400402EAE04AF0512262890004DEEF08A
:101AD900A3EFF090004BE0FEA3E0FF12264EAD0706
:101AE900AC0690004DE0FEA3E0FF120F9290004A71
:101AF900EFF07F0F12267DEF54FEFE122723900090
:031B09004AE0FFB0
:011B0C0022B6
:0512190090004AEFF017
:10121E001227C21227539000507430F0A37401F0BD
:10122E007B077D0C7F141218679000507430F0A36A
:10123E007401F07B077D0C7F1D121867E490004B44
:10124E00F090004BE0FFC394085043EF75F008A4F4
:10125E002410F582E43400F583E090004B6010E03A
:10126E0075F005A4FF9000557464F0E4A3800FE0C0
:10127E0075F005A4FF9000557464F0A37401F07B23
:10128E00047D4A121C1C90004BE004F080B39000C9
:10129E0000E0B401139000507420F0A37401F07BB1
:1012AE000C7DD07F0E1218679000507420F0A3743E
:1012BE0001F07B0C7DD07F1B12186790004AE06016
:1012CE00031218571226D27BFF7A0479677D087FA6
:1012DE00011223FB7BFF7A0479717D127F15122395
:1012EE00FB7BFF7A0479777D267F151223FB7BFF2C
:1012FE007A04797D7D127F1E1223FB7BFF7A04799F
:10130E00777D267F1E1223FB7BFF7A0479837D6017
:10131E007F011223FB7BFF7A0479867D747F011295
:10132E0023FB7BFF7A0479897D887F011223FB9052
:10133E00004B7401F090004BE0FB75F008A4240EF6
:10134E00F582E43400F583E0FEA3E0FF7C007D3CF3
:10135E001214C290004CEFF0FEEB75F005A404FFE2
:10136E00EE12289490004BE075F005A42402FFA322
:10137E00E075F00A84E5F02430FB12289D90004BB6
:10138E001223EC90004BE075F005A404FF7BFF7A6E
:10139E0004798F7D881223FB90004BE004F0E0C3AC
:1013AE00940740917BFF7A0479837D607F2412231A
:1013BE00FB7BFF7A0479867D747F241223FB7BFFEF
:1013CE007A0479897D887F241223FB7BFF7A047946
:1013DE00927DB47F011223FB7BFF7A0479957F0601
:1013EE001223FB7BFF7A0479977F0B1223FB7BFF83
:1013FE007A0479997F101223FB7BFF7A04799B7F05
:10140E00151223FB7BFF7A04799D7F1A1223FB7B37
:10141E00FF7A04799F7F1F1223FB7BFF7A0479A149
:10142E007F241223FB900000E0B4010D7BFF7A04B1
:10143E0079A47DD87F111223FB7BFF7A0479AB7DD3
:10144E00D87F1E1223FB90004AE060379000507444
:10145E0040F0E4A3121860121C0C90004AE0B40194
:10146E00087BFF7A0479B2801390004AE07BFFB4C8
:10147E0002067A0479BE80047A0479CA7D607F0EF2
:09148E001223FB122796022780AD
:1024ED001227C21226DB1227531227AC1226DB123B
:1024FD00275312276A7F011224B97BFF7A0479D6FC
:10250D007D357F041223FB7BFF7A0479E47D537FB5
:04251D00040223FB96
:05001E0090004AEFF024
:100023001227C21227539000557420F0A37401F0D5
:100033007B08E4FDFF121C1C9000557420F0A37490
:1000430001F0E4FD7F08121C1CE490004BF09000CB
:100053004BE0FFC39408504DEF75F005A42402FF55
:100063009000557408F0A374FFF0A37407F0A37411
:100073002BF07B017D2A1222D290004BE075F00514
:10008300A42402FF9000557408F0A374FFF0A37436
:1000930007F0A3742BF07B017D3A1222D290004B20
:1000A300E004F080A9900004E0FF20E02590000325
:1000B300E0700BEFC31375F005A4240280249000B5
:1000C30003E064027060A3E0C31375F005A4240287
:1000D300803A900003E07023A3E0C31375F005A4F6
:1000E3002404FF9000557408F0A374FFF0A3740771
:1000F300F0A37433F07B017D2A8028900003E0B4E1
:100103000224A3E0C31375F005A42404FF90005553
:100113007408F0A374FFF0A37407F0A37433F07BA7
:10012300017D3A1222D2E490004BF090004BE0FFA5
:10013300C394085043EF75F008A42409F582E4340E
:1001430000F583E090004B6010E075F005A4FF908C
:1001530000557464F0E4A3800FE075F005A4FF90EC
:1001630000557464F0A37401F07B047D4A121C1CD7
:1001730090004BE004F080B390004AE0702D9000B3
:1001830007E0B401139000507420F0A37401F07BD6
:100193000C7DD0E4FF1218679000507420F0A37414
:1001A30001F07B0D7DD07F0D121867900007E07082
:1001B3001B90004AE0640260139000507420F0A387
:1001C3007401F07B0C7DD07F1B12186790004AE00E
:1001D30060031218571226D27BFF7A0479FA7D083E
:1001E3007F021223FB900007E07BFF70067A0479FD
:1001F300FF80067A0579047D087F0A1223FB7BFFC3
:100203007A0579097D087F161223FB900002E0141A
:10021300601514601A14601F146024240470287B72
:10022300FF7A05791580267BFF7A05791A801E7B74
:10023300FF7A05791F80167BFF7A057924800E7B70
:10024300FF7A05792980067BFF7A05792E7D087F61
:10025300221223FBE490004BF090004BE0FFC39489
:1002630008400302038AEF75F008A42409F582E429
:100273003400F583E0702890004BE075F005A4048A
:10028300FF7BFF7A0579337D641223FB90004BE0FB
:1002930075F005A404FF7BFF7A05793602037C9091
:1002A300004BE0FF75F008A42409F582E43400F55F
:1002B30083E064027025EF75F005A404FF7BFF7AE9
:1002C3000579397D641223FB90004BE075F005A49A
:1002D30004FF7BFF7A05793C02037C90004BE0FF2F
:1002E30060726407606EE075F008A4240CF582E484
:1002F3003400F583E0FCA3E0FDEF75F008A4240AC5
:10030300F582E43400F583E0FEA3E0C39DFFEE9C99
:10031300FE7C007D3C1214C2AA0790004BE075F0EE
:1003230005A404FFEA122894E075F005A42402FF53
:10033300EA75F00A84E5F02430FB12289D1223ECC1
:1003430090004BE075F005A404FF7BFF7A04798FDE
:100353007D88802790004BE075F005A404FF7BFFA8
:100363007A05793F7D641223FB90004BE075F0051D
:10037300A404FF7BFF7A0579427D841223FB90005E
:100383004BE004F002025C7BFF7A0479927DB47F38
:10039300011223FB7BFF7A0479957F061223FB7BF3
:1003A300FF7A0479977F0B1223FB7BFF7A047999F9
:1003B3007F101223FB7BFF7A04799B7F151223FBAB
:1003C3007BFF7A04799D7F1A1223FB7BFF7A0479E2
:1003D3009F7F1F1223FB7BFF7A0479A17F241223C3
:1003E300FB90004AE07021900007E0B4010D7BFF11
:1003F3007A0579457DD87F021223FB7BFF7A057945
:100403004E7DD87F0F1223FB90004AE0B401087B96
:10041300FF7A057958801290004AE0701390000724
:10042300E0700D7BFF7A0579617DD87F1D1223FB78
:1004330090004AE060289000507440F0E4A3121842
:1004430060121C0C90004AE07BFFB401067A057928
:100453006A80047A0579767D607F0E1223FB12276A
:040463009602278056
:102399001227AC12282E1226DB900002E0146015D9
:1023A90014601A14601F146024240470287BFF7AB7
:1023B90005791580267BFF7A05791A801E7BFF7ABD
:1023C90005791F80167BFF7A057924800E7BFF7AB9
:1023D90005792980067BFF7A05792E7D087F2212EF
:0323E90023FB22B1
:10204200AD071227C2ED121592206A01207A0220F2
:10205200BE0320BE04208B0B209C0C20AD0D20BEA5
:102062000E20BE0F000020D09000507420F0E4A398
:10207200F07B0C7DD0FF80539000507420F0E4A3DD
:10208200F07B0D7DD07F0D80429000507430F0E4E3
:10209200A3F07B077D0C7F1480319000507430F0E8
:1020A200E4A3F07B077D0C7F1D80209000507420FC
:1020B200F0E4A3F07B0C7DD07F0E800F9000507473
:0F20C20020F0E4A3F07B0C7DD07F1B1218672267
:1026EF00EF1FAC0670011E4C6010900050E004F01C
:0A26FF0070EE90004FE004F080E65A
:0127090022AD
:0826010090004AEEF0A3EFF097
:10260900E4FBFAD390004BE09B90004AE09A400E1D
:0E2619007FDE7E011226EF0BBB00010A80E57A
:012627002290
:101F980090004BE4F0A304F07F0A1228807F007EB3
:101FA8000112273BEF64EE6003022034900049F0F1
:101FB800A3F0900049E0FEA3E0FFC39408EE94006C
:101FC8005060EF25E0FFEE33FE12273BEF7F00FE67
:101FD800C007C00690004AE025E0FF900049E033C2
:101FE800FEEF2401FFE43EFE12273BEFFDD0E0FCAC
:101FF800D0E04DFD900049E0FEA3E07803C333CE66
:1020080033CED8F9240AF58274003EF583ECF0A3A8
:10201800EDF090004AE004F07098900049E004F078
:10202800809090004BE4F0A304F08007E490004B0C
:09203800F0A3F090004BA3E0FFBF
:01204100227C
:101EEC00E4900007F0900000F0FFEF75F008A424D8
:101EFC0009F582E43400F5837401F0EF75F008A461
:101F0C00240CF582E43400F583E4F0A3F00FEFB475
:101F1C0008D8E4900011F0900019F0121F98EF709F
:101F2C004E90000A7407F0A304F09000127402F0B3
:101F3C00A374D0F090001A7402F0A374D0F0900047
:101F4C00227401F0A3742CF090002A7401F0A37495
:101F5C002CF09000327401F0A3742CF090003A74C1
:101F6C0001F0A3742CF09000427407F0A304F0E489
:101F7C00900002F0A37402F0E4A3F0900006F0903D
:0B1F8C000008F0900001F0900005F04C
:011F97002227
:1016860090004CE4F0A304F07F0A122880E4FFFEE9
:10169600122843E490004AF0A3F090004AE0FEA32B
:1016A600E0FFC3EE9402501E12273BEFF46007E4FE
:1016B60090004CF0A3F090004BE004F070DC90003A
:1016C6004AE004F080D47F0A122880E490004AF0B1
:1016D600A3F090004AE0FCA3E0FD25E0FFEC33FE1A
:1016E600C006C007EDAE047803C333CE33CED8F9B7
:1016F600240EF58274003EF583E0FDD007D0061275
:10170600270A90004AE0FCA3E0FD25E0FFEC33FE4B
:10171600EF2401FFE43EFEC006C007EDAE047803E9
:10172600C333CE33CED8F9240EF58274003EF5834A
:10173600A3E0FDD007D00612270A90004BE004F084
:10174600700690004AE004F0C390004BE0940890C5
:10175600004AE0940050030216D87DEE7F007E0119
:1017660012270A7F0A122880E490004AF0A3F0901C
:10177600004AE0FEA3E0FFC39408EE9400507CEF1D
:1017860025E0FFEE33FE12273BAD0790004AE0FA54
:10179600A3E0FBAE027803C333CE33CED8F9240ED2
:1017A600F58274003EF583E06D6007E490004CF02E
:1017B600A3F0EB25E0FFEA33FEEF2401FFE43EFE53
:1017C60012273BAD0790004AE0FEA3E07803C3333F
:1017D600CE33CED8F9240EF58274003EF583A3E00D
:1017E6006D6007E490004CF0A3F090004BE004F02D
:1017F600700690004AE004F0021775E490004AF083
:10180600A3F090004AE0FEA3E0FFC39408EE940024
:101816005038EF7803C333CE33CED8F9FF240EF514
:101826008274003EF583E0FCA3E0FD740A2FF58286
:1018360074003EF583ECF0A3EDF090004BE004F06D
:1018460070C090004AE004F080B890004CA3E0FF1E
:01185600226F
:10288000AE071FEE600DE4FCFD0DED70010C4C6019
:03289000EF80F6E0
:012893002222
:0D000E00E4F5C7F5C5F5C675C380F5C4223D
:10273B0075C78375C5018FC4EEF5C375C65A75C6CB
:07274B00A500AFC212000E51
:012752002264
:10270A0075C78375C5028FC4EEF5C3AF058FC27551
:09271A00C65A75C6A50002000EA6
:1028430075C78375C5038FC4EEF5C375C65A75C6C0
:05285300A50002000ECB
:101CD000E4FBEB75F008A42409F582E43400F583F5
:101CE000E0FF64016008EF64026003021D7DEB7594
:101CF000F008A4240CF582E43400F583E475F001C7
:101D0000121517EB75F008A4240AF582E43400F5E7
:101D100083E0FEA3E0FFEB75F008A4240CF582E459
:101D20003400F583E0FCA3E0C39FEC9E402CEB6005
:101D30001764076013EB75F008A42409F582E434F6
:101D400000F5837402F08012EB75F008A4240CF502
:101D500082E43400F583E4F0A3F0EB75F008A424EA
:101D60000CF582E43400F583E0FEA3E0FF7C007D07
:101D70003C1214C2ED4C700590000804F00BEB64AB
:061D8000086003021CD202
:011D8600223A
:03000B00022521AA
:10252100C0E0C0F0C083C082C0D075D008758A20D9
:10253100758CD1900065E004F0900006E0FF640224
:102541006004EFB40103121E3AD0D0D082D083D000
:04255100F0D0E032B4
:03001B0002225B63
:10225B00C0E0C0F0C083C082C0D075D008758BA021
:10226B00758D15900067E004F0900000E064046049
:10227B0047900067E0B4C828E4F0121CD090005CD3
:10228B00E004F0700690005BE004F0900066E00460
:10229B00F0E0B4050B9000087403F0900066E4F0D6
:1022AB00900067E020E011900007E07005120CF33E
:1022BB0080031228B0122335D0D0D082D083D0F037
:0322CB00D0E0322E
:1025D900758EC0758911758A20758CD1D28CD2A956
:1025E900758BA0758D15D28ED2ABD2AFE4900067F2
:0825F900F0900065F0A3F02250
:0425590041006900D4
:101E3A00900069E0FF700930B403021EEB04F0223F
:101E4A00EF6401704920B444900006E0FFB4021A1E
:101E5A00900004E004F09000087401F0900004E09F
:101E6A00D3940E4020740EF0801BEFB4011790003B
:101E7A0004E014F09000087401F0900004E0D39498
:101E8A00C84002E4F09000697402F022804E90008B
:101E9A0069E0B4020730B4497403F02230B44290C6
:101EAA000006E0FFB4021A900004E004F090000873
:101EBA007401F0900004E0D3940E4020740EF08078
:101ECA001BEFB40117900004E014F09000087401AD
:101EDA00F0900004E0D394C84002E4F0E490006972
:021EEA00F022E4
:10255D0041005D6442005E000241005A6442005B2E
:02256D0000006C
:1007630090005DE0B40C004003020A4D900776F858
:1007730028287302079A0207A602083A02086202AF
:1007830008940208A80208E60208F1020995020982
:10079300BF0209F3020A0BE490005BF0A3F0D294CA
:1007A3000208ED900005EFF0D390005CE094029016
:1007B300005BE094005003020A4E900004E0FED375
:1007C3009F4036C2A0D2A1900001E0FCB40106C252
:1007D30092D293800EECB40206D292C2938004D2DA
:1007E30092D2939000067401F0900002F0900008FA
:1007F300E06003020A4E020984EEC39F5036D2A082
:10080300C2A1900001E0FEB40106C292D293800E11
:10081300EEB40206D292C2938004D292D293900095
:10082300067402F0900002F0900008E06003020AF0
:100833004E020984020988900004E06F6003020AF3
:100843004ED2A0D2A1D292D29390005BF0A3F090AB
:100853000002F0900008E070357402F00209BAD388
:1008630090005CE0940290005BE094005003020A65
:100873004E900004E06F6003C29422D294D2A0D2BF
:10088300A1D292D293900008E070037402F002099F
:10089300BAC2909000027403F0900008E0700374F1
:1008A30002F00209BA30B103020A4ED290E490007A
:1008B30003F0900002F0EFC313FE75F008A42409BF
:1008C300F582E43400F583E4F0EE75F008A4240C1B
:1008D300F582E43400F583E4F0A3F090000804F01B
:1008E300020990E490005BF0A3F0A3020A079000D2
:1008F30005EDF090005EE0FEA3E0FFD390005CE026
:100903009F90005BE09E5003020A4E900004E0FFBC
:10091300D39D4035C2A0D2A1900001E0FEB40106F0
:10092300C292D293800EEEB40206D292C293800496
:10093300D292D2939000067401F0900002F09000DE
:1009430008E06003020A4E8038EFC39D5037D2A0FF
:10095300C2A1900001E0FFB40106C292D293800EBF
:10096300EFB40206D292C2938004D292D293900043
:10097300067402F0900002F0900008E06003020A9F
:100983004E7402F022D2A0D2A1D292D29390005DF3
:100993008072900004E06D6003020A4ED2A0D2A1DF
:1009A300D292D29390005BF0A3F0900002F09000FB
:1009B30008E070037402F090005D8048D390005CFF
:1009C300E0940290005BE094005003020A4E900012
:1009D30004E06D6003C29422D294D2A0D2A1D29239
:1009E300D293900008E070037402F090005D8014CD
:1009F300C2919000027404F0900008E07003740246
:100A0300F090005DE004F02220B240D29190000308
:100A13007402F0E4900002F0EDC313FF75F008A434
:100A23002409F582E43400F5837401F0EF75F008CE
:100A3300A4240CF582E43400F583E4F0A3F09000E1
:0C0A43000804F090005D7464F0220022B2
:10215D0090005AE014601214603514605D24037011
:10216D0077E490005BF0A38049D390005CE094028B
:10217D0090005BE094004061C2A09000067401F0F5
:10218D00900002F0900008E070297402F080242085
:10219D00B047E490005BF0A3F0D2A0D2A19000066E
:1021AD00F0900002F0900008E070037402F0E490EB
:1021BD000004F090005AE004F022D390005CE0940B
:1021CD000290005BE094004010E4F0A3F090000456
:0A21DD00F090005A7464F022002212
:0B28A500D2A0D2A1D290D291D29222F8
:10256F0041006400410061004200620000410060D0
:01257F00005B
:100CF300900004E0FE900005E0FDD39E4005ED9ECC
:100D0300FF800C900005E0FF900004E0C39FFFEF1D
:100D1300D3940240089000017401F08005E4900030
:100D230001F0900064E01215920D54000D5B010D6B
:100D33006C020D81030D96040DAB050DBF060DD39B
:100D4300070DF9080E0D090E210A0E3A1400000FC3
:100D530090E490005A020ED712215D90005AE0648D
:100D6300646003020F91020E337D0E7F0C12076342
:100D730090005DE064646003020F91020E337D0C0A
:100D83007F0A12076390005DE064646003020F91C1
:100D9300020E337D0A7F0812076390005DE06464EE
:100DA3006003020F91020E337D087F0612076390E2
:100DB300005DE064646003020F9180747D067F042C
:100DC30012076390005DE064646003020F9180602A
:100DD3007D067F0212076390005DE0646460030296
:100DE3000F919000647414F0900000E064036003BA
:100DF300020F91020EFB7D04E4FF12076390005D76
:100E0300E064646003020F9180267D02E4FF120711
:100E13006390005DE064646003020F918012E4FD5F
:100E23007F0E12076390005DE064646003020F911C
:100E33009000647414F022900019E0FF701B90007E
:100E430009E0B40214E490005DF090005EF0A37436
:100E530002F09000647408F022900011E0FE701B11
:100E6300900009E0B40214E490005DF090005EF09D
:100E7300A37402F09000647409F022900009E070FA
:100E83001B900041E0B40214E490005DF090005E1A
:100E9300F0A37402F0900064740AF022900041E021
:100EA3007019900039E0B40212E490005DF09000F4
:100EB3005EF0A37402F0900064F022900039E070B9
:100EC3001A900031E0B40213E490005DF090005EEC
:100ED300F0A37402F090006404F022900031E070FB
:100EE3001B900029E0B40214E490005DF090005ED2
:100EF300F0A3743CF09000647404F022900029E0A5
:100F0300701B900021E0B40214E490005DF09000A7
:100F13005EF0A37402F09000647405F02290002147
:100F2300E0706BEFB4020AEEB40106E490005D805A
:100F33004C900011E0B4020D900019E0B40106E4F6
:100F430090005D8028900011E064027041900019C8
:100F5300E0B4023A90001CE0FEA3E0FFD39000153A
:100F6300E09F900014E09EE490005D4010F090003C
:100F73005EF0A3743CF09000647407F022F09000DC
:0E0F83005EF0A3743CF09000647406F022004F
:010F9100223D
:0928B0009000647414F00228A5E4
:0425800041006A00AC
:1023350090006AE01460171460211460492403704A
:102345005130950320964C90006A7401F022309527
:102355000320963890006A7402F02220950F9000B1
:1023650041E0B401087402F090000814F020960FC3
:10237500900009E0B401087402F090000814F09090
:10238500006A7403F02230950A309607E490006ADB
:04239500F022002210
:1020DD000221E7E493A3F8E493A34003F68001F211
:1020ED0008DFF48029E493A3F85407240CC8C33304
:1020FD00C4540F4420C8834004F456800146F6DFD3
:10210D00E4800B0102040810204080902555E47EE8
:10211D00019360BCA3FF543F30E509541FFEE493C7
:10212D00A360010ECF54C025E060A840B8E493A38E
:10213D00FAE493A3F8E493A3C8C582C8CAC583CAB9
:10214D00F0A3C8C582C8CAC583CADFE9DEE780BE71
:012584000056
:10149700BB010689828A83E0225002E722BBFE0253
:0914A700E32289828A83E4932286
:1014B000EF8DF0A4A8F0CF8CF0A428CE8DF0A42E50
:0214C000FE220A
:1014C200BC000BBE0029EF8DF084FFADF022E4CC0E
:1014D200F875F008EF2FFFEE33FEEC33FCEE9DECD7
:1014E200984005FCEE9DFE0FD5F0E9E4CEFD22ED1D
:1014F200F8F5F0EE8420D21CFEADF075F008EF2F67
:10150200FFED33FD4007985006D5F0F222C398FD57
:051512000FD5F0EA22F4
:10151700C5F0F8A3E028F0C5F0F8E582158270025F
:061527001583E038F022FC
:10152D00A3F8E0C5F025F0F0E58215827002158371
:06153D00E0C838F0E822CE
:10154300E88FF0A4CC8BF0A42CFCE98EF0A42CFC47
:101553008AF0EDA42CFCEA8EF0A4CDA8F08BF0A4C5
:101563002DCC3825F0FDE98FF0A42CCD35F0FCEB24
:101573008EF0A4FEA9F0EB8FF0A4CFC5F02ECD39E9
:0F158300FEE43CFCEAA42DCE35F0FDE43CFC2256
:10247500C2D5E830E70FB2D5E4C39BFBE49AFAE492
:1024850099F9E498F8EC30E717B2D51224AB121598
:10249500F4E4C39BFBE49AFAE499F9E498F8800321
:1024A5001215F430D50DE4C39FFFE49EFEE49DFDB7
:0424B500E49CFC2285
:10159200D083D082F8E4937012740193700DA3A3E8
:1015A20093F8740193F5828883E4737402936860FC
:0615B200EFA3A3A380DFFC
:1015B80075F008758200EF2FFFEE33FECD33CDCCEA
:1015C80033CCC58233C5829BED9AEC99E58298406D
:1015D8000CF582EE9BFEED9AFDEC99FC0FD5F0D64A
:1015E800E4CEFBE4CDFAE4CCF9A88222B800C1B974
:1015F8000059BA002DEC8BF084CFCECDFCE5F0CBB2
:10160800F97818EF2FFFEE33FEED33FDEC33FCEBEA
:1016180033FB10D703994004EB99FB0FD8E5E4F9A5
:10162800FA227818EF2FFFEE33FEED33FDEC33FC92
:10163800C933C910D7059BE99A4007EC9BFCE99A86
:10164800F90FD8E0E4C9FAE4CCFB2275F010EF2FCB
:10165800FFEE33FEED33FDCC33CCC833C810D707CB
:101668009BEC9AE899400AED9BFDEC9AFCE899F806
:0E1678000FD5F0DAE4CDFBE4CCFAE4C8F92299
:00000001FF
