:030000000220AA31
:0C20AA00787FE4F6D8FD75810F0220F16C
:0424CB004100660066
:1024FB00900000E014601114601214601414601545
:10250B0024047016E4FF800FE4FF80027F01020FAA
:0B251B00B87F0180027F0212001E2228
:1023DB00E4FFEF75F008A42409F582E43400F583DB
:1023EB00E0FCA3E0FDEF75F008A4240DF582E434C6
:1023FB0000F583ECF0A3EDF0EF75F008A4240FF5D6
:10240B0082E43400F583E4F00FEFB408C5900017B5
:03241B007401F059
:01241E00229B
:10252600E4FEEE75F008A4240FF582E43400F5838A
:10253600E4F00EEEB408EBEF75F008A4240FF58274
:08254600E43400F5837401F098
:01254E00226A
:101AF400E4FEEE75F008A4240FF582E43400F583C7
:101B0400E0B40102AB060EEEB408E7EF6077EB75C4
:101B1400F008A4240DF582E43400F583E0FEA3E08C
:101B2400FF7C007D3C1214A9EF24FFFFEE34FFFE7E
:101B34007C007D3C121497EB75F008A4240DF5820B
:101B4400E43400F583EEF0A3EFF0EB75F008A42481
:101B54000DF582E43400F583E0FEA3E0FFD394089E
:101B6400EE9407500BEF9400EE94004003021BF236
:101B7400EB75F008A4240DF582E43400F5837407B2
:101B8400F0A304F022EB75F008A4240DF582E434EC
:101B940000F583E0FEA3E0FF7C007D3C1214A9EF76
:101BA4002401FFE43EFE7C007D3C121497EB75F0AB
:101BB40008A4240DF582E43400F583EEF0A3EFF0DD
:101BC400EB75F008A4240DF582E43400F583E0FEFF
:101BD400A3E0D39408EE94074014EB75F008A42412
:0E1BE4000DF582E43400F583E4F0A3743CF0C8
:011BF20022D0
:100A8D00900048EFF0B410004003020D0A900AA147
:100A9D00F8282873020AD1020AD4020AFA020B2896
:100AAD00020B4D020B70020B94020BB8020BDC0211
:100ABD000C00020C23020C46020C69020C90020C75
:100ACD00CA020CE9020D0A900066E064026003029E
:100ADD000D0F900048E0FF12201B7F647E00122551
:100AED004F9000007401F01223DB020BB3900066EF
:100AFD00E064026003020D0F900048E0FF12201B1E
:100B0D007F647E0012254F900006E0B40104E4F0EE
:100B1D0080069000067401F0E48044900066E06465
:100B2D00026003020D0F900048E0FF12201B7F644E
:100B3D007E0012254F9000007403F07F01020D0519
:100B4D00900066E064026003020D0F900048E0FF24
:100B5D0012201B7F647E0012254FE4900000F0FFF1
:100B6D00020D05900066E064026003020D0F900017
:100B7D0048E0FF12201B7F647E0012254F7F01127B
:100B8D002526E41F020C8A900066E06402600302D1
:100B9D000D0F900048E0FF12201B7F647E00122590
:100BAD004F7F02122526E4FF020C8A900066E06456
:100BBD00026003020D0F900048E0FF12201B7F64BE
:100BCD007E0012254F7F03122526E4FF020C8A902A
:100BDD000066E064026003020D0F900048E0FF1212
:100BED00201B7F647E0012254F7F04122526E4FF13
:100BFD00020C8A900066E064026003020D0F900003
:100C0D0048E0FF12201B7F647E0012254F7F0512E6
:100C1D002526E4FF8067900066E064026003020D04
:100C2D000F900048E0FF12201B7F647E0012254FBD
:100C3D007F06122526E4FF8044900066E064026082
:100C4D0003020D0F900048E0FF12201B7F467E002F
:100C5D0012254FE4FF121AF4E4FF8021900066E0A4
:100C6D0064026003020D0F900048E0FF12201B7F0D
:100C7D00467E0012254F7F01121AF4E4FF120FB8C1
:100C8D00020D0F900066E064027077900048E0FF5F
:100C9D0012201B7F647E0012254F7F03120FB812A6
:100CAD00166DEF60047F0180027F02120FB87FE89E
:100CBD007E0312254FE4900000F0FF803B9000660C
:100CCD00E06402703D900048E0FF12201B7F647EBF
:100CDD000012254FE4900000F0FF801C900066E0AC
:100CED00B4021F900048E0FF12201B7F647E0012AB
:100CFD00254FE4900000F0FF12001E8005E49000E7
:100D0D0066F0900048E0FFD394004012EF9410502D
:100D1D000D900066E004F07F0A7E0002254FE490FE
:040D2D000066F0224A
:1022E900121CB71224977FD07E0712254F121F7731
:1022F9001225C31227F3122807E4FF12001E121930
:10230900C0120A8D900007E0B4010A1224FBE49080
:102319000007F080E9900007E0B402E2900000E0D5
:10232900FF640160D9EF640260D4122343E4900092
:0A23390007F07F0AFE12254F80C452
:10079100B6A8CAB1C9E8D6C33A00BCD320D2BB00BF
:1007A100B7D620D6D300BCF520D2BB00CEB400C949
:1007B100E800D6C300B7D600D6D300BDF80031009B
:1007C10032003300340035003600B3F600B1A32007
:1007D10020B4E600B7B52020BBD800B1A320B4E611
:1007E10020B3C920B9A600B1A320B4E620CAA7202E
:1007F100B0DC00B1A320B4E620D6D02E2E2E00C14D
:10080100AACFB5C8CB3AC2BDD6BEB6AB00C1AACF3E
:10081100B5B5E7BBB03A20313335363734303233F2
:10082100363700D7B4CCAC00D7D4B6AF00CAD6B6F1
:10083100AF00BBFAD0B5B1DBB6AFD7F73A00BFD541
:10084100CFD0003C2D2D2D002D2D2D3E00CFF2C9F6
:10085100CF00CFF2CFC200B4EDCEF300BFD500CFB1
:10086100D000BECD00D0F700C3A600C2B500B6A827
:10087100CAB1C9E8D6C300CAD6B6AF2FD7D4B6AF6E
:1008810000C8A1CFFBCFC2B0E000CFC2B0E0B0B48E
:10089100BCFC00B9D820BBFA20D6D02E2E2E00B930
:1008A100D820BBFA20B3C920B9A600B2E2CAD4B39A
:1008B100CCD0F2B2B7CFFE202020202C20CEBAC15E
:1008C100E9BEEA2020CEBAC1E9BEEAB9FEB9FE20EE
:1008D100202020B2FAC6B7D0CDBAC53A204348335A
:1008E1003230323430422D322020352E37B4E733C6
:1008F100323078323430B5E3D5F320D6A7B3D652AF
:1009010041383830332F524138383036BFD8D6C607
:100911002CD6A7B3D63556BACD332E3356B5E7D13B
:10092100B92020D6A7B3D6B4A5C3FE2CBCFCC5CC38
:10093100C9A8C3E8B9A6C4DC20202020202020209B
:100941002020202020202020202020CFD4CABED744
:10095100D6D0CDBFC9B7C5B4F3B5BD3332783332C4
:10096100A1A2343878343820BBF2363478363420BA
:10097100202020C4DABDA8B4D6CCE5D7D6D0CED3BA
:10098100EBD0D0BEE0C9E8B6A8202020202020204E
:100991002020202020202020202020D6A7B3D6C62A
:1009A100C1C4BBCBAEC6BDBEEDB6AFBCB0B4B9D64B
:1009B100B1BEEDB6AFB9A6C4DC2020202020202096
:1009C100202020B9E2B1EAA1A2B7B4B0D7A1A2C94F
:1009D100C1CBB8B9A6C4DCA3ACB9E2B1EAB8DFB601
:1009E100C8D3EBBFEDB6C8BFC9B5F7D6A7B3D6CE4E
:1009F100C4D7D6D3EBBBE6CDBCC1BDD6D6BBECBA12
:100A0100CDCFD4CABEC4A3CABD202020202020201F
:100A1100202020000718204040808080E018040238
:100A2100020101018080804040201807010101027C
:100A3100020418E0071F3F7F7FFFFFFFE0F8FCFE85
:100A4100FEFFFFFFFFFFFF7F7F3F1F07FFFFFFFE4F
:100A5100FEFCF8E01824428181422418183C7EFFF4
:100A6100FF7E3C18FFFFFFFFFFFFFFFF000001FCBF
:100A71007FFC6618663066607FFE7E7A665A66DAAB
:0C0A81007EB27FB2676600CE018C0000E0
:0C265000AC071227B4AF0412263A7FB08A
:10265C00C2A5D2A4D2A2C2A38F80C2A3D2A3D2A558
:01266C00224B
:0626BE007F0F12265CFFF5
:1026C40030A6FDC2A5D2A4C2A28F80C2A3D2A3D237
:0226D400A5223D
:0A260E007FFF12265C1226C47FC372
:10261800C2A5D2A2D2A48F80C2A3D2A37580FFC2C2
:09262800A2D2A3D2A4C2A4AF8087
:012631002286
:101CB700C2A77F327E0012254FD2A77F327E001245
:101CC700254FE4FF12265C7F041226C47F011226EB
:101CD7005C7F081226C47F031226C01226BE7F101F
:101CE7001226C07F111226C07F1212265C1F1226F1
:101CF700C47F2012265C7F271226C47F2112265C10
:101D07007F271226C47F3012265C7FEF1226C47FFE
:101D17003112265C7FEF1226C47F401226C07F5007
:101D27001226C07F601226C07F611226C07F621212
:101D370026C07F701226C07F711226C07F721226BE
:101D4700C07F801226C07F9012265C7F801226C437
:101D57007FE01226C07FF01226C07FF112265CFFBB
:031D67000226C48D
:08263200900051E0FFE92AFDD0
:10263A00AE077F6012265CAF061226C47F70122690
:06264A005CAF050226C48E
:10279F00E4FF122618AE07EE54F7FEE4FF12265C94
:0527AF00AF060226C484
:1027B400E4FF122618AE07EE4408FEE4FF12265C7E
:0527C400AF060226C46F
:102705007F12122618AE07EE549F4410FE7F121258
:06271500265CFF0226C451
:10271B007F12122618AE07EE54BF4430FE7F121202
:06272B00265CFF0226C43B
:102731007F12122618AE07EE54F74404FE7F1212E0
:06274100265CFF0226C425
:102747007F12122618AE07EE54FD4401FE7F1212C7
:06275700265CFF0226C40F
:10275D007F12122618AE07EE54FE4402FE7F1212AF
:06276D00265CFF0226C4F9
:1026EE0012279F7FE012265CE4FF1226C47FF012B1
:0726FE00265C7FA80226C440
:1027C900E4FF122618AE07EE54FEFEE4FF12265C63
:0527D900AF060226C45A
:09266D001227471226EE1227C9BC
:102676007F10122618AE07EE54DFFE7F1012265C7E
:04268600FF0226C465
:10246300EF24FE601314601914601F240370247F8B
:10247300F112265CE4FF80187FF112265C7F508006
:102483000F7FF112265C7FA080067FF112265C1F6E
:042493001226C42227
:0F239600E075F005A404FF7BFF7A0779B67D742C
:1023A50090004CEBF0A3EAF0A3E9F0122650900060
:1023B5004CE0FBA3E0FAA3E0F912147E601790004D
:1023C5004CA3E475F001121514A9F0FA12147EFF5E
:0623D5001226C480D9228B
:09282F0075F00A842430FB7D6081
:08283800122650AF030226C472
:101BF3009000547430F0A37401F07B147D507F0A7D
:071C0300900051EFF0A9056C
:101C0A0012279FE4FA900054E0FFEAC39F400302C0
:101C1A001CB6EA701A122632E4FCECC39B4003029B
:101C2A001CB27FB012265C7FFF1226C40C80EBEA3E
:101C3A00D394004054900054E014FFEA9F504A9015
:101C4A000051E0FFE92AFD122657900055E0601B7B
:101C5A007F801226C47C01EB14FFECC39F5008E47A
:101C6A00FF1226C40C80F07F0180197FFF1226C460
:101C7A007C01EB14FFECC39F50087FFF1226C40CB3
:101C8A0080F07FFF1226C4801F900054E0146A700F
:101C9A0017122632E4FCECC39B500D7FB012265C6F
:0C1CAA007FFF1226C40C80EE0A021C0F03
:011CB600220B
:0421C000A3F07B010C
:0B21C400900051EFF0A3EDF0A3EBF052
:1021CF0012279FE4900058F0900054E0FF900058C1
:1021DF00E0C39F5042E4FC900053E0FFECC39F50DC
:1021EF002E900051E02CFF900058E0FE900052E03E
:1021FF002EFD122657900055E0FBA3E475F0011257
:10220F001514A9F0FA12147EFF1226C40C80C89080
:07221F000058E004F080B15B
:012226002295
:10183E0090004F7440F0A37401F07B167D487F0931
:10184E0090004CEFF0A3EDF0A3EBF0900050E09081
:10185E00004C700302190DE0FFA3E0FDA3E0FBA313
:10186E00E0900054F0A37401F0121C0390004CE0C1
:10187E00FFA3E0FD9000547408F0A374FFF0A3746E
:10188E000AF074151221C090004CE0FF90004FE05A
:10189E00FE90004DE02E24F8FD9000547408F0A345
:1018AE0074FFF0A3740AF074251221C090004EE06C
:1018BE00FF90004CE02F14FFA3E0FD90005474083D
:1018CE00F0A374FFF0A3740AF0A3741DF07B011251
:1018DE0021C490004EE0FF90004CE02F14FF9000CA
:1018EE004FE0FE90004DE02E24F8FD900054740859
:1018FE00F0A374FFF0A3740AF0A3742D0219B9E0DB
:10190E00FFA3E0FDA3E0FBA3E0900054F0E4A3F0FE
:10191E00121C0390004CE0FFA3E0FD9000547408ED
:10192E00F0A374FFF0A3740AF0A37435F07B0112D8
:10193E0021C490004CE0FF90004FE0FE90004DE07F
:10194E002E24F8FD9000547408F0A374FFF0A374D5
:10195E000AF0A37445F07B011221C490004EE0FF03
:10196E0090004CE02F14FFA3E0FD9000547408F09B
:10197E00A374FFF0A3740AF0A3743DF07B0112214F
:10198E00C490004EE0FF90004CE02F14FF90004FEB
:10199E00E0FE90004DE02E24F8FD9000547408F007
:1019AE00A374FFF0A3740AF0A3744DF07B0112210F
:0219BE00C42241
:1027F3007FC0122618AE07EE4480FE7FC012265C0F
:04280300FF0226C4E6
:102807007FC4122618AE07EE4480FE7FC412265CF2
:04281700FF0226C4D2
:102773007FC4122618AE07EE54FE4402FE7FC41235
:06278300265CFF0226C4E3
:102789007FC4122618AE07EE44014402FE7FC4122C
:06279900265CFF0226C4CD
:10259D00EF2458FFEE34FCFEE434FFFDE434FFFC81
:1025AD00E47B407A01F9F812152A7BB47AFC79FFA5
:0525BD0078FF12241F4D
:0125C20022F6
:1025E900EF2480FFEE34FCFEE434FFFDE434FFFC0D
:1025F900E47BF0FAF9F812152A7BEC7AFC79FF787A
:04260900FF12241F79
:01260D0022AA
:100D3100E4F9900000E06003020DCDD3EF9400EEE2
:100D410094004027EF9460EE9400501FED94D0EC96
:100D510094004017ED94F0EC9400500F900006E0E1
:100D610064016003020FB509020FB5D3EF9468EE79
:100D71009400401DEF94D0EE94005015ED94D0EC0A
:100D81009400400DED94F0EC940050057902020FAF
:100D9100B5D3EF94D8EE94005003020FB5EF943819
:100DA100EE94014003020FB5ED94D0EC9400500392
:100DB100020FB5ED94F0EC94004003020FB59000E2
:100DC10006E06003020FB57903020FB5900000E061
:100DD10064037032D3EF94D8EE94005003020FB540
:100DE100EF9438EE94014003020FB5ED94D0EC94EA
:100DF100005003020FB5ED94F0EC94004003020F94
:100E0100B57904020FB5900000E064016003020FA0
:100E11008BD3EF9428EE9400401DEF9448EE94009C
:100E21005015ED944AEC9400400DED94AEEC940015
:100E310050057905020FB5D3EF9450EE9400401D93
:100E4100EF9470EE94005015ED944AEC9400400D2F
:100E5100ED94AEEC940050057906020FB5D3EF94F2
:100E610078EE9400401DEF9498EE94005015ED94A7
:100E71004AEC9400400DED94AEEC940050057907D6
:100E8100020FB5D3EF94A0EE9400401DEF94C0EE95
:100E910094005015ED944AEC9400400DED94AEECA5
:100EA100940050057908020FB5D3EF94C8EE940071
:100EB100401DEF94E8EE94005015ED944AEC940037
:100EC100400DED94AEEC940050057909020FB5D3B5
:100ED100EF94F0EE9400401DEF9410EE9401501544
:100EE100ED944AEC9400400DED94AEEC9400500565
:100EF100790A020FB5D3EF94A0EE9400401DEF9450
:100F0100D8EE94005015ED940CEC9400400DED9446
:100F11003CEC94005005790B020FB5D3EF94E8EE49
:100F21009400401CEF9420EE94015014ED940CECCD
:100F31009400400CED943CEC94005004790C8074C6
:100F4100D3EF9470EE9400401CEF94D0EE940050D7
:100F510014ED94D0EC9400400CED94F0EC9400501E
:100F610004790D804FD3EF94D8EE94004046EF946E
:100F710038EE9401503EED94D0EC94004036ED945F
:100F8100F0EC9400502E790E802A900000E0B4021B
:100F910023D3EF94D8EE9400401AEF9438EE9401E5
:100FA1005012ED94D0EC9400400AED94F0EC9400D2
:060FB1005002790FAF01B0
:010FB7002217
:1019C000E4900049F0FE7FC412265C7F811226C499
:1019D0007FFF12265C1226C47F0F122618EF20E329
:1019E00003021AEEE4FD7F0F122618EF7003FE804B
:1019F0000BEDB431027E010DEDB432EAEE7003025C
:101A00001AE21227737F647E0012268A1227897FCA
:101A1000647E0012268A7FC1122618AE077FFF124D
:101A2000265C1226C47FC2122618900048EFF012DE
:101A3000260EEF5403FD12260EEF540CF97FFF1211
:101A4000265C1226C4AF067E00EF7802C333CE3385
:101A5000CED8F9FFED5403FDEF4DFDAC06900048E4
:101A6000E07E007802C333CE33CED8F9FBAA067EDF
:101A700000E9540C7802CEC313CE13D8F9FFEE4A16
:101A8000FEEF4BFF90004AEEF0A3EFF0C3ED94B4ED
:101A9000EC9403504DED945EEC9400404590004A68
:101AA000E0FEA3E0FF94B0EE94035036EF945CEEBA
:101AB0009400402EAE04AF0512259D90004CEEF030
:101AC000A3EFF090004AE0FEA3E0FF1225E9AD0786
:101AD000AC0690004CE0FEA3E0FF120D31900049EF
:101AE000EFF07F0F122618EF54FEFE1226BE900074
:031AF00049E0FFCB
:011AF30022D0
:050FB800900049EFF07C
:100FBD0012275D1226EE90004F7430F0A37401F0ED
:100FCD007B077D0C7F1412184E90004F7430F0A3E8
:100FDD007401F07B077D0C7F1D12184EE490004AC2
:100FED00F090004AE0FFC394085043EF75F008A459
:100FFD00240FF582E43400F583E090004A6010E0A0
:10100D0075F005A4FF9000547464F0E4A3800FE024
:10101D0075F005A4FF9000547464F0A37401F07B87
:10102D00047D4A121C0390004AE004F080B3900046
:10103D0000E0B4011390004F7420F0A37401F07B15
:10104D000C7DD07F0E12184E90004F7420F0A374BB
:10105D0001F07B0C7DD07F1B12184E900049E06093
:10106D000312183E12266D7BFF7A0779917D087F5A
:10107D00011223A57BFF7A07799B7D127F15122321
:10108D00A57BFF7A0779A17D267F151223A57BFF0E
:10109D007A0779A77D127F1E1223A57BFF7A077928
:1010AD00A17D267F1E1223A57BFF7A0779AD7D607A
:1010BD007F011223A57BFF7A0779B07D747F011222
:1010CD0023A57BFF7A0779B37D887F011223A59035
:1010DD00004A7401F090004AE0FB75F008A4240D5D
:1010ED00F582E43400F583E0FEA3E0FF7C007D3C57
:1010FD001214A990004BEFF0FEEB75F005A404FF60
:10110D00EE12282F90004AE075F005A42402FFA3EB
:10111D00E075F00A84E5F02430FB12283890004A7F
:10112D0012239690004AE075F005A404FF7BFF7A28
:10113D000779B97D881223A590004AE004F0E0C339
:10114D00940740917BFF7A0779AD7D607F24122350
:10115D00A57BFF7A0779B07D747F241223A57BFFD1
:10116D007A0779B37D887F241223A57BFF7A0779CF
:10117D00BC7DB47F011223A57BFF7A0779BF7F0663
:10118D001223A57BFF7A0779C17F0B1223A57BFF65
:10119D007A0779C37F101223A57BFF7A0779C57F64
:1011AD00151223A57BFF7A0779C77F1A1223A57B1A
:1011BD00FF7A0779C97F1F1223A57BFF7A0779CBA9
:1011CD007F241223A5900000E0B4010D7BFF7A0768
:1011DD0079CE7DD87F111223A57BFF7A0779D57D36
:1011ED00D87F1E1223A5900049E0603790004F7400
:1011FD0040F0E4A3121847121BF3900049E0B4012C
:10120D00087BFF7A0779DC8013900049E07BFFB4FF
:10121D0002067A0779E880047A0779F47D607F0EFB
:09122D001223A512273102271B30
:1024970012275D1226761226EE122747122676128B
:1024A70026EE1227057F011224637BFF7A08790045
:1024B7007D357F041223A57BFF7A08790E7D537F34
:0424C700040223A543
:05001E00900049EFF025
:1000230012275D1226EE9000547420F0A37401F0A1
:100033007B08E4FDFF121C039000547420F0A374AA
:1000430001F0E4FD7F08121C03E490004AF09000E5
:100053004AE0FFC39408504DEF75F005A42402FF56
:100063009000547408F0A374FFF0A3740AF0A3740F
:1000730055F07B017D2A1221C490004AE075F005FA
:10008300A42402FF9000547408F0A374FFF0A37437
:100093000AF0A37455F07B017D3A1221C490004A03
:1000A300E004F080A9900003E0FF20E02590000227
:1000B300E0700BEFC31375F005A4240280249000B5
:1000C30002E064027060A3E0C31375F005A4240288
:1000D300803A900002E07023A3E0C31375F005A4F7
:1000E3002404FF9000547408F0A374FFF0A3740A6F
:1000F300F0A3745DF07B017D2A8028900002E0B4B8
:100103000224A3E0C31375F005A42404FF90005454
:100113007408F0A374FFF0A3740AF0A3745DF07B7A
:10012300017D3A1221C4E490004AF090004AE0FFB6
:10013300C394085043EF75F008A42408F582E4340F
:1001430000F583E090004A6010E075F005A4FF908D
:1001530000547464F0E4A3800FE075F005A4FF90ED
:1001630000547464F0A37401F07B047D4A121C03F1
:1001730090004AE004F080B3900049E0702D9000B5
:1001830006E0B4011390004F7420F0A37401F07BD8
:100193000C7DD0E4FF12184E90004F7420F0A3742E
:1001A30001F07B0D7DD07F0D12184E900006E0709C
:1001B3001B900049E06402601390004F7420F0A389
:1001C3007401F07B0C7DD07F1B12184E900049E028
:1001D300600312183E12266D7BFF7A0879247D088E
:1001E3007F021223A5900006E07BFF70067A087950
:1001F3002980067A08792E7D087F0A1223A57BFFC2
:100203007A0879337D087F161223A5900001E01444
:10021300601514601A14601F146024240470287B72
:10022300FF7A08793F80267BFF7A087944801E7B1A
:10023300FF7A08794980167BFF7A08794E800E7B16
:10024300FF7A08795380067BFF7A0879587D087F07
:10025300221223A5E490004AF090004AE0FFC394E1
:1002630008400302038AEF75F008A42408F582E42A
:100273003400F583E0702890004AE075F005A4048B
:10028300FF7BFF7A08795D7D641223A590004AE025
:1002930075F005A404FF7BFF7A08796002037C9064
:1002A300004AE0FF75F008A42408F582E43400F561
:1002B30083E064027025EF75F005A404FF7BFF7AE9
:1002C3000879637D641223A590004AE075F005A4C4
:1002D30004FF7BFF7A08796602037C90004AE0FF03
:1002E30060726407606EE075F008A4240BF582E485
:1002F3003400F583E0FCA3E0FDEF75F008A42409C6
:10030300F582E43400F583E0FEA3E0C39DFFEE9C99
:10031300FE7C007D3C1214A9AA0790004AE075F008
:1003230005A404FFEA12282FE075F005A42402FFB8
:10033300EA75F00A84E5F02430FB1228381223967C
:1003430090004AE075F005A404FF7BFF7A0779B9B2
:100353007D88802790004AE075F005A404FF7BFFA9
:100363007A0879697D641223A590004AE075F00547
:10037300A404FF7BFF7A08796C7D841223A5900087
:100383004AE004F002025C7BFF7A0779BC7DB47F0C
:10039300011223A57BFF7A0779BF7F061223A57B72
:1003A300FF7A0779C17F0B1223A57BFF7A0779C3F5
:1003B3007F101223A57BFF7A0779C57F151223A52A
:1003C3007BFF7A0779C77F1A1223A57BFF7A077908
:1003D300C97F1F1223A57BFF7A0779CB7F241223C2
:1003E300A5900049E07021900006E0B4010D7BFF69
:1003F3007A08796F7DD87F021223A57BFF7A08796B
:10040300787DD87F0F1223A5900049E0B401087BC3
:10041300FF7A0879828012900049E07013900006F9
:10042300E0700D7BFF7A08798B7DD87F1D1223A5A1
:10043300900049E0602890004F7440F0E4A3121844
:1004430047121BF3900049E07BFFB401067A087959
:100453009480047A0879A07D607F0E1223A5122769
:040463003102271B20
:102343001227471227C9122676900001E014601560
:1023530014601A14601F146024240470287BFF7A0D
:1023630008793F80267BFF7A087944801E7BFF7AB9
:1023730008794980167BFF7A08794E800E7BFF7AB5
:1023830008795380067BFF7A0879587D087F2212EB
:0323930023A5225D
:10201B00AD0712275DED12157920430120530220E5
:10202B00970320970420640B20750C20860D2097B6
:10203B000E20970F000020A990004F7420F0E4A30E
:10204B00F07B0C7DD0FF805390004F7420F0E4A305
:10205B00F07B0D7DD07F0D804290004F7430F0E40B
:10206B00A3F07B077D0C7F14803190004F7430F010
:10207B00E4A3F07B077D0C7F1D802090004F742024
:10208B00F0E4A3F07B0C7DD07F0E800F90004F749B
:0F209B0020F0E4A3F07B0C7DD07F1B12184E22A7
:10268A00EF1FAC0670011E4C601090004FE004F082
:0A269A0070EE90004EE004F080E6C0
:0126A4002213
:08254F00900049EEF0A3EFF04B
:10255700E4FBFAD390004AE09B900049E09A400ED2
:0E2567007FDE7E0112268A0BBB00010A80E592
:012575002243
:101ECD0090004AE4F0A304F07F0A12281B7F007EE5
:101EDD00011226D6EF64EE6003021F69900048F0F0
:101EED00A3F0900048E0FEA3E0FFC39408EE940039
:101EFD005060EF25E0FFEE33FE1226D6EF7F00FE99
:101F0D00C007C006900049E025E0FF900048E0338F
:101F1D00FEEF2401FFE43EFE1226D6EFFDD0E0FCDD
:101F2D00D0E04DFD900048E0FEA3E07803C333CE32
:101F3D0033CED8F92409F58274003EF583ECF0A375
:101F4D00EDF0900049E004F07098900048E004F046
:101F5D00809090004AE4F0A304F08007E490004ADA
:091F6D00F0A3F090004AA3E0FF8C
:011F76002248
:101F7700E4900006F0900000F0FFEF75F008A4244D
:101F870008F582E43400F5837401F0EF75F008A4D6
:101F9700240BF582E43400F583E4F0A3F00FEFB4EB
:101FA70008D8E4900010F0121ECDEF704E90000993
:101FB7007407F0A304F09000117402F0A374D0F03A
:101FC7009000197402F0A374D0F09000217401F00E
:101FD700A3742CF09000297401F0A3742CF09000E6
:101FE700317401F0A3742CF09000397401F0A374DC
:101FF7002CF09000417407F0A304F0E4900001F086
:10200700A37402F0E4A3F0900005F0900007F090AD
:032017000004F0D2
:01201A0022A3
:10166D0090004BE4F0A304F07F0A12281BE4FFFE68
:10167D001227DEE4900049F0A3F0900049E0FEA3AC
:10168D00E0FFC3EE9402501E1226D6EFF46007E47D
:10169D0090004BF0A3F090004AE004F070DC900055
:1016AD0049E004F080D47F0A12281BE4900049F031
:1016BD00A3F0900049E0FCA3E0FD25E0FFEC33FE34
:1016CD00C006C007EDAE047803C333CE33CED8F9D0
:1016DD00240DF58274003EF583E0FDD007D006128F
:1016ED0026A5900049E0FCA3E0FD25E0FFEC33FECC
:1016FD00EF2401FFE43EFEC006C007EDAE04780303
:10170D00C333CE33CED8F9240DF58274003EF58364
:10171D00A3E0FDD007D0061226A590004AE004F004
:10172D007006900049E004F0C390004AE0940890E0
:10173D000049E0940050030216BF7DEE7F007E014C
:10174D001226A57F0A12281BE4900049F0A3F09001
:10175D000049E0FEA3E0FFC39408EE9400507CEF37
:10176D0025E0FFEE33FE1226D6AD07900049E0FAD4
:10177D00A3E0FBAE027803C333CE33CED8F9240DEC
:10178D00F58274003EF583E06D6007E490004BF048
:10179D00A3F0EB25E0FFEA33FEEF2401FFE43EFE6C
:1017AD001226D6AD07900049E0FEA3E07803C333BF
:1017BD00CE33CED8F9240DF58274003EF583A3E027
:1017CD006D6007E490004BF0A3F090004AE004F048
:1017DD007006900049E004F002175CE4900049F0B7
:1017ED00A3F0900049E0FEA3E0FFC39408EE94003F
:1017FD005038EF7803C333CE33CED8F9FF240DF52F
:10180D008274003EF583E0FCA3E0FD74092FF582A0
:10181D0074003EF583ECF0A3EDF090004AE004F087
:10182D0070C0900049E004F080B890004BA3E0FF39
:01183D002288
:10281B00AE071FEE600DE4FCFD0DED70010C4C607E
:03282B00EF80F645
:01282E002287
:0D000E00E4F5C7F5C5F5C675C380F5C4223D
:1026D60075C78375C5018FC4EEF5C375C65A75C631
:0726E600A500AFC212000EB7
:0126ED0022CA
:1026A50075C78375C5028FC4EEF5C3AF058FC275B7
:0926B500C65A75C6A50002000E0C
:1027DE0075C78375C5038FC4EEF5C375C65A75C626
:0527EE00A50002000E31
:101E1C00E4FBEB75F008A42408F582E43400F583A8
:101E2C00E064016003021EC3EB75F008A4240BF5FB
:101E3C0082E43400F583E475F0011214FEEB75F0C6
:101E4C0008A42409F582E43400F583E0FEA3E0FF46
:101E5C00EB75F008A4240BF582E43400F583E0FC68
:101E6C00A3E0C39FEC9E402CEB601764076013EB60
:101E7C0075F008A42408F582E43400F5837402F0AC
:101E8C008012EB75F008A4240BF582E43400F58382
:101E9C00E4F0A3F0EB75F008A4240BF582E4340015
:101EAC00F583E0FEA3E0FF7C007D3C1214A9ED4C11
:101EBC00700590000704F00BEB64086003021E1E13
:011ECC0022F3
:03000B0002257655
:10257600C0E0C0F0C083C082C0D075D008758A2084
:10258600758CD1900064E004F0121D6AD0D0D08220
:07259600D083D0F0D0E03249
:03001B0002228B33
:10228B00C0E0C0F0C083C082C0D075D008758BA0F1
:10229B00758D15900065E004F0900000E06404601B
:1022AB0032900065E0B4C813E4F0121E1C90005B82
:1022BB00E004F0700690005AE004F0900065E02016
:1022CB00E011900006E07005121236800312284BC5
:0E22DB00122227D0D0D082D083D0F0D0E032B3
:1025C300758EC0758911758A20758CD1D28CD2A96C
:1025D300758BA0758D15D28ED2ABD2AFE49000650A
:0625E300F0900064F022FC
:0424CF004100670061
:101D6A00900067E0FF700930B403021E1B04F022E2
:101D7A00EF6401704920B444900005E0FFB4021AF0
:101D8A00900003E004F09000077401F0900003E073
:101D9A00D3940E4020740EF0801BEFB4011790000C
:101DAA0003E014F09000077401F0900003E0D3946C
:101DBA00C84002E4F09000677402F022804E90005E
:101DCA0067E0B4020730B4497403F02230B4429099
:101DDA000005E0FFB4021A900003E004F090000747
:101DEA007401F0900003E0D3940E4020740EF0804A
:101DFA001BEFB40117900003E014F0900007740180
:101E0A00F0900003E0D394C84002E4F0E490006745
:021E1A00F022B4
:1024D30041005C6442005D00054100596442005ABA
:0224E3000000F7
:1004670090005CE0B40C00400302078F90047AF818
:1004770028287302049E0204A1020512020536020F
:1004870005B40205C802049E02061102068D020683
:10049700B402073502074D020606D390005BE094CD
:1004A7000590005AE094005003020790900003E083
:1004B700FED39F4027C2A0D2A1900004E0B401045C
:1004C700C2928002D2929000057401F0900001F070
:1004D700900007E06003020790020656EEC39F50A4
:1004E70027D2A0C2A1900004E0B40104C292800206
:1004F700D2929000057402F0900001F0900007E09E
:100507006003020790020656020685900003E06F1B
:10051700600302079090005AF0A3F0D2A0D2A190F6
:100527000001F0900007E070037402F00206AED3FA
:1005370090005BE0940590005AE094005003020796
:1005470090900003E0FED39F4026C2A0D2A1900066
:1005570004E0B40104C2928002D2929000057401B3
:10056700F0900001F0900007E0702E7402F08029EF
:10057700EEC39F502AD2A0C2A1900004E0B40104A8
:10058700C2928002D2929000057402F0900001F0AE
:10059700900007E070037402F090005C020681D2BD
:1005A70092900007E070037402F00206AEC29090CA
:1005B70000017403F0900007E070037402F0020674
:1005C700AE30B103020790D290E4900002F09000A1
:1005D70001F0EFC313FE75F008A42408F582E43494
:1005E70000F583E4F0EE75F008A4240BF582E434FB
:1005F70000F583E4F0A3F090000704F0020687E417
:1006070090005AF0A3F0A302074990005DE0FEA313
:10061700E0FFD390005BE09F90005AE09E500302FA
:100627000790900003E0FFD39D4026C2A0D2A1907F
:100637000004E0B40104C2928002D29290000574D3
:1006470001F0900001F0900007E06003020790803E
:1006570029EFC39D5028D2A0C2A1900004E0B401A5
:1006670004C2928002D2929000057402F0900001B9
:10067700F0900007E060030207907402F022D29224
:1006870090005C020749900003E06D600302079049
:1006970090005AF0A3F0D2A0D2A1900001F09000F0
:1006A70007E070037402F090005C020749D39000E2
:1006B7005BE0940590005AE0940050030207909085
:1006C7000003E0FFD39D4026C2A0D2A1900004E022
:1006D700B40104C2928002D2929000057401F09096
:1006E7000001F0900007E0702E7402F08029EFC33C
:1006F7009D502BD2A0C2A1900004E0B40104C29285
:100707008002D2929000057402F0900001F09000F0
:1007170007E070037402F090005C7408F022D29234
:10072700900007E070037402F090005C8014C2919F
:100737009000017404F0900007E070037402F090D9
:10074700005CE004F02220B240D2919000027402D3
:10075700F0E4900001F0EDC313FF75F008A424083E
:10076700F582E43400F5837401F0EF75F008A424F2
:100777000BF582E43400F583E4F0A3F0900007045E
:0A078700F090005C7464F022002280
:10213600900059E014601214603514605D24037039
:1021460077E490005AF0A38049D390005BE09405B1
:1021560090005AE094004061C2A09000057401F01E
:10216600900001F0900007E070297402F0802420AE
:10217600B047E490005AF0A3F0D2A0D2A190000597
:10218600F0900001F0900007E070037402F0E49014
:102196000003F0900059E004F022D390005BE09435
:1021A6000590005AE094004010E4F0A3F09000037C
:0A21B600F09000597464F02200223A
:0B284000D2A0D2A1D290D291D292225D
:1024E5004100630041006000420061000041005F5F
:0124F50000E6
:10123600900063E0121579126500127001128102A6
:1012460012960312AB0412C00512D40612E8071355
:101256000E0813220913360A1359140000147CE4ED
:10126600900059F090006304F02212213690005944
:10127600E06464600302147D0213527D0E7F0C123B
:10128600046790005CE06464600302147D021352FC
:101296007D0C7F0A12046790005CE06464600302C0
:1012A600147D0213527D0A7F0812046790005CE0E9
:1012B6006464600302147D0213527D087F061204E3
:1012C6006790005CE06464600302147D807E7D06A6
:1012D6007F0412046790005CE06464600302147D7E
:1012E600806A7D067F0212046790005CE064646099
:1012F6000302147D9000637414F0900000E0640310
:10130600600302147D0213B97D04E4FF12046790A2
:10131600005CE06464600302147D80307D02E4FFBB
:1013260012046790005CE06464600302147D801C14
:101336009000047401F0E4FD7F0E12046790005CD7
:10134600E06464600302147D900004F0900063740E
:1013560014F022900040E0FF701B900038E0B402C9
:1013660014E490005CF090005DF0A37405F090002A
:10137600637402F022900038E0701B900030E0B4F5
:101386000214E490005CF090005DF0A37405F09008
:1013960000637403F022900030E0701B900028E098
:1013A600B40214E490005CF090005DF0A3745AF06F
:1013B6009000637404F022900028E07019900020D9
:1013C600E0B40212E490005CF090005DF0A37405B6
:1013D600F0900063F022900020E0FE701B90001851
:1013E600E0B40214E490005CF090005DF0A3745A3F
:1013F600F09000637406F022EE701B900010E0B4CB
:101406000214E490005CF090005DF0A3745AF09032
:1014160000637407F022900018E0701B900008E04B
:10142600B40214E490005CF090005DF0A37405F043
:101436009000637408F022900010E0701B90000882
:10144600E0B40214E490005CF090005DF0A3740533
:10145600F09000637409F022900008E07019EFB470
:101466000215E490005CF090005DF0A37405F09026
:081476000063740AF022002259
:09284B009000637414F0022840AF
:0424F6004100680039
:10222700900068E01460171460211460492403705B
:102237005130950320964C9000687401F022309538
:10224700032096389000687402F02220950F9000C2
:1022570040E0B401087402F090000714F020960FD4
:10226700900008E0B401087402F090000714F090A1
:1022770000687403F02230950A309607E4900068EE
:04228700F02200221F
:1020B6000222E9E493A3F8E493A34003F68001F235
:1020C60008DFF48029E493A3F85407240CC8C3332B
:1020D600C4540F4420C8834004F456800146F6DFFA
:1020E600E4800B01020408102040809024CBE47E9B
:1020F600019360BCA3FF543F30E509541FFEE493EF
:10210600A360010ECF54C025E060A840B8E493A3B5
:10211600FAE493A3F8E493A3C8C582C8CAC583CAE0
:10212600F0A3C8C582C8CAC583CADFE9DEE780BE98
:0124FA0000E1
:10147E00BB010689828A83E0225002E722BBFE026C
:09148E00E32289828A83E493229F
:10149700EF8DF0A4A8F0CF8CF0A428CE8DF0A42E69
:0214A700FE2223
:1014A900BC000BBE0029EF8DF084FFADF022E4CC27
:1014B900F875F008EF2FFFEE33FEEC33FCEE9DECF0
:1014C900984005FCEE9DFE0FD5F0E9E4CEFD22ED36
:1014D900F8F5F0EE8420D21CFEADF075F008EF2F80
:1014E900FFED33FD4007985006D5F0F222C398FD71
:0514F9000FD5F0EA220E
:1014FE00C5F0F8A3E028F0C5F0F8E5821582700279
:06150E001583E038F02215
:10151400A3F8E0C5F025F0F0E5821582700215838A
:06152400E0C838F0E822E7
:10152A00E88FF0A4CC8BF0A42CFCE98EF0A42CFC60
:10153A008AF0EDA42CFCEA8EF0A4CDA8F08BF0A4DE
:10154A002DCC3825F0FDE98FF0A42CCD35F0FCEB3D
:10155A008EF0A4FEA9F0EB8FF0A4CFC5F02ECD3902
:0F156A00FEE43CFCEAA42DCE35F0FDE43CFC226F
:10241F00C2D5E830E70FB2D5E4C39BFBE49AFAE4E8
:10242F0099F9E498F8EC30E717B2D5122455121544
:10243F00DBE4C39BFBE49AFAE499F9E498F8800390
:10244F001215DB30D50DE4C39FFFE49EFEE49DFD26
:04245F00E49CFC22DB
:10157900D083D082F8E4937012740193700DA3A301
:1015890093F8740193F5828883E473740293686015
:06159900EFA3A3A380DF15
:10159F0075F008758200EF2FFFEE33FECD33CDCC03
:1015AF0033CCC58233C5829BED9AEC99E582984086
:1015BF000CF582EE9BFEED9AFDEC99FC0FD5F0D663
:1015CF00E4CEFBE4CDFAE4CCF9A88222B800C1B98D
:1015DF000059BA002DEC8BF084CFCECDFCE5F0CBCB
:1015EF00F97818EF2FFFEE33FEED33FDEC33FCEB04
:1015FF0033FB10D703994004EB99FB0FD8E5E4F9BF
:10160F00FA227818EF2FFFEE33FEED33FDEC33FCAB
:10161F00C933C910D7059BE99A4007EC9BFCE99A9F
:10162F00F90FD8E0E4C9FAE4CCFB2275F010EF2FE4
:10163F00FFEE33FEED33FDCC33CCC833C810D707E4
:10164F009BEC9AE899400AED9BFDEC9AFCE899F81F
:0E165F000FD5F0DAE4CDFBE4CCFAE4C8F922B2
:00000001FF
