:0300000002262DA8
:0C262D00787FE4F6D8FD75810F0226745A
:042B74004100850097
:102C1300900000E014601114601214601414601525
:102C230024047016E4FF800FE4FF80027F01020D8D
:0B2C33003A7F0180027F0212001E2287
:102AEC00E4FFEF75F008A42409F582E43400F583C3
:102AFC00E0FCA3E0FDEF75F008A4240DF582E434AE
:102B0C0000F583ECF0A3EDF0EF75F008A4240FF5BD
:102B1C0082E43400F583E4F00FEFB408C59000179D
:032B2C007401F041
:012B2F002283
:102C3E00E4FEEE75F008A4240FF582E43400F5836B
:102C4E00E4F00EEEB408EBEF75F008A4240FF58255
:082C5E00E43400F5837401F079
:012C6600224B
:101E5E00E4FEEE75F008A4240FF582E43400F58359
:101E6E00E0B40102AB060EEEB408E7EF6077EB7557
:101E7E00F008A4240DF582E43400F583E0FEA3E01F
:101E8E00FF7C007D3C12147CEF24FFFFEE34FFFE3E
:101E9E007C007D3C12146AEB75F008A4240DF582CB
:101EAE00E43400F583EEF0A3EFF0EB75F008A42414
:101EBE000DF582E43400F583E0FEA3E0FFD3940831
:101ECE00EE9407500BEF9400EE94004003021F5C5B
:101EDE00EB75F008A4240DF582E43400F583740745
:101EEE00F0A304F022EB75F008A4240DF582E4347F
:101EFE0000F583E0FEA3E0FF7C007D3C12147CEF36
:101F0E002401FFE43EFE7C007D3C12146AEB75F06A
:101F1E0008A4240DF582E43400F583EEF0A3EFF06F
:101F2E00EB75F008A4240DF582E43400F583E0FE91
:101F3E00A3E0D39408EE94074014EB75F008A424A4
:0E1F4E000DF582E43400F583E4F0A3743CF05A
:011F5C002262
:100A9600900048EFF0B410004003020D13900AAA2C
:100AA600F8282873020ADA020ADD020B03020B3168
:100AB600020B56020B79020B9D020BC1020BE502DB
:100AC6000C09020C2C020C4F020C72020C99020C3F
:100AD600D3020CF2020D13900085E064026003025B
:100AE6000D18900048E0FF12259E7F647E00122CB0
:100AF600679000007401F0122AEC020BBC9000858E
:100B0600E064026003020D18900048E0FF12259E83
:100B16007F647E00122C67900006E0B40104E4F0C6
:100B260080069000067401F0E48044900085E0643D
:100B3600026003020D18900048E0FF12259E7F64B4
:100B46007E00122C679000007403F07F01020D0EE8
:100B5600900085E064026003020D18900048E0FFF3
:100B660012259E7F647E00122C67E4900000F0FF41
:100B7600020D0E900085E064026003020D189000DD
:100B860048E0FF12259E7F647E00122C677F0112CB
:100B96002C3EE41F020C93900085E0640260030281
:100BA6000D18900048E0FF12259E7F647E00122CEF
:100BB600677F02122C3EE4FF020C93900085E064EE
:100BC600026003020D18900048E0FF12259E7F6424
:100BD6007E00122C677F03122C3EE4FF020C9390DA
:100BE6000085E064026003020D18900048E0FF12E1
:100BF600259E7F647E00122C677F04122C3EE4FF44
:100C0600020C93900085E064026003020D189000C8
:100C160048E0FF12259E7F647E00122C677F051236
:100C26002C3EE4FF8067900085E064026003020DBD
:100C360018900048E0FF12259E7F647E00122C6704
:100C46007F06122C3EE4FF8044900085E06402603B
:100C560003020D18900048E0FF12259E7F467E0095
:100C6600122C67E4FF121E5EE4FF8021900085E0EF
:100C760064026003020D18900048E0FF12259E7F73
:100C8600467E00122C677F01121E5EE4FF120D3AAB
:100C9600020D18900085E064027077900048E0FF2E
:100CA60012259E7F647E00122C677F03120D3A1276
:100CB6001640EF60047F0180027F02120D3A7FE842
:100CC6007E03122C67E4900000F0FF803B900085C5
:100CD600E06402703D900048E0FF12259E7F647E2E
:100CE60000122C67E4900000F0FF801C900085E065
:100CF600B4021F900048E0FF12259E7F647E00121A
:100D06002C67E4900000F0FF12001E8005E49000BE
:100D160085F0900048E0FFD394004012EF94105005
:100D26000D900085E004F07F0A7E00022C67E490B7
:040D36000085F02222
:10295800122193122BDF7FD07E07122C671224FAE4
:10296800122CDB122FB4122FC8E4FF12001E121C07
:1029780026120A96900007E0B4010A122C13E4907C
:102988000007F080E9900007E0B402E2900000E060
:10299800FF640160D9EF640260D4122A0CE490004D
:0A29A80007F07F0AFE122C6780C4BE
:10079A00B6A8CAB1C9E8D6C33A00BCD320D2BB00B6
:1007AA00B7D620D6D300BCF520D2BB00CEB400C940
:1007BA00E800D6C300B7D600D6D300BDF800310092
:1007CA0032003300340035003600B3F600B1A320FE
:1007DA0020B4E600B7B52020BBD800B1A320B4E608
:1007EA0020B3C920B9A600B1A320B4E620CAA72025
:1007FA00B0DC00B1A320B4E620D6D02E2E2E00C144
:10080A00AACFB5C8CB3AC2BDD6BEB6AB00C1AACF35
:10081A00B5B5E7BBB03A20313335363734303233E9
:10082A00363700D7B4CCAC00D7D4B6AF00CAD6B6E8
:10083A00AF00BBFAD0B5B1DBB6AFD7F73A00BFD538
:10084A00CFD0003C2D2D2D002D2D2D3E00CFF2C9ED
:10085A00CF00CFF2CFC200B4EDCEF300BFD500CFA8
:10086A00D000BECD00D0F700C3A600C2B500B6A81E
:10087A00CAB1C9E8D6C300CAD6B6AF2FD7D4B6AF65
:10088A0000C8A1CFFBCFC2B0E000CFC2B0E0B0B485
:10089A00BCFC00B9D820BBFA20D6D02E2E2E00B927
:1008AA00D820BBFA20B3C920B9A600B2E2CAD4B391
:1008BA00CCD0F2B2B7CFFE202020202C20CEBAC155
:1008CA00E9BEEA2020CEBAC1E9BEEAB9FEB9FE20E5
:1008DA00202020B2FAC6B7D0CDBAC53A2043483351
:1008EA003230323430422D322020352E37B4E733BD
:1008FA00323078323430B5E3D5F320D6A7B3D652A6
:10090A0041383830332F524138383036BFD8D6C6FE
:10091A002CD6A7B3D63556BACD332E3356B5E7D132
:10092A00B92020D6A7B3D6B4A5C3FE2CBCFCC5CC2F
:10093A00C9A8C3E8B9A6C4DC202020202020202092
:10094A002020202020202020202020CFD4CABED73B
:10095A00D6D0CDBFC9B7C5B4F3B5BD3332783332BB
:10096A00A1A2343878343820BBF2363478363420B1
:10097A00202020C4DABDA8B4D6CCE5D7D6D0CED3B1
:10098A00EBD0D0BEE0C9E8B6A82020202020202045
:10099A002020202020202020202020D6A7B3D6C621
:1009AA00C1C4BBCBAEC6BDBEEDB6AFBCB0B4B9D642
:1009BA00B1BEEDB6AFB9A6C4DC202020202020208D
:1009CA00202020B9E2B1EAA1A2B7B4B0D7A1A2C946
:1009DA00C1CBB8B9A6C4DCA3ACB9E2B1EAB8DFB6F8
:1009EA00C8D3EBBFEDB6C8BFC9B5F7D6A7B3D6CE45
:1009FA00C4D7D6D3EBBBE6CDBCC1BDD6D6BBECBA09
:100A0A00CDCFD4CABEC4A3CABD2020202020202016
:100A1A00202020000718204040808080E01804022F
:100A2A000201010180808040402018070101010273
:100A3A00020418E0071F3F7F7FFFFFFFE0F8FCFE7C
:100A4A00FEFFFFFFFFFFFF7F7F3F1F07FFFFFFFE46
:100A5A00FEFCF8E01824428181422418183C7EFFEB
:100A6A00FF7E3C18FFFFFFFFFFFFFFFF000001FCB6
:100A7A007FFC6618663066607FFE7E7A665A66DAA2
:0C0A8A007EB27FB2676600CE018C0000D7
:0C2D6800AC07122F24AF04122D527FB0D4
:102D7400C2A5D2A4D2A2C2A38F80C2A3D2A3D2A539
:012D8400222C
:062DD6007F0F122D74FFB7
:102DDC0030A6FDC2A5D2A4C2A28F80C2A3D2A3D218
:022DEC00A5221E
:0A2D26007FFF122D74122DDC7FC315
:102D3000C2A5D2A2D2A48F80C2A3D2A37580FFC2A3
:092D4000A2D2A3D2A4C2A4AF8068
:012D49002267
:102EFA00E4F580D2A3C2A5C2A2C2A4AF80D2A4D252
:042F0A00A57580FF2A
:012F0E0022A0
:10219300C2A77F327E00122C67D2A77F327E001245
:1021A3002C67E4FF122D747F04122DDC7F01122DA6
:1021B300747F08122DDC7F03122DD8122DD67F10C9
:1021C300122DD87F11122DD87F12122D741F122DAC
:1021D300DC7F20122D747F27122DDC7F21122D74BA
:1021E3007F27122DDC7F30122D747FEF122DDC7FC1
:1021F30031122D747FEF122DDC7F40122DD87F50CA
:10220300122DD87F60122DD87F61122DD87F6212D4
:102213002DD87F70122DD87F71122DD87F72122D79
:10222300D87F80122DD87F90122D747F80122DDCE1
:102233007FE0122DD87FF0122DD87FF1122D74FF7D
:03224300022DDC8D
:082D4A00900051E0FFE92AFDB1
:102D5200AE077F60122D74AF06122DDC7F70122D2C
:062D620074AF05022DDC38
:102F0F00E4FF122D30AE07EE54F7FEE4FF122D74DE
:052F1F00AF06022DDCED
:102F2400E4FF122D30AE07EE4408FEE4FF122D74C8
:052F3400AF06022DDCD8
:102E34007F12122D30AE07EE549F4410FE7F121203
:062E44002D74FF022DDCDD
:102E4A007F12122D30AE07EE54AF4420FE7F1212CD
:062E5A002D74FF022DDCC7
:102E60007F12122D30AE07EE54BF4430FE7F121297
:062E70002D74FF022DDCB1
:102F78007F12122D30AE07EE54F3FE7F12122D741D
:042F8800FF022DDC3B
:102E76007F12122D30AE07EE54F74404FE7F121275
:062E86002D74FF022DDC9B
:102E8C007F12122D30AE07EE54FB4408FE7F121257
:062E9C002D74FF022DDC85
:102F8C007F12122D30AE07EE440CFE7F12122D7400
:042F9C00FF022DDC27
:102EA2007F12122D30AE07EE54FD4401FE7F121246
:062EB2002D74FF022DDC6F
:102EB8007F12122D30AE07EE54FE4402FE7F12122E
:062EC8002D74FF022DDC59
:102E0600122F0F7FE0122D74E4FF122DDC7FF012DB
:072E16002D747FA8022DDCE2
:102E1D00122F0F7FE0122D747FFF122DDC7FF01229
:072E2D002D747FA8022DDCCB
:102F3900E4FF122D30AE07EE54FEFEE4FF122D74AD
:052F4900AF06022DDCC3
:102F4E00E4FF122D30AE07EE4401FEE4FF122D74A5
:052F5E00AF06022DDCAE
:102FA0007F10122D30AE07EE4420FE7F10122D74DC
:042FB000FF022DDC13
:092D8500122EA2122E06122F39A3
:102D8E007F10122D30AE07EE54DFFE7F10122D7421
:042D9E00FF022DDC27
:102BAB00EF24FE601314601914601F240370247F3C
:102BBB00F1122D74E4FF80187FF1122D747F508079
:102BCB000F7FF1122D747FA080067FF1122D741FE1
:042BDB00122DDC22B9
:10245300122F0FE4FDFF122D6FFC7FFF122DDC0DF9
:10246300BD00010CED64284C70F0E4FCFDE4FAFBC4
:10247300EB4A70047F80800CEB64274A70047F0171
:102483008002E4FF122DDC0BBB00010AEB64284A37
:1024930070DE0DBD00010CED641F4C70D0E4FCFD3B
:1024A3007FFF122DDC0DBD00010CED64284C70F094
:1024B300E4FCFDE4FAFBEB4A70047F80800CEB64E0
:1024C300274A70047F018002E4FF122DDC0BBB005E
:1024D300010AEB64284A70DE0DBD00010CED647D3A
:1024E3004C70D0E4FCFD7FFF122DDC0DBD00010C10
:0624F300ED64284C70F0BE
:0124F90022C0
:0F2AA700E075F005A404FF7BFF7A0779BF7D740B
:102AB60090004CEBF0A3EAF0A3E9F0122D68900029
:102AC6004CE0FBA3E0FAA3E0F91214516017900062
:102AD6004CA3E475F0011214E7A9F0FA121451FFA1
:062AE600122DDC80D92254
:0930180075F00A842430FB7D6090
:08302100122D68AF03022DDC43
:102A5F0090006CEBF0A3EAF0A3E9F0A3ECF0A3ED88
:012A6F00F076
:102A7000E4FDFC122F24E4FF122D6FD3900070E0D0
:102A80009D90006FE09C401E90006CE0FBA3E475FD
:102A9000F0011214E7A9F0FA121451FF122DDC0D07
:062AA000BD00010C80D511
:012AA600220D
:101F5D00E0FFA3E0FDA3E0FBA3E0900054F0A37429
:021F6D0001F081
:071F6F00900051EFF0A905FD
:101F7600122F0FE4FA900054E0FFEAC39F400302D9
:101F86002022EA701A122D4AE4FCECC39B4003029D
:101F9600201E7FB0122D747FFF122DDC0C80EBEA21
:101FA600D394004054900054E014FFEA9F504A90A6
:101FB6000051E0FFE92AFD122D6F900055E0601BED
:101FC6007F80122DDC7C01EB14FFECC39F5008E4EC
:101FD600FF122DDC0C80F07F0180197FFF122DDCB3
:101FE6007C01EB14FFECC39F50087FFF122DDC0C25
:101FF60080F07FFF122DDC801F900054E0146A7081
:1020060017122D4AE4FCECC39B500D7FB0122D74C1
:0C2016007FFF122DDC0C80EE0A021F7B05
:01202200229B
:10274300FFE02F14FFA3E0FD9000547408F0A3747E
:0C275300FFF0A3740AF07426A3F07B01D1
:0B275F00900051EFF0A3EDF0A3EBF0B1
:10276A00122F0FE4900058F0900054E0FF900058A8
:10277A00E0C39F5042E4FC900053E0FFECC39F503B
:10278A002E900051E02CFF900058E0FE900052E09D
:10279A002EFD122D6F900055E0FBA3E475F0011297
:1027AA0014E7A9F0FA121451FF122DDC0C80C8901C
:0727BA000058E004F080B1BB
:0127C10022F5
:0C29B200900080EEF0A3EFF0AB05AA044B
:1029BE00900080E0FEA3E07803CEC313CE13D8F9C7
:1029CE00F9122F0FAF01AD03122D527FB1122D74DC
:1029DE00122EFA900082EFF0AF01122D6F9000814F
:1029EE00E05407FFC374079FFF7401A80708800215
:0E29FE00C333D8FCFF900082E04FFF022DDCB7
:1027C200900062ECF0A3EDF0900060EEF0A3EFF069
:0827D200900064EAF0A3EBF0B3
:1027DA00D3EF9BEE9A401F900064E0FEA3E0FF90C7
:1027EA000060E0FDA3E0900064CDF0A3EDF090005E
:1027FA0060EEF0A3EFF0900060E0FEA3E0FFC3906C
:10280A000065E09F900064E09E401B900062E0FC3F
:10281A00A3E0FD1229B2900061E004F070D89000A4
:06282A0060E004F080D024
:012830002285
:10283100900066EEF0A3EFF0A3ECF0A3EDF0A3EAB5
:04284100F0A3EBF025
:10284500D3ED9BEC9A401D90006AE0FEA3E0FF905B
:102855000068E0FDA3E0A3CDF0A3EDF0900068EEE5
:10286500F0A3EFF0900066E0FEA3E0FFA3E0FCA379
:10287500E0FD1229B2900069E004F070069000684E
:10288500E004F0900068E0FEA3E0FFC390006BE079
:082895009F90006AE09E50CC08
:01289D002218
:101ACE0090004F7440F0A37401F07B167D487F099F
:101ADE0090004CEFF0A3EDF0A3EBF0900050E090EF
:101AEE00004C7003021B73121F5D90004CE0FFA3AD
:101AFE00E0FD9000547408F0A374FFF0A3740AF094
:101B0E00741E12275B90004CE0FF90004FE0FE9099
:101B1E00004DE02E24F8FD9000547408F0A374FFDD
:101B2E00F0A3740AF0A3742EF07B0112275F9000CD
:101B3E004EE090004C12274390004EE0FF90004C78
:101B4E00E02F14FF90004FE0FE90004DE02E24F8A1
:101B5E00FD9000547408F0A374FFF0A3740AF0A370
:101B6E007436021C1FE0FFA3E0FDA3E0FBA3E09090
:101B7E000054F0E4A3F0121F6F90004CE0FFA3E0BE
:101B8E00FD9000547408F0A374FFF0A3740AF0A340
:101B9E00743EF07B0112275F90004CE0FF90004FE7
:101BAE00E0FE90004DE02E24F8FD9000547408F0F5
:101BBE00A374FFF0A3740AF0A3744EF07B011227F6
:101BCE005F90004EE0FF90004CE02F14FFA3E0FD6D
:101BDE009000547408F0A374FFF0A3740AF0A37479
:101BEE0046F07B0112275F90004EE0FF90004CE024
:101BFE002F14FF90004FE0FE90004DE02E24F8FDD4
:101C0E009000547408F0A374FFF0A3740AF0A37448
:081C1E0056F07B0112275F2242
:10202300900071EFF0A3EDF0A3EBF0900075E0905A
:1020330000716047121F5D900071E0FFA3E0FD9007
:1020430000547408F0A374FFF0A3740AF0A3741E81
:10205300F07B0112275F900071E0FF900074E0FEB7
:10206300900072E02E24F8FD9000547408F0A374DD
:10207300FFF0A3740AF0A3742E8056E0FFA3E0FDE3
:10208300A3E0FBA3E0900054F0E4A3F0121F6F90D1
:102093000071E0FFA3E0FD9000547408F0A374FF07
:1020A300F0A3740AF0A3743EF07B0112275F900043
:1020B30071E0FF900074E0FE900072E02E24F8FDC2
:1020C3009000547408F0A374FFF0A3740AF0A3748F
:0820D3004EF07B0112275F2291
:1020DB00900076EFF0A3EDF0A3EBF090007AE09098
:1020EB0000766039121F5D900078E0900076122721
:1020FB0043900078E0FF900076E02F14FF9000797A
:10210B00E0FE900077E02E24F8FD9000547408F068
:10211B00A374FFF0A3740AF0A374368064E0FFA3EA
:10212B00E0FDA3E0FBA3E0900054F0E4A3F0121F4A
:10213B006F900078E0FF900076E02F14FFA3E0FD96
:10214B009000547408F0A374FFF0A3740AF0A37406
:10215B0046F07B0112275F900078E0FF900076E05D
:10216B002F14FF900079E0FE900077E02E24F8FD0D
:10217B009000547408F0A374FFF0A3740AF0A374D6
:08218B0056F07B0112275F22D0
:102FB4007FC0122D30AE07EE4480FE7FC0122D7408
:042FC400FF022DDCFF
:102FC8007FC4122D30AE07EE4480FE7FC4122D74EC
:042FD800FF022DDCEB
:102FDC007F0F122D30AE07EE4410FE7F0F122D74B2
:042FEC00FF022DDCD7
:102FF0007F0F122D30AE07EE54EFFE7F0F122D74AF
:04300000FF022DDCC2
:102ECE007FC4122D30AE07EE54FE4402FE7FC412B4
:062EDE002D74FF022DDC43
:102EE4007FC4122D30AE07EE44014402FE7FC412AB
:062EF4002D74FF022DDC2D
:102CB500EF2458FFEE34FCFEE434FFFDE434FFFC62
:102CC500E47B407A01F9F81214FD7BB47AFC79FFB4
:052CD50078FF122B3016
:012CDA0022D7
:102D0100EF2480FFEE34FCFEE434FFFDE434FFFCED
:102D1100E47BF0FAF9F81214FD7BEC7AFC79FF7888
:042D2100FF122B3042
:012D2500228B
:100FC800E4F9900000E06003021064D3EF9400EEAF
:100FD80094004027EF9460EE9400501FED94D0ECFD
:100FE80094004017ED94F0EC9400500F900006E048
:100FF8006401600302124C0902124CD3EF9468EEAC
:101008009400401DEF94D0EE94005015ED94D0EC70
:101018009400400DED94F0EC940050057902021212
:101028004CD3EF94D8EE9400500302124CEF94384E
:10103800EE9401400302124CED94D0EC940050035E
:1010480002124CED94F0EC9400400302124C900014
:1010580006E0600302124C790302124C900000E093
:1010680064037032D3EF94D8EE9400500302124C0C
:10107800EF9438EE9401400302124CED94D0EC94B6
:1010880000500302124CED94F0EC9400400302125D
:101098004C790402124C900000E0640160030212D3
:1010A80022D3EF9428EE9400401DEF9448EE94006C
:1010B8005015ED944AEC9400400DED94AEEC94007C
:1010C8005005790502124CD3EF9450EE9400401D60
:1010D800EF9470EE94005015ED944AEC9400400D96
:1010E800ED94AEEC94005005790602124CD3EF94BF
:1010F80078EE9400401DEF9498EE94005015ED940E
:101108004AEC9400400DED94AEEC9400500579073C
:1011180002124CD3EF94A0EE9400401DEF94C0EE61
:1011280094005015ED944AEC9400400DED94AEEC0B
:1011380094005005790802124CD3EF94C8EE94003D
:10114800401DEF94E8EE94005015ED944AEC94009D
:10115800400DED94AEEC94005005790902124CD381
:10116800EF94F0EE9400401DEF9410EE94015015AA
:10117800ED944AEC9400400DED94AEEC94005005CB
:10118800790A02124CD3EF94A0EE9400401DEF941C
:10119800D8EE94005015ED940CEC9400400DED94AD
:1011A8003CEC94005005790B02124CD3EF94E8EE16
:1011B8009400401CEF9420EE94015014ED940CEC34
:1011C8009400400CED943CEC94005004790C80742D
:1011D800D3EF9470EE9400401CEF94D0EE9400503E
:1011E80014ED94D0EC9400400CED94F0EC94005085
:1011F80004790D804FD3EF94D8EE94004046EF94D5
:1012080038EE9401503EED94D0EC94004036ED94C5
:10121800F0EC9400502E790E802A900000E0B40281
:1012280023D3EF94D8EE9400401AEF9438EE94014B
:101238005012ED94D0EC9400400AED94F0EC940038
:061248005002790FAF0116
:01124E00227D
:101C2600E4900049F0FE7FC4122D747F81122DDCF2
:101C36007FFF122D74122DDC7F0F122D30EF20E363
:101C460003021D54E4FD7F0F122D30EF7003FE805A
:101C56000BEDB431027E010DEDB432EAEE700302F3
:101C66001D48122ECE7F647E00122DA2122EE47F16
:101C7600647E00122DA27FC1122D30AE077FFF12A7
:101C86002D74122DDC7FC2122D30900048EFF01219
:101C96002D26EF5403FD122D26EF540CF97FFF126B
:101CA6002D74122DDCAF067E00EF7802C333CE33DF
:101CB600CED8F9FFED5403FDEF4DFDAC069000487C
:101CC600E07E007802C333CE33CED8F9FBAA067E77
:101CD60000E9540C7802CEC313CE13D8F9FFEE4AAE
:101CE600FEEF4BFF90004AEEF0A3EFF0C3ED94B485
:101CF600EC9403504DED945EEC9400404590004A00
:101D0600E0FEA3E0FF94B0EE94035036EF945CEE51
:101D16009400402EAE04AF05122CB590004CEEF0A8
:101D2600A3EFF090004AE0FEA3E0FF122D01AD07FD
:101D3600AC0690004CE0FEA3E0FF120FC8900049ED
:101D4600EFF07F0F122D30EF54FEFE122DD69000CD
:031D560049E0FF62
:011D59002267
:050D3A00900049EFF0FC
:100D3F00122EB8122E0690004F7430F0A37401F0EB
:100D4F007B077D0C7F14121ADE90004F7430F0A3D6
:100D5F007401F07B077D0C7F1D121ADEE490004AB0
:100D6F00F090004AE0FFC394085043EF75F008A4D9
:100D7F00240FF582E43400F583E090004A6010E020
:100D8F0075F005A4FF9000547464F0E4A3800FE0A5
:100D9F0075F005A4FF9000547464F0A37401F07B08
:100DAF00047D4A121F6F90004AE004F080B3900058
:100DBF0000E0B4011390004F7420F0A37401F07B96
:100DCF000C7DD07F0E121ADE90004F7420F0A374AA
:100DDF0001F07B0C7DD07F1B121ADE900049E06082
:100DEF0003121ACE122D857BFF7A07799A7D087F21
:100DFF0001122AB67BFF7A0779A47D127F15122A7A
:100E0F00B67BFF7A0779AA7D267F15122AB67BFF5C
:100E1F007A0779B07D127F1E122AB67BFF7A077987
:100E2F00AA7D267F1E122AB67BFF7A0779B67D60D0
:100E3F007F01122AB67BFF7A0779B97D747F011281
:100E4F002AB67BFF7A0779BC7D887F01122AB6907C
:100E5F00004A7401F090004AE0FB75F008A4240DDD
:100E6F00F582E43400F583E0FEA3E0FF7C007D3CD7
:100E7F0012147C90004BEFF0FEEB75F005A404FF0D
:100E8F00EE12301890004AE075F005A42402FFA37B
:100E9F00E075F00A84E5F02430FB12302190004A0F
:100EAF00122AA790004AE075F005A404FF7BFF7A91
:100EBF000779C27D88122AB690004AE004F0E0C399
:100ECF00940740917BFF7A0779B67D607F24122AC1
:100EDF00B67BFF7A0779B97D747F24122AB67BFF20
:100EEF007A0779BC7D887F24122AB67BFF7A07792F
:100EFF00C57DB47F01122AB67BFF7A0779C87F06BA
:100F0F00122AB67BFF7A0779CA7F0B122AB67BFFAC
:100F1F007A0779CC7F10122AB67BFF7A0779CE7FBA
:100F2F0015122AB67BFF7A0779D07F1A122AB67B61
:100F3F00FF7A0779D27F1F122AB67BFF7A0779D4FF
:100F4F007F24122AB6900000E0B4010D7BFF7A07D0
:100F5F0079D77DD87F11122AB67BFF7A0779DE7D8C
:100F6F00D87F1E122AB6900049E0604790004F7458
:100F7F0040F0E4A3121AD79000547430F0A3740118
:100F8F00F07B147D507F0A121F6F900049E0B4016F
:100F9F00087BFF7A0779E58013900049E07BFFB467
:100FAF0002067A0779F180047A0779FD7D607F0E5A
:090FBF00122AB6122E76022E60F1
:102BDF00122EB8122D8E122E06122EA2122D8E121A
:102BEF002E06122E347F01122BAB7BFF7A08790948
:102BFF007D357F04122AB67BFF7A0879177D537FC4
:042C0F0004022AB6DB
:05001E00900049EFF025
:10002300122EB8122E069000547420F0A37401F01F
:100033007B08E4FDFF121F6F9000547420F0A3743B
:1000430001F0E4FD7F08121F6FE490004AF0900076
:100053004AE0FFC39408504DEF75F005A42402FF56
:100063009000547408F0A374FFF0A3740AF0A3740F
:100073005EF07B017D2A12275F90004AE075F00550
:10008300A42402FF9000547408F0A374FFF0A37437
:100093000AF0A3745EF07B017D3A12275F90004A59
:1000A300E004F080A9900003E0FF20E02590000227
:1000B300E0700BEFC31375F005A4240280249000B5
:1000C30002E064027060A3E0C31375F005A4240288
:1000D300803A900002E07023A3E0C31375F005A4F7
:1000E3002404FF9000547408F0A374FFF0A3740A6F
:1000F300F0A37466F07B017D2A8028900002E0B4AF
:100103000224A3E0C31375F005A42404FF90005454
:100113007408F0A374FFF0A3740AF0A37466F07B71
:10012300017D3A12275FE490004AF090004AE0FF15
:10013300C394085043EF75F008A42408F582E4340F
:1001430000F583E090004A6010E075F005A4FF908D
:1001530000547464F0E4A3800FE075F005A4FF90ED
:1001630000547464F0A37401F07B047D4A121F6F82
:1001730090004AE004F080B3900049E0702D9000B5
:1001830006E0B4011390004F7420F0A37401F07BD8
:100193000C7DD0E4FF121ADE90004F7420F0A3749C
:1001A30001F07B0D7DD07F0D121ADE900006E0700A
:1001B3001B900049E06402601390004F7420F0A389
:1001C3007401F07B0C7DD07F1B121ADE900049E096
:1001D3006003121ACE122D857BFF7A08792D7D08D4
:1001E3007F02122AB6900006E07BFF70067A087938
:1001F3003280067A0879377D087F0A122AB67BFF98
:100203007A08793C7D087F16122AB6900001E01423
:10021300601514601A14601F146024240470287B72
:10022300FF7A08794880267BFF7A08794D801E7B08
:10023300FF7A08795280167BFF7A087957800E7B04
:10024300FF7A08795C80067BFF7A0879617D087FF5
:1002530022122AB6E490004AF090004AE0FFC394C9
:1002630008400302038AEF75F008A42408F582E42A
:100273003400F583E0702890004AE075F005A4048B
:10028300FF7BFF7A0879667D64122AB690004AE004
:1002930075F005A404FF7BFF7A08796902037C905B
:1002A300004AE0FF75F008A42408F582E43400F561
:1002B30083E064027025EF75F005A404FF7BFF7AE9
:1002C30008796C7D64122AB690004AE075F005A4A3
:1002D30004FF7BFF7A08796F02037C90004AE0FFFA
:1002E30060726407606EE075F008A4240BF582E485
:1002F3003400F583E0FCA3E0FDEF75F008A42409C6
:10030300F582E43400F583E0FEA3E0C39DFFEE9C99
:10031300FE7C007D3C12147CAA0790004AE075F035
:1003230005A404FFEA123018E075F005A42402FFC7
:10033300EA75F00A84E5F02430FB123021122AA773
:1003430090004AE075F005A404FF7BFF7A0779C2A9
:100353007D88802790004AE075F005A404FF7BFFA9
:100363007A0879727D64122AB690004AE075F00526
:10037300A404FF7BFF7A0879757D84122AB6900066
:100383004AE004F002025C7BFF7A0779C57DB47F03
:1003930001122AB67BFF7A0779C87F06122AB67B39
:1003A300FF7A0779CA7F0B122AB67BFF7A0779CCCB
:1003B3007F10122AB67BFF7A0779CE7F15122AB6F1
:1003C3007BFF7A0779D07F1A122AB67BFF7A0779E7
:1003D300D27F1F122AB67BFF7A0779D47F24122A91
:1003E300B6900049E07021900006E0B4010D7BFF58
:1003F3007A0879787DD87F02122AB67BFF7A08794A
:10040300817DD87F0F122AB6900049E0B401087BA2
:10041300FF7A08798B8012900049E07013900006F0
:10042300E0700D7BFF7A0879947DD87F1D122AB680
:10043300900049E0603890004F7440F0E4A3121A32
:10044300D79000547430F0A37401F07B147D507F77
:100453000A121F6F900049E07BFFB401067A087906
:100463009D80047A0879A97D607F0E122AB6122E28
:0404730076022E607F
:102A0C00122EA2122F39122D8E900001E014601597
:102A1C0014601A14601F146024240470287BFF7A3D
:102A2C0008794880267BFF7A08794D801E7BFF7AD7
:102A3C0008795280167BFF7A087957800E7BFF7AD3
:102A4C0008795C80067BFF7A0879617D087F221209
:032A5C002AB62275
:10259E00AD07122EB8ED12154C25C60125D6022612
:1025AE001A03261A0425E70B25F80C26090D261A00
:1025BE000E261A0F0000262C90004F7420F0E4A374
:1025CE00F07B0C7DD0FF805390004F7420F0E4A37D
:1025DE00F07B0D7DD07F0D804290004F7430F0E483
:1025EE00A3F07B077D0C7F14803190004F7430F088
:1025FE00E4A3F07B077D0C7F1D802090004F74209C
:10260E00F0E4A3F07B0C7DD07F0E800F90004F7412
:0F261E0020F0E4A3F07B0C7DD07F1B121ADE228C
:102DA200EF1FAC0670011E4C601090004FE004F063
:0A2DB20070EE90004EE004F080E6A1
:012DBC0022F4
:082C6700900049EEF0A3EFF02C
:102C6F00E4FBFAD390004AE09B900049E09A400EB3
:0E2C7F007FDE7E01122DA20BBB00010A80E554
:012C8D002224
:1023A90090004AE4F0A304F07F0A1230047F007E13
:1023B90001122DEEEF64EE6003022445900048F00F
:1023C900A3F0900048E0FEA3E0FFC39408EE940058
:1023D9005060EF25E0FFEE33FE122DEEEF7F00FE99
:1023E900C007C006900049E025E0FF900048E033AF
:1023F900FEEF2401FFE43EFE122DEEEFFDD0E0FCDE
:10240900D0E04DFD900048E0FEA3E07803C333CE51
:1024190033CED8F92409F58274003EF583ECF0A394
:10242900EDF0900049E004F07098900048E004F065
:10243900809090004AE4F0A304F08007E490004AF9
:09244900F0A3F090004AA3E0FFAB
:012452002267
:1024FA00E4900006F0900000F0FFEF75F008A424C5
:10250A0008F582E43400F5837401F0EF75F008A44D
:10251A00240BF582E43400F583E4F0A3F00FEFB462
:10252A0008D8E4900010F01223A9EF704E90000929
:10253A007407F0A304F09000117402F0A374D0F0B1
:10254A009000197402F0A374D0F09000217401F085
:10255A00A3742CF09000297401F0A3742CF090005D
:10256A00317401F0A3742CF09000397401F0A37453
:10257A002CF09000417407F0A304F0E4900001F0FD
:10258A00A37402F0E4A3F0900005F0900007F09025
:03259A000004F04A
:01259D00221B
:1016400090004BE4F0A304F07F0A123004E4FFFEA4
:10165000122F63E4900049F0A3F0900049E0FEA34C
:10166000E0FFC3EE9402501E122DEEEFF46007E48B
:1016700090004BF0A3F090004AE004F070DC900082
:1016800049E004F080D47F0A123004E4900049F06D
:10169000A3F0900049E0FCA3E0FD25E0FFEC33FE61
:1016A000C006C007EDAE047803C333CE33CED8F9FD
:1016B000240DF58274003EF583E0FDD007D00612BC
:1016C0002DBD900049E0FCA3E0FD25E0FFEC33FEDA
:1016D000EF2401FFE43EFEC006C007EDAE04780330
:1016E000C333CE33CED8F9240DF58274003EF58392
:1016F000A3E0FDD007D006122DBD90004AE004F013
:101700007006900049E004F0C390004AE09408900D
:101710000049E0940050030216927DEE7F007E01A6
:10172000122DBD7F0A123004E4900049F0A3F0901E
:101730000049E0FEA3E0FFC39408EE9400507CEF64
:1017400025E0FFEE33FE122DEEAD07900049E0FAE2
:10175000A3E0FBAE027803C333CE33CED8F9240D19
:10176000F58274003EF583E06D6007E490004BF075
:10177000A3F0EB25E0FFEA33FEEF2401FFE43EFE99
:10178000122DEEAD07900049E0FEA3E07803C333CD
:10179000CE33CED8F9240DF58274003EF583A3E054
:1017A0006D6007E490004BF0A3F090004AE004F075
:1017B0007006900049E004F002172FE4900049F011
:1017C000A3F0900049E0FEA3E0FFC39408EE94006C
:1017D0005038EF7803C333CE33CED8F9FF240DF55C
:1017E0008274003EF583E0FCA3E0FD74092FF582CE
:1017F00074003EF583ECF0A3EDF090004AE004F0B5
:1018000070C0900049E004F080B890004BA3E0FF66
:0118100022B5
:10300400AE071FEE600DE4FCFD0DED70010C4C608D
:03301400EF80F654
:013017002296
:0D000E00E4F5C7F5C5F5C675C380F5C4223D
:102DEE0075C78375C5018FC4EEF5C375C65A75C612
:072DFE00A500AFC212000E98
:012E050022AA
:102DBD0075C78375C5028FC4EEF5C3AF058FC27598
:092DCD00C65A75C6A50002000EED
:102F630075C78375C5038FC4EEF5C375C65A75C699
:052F7300A50002000EA4
:1022F800E4FBEB75F008A42408F582E43400F583C8
:10230800E06401600302239FEB75F008A4240BF539
:1023180082E43400F583E475F0011214D1EB75F012
:1023280008A42409F582E43400F583E0FEA3E0FF65
:10233800EB75F008A4240BF582E43400F583E0FC87
:10234800A3E0C39FEC9E402CEB601764076013EB7F
:1023580075F008A42408F582E43400F5837402F0CB
:102368008012EB75F008A4240BF582E43400F583A1
:10237800E4F0A3F0EB75F008A4240BF582E4340034
:10238800F583E0FEA3E0FF7C007D3C12147CED4C5D
:10239800700590000704F00BEB640860030222FA52
:0123A8002212
:03000B00022C8E36
:102C8E00C0E0C0F0C083C082C0D075D008758A2065
:102C9E00758CD1900083E004F0122246D0D0D08201
:072CAE00D083D0F0D0E0322A
:03001B0002289E1A
:10289E00C0E0C0F0C083C082C0D075D008758BA0D8
:1028AE00758D15900084E004F0900000E0640460E3
:1028BE0032900084E0B4C813E4F01222F890005D68
:1028CE00E004F0700690005CE004F0900084E020DC
:1028DE00E011900006E0700512124F8003123034A2
:0E28EE001228FCD0D0D082D083D0F0D0E032BF
:102CDB00758EC0758911758A20758CD1D28CD2A94D
:102CEB00758BA0758D15D28ED2ABD2AFE4900084CC
:062CFB00F0900083F022BE
:042B78004100860092
:10224600900086E0FF700930B4030222F704F02202
:10225600EF6401704920B444900005E0FFB4021A0F
:10226600900003E004F09000077401F0900003E092
:10227600D3940E4020740EF0801BEFB4011790002B
:1022860003E014F09000077401F0900003E0D3948B
:10229600C84002E4F09000867402F022804E90005E
:1022A60086E0B4020730B4497403F02230B4429099
:1022B6000005E0FFB4021A900003E004F090000766
:1022C6007401F0900003E0D3940E4020740EF08069
:1022D6001BEFB40117900003E014F090000774019F
:1022E600F0900003E0D394C84002E4F0E490008646
:0222F600F022D4
:102B7C004100596441005A6441005F6441005E6445
:092B8C0041005B6442005C0000A2
:101D5A00900059E0146018146069147003021DF1B0
:101D6A0024036003021E5CE490005CF0A38070D33D
:101D7A0090005DE0940590005CE094005003021E20
:101D8A005D900003E0FED39F4018C2A0D2A190004C
:101D9A0004E0B40104C2928002D292900005740158
:101DAA00801BEEC39F5039D2A0C2A1900004E0B4B8
:101DBA000104C2928002D2929000057402F090004F
:101DCA0001F022900003E06F6003021E5D90005C48
:101DDA00F0A3F0D2A0D2A1900001F090000704F085
:101DEA00900059E004F022D390005DE09405900041
:101DFA005CE09400405D900003E0FED39F4021C266
:101E0A00A0D2A1900004E0B40104C2928002D2924E
:101E1A009000057401F0900001F090005904F0223E
:101E2A00EEC39F5020D2A0C2A1900004E0B40104E6
:101E3A00C2928002D2929000057402F0900001F0E2
:101E4A00900059F0229000077401F09000597464D0
:041E5A00F022002250
:1018110090005AE01460241460751470030218AF2C
:1018210014700302191814700302192D24056003A2
:1018310002196FE490005CF0A38070D390005DE02A
:10184100940590005CE0940050030219709000032D
:10185100E0FED39F4018C2A0D2A1900004E0B401E1
:1018610004C2928002D2929000057401801BEEC3E3
:101871009F5039D2A0C2A1900004E0B40104C292E9
:101881008002D2929000057402F0900001F0229043
:101891000003E06F600302197090005CF0A3F0D2C6
:1018A100A0D2A1900001F090000704F08077D390BE
:1018B100005DE0940590005CE09400500302197013
:1018C100900003E0FED39F4021C2A0D2A19000046A
:1018D100E0B40104C2928002D2929000057401F03A
:1018E100900001F090005A04F022EEC39F5020D2E4
:1018F100A0C2A1900004E0B40104C2928002D2927D
:101901009000057402F0900001F090005AF02290CE
:1019110000077401F0800EC2919000017404F090F0
:1019210000077401F090005AE004F02220B240D286
:10193100919000027402F0E4900001F0900007041D
:10194100F0EFC313FE75F008A42408F582E4340017
:10195100F5837401F0EE75F008A4240BF582E434EC
:1019610000F583E4F0A3F090005A7464F0220022A1
:1019710090005FE0146024146075147003021A0F64
:10198100147003021A78147003021A8D240560037F
:10199100021ACCE490005CF0A38070D390005DE06B
:1019A100940590005CE094005003021ACD9000036E
:1019B100E0FED39F4018C2A0D2A1900004E0B40180
:1019C10004C2928002D2929000057401801BEEC382
:1019D1009F5039D2A0C2A1900004E0B40104C29288
:1019E1008002D2929000057402F0900001F02290E2
:1019F1000003E06F6003021ACD90005CF0A3F0D207
:101A0100A0D2A1900001F090000704F08077D3905C
:101A1100005DE0940590005CE094005003021ACD53
:101A2100900003E0FED39F4021C2A0D2A190000408
:101A3100E0B40104C2928002D2929000057401F0D8
:101A4100900001F090005F04F022EEC39F5020D27D
:101A5100A0C2A1900004E0B40104C2928002D2921B
:101A61009000057402F0900001F090005FF0229068
:101A710000077401F0800EC2909000017403F09091
:101A810000077401F090005FE004F02220B13DD224
:101A910090E4900002F0900001F090000704F0EF54
:101AA100C313FE75F008A42408F582E43400F5831D
:101AB100E4F0EE75F008A4240BF582E43400F5831C
:0D1AC100E4F0A3F090005F7464F0220022B6
:1004770090005EE0B40C00400302079890048AF8ED
:100487002828730204AE0204B102052202054602BF
:1004970005C40205D80204AE02062002069602062B
:1004A700BD02073E020756020615D390005DE09491
:1004B7000590005CE094005003020799900003E068
:1004C700FED39F4027C2A0D2A1900004E0B401044C
:1004D700C2928002D2929000057401F0900001F060
:1004E700900007E0600302079902065FEEC39F5082
:1004F70027D2A0C2A1900004E0B40104C2928002F6
:10050700D2929000057402F0900001F0900007E08D
:10051700600302079902065F02068E900003E06FF0
:10052700600302079990005CF0A3F0D2A0D2A190DB
:100537000001F0900007E070037402F00206B7D3E1
:1005470090005DE0940590005CE094005003020782
:1005570099900003E0FED39F4026C2A0D2A190004D
:1005670004E0B40104C2928002D2929000057401A3
:10057700F0900001F0900007E0702E7402F08029DF
:10058700EEC39F502AD2A0C2A1900004E0B4010498
:10059700C2928002D2929000057402F0900001F09E
:1005A700900007E070037402F090005E02068AD2A2
:1005B70092900007E070037402F00206B7C29090B1
:1005C70000017403F0900007E070037402F0020664
:1005D700B730B103020799D290E4900002F090007F
:1005E70001F0EFC313FE75F008A42408F582E43484
:1005F70000F583E4F0EE75F008A4240BF582E434EB
:1006070000F583E4F0A3F090000704F0807BE4900A
:10061700005CF0A3F0A3020752D390005DE09405BD
:1006270090005CE094005003020799900003E0FFFC
:10063700D39D4026C2A0D2A1900004E0B40104C219
:10064700928002D2929000057401F0900001F09020
:100657000007E060030207998029EFC39D5028D265
:10066700A0C2A1900004E0B40104C2928002D29219
:100677009000057402F0900001F0900007E060031D
:100687000207997402F022D29290005E02075290FC
:100697000003E06D600302079990005CF0A3F0D2BD
:1006A700A0D2A1900001F0900007E070037402F05F
:1006B70090005E020752D390005DE0940590005CC5
:1006C700E094005003020799900003E0FFD39D4098
:1006D70026C2A0D2A1900004E0B40104C292800215
:1006E700D2929000057401F0900001F0900007E0AD
:1006F700702E7402F08029EFC39D502BD2A0C2A1A7
:10070700900004E0B40104C2928002D292900005E6
:100717007402F0900001F0900007E070037402F09B
:1007270090005E7408F022D292900007E070037484
:1007370002F090005E8014C2919000017404F09062
:100747000007E070037402F090005EE004F02220DE
:10075700B240D2919000027402F0E4900001F0EDF3
:10076700C313FF75F008A42408F582E43400F58369
:100777007401F0EF75F008A4240BF582E43400F55A
:1007870083E4F0A3F090000704F090005E7464F037
:030797002200221B
:1026B90090005BE014601214603514605D240370AF
:1026C90077E490005CF0A38049D390005DE0940525
:1026D90090005CE094004061C2A09000057401F094
:1026E900900001F0900007E070297402F080242026
:1026F900B047E490005CF0A3F0D2A0D2A19000050D
:10270900F0900001F0900007E070037402F0E4908B
:102719000003F090005BE004F022D390005DE094A8
:102729000590005CE094004010E4F0A3F0900003F1
:0A273900F090005B7464F0220022AF
:0B302900D2A0D2A1D290D291D292226C
:102B950041007F0041007C0042007D000041007B38
:012BA500002F
:10124F0090007FE012154C127E00128901129A0253
:10125F0012AF0312C40412D90512ED0613010713BE
:10126F002708133B09134F0A1372140000144FE49D
:10127F0090005BF090007F04F0221226B990005B83
:10128F00E06464600302145002136B7D0E7F0C1236
:10129F00047790005EE06464600302145002136BE5
:1012AF007D0C7F0A12047790005EE0646460030295
:1012BF00145002136B7D0A7F0812047790005EE0D2
:1012CF006464600302145002136B7D087F061204DE
:1012DF007790005EE064646003021450807E7D06A8
:1012EF007F0412047790005EE06464600302145080
:1012FF00806A7D067F0212047790005EE06464606E
:10130F000302145090007F7414F0900000E0640307
:10131F0060030214500213BA7D04E4FF12047790A5
:10132F00005EE06464600302145080307D02E4FFCD
:10133F0012047790005EE064646003021450801C16
:10134F009000047401F0E4FD7F0E12047790005EAC
:10135F00E064646003021450900004F090007F7406
:10136F0014F022900040E0FF7013900038E0B402B8
:10137F000CE490005EF090007F7402F02290003831
:10138F00E07013900030E0B4020CE490005EF09037
:10139F00007F7403F022900030E07013900028E07B
:1013AF00B4020CE490005EF090007F7404F0229081
:1013BF000028E07013900020E0B4020CE490005E6F
:1013CF00F090007F7405F022900020E0FE701390E3
:1013DF000018E0B4020CE490005EF090007F7406F9
:1013EF00F022EE7013900010E0B4020CE490005E57
:1013FF00F090007F7407F022900018E070139000B7
:10140F0008E0B4020CE490005EF090007F7408F0E6
:10141F0022900010E07013900008E0B4020CE490EA
:10142F00005EF090007F7409F022900008E07011C8
:10143F00EFB4020DE490005EF090007F740AF0228A
:02144F00002279
:0930340090007F7414F0023029B1
:042BA6004100870063
:1028FC00900087E014601714602114604124037069
:10290C00493095032096449000877401F02230954D
:10291C00032096309000877402F02220950B9000D3
:10292C00407402F090000714F020960B900008748D
:10293C0002F090000714F09000877403F022309599
:0C294C000A309607E4900087F022002279
:10263900022958E493A3F8E493A34003F68001F236
:1026490008DFF48029E493A3F85407240CC8C333A2
:10265900C4540F4420C8834004F456800146F6DF71
:10266900E4800B0102040810204080902B74E47E62
:10267900019360BCA3FF543F30E509541FFEE49366
:10268900A360010ECF54C025E060A840B8E493A32D
:10269900FAE493A3F8E493A3C8C582C8CAC583CA58
:1026A900F0A3C8C582C8CAC583CADFE9DEE780BE10
:012BAA00002A
:10145100BB010689828A83E0225002E722BBFE0299
:09146100E32289828A83E49322CC
:10146A00EF8DF0A4A8F0CF8CF0A428CE8DF0A42E96
:02147A00FE2250
:10147C00BC000BBE0029EF8DF084FFADF022E4CC54
:10148C00F875F008EF2FFFEE33FEEC33FCEE9DEC1D
:10149C00984005FCEE9DFE0FD5F0E9E4CEFD22ED63
:1014AC00F8F5F0EE8420D21CFEADF075F008EF2FAD
:1014BC00FFED33FD4007985006D5F0F222C398FD9E
:0514CC000FD5F0EA223B
:1014D100C5F0F8A3E028F0C5F0F8E58215827002A6
:0614E1001583E038F02243
:1014E700A3F8E0C5F025F0F0E582158270021583B8
:0614F700E0C838F0E82215
:1014FD00E88FF0A4CC8BF0A42CFCE98EF0A42CFC8E
:10150D008AF0EDA42CFCEA8EF0A4CDA8F08BF0A40B
:10151D002DCC3825F0FDE98FF0A42CCD35F0FCEB6A
:10152D008EF0A4FEA9F0EB8FF0A4CFC5F02ECD392F
:0F153D00FEE43CFCEAA42DCE35F0FDE43CFC229C
:102B3000C2D5E830E70FB2D5E4C39BFBE49AFAE4D0
:102B400099F9E498F8EC30E717B2D5122B66121514
:102B5000AEE4C39BFBE49AFAE499F9E498F88003A5
:102B60001215AE30D50DE4C39FFFE49EFEE49DFD3B
:042B7000E49CFC22C3
:10154C00D083D082F8E4937012740193700DA3A32E
:10155C0093F8740193F5828883E473740293686042
:06156C00EFA3A3A380DF42
:1015720075F008758200EF2FFFEE33FECD33CDCC30
:1015820033CCC58233C5829BED9AEC99E5829840B3
:101592000CF582EE9BFEED9AFDEC99FC0FD5F0D690
:1015A200E4CEFBE4CDFAE4CCF9A88222B800C1B9BA
:1015B2000059BA002DEC8BF084CFCECDFCE5F0CBF8
:1015C200F97818EF2FFFEE33FEED33FDEC33FCEB31
:1015D20033FB10D703994004EB99FB0FD8E5E4F9EC
:1015E200FA227818EF2FFFEE33FEED33FDEC33FCD9
:1015F200C933C910D7059BE99A4007EC9BFCE99ACD
:10160200F90FD8E0E4C9FAE4CCFB2275F010EF2F11
:10161200FFEE33FEED33FDCC33CCC833C810D70711
:101622009BEC9AE899400AED9BFDEC9AFCE899F84C
:0E1632000FD5F0DAE4CDFBE4CCFAE4C8F922DF
:00000001FF
