:030000000220409B
:0C204000787FE4F6D8FD75810F02208740
:0424BC004100670074
:1024EC00900000E014601114601214601414601554
:1024FC0024047016E4FF800FE4FF80027F01020FBA
:0B250C004E7F0180027F0212001E22A1
:10239A00E4FFEF75F008A42409F582E43400F5831C
:1023AA00E0FCA3E0FDEF75F008A4240DF582E43407
:1023BA0000F583ECF0A3EDF0EF75F008A4240FF517
:1023CA0082E43400F583E4F00FEFB408C5900017F7
:0323DA007401F09B
:0123DD0022DD
:10251700E4FEEE75F008A4240FF582E43400F58399
:10252700E4F00EEEB408EBEF75F008A4240FF58283
:08253700E43400F5837401F0A7
:01253F002279
:101A8A00E4FEEE75F008A4240FF582E43400F58331
:101A9A00E0B40102AB060EEEB408E7EF6077EB752F
:101AAA00F008A4240DF582E43400F583E0FEA3E0F7
:101ABA00FF7C007D3C12143FEF24FFFFEE34FFFE53
:101ACA007C007D3C12142DEB75F008A4240DF582E0
:101ADA00E43400F583EEF0A3EFF0EB75F008A424EC
:101AEA000DF582E43400F583E0FEA3E0FFD3940809
:101AFA00EE9407500BEF9400EE94004003021B880B
:101B0A00EB75F008A4240DF582E43400F58374071C
:101B1A00F0A304F022EB75F008A4240DF582E43456
:101B2A0000F583E0FEA3E0FF7C007D3C12143FEF4A
:101B3A002401FFE43EFE7C007D3C12142DEB75F07F
:101B4A0008A4240DF582E43400F583EEF0A3EFF047
:101B5A00EB75F008A4240DF582E43400F583E0FE69
:101B6A00A3E0D39408EE94074014EB75F008A4247C
:0E1B7A000DF582E43400F583E4F0A3743CF032
:011B8800223A
:100A2300900048EFF0B410004003020CA0900A3786
:100A3300F8282873020A67020A6A020A90020ABEA9
:100A4300020AE3020B06020B2A020B4E020B72028E
:100A53000B96020BB9020BDC020BFF020C26020CF5
:100A630060020C7F020CA0900067E0640260030246
:100A73000CA5900048E0FF121FB17F647E00122591
:100A8300689000007401F012239A020B49900067EA
:100A9300E064026003020CA5900048E0FF121FB15E
:100AA3007F647E00122568900006E0B40104E4F040
:100AB30080069000067401F0E48044900067E064CF
:100AC300026003020CA5900048E0FF121FB17F648F
:100AD3007E001225689000007403F07F01020C9BD6
:100AE300900067E064026003020CA5900048E0FFF9
:100AF300121FB17F647E00122568E4900000F0FFAE
:100B0300020C9B900067E064026003020CA5900056
:100B130048E0FF121FB17F647E001225687F011237
:100B23002517E41F020C20900067E06402600302B3
:100B33000CA5900048E0FF121FB17F647E001225D0
:100B4300687F02122517E4FF020C20900067E0641F
:100B5300026003020CA5900048E0FF121FB17F64FE
:100B63007E001225687F03122517E4FF020C2090F4
:100B73000067E064026003020CA5900048E0FF12E6
:100B83001FB17F647E001225687F04122517E4FFDE
:100B9300020C20900067E064026003020CA5900041
:100BA30048E0FF121FB17F647E001225687F0512A3
:100BB3002517E4FF8067900067E064026003020C7E
:100BC300A5900048E0FF121FB17F647E00122568E4
:100BD3007F06122517E4FF8044900067E0640260FB
:100BE30003020CA5900048E0FF121FB17F467E0070
:100BF300122568E4FF121A8AE4FF8021900067E05F
:100C030064026003020CA5900048E0FF121FB17F4D
:100C1300467E001225687F01121A8AE4FF120F4EE6
:100C2300020CA5900067E064027077900048E0FF33
:100C3300121FB17F647E001225687F03120F4E12CC
:100C43001603EF60047F0180027F02120F4E7FE8DC
:100C53007E03122568E4900000F0FF803B9000675C
:100C6300E06402703D900048E0FF121FB17F647E94
:100C730000122568E4900000F0FF801C900067E0FC
:100C8300B4021F900048E0FF121FB17F647E001280
:100C93002568E4900000F0FF12001E8005E4900038
:100CA30067F0900048E0FFD394004012EF94105097
:100CB3000D900067E004F07F0A7E00022568E4904F
:040CC3000067F022B4
:1021C900121C4D1224567FD07E07122568121F0D4E
:1021D9001225401227BF1227D3E4FF12001E12193D
:1021E90056120A23900007E0B4010A1224ECE49085
:1021F9000007F080E9900007E0B4021E900000E0BB
:10220900FF640160D9EF640260D4122302E49000F4
:1022190007F07F0AFE12256880C4900007E0B40326
:0E222900BD121C4D1224ECE4900007F080B0B2
:10046700B6A8CAB1C9E8D6C33A00BCD320D2BB00EC
:10047700B7D620D6D300BCF520D2BB00CEB400C976
:10048700E800D6C300B7D600D6D300BDF8003100C8
:1004970032003300340035003600B3F600B1A32034
:1004A70020B4E600B7B52020BBD800B1A320B4E63E
:1004B70020B3C920B9A600B1A320B4E620CAA7205B
:1004C700B0DC00B1A320B4E620D6D02E2E2E00C17A
:1004D700AACFB5C8CB3AC2BDD6BEB6AB00C1AACF6C
:1004E700B5B5E7BBB03A2031333536373430323320
:1004F700363700D7B4CCAC00D7D4B6AF00CAD6B61F
:10050700AF00BBFAD0B5B1DBB6AFD7F73A00BFD56E
:10051700CFD0003C2D2D2D002D2D2D3E00CFF2C923
:10052700CF00CFF2CFC200B4EDCEF300BFD500CFDE
:10053700D000BECD00D0F700C3A600C2B500B6A854
:10054700CAB1C9E8D6C300CAD6B6AF2FD7D4B6AF9B
:1005570000C8A1CFFBCFC2B0E000CFC2B0E0B0B4BB
:10056700BCFC00B9D820BBFA20D6D02E2E2E00B95D
:10057700D820BBFA20B3C920B9A600B2E2CAD4B3C7
:10058700CCD0F2B2B7CFFE202020202C20CEBAC18B
:10059700E9BEEA2020CEBAC1E9BEEAB9FEB9FE201B
:1005A700202020B2FAC6B7D0CDBAC53A2043483387
:1005B7003230323430422D322020352E37B4E733F3
:1005C700323078323430B5E3D5F320D6A7B3D652DC
:1005D70041383830332F524138383036BFD8D6C635
:1005E7002CD6A7B3D63556BACD332E3356B5E7D169
:1005F700B92020D6A7B3D6B4A5C3FE2CBCFCC5CC66
:10060700C9A8C3E8B9A6C4DC2020202020202020C8
:100617002020202020202020202020CFD4CABED771
:10062700D6D0CDBFC9B7C5B4F3B5BD3332783332F1
:10063700A1A2343878343820BBF2363478363420E7
:10064700202020C4DABDA8B4D6CCE5D7D6D0CED3E7
:10065700EBD0D0BEE0C9E8B6A8202020202020207B
:100667002020202020202020202020D6A7B3D6C657
:10067700C1C4BBCBAEC6BDBEEDB6AFBCB0B4B9D678
:10068700B1BEEDB6AFB9A6C4DC20202020202020C3
:10069700202020B9E2B1EAA1A2B7B4B0D7A1A2C97C
:1006A700C1CBB8B9A6C4DCA3ACB9E2B1EAB8DFB62E
:1006B700C8D3EBBFEDB6C8BFC9B5F7D6A7B3D6CE7B
:1006C700C4D7D6D3EBBBE6CDBCC1BDD6D6BBECBA3F
:1006D700CDCFD4CABEC4A3CABD202020202020204D
:1006E700202020000718204040808080E018040266
:1006F70002010101808080404020180701010102AA
:10070700020418E0071F3F7F7FFFFFFFE0F8FCFEB2
:10071700FEFFFFFFFFFFFF7F7F3F1F07FFFFFFFE7C
:10072700FEFCF8E01824428181422418183C7EFF21
:10073700FF7E3C18FFFFFFFFFFFFFFFF000001FCEC
:100747007FFC6618663066607FFE7E7A665A66DAD8
:0C0757007EB27FB2676600CE018C00000D
:0C261C00AC07122780AF041226067FB026
:10262800C2A5D2A4D2A2C2A38F80C2A3D2A3D2A58C
:01263800227F
:06268A007F0F122628FF5D
:1026900030A6FDC2A5D2A4C2A28F80C2A3D2A3D26B
:0226A000A52271
:0A25DA007FFF1226281226907FC30F
:1025E400C2A5D2A2D2A48F80C2A3D2A37580FFC2F7
:0925F400A2D2A3D2A4C2A4AF80BC
:0125FD0022BB
:101C4D00C2A77F327E00122568D2A77F327E001296
:101C5D002568E4FF1226287F041226907F011226A4
:101C6D00287F081226907F0312268C12268A7F1059
:101C7D0012268C7F1112268C7F121226281F1226F7
:101C8D00907F201226287F271226907F211226284A
:101C9D007F271226907F301226287FEF1226907F05
:101CAD00311226287FEF1226907F4012268C7F500E
:101CBD0012268C7F6012268C7F6112268C7F621219
:101CCD00268C7F7012268C7F7112268C7F721226C5
:101CDD008C7F8012268C7F901226287F8012269072
:101CED007FE012268C7FF012268C7FF1122628FFC2
:031CFD000226902C
:0825FE00900051E0FFE92AFD05
:10260600AE077F60122628AF061226907F7012262C
:0626160028AF050226902A
:10276B00E4FF1225E4AE07EE54F7FEE4FF12262831
:05277B00AF06022690EC
:10278000E4FF1225E4AE07EE4408FEE4FF1226281B
:05279000AF06022690D7
:1026D1007F121225E4AE07EE549F4410FE7F1212C2
:0626E1002628FF022690EE
:1026E7007F121225E4AE07EE54BF4430FE7F12126C
:0626F7002628FF022690D8
:1026FD007F121225E4AE07EE54F74404FE7F12124A
:06270D002628FF022690C1
:102713007F121225E4AE07EE54FD4401FE7F121230
:062723002628FF022690AB
:102729007F121225E4AE07EE54FE4402FE7F121218
:062739002628FF02269095
:1026BA0012276B7FE0122628E4FF1226907FF01281
:0726CA0026287FA8022690DC
:10279500E4FF1225E4AE07EE54FEFEE4FF12262800
:0527A500AF06022690C2
:092639001227131226BA1227958C
:102642007F101225E4AE07EE54DFFE7F101226281B
:04265200FF022690CD
:10242200EF24FE601314601914601F240370247FCC
:10243200F1122628E4FF80187FF11226287F5080AF
:102442000F7FF11226287FA080067FF11226281F17
:04245200122690229C
:0F235500E075F005A404FF7BFF7A04798C7D749A
:1023640090004CEBF0A3EAF0A3E9F012261C9000D5
:102374004CE0FBA3E0FAA3E0F912141460179000F8
:102384004CA3E475F0011214AAA9F0FA121414FF74
:0623940012269080D92200
:0927FB0075F00A842430FB7D60B6
:0828040012261CAF030226900E
:101B89009000547430F0A37401F07B147D507F0AE7
:071B9900900051EFF0A905D7
:101BA00012276BE4FA900054E0FFEAC39F4003025F
:101BB0001C4CEA701A1225FEE4FCECC39B400302A5
:101BC0001C487FB01226287FFF1226900C80EBEA7B
:101BD000D394004054900054E014FFEA9F504A9080
:101BE0000051E0FFE92AFD122623900055E0601B1A
:101BF0007F801226907C01EB14FFECC39F5008E419
:101C0000FF1226900C80F07F0180197FFF12269032
:101C10007C01EB14FFECC39F50087FFF1226900C51
:101C200080F07FFF122690801F900054E0146A70AD
:101C3000171225FEE4FCECC39B500D7FB012262842
:0C1C40007FFF1226900C80EE0A021BA50C
:011C4C002275
:04223700A3F07B0194
:0B223B00900051EFF0A3EDF0A3EBF0DA
:1022460012276BE4900058F0900054E0FF9000587D
:10225600E0C39F5042E4FC900053E0FFECC39F5064
:102266002E900051E02CFF900058E0FE900052E0C6
:102276002EFD122623900055E0FBA3E475F0011213
:1022860014AAA9F0FA121414FF1226900C80C89012
:072296000058E004F080B1E4
:01229D00221E
:1017D40090004F7440F0A37401F07B167D487F099C
:1017E40090004CEFF0A3EDF0A3EBF0900050E090EC
:1017F400004C70030218A3E0FFA3E0FDA3E0FBA3E9
:10180400E0900054F0A37401F0121B9990004CE096
:10181400FFA3E0FD9000547408F0A374FFF0A374D8
:1018240006F074EB12223790004CE0FF90004FE07A
:10183400FE90004DE02E24F8FD9000547408F0A3AF
:1018440074FFF0A37406F074FB12223790004EE08C
:10185400FF90004CE02F14FFA3E0FD9000547408A7
:10186400F0A374FFF0A37406F0A374F3F07B0112E9
:10187400223B90004EE0FF90004CE02F14FF9000BC
:101884004FE0FE90004DE02E24F8FD9000547408C3
:10189400F0A374FFF0A37407F0A3740302194FE0DC
:1018A400FFA3E0FDA3E0FBA3E0900054F0E4A3F069
:1018B400121B9990004CE0FFA3E0FD9000547408C3
:1018C400F0A374FFF0A37407F0A3740BF07B011270
:1018D400223B90004CE0FF90004FE0FE90004DE072
:1018E4002E24F8FD9000547408F0A374FFF0A37440
:1018F40007F0A3741BF07B0112223B90004EE0FF23
:1019040090004CE02F14FFA3E0FD9000547408F005
:10191400A374FFF0A37407F0A37413F07B011222E5
:101924003B90004EE0FF90004CE02F14FF90004FDE
:10193400E0FE90004DE02E24F8FD9000547408F071
:10194400A374FFF0A37407F0A37423F07B011222A5
:021954003B2234
:1027BF007FC01225E4AE07EE4480FE7FC0122628AC
:0427CF00FF0226904F
:1027D3007FC41225E4AE07EE4480FE7FC412262890
:0427E300FF0226903B
:10273F007FC41225E4AE07EE54FE4402FE7FC4129E
:06274F002628FF0226907F
:102755007FC41225E4AE07EE44014402FE7FC41295
:062765002628FF02269069
:10258F00EF2458FFEE34FCFEE434FFFDE434FFFC8F
:10259F00E47B407A01F9F81214C07BB47AFC79FF1E
:0525AF0078FF1223DE9D
:0125B4002204
:1025B500EF2480FFEE34FCFEE434FFFDE434FFFC41
:1025C500E47BF0FAF9F81214C07BEC7AFC79FF7819
:0425D500FF1223DEF0
:0125D90022DF
:100CC700E4F9900000E06003020D63D3EF9400EEB7
:100CD70094004027EF9460EE9400501FED94D0EC01
:100CE70094004017ED94F0EC9400500F900006E04C
:100CF70064016003020F4B09020F4BD3EF9468EEB8
:100D07009400401DEF94D0EE94005015ED94D0EC74
:100D17009400400DED94F0EC940050057902020F19
:100D27004BD3EF94D8EE94005003020F4BEF943857
:100D3700EE94014003020F4BED94D0EC9400500366
:100D4700020F4BED94F0EC94004003020F4B900020
:100D570006E06003020F4B7903020F4B900000E09F
:100D670064037032D3EF94D8EE94005003020F4B14
:100D7700EF9438EE94014003020F4BED94D0EC94BE
:100D8700005003020F4BED94F0EC94004003020F68
:100D97004B7904020F4B900000E064016003020FDF
:100DA70021D3EF9428EE9400401DEF9448EE940071
:100DB7005015ED944AEC9400400DED94AEEC940080
:100DC70050057905020F4BD3EF9450EE9400401D68
:100DD700EF9470EE94005015ED944AEC9400400D9A
:100DE700ED94AEEC940050057906020F4BD3EF94C7
:100DF70078EE9400401DEF9498EE94005015ED9412
:100E07004AEC9400400DED94AEEC94005005790740
:100E1700020F4BD3EF94A0EE9400401DEF94C0EE69
:100E270094005015ED944AEC9400400DED94AEEC0F
:100E3700940050057908020F4BD3EF94C8EE940045
:100E4700401DEF94E8EE94005015ED944AEC9400A1
:100E5700400DED94AEEC940050057909020F4BD389
:100E6700EF94F0EE9400401DEF9410EE94015015AE
:100E7700ED944AEC9400400DED94AEEC94005005CF
:100E8700790A020F4BD3EF94A0EE9400401DEF9424
:100E9700D8EE94005015ED940CEC9400400DED94B1
:100EA7003CEC94005005790B020F4BD3EF94E8EE1E
:100EB7009400401CEF9420EE94015014ED940CEC38
:100EC7009400400CED943CEC94005004790C807431
:100ED700D3EF9470EE9400401CEF94D0EE94005042
:100EE70014ED94D0EC9400400CED94F0EC94005089
:100EF70004790D804FD3EF94D8EE94004046EF94D9
:100F070038EE9401503EED94D0EC94004036ED94C9
:100F1700F0EC9400502E790E802A900000E0B40285
:100F270023D3EF94D8EE9400401AEF9438EE94014F
:100F37005012ED94D0EC9400400AED94F0EC94003C
:060F47005002790FAF011A
:010F4D002281
:10195600E4900049F0FE7FC41226287F811226906B
:101966007FFF1226281226907F0F1225E4EF20E330
:1019760003021A84E4FD7F0F1225E4EF7003FE8054
:101986000BEDB431027E010DEDB432EAEE700302C6
:101996001A7812273F7F647E001226561227557F3B
:1019A600647E001226567FC11225E4AE077FFF1221
:1019B60026281226907FC21225E4900048EFF012E6
:1019C60025DAEF5403FD1225DAEF540CF97FFF12E6
:1019D6002628122690AF067E00EF7802C333CE3358
:1019E600CED8F9FFED5403FDEF4DFDAC069000484F
:1019F600E07E007802C333CE33CED8F9FBAA067E4A
:101A060000E9540C7802CEC313CE13D8F9FFEE4A80
:101A1600FEEF4BFF90004AEEF0A3EFF0C3ED94B457
:101A2600EC9403504DED945EEC9400404590004AD2
:101A3600E0FEA3E0FF94B0EE94035036EF945CEE24
:101A46009400402EAE04AF0512258F90004CEEF0A8
:101A5600A3EFF090004AE0FEA3E0FF1225B5AD0724
:101A6600AC0690004CE0FEA3E0FF120CC7900049C4
:101A7600EFF07F0F1225E4EF54FEFE12268A900047
:031A860049E0FF35
:011A8900223A
:050F4E00900049EFF0E6
:100F53001227291226BA90004F7430F0A37401F0BF
:100F63007B077D0C7F141217E490004F7430F0A3BD
:100F73007401F07B077D0C7F1D1217E4E490004A97
:100F8300F090004AE0FFC394085043EF75F008A4C3
:100F9300240FF582E43400F583E090004A6010E00A
:100FA30075F005A4FF9000547464F0E4A3800FE08F
:100FB30075F005A4FF9000547464F0A37401F07BF2
:100FC300047D4A121B9990004AE004F080B390001C
:100FD30000E0B4011390004F7420F0A37401F07B80
:100FE3000C7DD07F0E1217E490004F7420F0A37491
:100FF30001F07B0C7DD07F1B1217E4900049E06069
:10100300031217D41226397BFF7A0479677D087F90
:10101300011223647BFF7A0479717D127F151223F9
:10102300647BFF7A0479777D267F151223647BFF27
:101033007A04797D7D127F1E1223647BFF7A047903
:10104300777D267F1E1223647BFF7A0479837D607C
:101053007F011223647BFF7A0479867D747F0112FA
:1010630023647BFF7A0479897D887F01122364904E
:10107300004A7401F090004AE0FB75F008A4240DC7
:10108300F582E43400F583E0FEA3E0FF7C007D3CC1
:1010930012143F90004BEFF0FEEB75F005A404FF34
:1010A300EE1227FB90004AE075F005A42402FFA38B
:1010B300E075F00A84E5F02430FB12280490004A1E
:1010C30012235590004AE075F005A404FF7BFF7AD4
:1010D30004798F7D8812236490004AE004F0E0C312
:1010E300940740917BFF7A0479837D607F241223E8
:1010F300647BFF7A0479867D747F241223647BFFEB
:101103007A0479897D887F241223647BFF7A0479AA
:10111300927DB47F011223647BFF7A0479957F0665
:101123001223647BFF7A0479977F0B1223647BFF7E
:101133007A0479997F101223647BFF7A04799B7F69
:10114300151223647BFF7A04799D7F1A1223647B33
:10115300FF7A04799F7F1F1223647BFF7A0479A1AE
:101163007F24122364900000E0B4010D7BFF7A0416
:1011730079A47DD87F111223647BFF7A0479AB7D38
:10118300D87F1E122364900049E0603790004F74AB
:1011930040F0E4A31217DD121B89900049E0B4016B
:1011A300087BFF7A0479B28013900049E07BFFB497
:1011B30002067A0479BE80047A0479CA7D607F0EC0
:0911C3001223641226FD0226E746
:102456001227291226421226BA12271312264212D0
:1024660026BA1226D17F011224227BFF7A0479D65E
:102476007D357F041223647BFF7A0479E47D537FE4
:0424860004022364C5
:05001E00900049EFF025
:100023001227291226BA9000547420F0A37401F009
:100033007B08E4FDFF121B999000547420F0A37415
:1000430001F0E4FD7F08121B99E490004AF0900050
:100053004AE0FFC39408504DEF75F005A42402FF56
:100063009000547408F0A374FFF0A37407F0A37412
:100073002BF07B017D2A12223B90004AE075F005AC
:10008300A42402FF9000547408F0A374FFF0A37437
:1000930007F0A3742BF07B017D3A12223B90004AB8
:1000A300E004F080A9900003E0FF20E02590000227
:1000B300E0700BEFC31375F005A4240280249000B5
:1000C30002E064027060A3E0C31375F005A4240288
:1000D300803A900002E07023A3E0C31375F005A4F7
:1000E3002404FF9000547408F0A374FFF0A3740772
:1000F300F0A37433F07B017D2A8028900002E0B4E2
:100103000224A3E0C31375F005A42404FF90005454
:100113007408F0A374FFF0A37407F0A37433F07BA7
:10012300017D3A12223BE490004AF090004AE0FF3E
:10013300C394085043EF75F008A42408F582E4340F
:1001430000F583E090004A6010E075F005A4FF908D
:1001530000547464F0E4A3800FE075F005A4FF90ED
:1001630000547464F0A37401F07B047D4A121B995C
:1001730090004AE004F080B3900049E0702D9000B5
:1001830006E0B4011390004F7420F0A37401F07BD8
:100193000C7DD0E4FF1217E490004F7420F0A37499
:1001A30001F07B0D7DD07F0D1217E4900006E07007
:1001B3001B900049E06402601390004F7420F0A389
:1001C3007401F07B0C7DD07F1B1217E4900049E093
:1001D30060031217D41226397BFF7A0479FA7D085B
:1001E3007F02122364900006E07BFF70067A047995
:1001F300FF80067A0579047D087F0A1223647BFF5A
:100203007A0579097D087F16122364900001E014B2
:10021300601514601A14601F146024240470287B72
:10022300FF7A05791580267BFF7A05791A801E7B74
:10023300FF7A05791F80167BFF7A057924800E7B70
:10024300FF7A05792980067BFF7A05792E7D087F61
:1002530022122364E490004AF090004AE0FFC39422
:1002630008400302038AEF75F008A42408F582E42A
:100273003400F583E0702890004AE075F005A4048B
:10028300FF7BFF7A0579337D6412236490004AE093
:1002930075F005A404FF7BFF7A05793602037C9091
:1002A300004AE0FF75F008A42408F582E43400F561
:1002B30083E064027025EF75F005A404FF7BFF7AE9
:1002C3000579397D6412236490004AE075F005A432
:1002D30004FF7BFF7A05793C02037C90004AE0FF30
:1002E30060726407606EE075F008A4240BF582E485
:1002F3003400F583E0FCA3E0FDEF75F008A42409C6
:10030300F582E43400F583E0FEA3E0C39DFFEE9C99
:10031300FE7C007D3C12143FAA0790004AE075F072
:1003230005A404FFEA1227FBE075F005A42402FFED
:10033300EA75F00A84E5F02430FB122804122355F1
:1003430090004AE075F005A404FF7BFF7A04798FDF
:100353007D88802790004AE075F005A404FF7BFFA9
:100363007A05793F7D6412236490004AE075F005B5
:10037300A404FF7BFF7A0579427D841223649000F5
:100383004AE004F002025C7BFF7A0479927DB47F39
:10039300011223647BFF7A0479957F061223647B21
:1003A300FF7A0479977F0B1223647BFF7A04799990
:1003B3007F101223647BFF7A04799B7F15122364D9
:1003C3007BFF7A04799D7F1A1223647BFF7A047979
:1003D3009F7F1F1223647BFF7A0479A17F2412235A
:1003E30064900049E07021900006E0B4010D7BFFAA
:1003F3007A0579457DD87F021223647BFF7A0579DC
:100403004E7DD87F0F122364900049E0B401087B2E
:10041300FF7A0579588012900049E0701390000626
:10042300E0700D7BFF7A0579617DD87F1D1223640F
:10043300900049E0602890004F7440F0E4A3121745
:10044300DD121B89900049E07BFFB401067A057930
:100453006A80047A0579767D607F0E122364122602
:04046300FD0226E789
:10230200122713122795122642900001E01460153D
:1023120014601A14601F146024240470287BFF7A4E
:1023220005791580267BFF7A05791A801E7BFF7A54
:1023320005791F80167BFF7A057924800E7BFF7A50
:1023420005792980067BFF7A05792E7D087F221286
:03235200236422DF
:101FB100AD07122729ED12150F1FD9011FE90220C4
:101FC1002D03202D041FFA0B200B0C201C0D202D9E
:101FD1000E202D0F0000203F90004F7420F0E4A34D
:101FE100F07B0C7DD0FF805390004F7420F0E4A370
:101FF100F07B0D7DD07F0D804290004F7430F0E476
:10200100A3F07B077D0C7F14803190004F7430F07A
:10201100E4A3F07B077D0C7F1D802090004F74208E
:10202100F0E4A3F07B0C7DD07F0E800F90004F7405
:0F20310020F0E4A3F07B0C7DD07F1B1217E4227C
:10265600EF1FAC0670011E4C601090004FE004F0B6
:0A26660070EE90004EE004F080E6F4
:012670002247
:08256800900049EEF0A3EFF032
:10257000E4FBFAD390004AE09B900049E09A400EB9
:0E2580007FDE7E011226560BBB00010A80E5AD
:01258E00222A
:101E630090004AE4F0A304F07F0A1227E77F007E84
:101E7300011226A2EF64EE6003021EFF900048F0F9
:101E8300A3F0900048E0FEA3E0FFC39408EE9400A3
:101E93005060EF25E0FFEE33FE1226A2EF7F00FE37
:101EA300C007C006900049E025E0FF900048E033FA
:101EB300FEEF2401FFE43EFE1226A2EFFDD0E0FC7C
:101EC300D0E04DFD900048E0FEA3E07803C333CE9D
:101ED30033CED8F92409F58274003EF583ECF0A3E0
:101EE300EDF0900049E004F07098900048E004F0B1
:101EF300809090004AE4F0A304F08007E490004A45
:091F0300F0A3F090004AA3E0FFF6
:011F0C0022B2
:101F0D00E4900006F0900000F0FFEF75F008A424B7
:101F1D0008F582E43400F5837401F0EF75F008A440
:101F2D00240BF582E43400F583E4F0A3F00FEFB455
:101F3D0008D8E4900010F0121E63EF704E90000967
:101F4D007407F0A304F09000117402F0A374D0F0A4
:101F5D009000197402F0A374D0F09000217401F078
:101F6D00A3742CF09000297401F0A3742CF0900050
:101F7D00317401F0A3742CF09000397401F0A37446
:101F8D002CF09000417407F0A304F0E4900001F0F0
:101F9D00A37402F0E4A3F0900005F0900007F09018
:031FAD000004F03D
:011FB000220E
:1016030090004BE4F0A304F07F0A1227E7E4FFFE07
:101613001227AAE4900049F0A3F0900049E0FEA34A
:10162300E0FFC3EE9402501E1226A2EFF46007E41B
:1016330090004BF0A3F090004AE004F070DC9000BF
:1016430049E004F080D47F0A1227E7E4900049F0D0
:10165300A3F0900049E0FCA3E0FD25E0FFEC33FE9E
:10166300C006C007EDAE047803C333CE33CED8F93A
:10167300240DF58274003EF583E0FDD007D00612F9
:101683002671900049E0FCA3E0FD25E0FFEC33FE6A
:10169300EF2401FFE43EFEC006C007EDAE0478036D
:1016A300C333CE33CED8F9240DF58274003EF583CF
:1016B300A3E0FDD007D00612267190004AE004F0A3
:1016C3007006900049E004F0C390004AE09408904B
:1016D3000049E0940050030216557DEE7F007E0121
:1016E3001226717F0A1227E7E4900049F0A3F090D5
:1016F3000049E0FEA3E0FFC39408EE9400507CEFA2
:1017030025E0FFEE33FE1226A2AD07900049E0FA72
:10171300A3E0FBAE027803C333CE33CED8F9240D56
:10172300F58274003EF583E06D6007E490004BF0B2
:10173300A3F0EB25E0FFEA33FEEF2401FFE43EFED6
:101743001226A2AD07900049E0FEA3E07803C3335D
:10175300CE33CED8F9240DF58274003EF583A3E091
:101763006D6007E490004BF0A3F090004AE004F0B2
:101773007006900049E004F00216F2E4900049F08C
:10178300A3F0900049E0FEA3E0FFC39408EE9400A9
:101793005038EF7803C333CE33CED8F9FF240DF599
:1017A3008274003EF583E0FCA3E0FD74092FF5820B
:1017B30074003EF583ECF0A3EDF090004AE004F0F2
:1017C30070C0900049E004F080B890004BA3E0FFA4
:0117D30022F3
:1027E700AE071FEE600DE4FCFD0DED70010C4C60B3
:0327F700EF80F67A
:0127FA0022BC
:0D000E00E4F5C7F5C5F5C675C380F5C4223D
:1026A20075C78375C5018FC4EEF5C375C65A75C665
:0726B200A500AFC212000EEB
:0126B90022FE
:1026710075C78375C5028FC4EEF5C3AF058FC275EB
:09268100C65A75C6A50002000E40
:1027AA0075C78375C5038FC4EEF5C375C65A75C65A
:0527BA00A50002000E65
:101DB200E4FBEB75F008A42408F582E43400F58313
:101DC200E064016003021E59EB75F008A4240BF5D0
:101DD20082E43400F583E475F001121494EB75F09B
:101DE20008A42409F582E43400F583E0FEA3E0FFB1
:101DF200EB75F008A4240BF582E43400F583E0FCD3
:101E0200A3E0C39FEC9E402CEB601764076013EBCA
:101E120075F008A42408F582E43400F5837402F016
:101E22008012EB75F008A4240BF582E43400F583EC
:101E3200E4F0A3F0EB75F008A4240BF582E434007F
:101E4200F583E0FEA3E0FF7C007D3C12143FED4CE5
:101E5200700590000704F00BEB64086003021DB4E8
:011E6200225D
:03000B0002248A42
:10248A00C0E0C0F0C083C082C0D075D008758A2071
:10249A00758CD1900064E004F0E0D39405400812F2
:1024AA001D00900064E4F0D0D0D082D083D0F0D068
:0224BA00E0320E
:03001B0002215669
:10215600C0E0C0F0C083C082C0D075D008758BA027
:10216600758D15900066E004F0900000E064046050
:1021760047900066E0B4C828E4F0121DB290005BF8
:10218600E004F0700690005AE004F0900065E00468
:10219600F0E0B4050B9000077403F0900065E4F0DE
:1021A600900066E020E011900006E070051211CC68
:1021B600800312281712229ED0D0D082D083D0F06E
:0321C600D0E03234
:10254000758EC0758911758A20758CD1D28CD2A9EF
:10255000758BA0758D15D28ED2ABD2AFE49000668C
:08256000F0900064F0A3F022EA
:0424C000410068006F
:101D0000900068E0FF700930B403021DB104F022B6
:101D1000EF6401704920B444900005E0FFB4021A5A
:101D2000900003E004F09000077401F0900003E0DD
:101D3000D3940E4020740EF0801BEFB40117900076
:101D400003E014F09000077401F0900003E0D394D6
:101D5000C84002E4F09000687402F022804E9000C7
:101D600068E0B4020730B4497403F02230B4429002
:101D70000005E0FFB4021A900003E004F0900007B1
:101D80007401F0900003E0D3940E4020740EF080B4
:101D90001BEFB40117900003E014F09000077401EA
:101DA000F0900003E0D394C84002E4F0E4900068AF
:021DB000F0221F
:1024C40041005C6442005D00054100596442005AC9
:0224D400000006
:1007630090005CE0B40C004003020A21900776F885
:1007730028287302079A02079D0207F40208180249
:10078300087C02089002079A0208D802093A020973
:10079300600209C70209DF0208CDD390005BE09431
:1007A3000590005AE094005003020A22900003E0EF
:1007B300FED39F401AC2A0D2A19000057401F0900D
:1007C3000001F0900007E06003020A22020910EE24
:1007D300C39F501AD2A0C2A19000057402F09000EA
:1007E30001F0900007E06003020A220209100209E7
:1007F30032900003E06F6003020A2290005AF0A3D4
:10080300F0D2A0D2A1900001F0900007E0706774CD
:1008130002F002095BD390005BE0940590005AE07C
:1008230094005003020A22900003E0FED39F401974
:10083300C2A0D2A19000057401F0900001F09000D5
:1008430007E070217402F0801CEEC39F501DD2A0FC
:10085300C2A19000057402F0900001F0900007E03F
:1008630070037402F090005C02092ED2929000078C
:10087300E070037402F002095BC2909000017403FC
:10088300F0900007E070037402F002095B30B103DB
:10089300020A22D290E4900002F0900001F0EFC32C
:1008A30013FE75F008A42408F582E43400F583E40C
:1008B300F0EE75F008A4240BF582E43400F583E42C
:1008C300F0A3F090000704F08067E490005AF0A3CF
:1008D300F0A30209DB90005DE0FEA3E0FFD39000EC
:1008E3005BE09F90005AE09E5003020A22900003AF
:1008F300E0FFD39D4019C2A0D2A19000057401F07E
:10090300900001F0900007E06003020A22801CEFD0
:10091300C39D501BD2A0C2A19000057402F09000A9
:1009230001F0900007E06003020A227402F022D271
:100933009290005C0209DB900003E06D6003020A01
:100943002290005AF0A3F0D2A0D2A1900001F0901F
:100953000007E070037402F090005C807BD390008A
:100963005BE0940590005AE094005003020A229041
:100973000003E0FFD39D4019C2A0D2A190000574EB
:1009830001F0900001F0900007E070217402F08004
:100993001CEFC39D501ED2A0C2A19000057402F0AB
:1009A300900001F0900007E070037402F090005C87
:1009B3007408F022D292900007E070037402F09062
:1009C300005C8014C2919000017404F0900007E071
:1009D30070037402F090005CE004F02220B240D275
:1009E300919000027402F0E4900001F0EDC313FF54
:1009F30075F008A42408F582E43400F5837401F04B
:100A0300EF75F008A4240BF582E43400F583E4F0D9
:100A1300A3F090000704F090005C7464F0220022BD
:1020CC00900059E014601214603514605D240370A4
:1020DC0077E490005AF0A38049D390005BE094051C
:1020EC0090005AE094004061C2A09000057401F089
:1020FC00900001F0900007E070297402F080242019
:10210C00B047E490005AF0A3F0D2A0D2A190000501
:10211C00F0900001F0900007E070037402F0E4907E
:10212C000003F0900059E004F022D390005BE0949F
:10213C000590005AE094004010E4F0A3F0900003E6
:0A214C00F09000597464F0220022A4
:0B280C00D2A0D2A1D290D291D2922291
:1024D6004100630041006000420061000041005F6E
:0124E60000F5
:1011CC00900063E012150F11FB00120601121702BA
:1011DC00122C03124104125605126A06127E0712D3
:1011EC00A40812B80912CC0A12EF1400001412E46D
:1011FC00900059F090006304F0221220CC9000591A
:10120C00E0646460030214130212E87D0E7F0C127A
:10121C00076390005CE0646460030214130212E83C
:10122C007D0C7F0A12076390005CE064646003022B
:10123C0014130212E87D0A7F0812076390005CE029
:10124C00646460030214130212E87D087F0612071F
:10125C006390005CE064646003021413807E7D067E
:10126C007F0412076390005CE06464600302141353
:10127C00806A7D067F0212076390005CE064646004
:10128C00030214139000637414F0900000E06403E4
:10129C00600302141302134F7D04E4FF12076390E2
:1012AC00005CE06464600302141380307D02E4FF90
:1012BC0012076390005CE064646003021413801CEA
:1012CC009000047401F0E4FD7F0E12076390005C43
:1012DC00E064646003021413900004F090006374E3
:1012EC0014F022900040E0FF701B900038E0B40234
:1012FC0014E490005CF090005DF0A37405F0900095
:10130C00637402F022900038E0701B900030E0B45F
:10131C000214E490005CF090005DF0A37405F09072
:10132C0000637403F022900030E0701B900028E002
:10133C00B40214E490005CF090005DF0A3745AF0D9
:10134C009000637404F022900028E0701990002043
:10135C00E0B40212E490005CF090005DF0A3740520
:10136C00F0900063F022900020E0FE701B900018BB
:10137C00E0B40214E490005CF090005DF0A3745AA9
:10138C00F09000637406F022EE701B900010E0B435
:10139C000214E490005CF090005DF0A3745AF0909D
:1013AC0000637407F022900018E0701B900008E0B6
:1013BC00B40214E490005CF090005DF0A37405F0AE
:1013CC009000637408F022900010E0701B900008ED
:1013DC00E0B40214E490005CF090005DF0A374059E
:1013EC00F09000637409F022900008E07019EFB4DB
:1013FC000215E490005CF090005DF0A37405F09091
:08140C000063740AF0220022C3
:092817009000637414F002280C17
:0424E7004100690047
:10229E00900069E0146017146021146049240370E3
:1022AE005130950320964C9000697401F0223095C0
:1022BE00032096389000697402F02220950F90004A
:1022CE0040E0B401087402F090000714F020960F5D
:1022DE00900008E0B401087402F090000714F0902A
:1022EE0000697403F02230950A309607E490006975
:0422FE00F0220022A8
:10204C000221C9E493A3F8E493A34003F68001F2C0
:10205C0008DFF48029E493A3F85407240CC8C33395
:10206C00C4540F4420C8834004F456800146F6DF64
:10207C00E4800B01020408102040809024BCE47E14
:10208C00019360BCA3FF543F30E509541FFEE49359
:10209C00A360010ECF54C025E060A840B8E493A320
:1020AC00FAE493A3F8E493A3C8C582C8CAC583CA4B
:1020BC00F0A3C8C582C8CAC583CADFE9DEE780BE03
:0124EB0000F0
:10141400BB010689828A83E0225002E722BBFE02D6
:09142400E32289828A83E4932209
:10142D00EF8DF0A4A8F0CF8CF0A428CE8DF0A42ED3
:02143D00FE228D
:10143F00BC000BBE0029EF8DF084FFADF022E4CC91
:10144F00F875F008EF2FFFEE33FEEC33FCEE9DEC5A
:10145F00984005FCEE9DFE0FD5F0E9E4CEFD22EDA0
:10146F00F8F5F0EE8420D21CFEADF075F008EF2FEA
:10147F00FFED33FD4007985006D5F0F222C398FDDB
:05148F000FD5F0EA2278
:10149400C5F0F8A3E028F0C5F0F8E58215827002E3
:0614A4001583E038F02280
:1014AA00A3F8E0C5F025F0F0E582158270021583F5
:0614BA00E0C838F0E82252
:1014C000E88FF0A4CC8BF0A42CFCE98EF0A42CFCCB
:1014D0008AF0EDA42CFCEA8EF0A4CDA8F08BF0A449
:1014E0002DCC3825F0FDE98FF0A42CCD35F0FCEBA8
:1014F0008EF0A4FEA9F0EB8FF0A4CFC5F02ECD396D
:0F150000FEE43CFCEAA42DCE35F0FDE43CFC22D9
:1023DE00C2D5E830E70FB2D5E4C39BFBE49AFAE42A
:1023EE0099F9E498F8EC30E717B2D51224141215C7
:1023FE0071E4C39BFBE49AFAE499F9E498F880033C
:10240E0012157130D50DE4C39FFFE49EFEE49DFDD1
:04241E00E49CFC221C
:10150F00D083D082F8E4937012740193700DA3A36B
:10151F0093F8740193F5828883E47374029368607F
:06152F00EFA3A3A380DF7F
:1015350075F008758200EF2FFFEE33FECD33CDCC6D
:1015450033CCC58233C5829BED9AEC99E5829840F0
:101555000CF582EE9BFEED9AFDEC99FC0FD5F0D6CD
:10156500E4CEFBE4CDFAE4CCF9A88222B800C1B9F7
:101575000059BA002DEC8BF084CFCECDFCE5F0CB35
:10158500F97818EF2FFFEE33FEED33FDEC33FCEB6E
:1015950033FB10D703994004EB99FB0FD8E5E4F929
:1015A500FA227818EF2FFFEE33FEED33FDEC33FC16
:1015B500C933C910D7059BE99A4007EC9BFCE99A0A
:1015C500F90FD8E0E4C9FAE4CCFB2275F010EF2F4F
:1015D500FFEE33FEED33FDCC33CCC833C810D7074F
:1015E5009BEC9AE899400AED9BFDEC9AFCE899F88A
:0E15F5000FD5F0DAE4CDFBE4CCFAE4C8F9221D
:00000001FF
