:0300000002207C5F
:0C207C00787FE4F6D8FD75810F0220C3C8
:04249D004100660094
:1024CD00900000E014601114601214601414601573
:1024DD0024047016E4FF800FE4FF80027F01020FD9
:0B24ED008B7F0180027F0212001E2284
:1023AD00E4FFEF75F008A42409F582E43400F58309
:1023BD00E0FCA3E0FDEF75F008A4240DF582E434F4
:1023CD0000F583ECF0A3EDF0EF75F008A4240FF504
:1023DD0082E43400F583E4F00FEFB408C5900017E4
:0323ED007401F088
:0123F00022CA
:1024F800E4FEEE75F008A4240FF582E43400F583B9
:10250800E4F00EEEB408EBEF75F008A4240FF582A2
:08251800E43400F5837401F0C6
:012520002298
:101AC600E4FEEE75F008A4240FF582E43400F583F5
:101AD600E0B40102AB060EEEB408E7EF6077EB75F3
:101AE600F008A4240DF582E43400F583E0FEA3E0BB
:101AF600FF7C007D3C12147BEF24FFFFEE34FFFEDB
:101B06007C007D3C121469EB75F008A4240DF58267
:101B1600E43400F583EEF0A3EFF0EB75F008A424AF
:101B26000DF582E43400F583E0FEA3E0FFD39408CC
:101B3600EE9407500BEF9400EE94004003021BC492
:101B4600EB75F008A4240DF582E43400F5837407E0
:101B5600F0A304F022EB75F008A4240DF582E4341A
:101B660000F583E0FEA3E0FF7C007D3C12147BEFD2
:101B76002401FFE43EFE7C007D3C121469EB75F007
:101B860008A4240DF582E43400F583EEF0A3EFF00B
:101B9600EB75F008A4240DF582E43400F583E0FE2D
:101BA600A3E0D39408EE94074014EB75F008A42440
:0E1BB6000DF582E43400F583E4F0A3743CF0F6
:011BC40022FE
:100A6000900048EFF0B410004003020CDD900A74CF
:100A7000F8282873020AA4020AA7020ACD020AFB78
:100A8000020B20020B43020B67020B8B020BAF021F
:100A90000BD3020BF6020C19020C3C020C63020C85
:100AA0009D020CBC020CDD900066E0640260030253
:100AB0000CE2900048E0FF121FED7F647E001225DB
:100AC000219000007401F01223AD020B86900066A5
:100AD000E064026003020CE2900048E0FF121FEDA8
:100AE0007F647E00122521900006E0B40104E4F04A
:100AF00080069000067401F0E48044900066E06493
:100B0000026003020CE2900048E0FF121FED7F64D8
:100B10007E001225219000007403F07F01020CD8A2
:100B2000900066E064026003020CE2900048E0FF7F
:100B3000121FED7F647E00122521E4900000F0FF7B
:100B4000020CD8900066E064026003020CE29000A0
:100B500048E0FF121FED7F647E001225217F011205
:100B600024F8E41F020C5D900066E064026003025A
:100B70000CE2900048E0FF121FED7F647E0012251A
:100B8000217F021224F8E4FF020C5D900066E0640D
:100B9000026003020CE2900048E0FF121FED7F6448
:100BA0007E001225217F031224F8E4FF020C5D90E1
:100BB0000066E064026003020CE2900048E0FF126D
:100BC0001FED7F647E001225217F041224F8E4FFCC
:100BD000020C5D900066E064026003020CE290008B
:100BE00048E0FF121FED7F647E001225217F051271
:100BF00024F8E4FF8067900066E064026003020C62
:100C0000E2900048E0FF121FED7F647E0012252174
:100C10007F061224F8E4FF8044900066E0640260DE
:100C200003020CE2900048E0FF121FED7F467E00B9
:100C3000122521E4FF121AC6E4FF8021900066E02D
:100C400064026003020CE2900048E0FF121FED7F97
:100C5000467E001225217F01121AC6E4FF120F8B77
:100C6000020CE2900066E064027077900048E0FFBA
:100C7000121FED7F647E001225217F03120F8B125D
:100C8000163FEF60047F0180027F02120F8B7FE826
:100C90007E03122521E4900000F0FF803B90006667
:100CA000E06402703D900048E0FF121FED7F647E1B
:100CB00000122521E4900000F0FF801C900066E007
:100CC000B4021F900048E0FF121FED7F647E001207
:100CD0002521E4900000F0FF12001E8005E4900042
:100CE00066F0900048E0FFD394004012EF9410505B
:100CF0000D900066E004F07F0A7E00022521E4905A
:040D00000066F02277
:1022BB00121C891224697FD07E07122521121F4917
:1022CB001225951227C51227D9E4FF12001E1219E9
:1022DB0092120A60900007E0B4010A1224CDE49038
:1022EB000007F080E9900007E0B402E2900000E004
:1022FB00FF640160D9EF640260D4122315E49000EF
:0A230B0007F07F0AFE12252180C4AE
:10076400B6A8CAB1C9E8D6C33A00BCD320D2BB00EC
:10077400B7D620D6D300BCF520D2BB00CEB400C976
:10078400E800D6C300B7D600D6D300BDF8003100C8
:1007940032003300340035003600B3F600B1A32034
:1007A40020B4E600B7B52020BBD800B1A320B4E63E
:1007B40020B3C920B9A600B1A320B4E620CAA7205B
:1007C400B0DC00B1A320B4E620D6D02E2E2E00C17A
:1007D400AACFB5C8CB3AC2BDD6BEB6AB00C1AACF6C
:1007E400B5B5E7BBB03A2031333536373430323320
:1007F400363700D7B4CCAC00D7D4B6AF00CAD6B61F
:10080400AF00BBFAD0B5B1DBB6AFD7F73A00BFD56E
:10081400CFD0003C2D2D2D002D2D2D3E00CFF2C923
:10082400CF00CFF2CFC200B4EDCEF300BFD500CFDE
:10083400D000BECD00D0F700C3A600C2B500B6A854
:10084400CAB1C9E8D6C300CAD6B6AF2FD7D4B6AF9B
:1008540000C8A1CFFBCFC2B0E000CFC2B0E0B0B4BB
:10086400BCFC00B9D820BBFA20D6D02E2E2E00B95D
:10087400D820BBFA20B3C920B9A600B2E2CAD4B3C7
:10088400CCD0F2B2B7CFFE202020202C20CEBAC18B
:10089400E9BEEA2020CEBAC1E9BEEAB9FEB9FE201B
:1008A400202020B2FAC6B7D0CDBAC53A2043483387
:1008B4003230323430422D322020352E37B4E733F3
:1008C400323078323430B5E3D5F320D6A7B3D652DC
:1008D40041383830332F524138383036BFD8D6C635
:1008E4002CD6A7B3D63556BACD332E3356B5E7D169
:1008F400B92020D6A7B3D6B4A5C3FE2CBCFCC5CC66
:10090400C9A8C3E8B9A6C4DC2020202020202020C8
:100914002020202020202020202020CFD4CABED771
:10092400D6D0CDBFC9B7C5B4F3B5BD3332783332F1
:10093400A1A2343878343820BBF2363478363420E7
:10094400202020C4DABDA8B4D6CCE5D7D6D0CED3E7
:10095400EBD0D0BEE0C9E8B6A8202020202020207B
:100964002020202020202020202020D6A7B3D6C657
:10097400C1C4BBCBAEC6BDBEEDB6AFBCB0B4B9D678
:10098400B1BEEDB6AFB9A6C4DC20202020202020C3
:10099400202020B9E2B1EAA1A2B7B4B0D7A1A2C97C
:1009A400C1CBB8B9A6C4DCA3ACB9E2B1EAB8DFB62E
:1009B400C8D3EBBFEDB6C8BFC9B5F7D6A7B3D6CE7B
:1009C400C4D7D6D3EBBBE6CDBCC1BDD6D6BBECBA3F
:1009D400CDCFD4CABEC4A3CABD202020202020204D
:1009E400202020000718204040808080E018040266
:1009F40002010101808080404020180701010102AA
:100A0400020418E0071F3F7F7FFFFFFFE0F8FCFEB2
:100A1400FEFFFFFFFFFFFF7F7F3F1F07FFFFFFFE7C
:100A2400FEFCF8E01824428181422418183C7EFF21
:100A3400FF7E3C18FFFFFFFFFFFFFFFF000001FCEC
:100A44007FFC6618663066607FFE7E7A665A66DAD8
:0C0A54007EB27FB2676600CE018C00000D
:0C262200AC07122786AF0412260C7FB014
:10262E00C2A5D2A4D2A2C2A38F80C2A3D2A3D2A586
:01263E002279
:062690007F0F12262EFF51
:1026960030A6FDC2A5D2A4C2A28F80C2A3D2A3D265
:0226A600A5226B
:0A25E0007FFF12262E1226967FC3FD
:1025EA00C2A5D2A2D2A48F80C2A3D2A37580FFC2F1
:0925FA00A2D2A3D2A4C2A4AF80B6
:0126030022B4
:101C8900C2A77F327E00122521D2A77F327E0012A1
:101C99002521E4FF12262E7F041226967F011226A3
:101CA9002E7F081226967F031226921226907F1005
:101CB9001226927F111226927F1212262E1F1226A9
:101CC900967F2012262E7F271226967F2112262EF6
:101CD9007F271226967F3012262E7FEF1226967FB7
:101CE9003112262E7FEF1226967F401226927F50C0
:101CF9001226927F601226927F611226927F6212CB
:101D090026927F701226927F711226927F72122676
:101D1900927F801226927F9012262E7F801226961D
:101D29007FE01226927FF01226927FF112262EFF73
:031D3900022696E9
:08260400900051E0FFE92AFDFE
:10260C00AE077F6012262EAF061226967F7012261A
:06261C002EAF0502269618
:10277100E4FF1225EAAE07EE54F7FEE4FF12262E1F
:05278100AF06022696E0
:10278600E4FF1225EAAE07EE4408FEE4FF12262E09
:05279600AF06022696CB
:1026D7007F121225EAAE07EE549F4410FE7F1212B6
:0626E700262EFF022696DC
:1026ED007F121225EAAE07EE54BF4430FE7F121260
:0626FD00262EFF022696C6
:102703007F121225EAAE07EE54F74404FE7F12123D
:06271300262EFF022696AF
:102719007F121225EAAE07EE54FD4401FE7F121224
:06272900262EFF02269699
:10272F007F121225EAAE07EE54FE4402FE7F12120C
:06273F00262EFF02269683
:1026C0001227717FE012262EE4FF1226967FF01269
:0726D000262E7FA8022696CA
:10279B00E4FF1225EAAE07EE54FEFEE4FF12262EEE
:0527AB00AF06022696B6
:09263F001227191226C012279B74
:102648007F101225EAAE07EE54DFFE7F1012262E09
:04265800FF022696C1
:10243500EF24FE601314601914601F240370247FB9
:10244500F112262EE4FF80187FF112262E7F508090
:102455000F7FF112262E7FA080067FF112262E1FF8
:042465001226962283
:0F236800E075F005A404FF7BFF7A0779897D7487
:1023770090004CEBF0A3EAF0A3E9F01226229000BC
:102387004CE0FBA3E0FAA3E0F912145060179000A9
:102397004CA3E475F0011214E6A9F0FA121450FFE9
:0623A70012269680D922E7
:0928010075F00A842430FB7D60AF
:08280A00122622AF03022696FC
:101BC5009000547430F0A37401F07B147D507F0AAB
:071BD500900051EFF0A9059B
:101BDC00122771E4FA900054E0FFEAC39F4003021D
:101BEC001C88EA701A122604E4FCECC39B40030226
:101BFC001C847FB012262E7FFF1226960C80EBEAF7
:101C0C00D394004054900054E014FFEA9F504A9043
:101C1C000051E0FFE92AFD122629900055E0601BD7
:101C2C007F801226967C01EB14FFECC39F5008E4D6
:101C3C00FF1226960C80F07F0180197FFF122696EA
:101C4C007C01EB14FFECC39F50087FFF1226960C0F
:101C5C0080F07FFF122696801F900054E0146A706B
:101C6C0017122604E4FCECC39B500D7FB012262EF9
:0C1C7C007FFF1226960C80EE0A021BE18E
:011C88002239
:04219200A3F07B013A
:0B219600900051EFF0A3EDF0A3EBF080
:1021A100122771E4900058F0900054E0FF9000581D
:1021B100E0C39F5042E4FC900053E0FFECC39F500A
:1021C1002E900051E02CFF900058E0FE900052E06C
:1021D1002EFD122629900055E0FBA3E475F00112B3
:1021E10014E6A9F0FA121450FF1226960C80C8903A
:0721F1000058E004F080B18A
:0121F80022C4
:1018100090004F7440F0A37401F07B167D487F095F
:1018200090004CEFF0A3EDF0A3EBF0900050E090AF
:10183000004C70030218DFE0FFA3E0FDA3E0FBA370
:10184000E0900054F0A37401F0121BD590004CE01E
:10185000FFA3E0FD9000547408F0A374FFF0A3749C
:1018600009F074E812219290004CE0FF90004FE0E4
:10187000FE90004DE02E24F8FD9000547408F0A373
:1018800074FFF0A37409F074F812219290004EE0F6
:10189000FF90004CE02F14FFA3E0FD90005474086B
:1018A000F0A374FFF0A37409F0A374F0F07B0112AD
:1018B000219690004EE0FF90004CE02F14FF900026
:1018C0004FE0FE90004DE02E24F8FD900054740887
:1018D000F0A374FFF0A3740AF0A3740002198BE064
:1018E000FFA3E0FDA3E0FBA3E0900054F0E4A3F02D
:1018F000121BD590004CE0FFA3E0FD90005474084B
:10190000F0A374FFF0A3740AF0A37408F07B011233
:10191000219690004CE0FF90004FE0FE90004DE0DB
:101920002E24F8FD9000547408F0A374FFF0A37403
:101930000AF0A37418F07B0112219690004EE0FF8C
:1019400090004CE02F14FFA3E0FD9000547408F0C9
:10195000A374FFF0A3740AF0A37410F07B011221AA
:101960009690004EE0FF90004CE02F14FF90004F47
:10197000E0FE90004DE02E24F8FD9000547408F035
:10198000A374FFF0A3740AF0A37420F07B0112216A
:0219900096229D
:1027C5007FC01225EAAE07EE4480FE7FC012262E9A
:0427D500FF02269643
:1027D9007FC41225EAAE07EE4480FE7FC412262E7E
:0427E900FF0226962F
:102745007FC41225EAAE07EE54FE4402FE7FC41292
:06275500262EFF0226966D
:10275B007FC41225EAAE07EE44014402FE7FC41289
:06276B00262EFF02269657
:10256F00EF2458FFEE34FCFEE434FFFDE434FFFCAF
:10257F00E47B407A01F9F81214FC7BB47AFC79FF02
:05258F0078FF1223F1AA
:012594002224
:1025BB00EF2480FFEE34FCFEE434FFFDE434FFFC3B
:1025CB00E47BF0FAF9F81214FC7BEC7AFC79FF78D7
:0425DB00FF1223F1D7
:0125DF0022D9
:100D0400E4F9900000E06003020DA0D3EF9400EE3C
:100D140094004027EF9460EE9400501FED94D0ECC3
:100D240094004017ED94F0EC9400500F900006E00E
:100D340064016003020F8809020F88D3EF9468EE00
:100D44009400401DEF94D0EE94005015ED94D0EC37
:100D54009400400DED94F0EC940050057902020FDC
:100D640088D3EF94D8EE94005003020F88EF9438A0
:100D7400EE94014003020F88ED94D0EC94005003EC
:100D8400020F88ED94F0EC94004003020F88900069
:100D940006E06003020F887903020F88900000E0E8
:100DA40064037032D3EF94D8EE94005003020F889A
:100DB400EF9438EE94014003020F88ED94D0EC9444
:100DC400005003020F88ED94F0EC94004003020FEE
:100DD400887904020F88900000E064016003020F28
:100DE4005ED3EF9428EE9400401DEF9448EE9400F7
:100DF4005015ED944AEC9400400DED94AEEC940043
:100E040050057905020F88D3EF9450EE9400401DED
:100E1400EF9470EE94005015ED944AEC9400400D5C
:100E2400ED94AEEC940050057906020F88D3EF944C
:100E340078EE9400401DEF9498EE94005015ED94D4
:100E44004AEC9400400DED94AEEC94005005790703
:100E5400020F88D3EF94A0EE9400401DEF94C0EEEF
:100E640094005015ED944AEC9400400DED94AEECD2
:100E7400940050057908020F88D3EF94C8EE9400CB
:100E8400401DEF94E8EE94005015ED944AEC940064
:100E9400400DED94AEEC940050057909020F88D30F
:100EA400EF94F0EE9400401DEF9410EE9401501571
:100EB400ED944AEC9400400DED94AEEC9400500592
:100EC400790A020F88D3EF94A0EE9400401DEF94AA
:100ED400D8EE94005015ED940CEC9400400DED9474
:100EE4003CEC94005005790B020F88D3EF94E8EEA4
:100EF4009400401CEF9420EE94015014ED940CECFB
:100F04009400400CED943CEC94005004790C8074F3
:100F1400D3EF9470EE9400401CEF94D0EE94005004
:100F240014ED94D0EC9400400CED94F0EC9400504B
:100F340004790D804FD3EF94D8EE94004046EF949B
:100F440038EE9401503EED94D0EC94004036ED948C
:100F5400F0EC9400502E790E802A900000E0B40248
:100F640023D3EF94D8EE9400401AEF9438EE940112
:100F74005012ED94D0EC9400400AED94F0EC9400FF
:060F84005002790FAF01DD
:010F8A002244
:10199200E4900049F0FE7FC412262E7F8112269623
:1019A2007FFF12262E1226967F0F1225EAEF20E3E2
:1019B20003021AC0E4FD7F0F1225EAEF7003FE80D6
:1019C2000BEDB431027E010DEDB432EAEE7003028A
:1019D2001AB41227457F647E0012265C12275B7FB1
:1019E200647E0012265C7FC11225EAAE077FFF12D9
:1019F200262E1226967FC21225EA900048EFF01298
:101A020025E0EF5403FD1225E0EF540CF97FFF129D
:101A1200262E122696AF067E00EF7802C333CE330F
:101A2200CED8F9FFED5403FDEF4DFDAC0690004812
:101A3200E07E007802C333CE33CED8F9FBAA067E0D
:101A420000E9540C7802CEC313CE13D8F9FFEE4A44
:101A5200FEEF4BFF90004AEEF0A3EFF0C3ED94B41B
:101A6200EC9403504DED945EEC9400404590004A96
:101A7200E0FEA3E0FF94B0EE94035036EF945CEEE8
:101A82009400402EAE04AF0512256F90004CEEF08C
:101A9200A3EFF090004AE0FEA3E0FF1225BBAD07E2
:101AA200AC0690004CE0FEA3E0FF120D049000494A
:101AB200EFF07F0F1225EAEF54FEFE1226909000FF
:031AC20049E0FFF9
:011AC50022FE
:050F8B00900049EFF0A9
:100F900012272F1226C090004F7430F0A37401F076
:100FA0007B077D0C7F1412182090004F7430F0A343
:100FB0007401F07B077D0C7F1D121820E490004A1D
:100FC000F090004AE0FFC394085043EF75F008A486
:100FD000240FF582E43400F583E090004A6010E0CD
:100FE00075F005A4FF9000547464F0E4A3800FE052
:100FF00075F005A4FF9000547464F0A37401F07BB5
:10100000047D4A121BD590004AE004F080B39000A2
:1010100000E0B4011390004F7420F0A37401F07B42
:101020000C7DD07F0E12182090004F7420F0A37416
:1010300001F07B0C7DD07F1B121820900049E060EE
:101040000312181012263F7BFF7A0779647D087F10
:10105000011223777BFF7A07796E7D127F151223A9
:10106000777BFF7A0779747D267F151223777BFFC4
:101070007A07797A7D127F1E1223777BFF7A0779B0
:10108000747D267F1E1223777BFF7A0779807D602F
:101090007F011223777BFF7A0779837D747F0112AA
:1010A00023777BFF7A0779867D887F0112237790EB
:1010B000004A7401F090004AE0FB75F008A4240D8A
:1010C000F582E43400F583E0FEA3E0FF7C007D3C84
:1010D00012147B90004BEFF0FEEB75F005A404FFBB
:1010E000EE12280190004AE075F005A42402FFA347
:1010F000E075F00A84E5F02430FB12280A90004ADB
:1011000012236890004AE075F005A404FF7BFF7A83
:1011100007798C7D8812237790004AE004F0E0C3C1
:10112000940740917BFF7A0779807D607F241223AA
:10113000777BFF7A0779837D747F241223777BFF87
:101140007A0779867D887F241223777BFF7A077957
:101150008F7DB47F011223777BFF7A0779927F0618
:101160001223777BFF7A0779947F0B1223777BFF1B
:101170007A0779967F101223777BFF7A0779987F19
:10118000151223777BFF7A07799A7F1A1223777BD0
:10119000FF7A07799C7F1F1223777BFF7A07799E5E
:1011A0007F24122377900000E0B4010D7BFF7A07C3
:1011B00079A17DD87F111223777BFF7A0779A87DEB
:1011C000D87F1E122377900049E0603790004F745B
:1011D00040F0E4A3121819121BC5900049E0B401B5
:1011E000087BFF7A0779AF8013900049E07BFFB45A
:1011F00002067A0779BB80047A0779C77D607F0E83
:091200001223771227030226EDE8
:1024690012272F1226481226C0122719122648129F
:1024790026C01226D77F011224357BFF7A0779D32C
:102489007D357F041223777BFF7A0779E17D537FBE
:04249900040223779F
:05001E00900049EFF025
:1000230012272F1226C09000547420F0A37401F0FD
:100033007B08E4FDFF121BD59000547420F0A374D9
:1000430001F0E4FD7F08121BD5E490004AF0900014
:100053004AE0FFC39408504DEF75F005A42402FF56
:100063009000547408F0A374FFF0A3740AF0A3740F
:1000730028F07B017D2A12219690004AE075F00555
:10008300A42402FF9000547408F0A374FFF0A37437
:100093000AF0A37428F07B017D3A12219690004A5E
:1000A300E004F080A9900003E0FF20E02590000227
:1000B300E0700BEFC31375F005A4240280249000B5
:1000C30002E064027060A3E0C31375F005A4240288
:1000D300803A900002E07023A3E0C31375F005A4F7
:1000E3002404FF9000547408F0A374FFF0A3740A6F
:1000F300F0A37430F07B017D2A8028900002E0B4E5
:100103000224A3E0C31375F005A42404FF90005454
:100113007408F0A374FFF0A3740AF0A37430F07BA7
:10012300017D3A122196E490004AF090004AE0FFE4
:10013300C394085043EF75F008A42408F582E4340F
:1001430000F583E090004A6010E075F005A4FF908D
:1001530000547464F0E4A3800FE075F005A4FF90ED
:1001630000547464F0A37401F07B047D4A121BD520
:1001730090004AE004F080B3900049E0702D9000B5
:1001830006E0B4011390004F7420F0A37401F07BD8
:100193000C7DD0E4FF12182090004F7420F0A3745C
:1001A30001F07B0D7DD07F0D121820900006E070CA
:1001B3001B900049E06402601390004F7420F0A389
:1001C3007401F07B0C7DD07F1B121820900049E056
:1001D300600312181012263F7BFF7A0779F77D0818
:1001E3007F02122377900006E07BFF70067A07797F
:1001F300FC80067A0879017D087F0A1223777BFF4A
:100203007A0879067D087F16122377900001E0149F
:10021300601514601A14601F146024240470287B72
:10022300FF7A08791280267BFF7A087917801E7B74
:10023300FF7A08791C80167BFF7A087921800E7B70
:10024300FF7A08792680067BFF7A08792B7D087F61
:1002530022122377E490004AF090004AE0FFC3940F
:1002630008400302038AEF75F008A42408F582E42A
:100273003400F583E0702890004AE075F005A4048B
:10028300FF7BFF7A0879307D6412237790004AE080
:1002930075F005A404FF7BFF7A08793302037C9091
:1002A300004AE0FF75F008A42408F582E43400F561
:1002B30083E064027025EF75F005A404FF7BFF7AE9
:1002C3000879367D6412237790004AE075F005A41F
:1002D30004FF7BFF7A08793902037C90004AE0FF30
:1002E30060726407606EE075F008A4240BF582E485
:1002F3003400F583E0FCA3E0FDEF75F008A42409C6
:10030300F582E43400F583E0FEA3E0C39DFFEE9C99
:10031300FE7C007D3C12147BAA0790004AE075F036
:1003230005A404FFEA122801E075F005A42402FFE6
:10033300EA75F00A84E5F02430FB12280A122368D8
:1003430090004AE075F005A404FF7BFF7A07798CDF
:100353007D88802790004AE075F005A404FF7BFFA9
:100363007A08793C7D6412237790004AE075F005A2
:10037300A404FF7BFF7A08793F7D841223779000E2
:100383004AE004F002025C7BFF7A07798F7DB47F39
:10039300011223777BFF7A0779927F061223777BFB
:1003A300FF7A0779947F0B1223777BFF7A0779967D
:1003B3007F101223777BFF7A0779987F15122377B3
:1003C3007BFF7A07799A7F1A1223777BFF7A077963
:1003D3009C7F1F1223777BFF7A07799E7F2412234A
:1003E30077900049E07021900006E0B4010D7BFF97
:1003F3007A0879427DD87F021223777BFF7A0879C6
:100403004B7DD87F0F122377900049E0B401087B1E
:10041300FF7A0879558012900049E0701390000626
:10042300E0700D7BFF7A08795E7DD87F1D122377FC
:10043300900049E0602890004F7440F0E4A3121844
:1004430019121BC5900049E07BFFB401067A0879B5
:100453006780047A0879737D607F0E1223771227F1
:04046300030226ED7D
:1023150012271912279B122648900001E014601518
:1023250014601A14601F146024240470287BFF7A3B
:1023350008791280267BFF7A087917801E7BFF7A41
:1023450008791C80167BFF7A087921800E7BFF7A3D
:1023550008792680067BFF7A08792B7D087F221273
:03236500237722B9
:101FED00AD0712272FED12154B20150120250220CC
:101FFD00690320690420360B20470C20580D2069F9
:10200D000E20690F0000207B90004F7420F0E4A398
:10201D00F07B0C7DD0FF805390004F7420F0E4A333
:10202D00F07B0D7DD07F0D804290004F7430F0E439
:10203D00A3F07B077D0C7F14803190004F7430F03E
:10204D00E4A3F07B077D0C7F1D802090004F742052
:10205D00F0E4A3F07B0C7DD07F0E800F90004F74C9
:0F206D0020F0E4A3F07B0C7DD07F1B1218202203
:10265C00EF1FAC0670011E4C601090004FE004F0B0
:0A266C0070EE90004EE004F080E6EE
:012676002241
:08252100900049EEF0A3EFF079
:10252900E4FBFAD390004AE09B900049E09A400E00
:0E2539007FDE7E0112265C0BBB00010A80E5EE
:012547002271
:101E9F0090004AE4F0A304F07F0A1227ED7F007E42
:101EAF00011226A8EF64EE6003021F3B900048F07A
:101EBF00A3F0900048E0FEA3E0FFC39408EE940067
:101ECF005060EF25E0FFEE33FE1226A8EF7F00FEF5
:101EDF00C007C006900049E025E0FF900048E033BE
:101EEF00FEEF2401FFE43EFE1226A8EFFDD0E0FC3A
:101EFF00D0E04DFD900048E0FEA3E07803C333CE61
:101F0F0033CED8F92409F58274003EF583ECF0A3A3
:101F1F00EDF0900049E004F07098900048E004F074
:101F2F00809090004AE4F0A304F08007E490004A08
:091F3F00F0A3F090004AA3E0FFBA
:011F48002276
:101F4900E4900006F0900000F0FFEF75F008A4247B
:101F590008F582E43400F5837401F0EF75F008A404
:101F6900240BF582E43400F583E4F0A3F00FEFB419
:101F790008D8E4900010F0121E9FEF704E900009EF
:101F89007407F0A304F09000117402F0A374D0F068
:101F99009000197402F0A374D0F09000217401F03C
:101FA900A3742CF09000297401F0A3742CF0900014
:101FB900317401F0A3742CF09000397401F0A3740A
:101FC9002CF09000417407F0A304F0E4900001F0B4
:101FD900A37402F0E4A3F0900005F0900007F090DC
:031FE9000004F001
:011FEC0022D2
:10163F0090004BE4F0A304F07F0A1227EDE4FFFEC5
:10164F001227B0E4900049F0A3F0900049E0FEA308
:10165F00E0FFC3EE9402501E1226A8EFF46007E4D9
:10166F0090004BF0A3F090004AE004F070DC900083
:10167F0049E004F080D47F0A1227EDE4900049F08E
:10168F00A3F0900049E0FCA3E0FD25E0FFEC33FE62
:10169F00C006C007EDAE047803C333CE33CED8F9FE
:1016AF00240DF58274003EF583E0FDD007D00612BD
:1016BF002677900049E0FCA3E0FD25E0FFEC33FE28
:1016CF00EF2401FFE43EFEC006C007EDAE04780331
:1016DF00C333CE33CED8F9240DF58274003EF58393
:1016EF00A3E0FDD007D00612267790004AE004F061
:1016FF007006900049E004F0C390004AE09408900F
:10170F000049E0940050030216917DEE7F007E01A8
:10171F001226777F0A1227EDE4900049F0A3F0908C
:10172F000049E0FEA3E0FFC39408EE9400507CEF65
:10173F0025E0FFEE33FE1226A8AD07900049E0FA30
:10174F00A3E0FBAE027803C333CE33CED8F9240D1A
:10175F00F58274003EF583E06D6007E490004BF076
:10176F00A3F0EB25E0FFEA33FEEF2401FFE43EFE9A
:10177F001226A8AD07900049E0FEA3E07803C3331B
:10178F00CE33CED8F9240DF58274003EF583A3E055
:10179F006D6007E490004BF0A3F090004AE004F076
:1017AF007006900049E004F002172EE4900049F013
:1017BF00A3F0900049E0FEA3E0FFC39408EE94006D
:1017CF005038EF7803C333CE33CED8F9FF240DF55D
:1017DF008274003EF583E0FCA3E0FD74092FF582CF
:1017EF0074003EF583ECF0A3EDF090004AE004F0B6
:1017FF0070C0900049E004F080B890004BA3E0FF68
:01180F0022B6
:1027ED00AE071FEE600DE4FCFD0DED70010C4C60AD
:0327FD00EF80F674
:0128000022B5
:0D000E00E4F5C7F5C5F5C675C380F5C4223D
:1026A80075C78375C5018FC4EEF5C375C65A75C65F
:0726B800A500AFC212000EE5
:0126BF0022F8
:1026770075C78375C5028FC4EEF5C3AF058FC275E5
:09268700C65A75C6A50002000E3A
:1027B00075C78375C5038FC4EEF5C375C65A75C654
:0527C000A50002000E5F
:101DEE00E4FBEB75F008A42408F582E43400F583D7
:101DFE00E064016003021E95EB75F008A4240BF558
:101E0E0082E43400F583E475F0011214D0EB75F022
:101E1E0008A42409F582E43400F583E0FEA3E0FF74
:101E2E00EB75F008A4240BF582E43400F583E0FC96
:101E3E00A3E0C39FEC9E402CEB601764076013EB8E
:101E4E0075F008A42408F582E43400F5837402F0DA
:101E5E008012EB75F008A4240BF582E43400F583B0
:101E6E00E4F0A3F0EB75F008A4240BF582E4340043
:101E7E00F583E0FEA3E0FF7C007D3C12147BED4C6D
:101E8E00700590000704F00BEB64086003021DF070
:011E9E002221
:03000B0002254883
:10254800C0E0C0F0C083C082C0D075D008758A20B2
:10255800758CD1900064E004F0121D3CD0D0D0827C
:07256800D083D0F0D0E03277
:03001B0002225D61
:10225D00C0E0C0F0C083C082C0D075D008758BA01F
:10226D00758D15900065E004F0900000E064046049
:10227D0032900065E0B4C813E4F0121DEE90005BDF
:10228D00E004F0700690005AE004F0900065E02044
:10229D00E011900006E07005121209800312281D4E
:0E22AD001221F9D0D0D082D083D0F0D0E03210
:10259500758EC0758911758A20758CD1D28CD2A99A
:1025A500758BA0758D15D28ED2ABD2AFE490006538
:0625B500F0900064F0222A
:0424A100410067008F
:101D3C00900067E0FF700930B403021DED04F0223F
:101D4C00EF6401704920B444900005E0FFB4021A1E
:101D5C00900003E004F09000077401F0900003E0A1
:101D6C00D3940E4020740EF0801BEFB4011790003A
:101D7C0003E014F09000077401F0900003E0D3949A
:101D8C00C84002E4F09000677402F022804E90008C
:101D9C0067E0B4020730B4497403F02230B44290C7
:101DAC000005E0FFB4021A900003E004F090000775
:101DBC007401F0900003E0D3940E4020740EF08078
:101DCC001BEFB40117900003E014F09000077401AE
:101DDC00F0900003E0D394C84002E4F0E490006774
:021DEC00F022E3
:1024A50041005C6442005D000A4100596442005AE3
:0224B500000025
:1004670090005CE0B40C00400302076290047AF845
:1004770028287302049E0204A102050702052B0225
:10048700059E0205B202049E0205FA02066B0206E9
:10049700920207080207200205EFD390005BE09461
:1004A7000A90005AE094005003020763900003E0AB
:1004B700FED39F4029D2A1900004E0B40106D2A048
:1004C700C2928004C2A0D2929000057401F09000FD
:1004D70001F0900007E06003020763020641EEC3E4
:1004E7009F501AD2A0C2A19000057402F09000019B
:1004F700F0900007E060030207630206410206630B
:10050700900003E06F600302076390005AF0A3F0C6
:10051700D2A0D2A1900001F0900007E0707674029B
:10052700F002068CD390005BE0940A90005AE094A6
:10053700005003020763900003E0FED39F4028D2D8
:10054700A1900004E0B40106D2A0C2928004C2A028
:10055700D2929000057401F0900001F0900007E03E
:1005670070217402F0801CEEC39F501DD2A0C2A15F
:100577009000057402F0900001F0900007E070030E
:100587007402F090005C02065FD292900007E07060
:10059700037402F002068CC2909000017403F0907D
:1005A7000007E070037402F002068C30B103020703
:1005B70063D290E4900002F0900001F0EFC313FEC5
:1005C70075F008A42408F582E43400F583E4F0EE1E
:1005D70075F008A4240BF582E43400F583E4F0A356
:1005E700F090000704F08076E490005AF0A3F0A39F
:1005F70002071C90005DE0FEA3E0FFD390005BE0E4
:100607009F90005AE09E5003020763900003E0FFAB
:10061700D39D4028D2A1900004E0B40106C292D233
:10062700A08004D292C2A09000057401F09000014E
:10063700F0900007E06003020763801CEFC39D5042
:100647001BD2A0C2A19000057402F0900001F090A7
:100657000007E060030207637402F022D292900061
:100667005C02071C900003E06D60030207639000C3
:100677005AF0A3F0D2A0D2A1900001F0900007E0B9
:1006870070037402F090005C02071CD390005BE0DB
:10069700940A90005AE09400500302076390000305
:1006A700E0FFD39D4028D2A1900004E0B40106C228
:1006B70092D2A08004D292C2A09000057401F0905B
:1006C7000001F0900007E070217402F0801CEFC376
:1006D7009D501ED2A0C2A19000057402F0900001A7
:1006E700F0900007E070037402F090005C7408F06B
:1006F70022D292900007E070037402F090005C80B1
:1007070014C2919000017404F0900007E070037424
:1007170002F090005CE004F02220B240D2919000F9
:10072700027402F0E4900001F0EDC313FF75F008C6
:10073700A42408F582E43400F5837401F0EF75F022
:1007470008A4240BF582E43400F583E4F0A3F090C9
:0D075700000704F090005C7464F0220022A2
:10210800900059E014601214603514605D24037067
:1021180077E490005AF0A38049D390005BE0940ADA
:1021280090005AE094004061C2A09000057401F04C
:10213800900001F0900007E070297402F0802420DC
:10214800B047E490005AF0A3F0D2A0D2A1900005C5
:10215800F0900001F0900007E070037402F0E49042
:102168000003F0900059E004F022D390005BE09463
:102178000A90005AE094004010E4F0A3F0900003A5
:0A218800F09000597464F022002268
:0B281200D2A0D2A1D290D291D292228B
:1024B7004100630041006000420061000041005F8D
:0124C7000014
:10120900900063E012154B12380012430112540288
:10121900126903127E0412930512A70612BB071264
:10122900E10812F50913090A132C140000144EE4FD
:10123900900059F090006304F0221221089000599F
:10124900E06464600302144F0213257D0E7F0C12C3
:10125900046790005CE06464600302144F02132584
:101269007D0C7F0A12046790005CE06464600302ED
:10127900144F0213257D0A7F0812046790005CE071
:101289006464600302144F0213257D087F0612046B
:101299006790005CE06464600302144F807E7D0601
:1012A9007F0412046790005CE06464600302144FD9
:1012B900806A7D067F0212046790005CE0646460C6
:1012C9000302144F9000637414F0900000E064036B
:1012D900600302144F02138C7D04E4FF120467902B
:1012E900005CE06464600302144F80307D02E4FF17
:1012F90012046790005CE06464600302144F801C70
:101309009000047401F0E4FD7F0E12046790005C04
:10131900E06464600302144F900004F09000637469
:1013290014F022900040E0FF701B900038E0B402F6
:1013390014E490005CF090005DF0A3740AF0900052
:10134900637402F022900038E0701B900030E0B422
:101359000214E490005CF090005DF0A3740AF09030
:1013690000637403F022900030E0701B900028E0C5
:10137900B40214E490005CF090005DF0A3745AF09C
:101389009000637404F022900028E0701B90002004
:10139900E0B40214E490005CF090005DF0A3740ADC
:1013A900F09000637405F022900020E0FE701B901D
:1013B9000018E0B40214E490005CF090005DF0A322
:1013C900745AF09000637406F022EE701B900010BE
:1013D900E0B40214E490005CF090005DF0A3745A4C
:1013E900F09000637407F022900018E0701B9000E1
:1013F90008E0B40214E490005CF090005DF0A3747E
:101409000AF09000637408F022900010E0701A90BE
:101419000008E0B40213E490005CF090005DF0A3D2
:10142900740AF090006314F022900008E07017EF3E
:10143900B40213E490005CF090005DF0A3740AF02C
:07144900900063F022002275
:09281D009000637414F00228120B
:0424C8004100680067
:1021F900900068E01460171460211460492403708A
:102209005130950320964C9000687401F022309566
:10221900032096389000687402F02220950F9000F0
:1022290040E0B401087402F090000714F020960F02
:10223900900008E0B401087402F090000714F090CF
:1022490000687403F02230950A309607E49000681C
:04225900F02200224D
:102088000222BBE493A3F8E493A34003F68001F291
:1020980008DFF48029E493A3F85407240CC8C33359
:1020A800C4540F4420C8834004F456800146F6DF28
:1020B800E4800B010204081020408090249DE47EF7
:1020C800019360BCA3FF543F30E509541FFEE4931D
:1020D800A360010ECF54C025E060A840B8E493A3E4
:1020E800FAE493A3F8E493A3C8C582C8CAC583CA0F
:1020F800F0A3C8C582C8CAC583CADFE9DEE780BEC7
:0124CC00000F
:10145000BB010689828A83E0225002E722BBFE029A
:09146000E32289828A83E49322CD
:10146900EF8DF0A4A8F0CF8CF0A428CE8DF0A42E97
:02147900FE2251
:10147B00BC000BBE0029EF8DF084FFADF022E4CC55
:10148B00F875F008EF2FFFEE33FEEC33FCEE9DEC1E
:10149B00984005FCEE9DFE0FD5F0E9E4CEFD22ED64
:1014AB00F8F5F0EE8420D21CFEADF075F008EF2FAE
:1014BB00FFED33FD4007985006D5F0F222C398FD9F
:0514CB000FD5F0EA223C
:1014D000C5F0F8A3E028F0C5F0F8E58215827002A7
:0614E0001583E038F02244
:1014E600A3F8E0C5F025F0F0E582158270021583B9
:0614F600E0C838F0E82216
:1014FC00E88FF0A4CC8BF0A42CFCE98EF0A42CFC8F
:10150C008AF0EDA42CFCEA8EF0A4CDA8F08BF0A40C
:10151C002DCC3825F0FDE98FF0A42CCD35F0FCEB6B
:10152C008EF0A4FEA9F0EB8FF0A4CFC5F02ECD3930
:0F153C00FEE43CFCEAA42DCE35F0FDE43CFC229D
:1023F100C2D5E830E70FB2D5E4C39BFBE49AFAE417
:1024010099F9E498F8EC30E717B2D51224271215A0
:10241100ADE4C39BFBE49AFAE499F9E498F88003EC
:102421001215AD30D50DE4C39FFFE49EFEE49DFD82
:04243100E49CFC2209
:10154B00D083D082F8E4937012740193700DA3A32F
:10155B0093F8740193F5828883E473740293686043
:06156B00EFA3A3A380DF43
:1015710075F008758200EF2FFFEE33FECD33CDCC31
:1015810033CCC58233C5829BED9AEC99E5829840B4
:101591000CF582EE9BFEED9AFDEC99FC0FD5F0D691
:1015A100E4CEFBE4CDFAE4CCF9A88222B800C1B9BB
:1015B1000059BA002DEC8BF084CFCECDFCE5F0CBF9
:1015C100F97818EF2FFFEE33FEED33FDEC33FCEB32
:1015D10033FB10D703994004EB99FB0FD8E5E4F9ED
:1015E100FA227818EF2FFFEE33FEED33FDEC33FCDA
:1015F100C933C910D7059BE99A4007EC9BFCE99ACE
:10160100F90FD8E0E4C9FAE4CCFB2275F010EF2F12
:10161100FFEE33FEED33FDCC33CCC833C810D70712
:101621009BEC9AE899400AED9BFDEC9AFCE899F84D
:0E1631000FD5F0DAE4CDFBE4CCFAE4C8F922E0
:00000001FF
