:03000000021FAE2E
:0C1FAE00787FE4F6D8FD75810F021FF566
:0423F8004100670039
:10242800900000E014601114601214601414601518
:1024380024047016E4FF800FE4FF80027F01020C81
:0B2448008E7F0180027F0212001E2226
:10230800E4FFEF75F008A42409F582E43400F583AE
:10231800E0FCA3E0FDEF75F008A4240DF582E43499
:1023280000F583ECF0A3EDF0EF75F008A4240FF5A9
:1023380082E43400F583E4F00FEFB408C590001789
:032348007401F02D
:01234B00226F
:10245300E4FEEE75F008A4240FF582E43400F5835E
:10246300E4F00EEEB408EBEF75F008A4240FF58248
:08247300E43400F5837401F06C
:01247B00223E
:1019F800E4FEEE75F008A4240FF582E43400F583C4
:101A0800E0B40102AB060EEEB408E7EF6077EB75C1
:101A1800F008A4240DF582E43400F583E0FEA3E089
:101A2800FF7C007D3C1213ADEF24FFFFEE34FFFE78
:101A38007C007D3C12139BEB75F008A4240DF58205
:101A4800E43400F583EEF0A3EFF0EB75F008A4247E
:101A58000DF582E43400F583E0FEA3E0FFD394089B
:101A6800EE9407500BEF9400EE94004003021AF630
:101A7800EB75F008A4240DF582E43400F5837407AF
:101A8800F0A304F022EB75F008A4240DF582E434E9
:101A980000F583E0FEA3E0FF7C007D3C1213ADEF70
:101AA8002401FFE43EFE7C007D3C12139BEB75F0A5
:101AB80008A4240DF582E43400F583EEF0A3EFF0DA
:101AC800EB75F008A4240DF582E43400F583E0FEFC
:101AD800A3E0D39408EE94074014EB75F008A4240F
:0E1AE8000DF582E43400F583E4F0A3743CF0C5
:011AF60022CD
:10076300900048EFF0B4100040030209E0900777CF
:10077300F82828730207A70207AA0207D00207FE78
:1007830002082302084602086A02088E0208B2021F
:1007930008D60208F902091C02093F020966020988
:1007A300A00209BF0209E0900067E064026003024F
:1007B30009E5900048E0FF121F1F7F647E001224AA
:1007C300A49000007401F0122308020889900067C6
:1007D300E0640260030209E5900048E0FF121F1F76
:1007E3007F647E001224A4900006E0B40104E4F0C8
:1007F30080069000067401F0E48044900067E06492
:100803000260030209E5900048E0FF121F1F7F64A6
:100813007E001224A49000007403F07F010209DB20
:10082300900067E0640260030209E5900048E0FF7E
:10083300121F1F7F647E001224A4E4900000F0FFC7
:100843000209DB900067E0640260030209E590009F
:1008530048E0FF121F1F7F647E001224A47F011251
:100863002453E41F020960900067E06402600302FE
:1008730009E5900048E0FF121F1F7F647E001224E9
:10088300A47F02122453E4FF020960900067E0642E
:100893000260030209E5900048E0FF121F1F7F6416
:1008A3007E001224A47F03122453E4FF0209609004
:1008B3000067E0640260030209E5900048E0FF126C
:1008C3001F1F7F647E001224A47F04122453E4FFBD
:1008D300020960900067E0640260030209E590008A
:1008E30048E0FF121F1F7F647E001224A47F0512BD
:1008F3002453E4FF8067900067E064026003020909
:10090300E5900048E0FF121F1F7F647E001224A4BD
:100913007F06122453E4FF8044900067E064026082
:10092300030209E5900048E0FF121F1F7F467E0087
:100933001224A4E4FF1219F8E4FF8021900067E079
:10094300640260030209E5900048E0FF121F1F7F65
:10095300467E001224A47F011219F8E4FF120C8EC4
:100963000209E5900067E064027077900048E0FFB9
:10097300121F1F7F647E001224A47F03120C8E12A9
:100983001571EF60047F0180027F02120C8E7FE8F5
:100993007E031224A4E4900000F0FF803B900067E4
:1009A300E06402703D900048E0FF121F1F7F647EE9
:1009B300001224A4E4900000F0FF801C900067E084
:1009C300B4021F900048E0FF121F1F7F647E0012D5
:1009D30024A4E4900000F0FF12001E8005E49000C0
:1009E30067F0900048E0FFD394004012EF9410505A
:1009F3000D900067E004F07F0A7E000224A4E490D7
:040A03000067F02276
:10213700121BBB1223C47FD07E071224A4121E7B5E
:1021470012247C122722122736E4FF12001E1218CF
:10215700C4120763900007E0B4010A122428E49030
:102167000007F080E9900007E0B4021E900000E04D
:10217700FF640160D9EF640260D4122270E490001A
:1021870007F07F0AFE1224A480C4900007E0B4037E
:0E219700BD121BBB122428E4900007F080B09C
:10046700B6A8CAB1C9E8D6C33A00BCD320D2BB00EC
:10047700B7D620D6D300BCF520D2BB00CEB400C976
:10048700E800D6C300B7D600D6D300BDF8003100C8
:1004970032003300340035003600B3F600B1A32034
:1004A70020B4E600B7B52020BBD800B1A320B4E63E
:1004B70020B3C920B9A600B1A320B4E620CAA7205B
:1004C700B0DC00B1A320B4E620D6D02E2E2E00C17A
:1004D700AACFB5C8CB3AC2BDD6BEB6AB00C1AACF6C
:1004E700B5B5E7BBB03A2031333536373430323320
:1004F700363700D7B4CCAC00D7D4B6AF00CAD6B61F
:10050700AF00BBFAD0B5B1DBB6AFD7F73A00BFD56E
:10051700CFD0003C2D2D2D002D2D2D3E00CFF2C923
:10052700CF00CFF2CFC200B4EDCEF300BFD500CFDE
:10053700D000BECD00D0F700C3A600C2B500B6A854
:10054700CAB1C9E8D6C300CAD6B6AF2FD7D4B6AF9B
:1005570000C8A1CFFBCFC2B0E000CFC2B0E0B0B4BB
:10056700BCFC00B9D820BBFA20D6D02E2E2E00B95D
:10057700D820BBFA20B3C920B9A600B2E2CAD4B3C7
:10058700CCD0F2B2B7CFFE202020202C20CEBAC18B
:10059700E9BEEA2020CEBAC1E9BEEAB9FEB9FE201B
:1005A700202020B2FAC6B7D0CDBAC53A2043483387
:1005B7003230323430422D322020352E37B4E733F3
:1005C700323078323430B5E3D5F320D6A7B3D652DC
:1005D70041383830332F524138383036BFD8D6C635
:1005E7002CD6A7B3D63556BACD332E3356B5E7D169
:1005F700B92020D6A7B3D6B4A5C3FE2CBCFCC5CC66
:10060700C9A8C3E8B9A6C4DC2020202020202020C8
:100617002020202020202020202020CFD4CABED771
:10062700D6D0CDBFC9B7C5B4F3B5BD3332783332F1
:10063700A1A2343878343820BBF2363478363420E7
:10064700202020C4DABDA8B4D6CCE5D7D6D0CED3E7
:10065700EBD0D0BEE0C9E8B6A8202020202020207B
:100667002020202020202020202020D6A7B3D6C657
:10067700C1C4BBCBAEC6BDBEEDB6AFBCB0B4B9D678
:10068700B1BEEDB6AFB9A6C4DC20202020202020C3
:10069700202020B9E2B1EAA1A2B7B4B0D7A1A2C97C
:1006A700C1CBB8B9A6C4DCA3ACB9E2B1EAB8DFB62E
:1006B700C8D3EBBFEDB6C8BFC9B5F7D6A7B3D6CE7B
:1006C700C4D7D6D3EBBBE6CDBCC1BDD6D6BBECBA3F
:1006D700CDCFD4CABEC4A3CABD202020202020204D
:1006E700202020000718204040808080E018040266
:1006F70002010101808080404020180701010102AA
:10070700020418E0071F3F7F7FFFFFFFE0F8FCFEB2
:10071700FEFFFFFFFFFFFF7F7F3F1F07FFFFFFFE7C
:10072700FEFCF8E01824428181422418183C7EFF21
:10073700FF7E3C18FFFFFFFFFFFFFFFF000001FCEC
:100747007FFC6618663066607FFE7E7A665A66DAD8
:0C0757007EB27FB2676600CE018C00000D
:0C257F00AC071226E3AF041225697FB000
:10258B00C2A5D2A4D2A2C2A38F80C2A3D2A3D2A52A
:01259B00221D
:0625ED007F0F12258BFF99
:1025F30030A6FDC2A5D2A4C2A28F80C2A3D2A3D209
:02260300A5220E
:0A253D007FFF12258B1225F37FC3E8
:10254700C2A5D2A2D2A48F80C2A3D2A37580FFC294
:09255700A2D2A3D2A4C2A4AF8059
:012560002258
:101BBB00C2A77F327E001224A4D2A77F327E0012EE
:101BCB0024A4E4FF12258B7F041225F37F01122539
:101BDB008B7F081225F37F031225EF1225ED7F1063
:101BEB001225EF7F111225EF7F1212258B1F122565
:101BFB00F37F2012258B7F271225F37F2112258B54
:101C0B007F271225F37F3012258B7FEF1225F37F71
:101C1B003112258B7FEF1225F37F401225EF7F507A
:101C2B001225EF7F601225EF7F611225EF7F621285
:101C3B0025EF7F701225EF7F711225EF7F72122532
:101C4B00EF7F801225EF7F9012258B7F801225F37B
:101C5B007FE01225EF7FF01225EF7FF112258BFF2E
:031C6B000225F35C
:08256100900051E0FFE92AFDA2
:10256900AE077F6012258BAF061225F37F70122507
:062579008BAF050225F303
:1026CE00E4FF122547AE07EE54F7FEE4FF12258B0A
:0526DE00AF060225F328
:1026E300E4FF122547AE07EE4408FEE4FF12258BF4
:0526F300AF060225F313
:102634007F12122547AE07EE549F4410FE7F1212FC
:06264400258BFF0225F3C7
:10264A007F12122547AE07EE54BF4430FE7F1212A6
:06265A00258BFF0225F3B1
:102660007F12122547AE07EE54F74404FE7F121284
:06267000258BFF0225F39B
:102676007F12122547AE07EE54FD4401FE7F12126B
:06268600258BFF0225F385
:10268C007F12122547AE07EE54FE4402FE7F121253
:06269C00258BFF0225F36F
:10261D001226CE7FE012258BE4FF1225F37FF012F8
:07262D00258B7FA80225F3B5
:1026F800E4FF122547AE07EE54FEFEE4FF12258BD9
:05270800AF060225F3FD
:09259C0012267612261D1226F803
:1025A5007F10122547AE07EE54DFFE7F1012258BF4
:0425B500FF0225F309
:10239000EF24FE601314601914601F240370247F5F
:1023A000F112258BE4FF80187FF112258B7F50807E
:1023B0000F7FF112258B7FA080067FF112258B1FE6
:0423C0001225F322CD
:0F22C300E075F005A404FF7BFF7A04798C7D742D
:1022D20090004CEBF0A3EAF0A3E9F012257F900006
:1022E2004CE0FBA3E0FAA3E0F9121382601790001E
:1022F2004CA3E475F001121418A9F0FA121382FF2C
:062302001225F380D92230
:09275E0075F00A842430FB7D6053
:0827670012257FAF030225F3E8
:101AF7009000547430F0A37401F07B147D507F0A7A
:071B0700900051EFF0A90569
:101B0E001226CEE4FA900054E0FFEAC39F4003028F
:101B1E001BBAEA701A122561E4FCECC39B40030267
:101B2E001BB67FB012258B7FFF1225F30C80EBEADC
:101B3E00D394004054900054E014FFEA9F504A9012
:101B4E000051E0FFE92AFD122586900055E0601B4A
:101B5E007F801225F37C01EB14FFECC39F5008E449
:101B6E00FF1225F30C80F07F0180197FFF1225F301
:101B7E007C01EB14FFECC39F50087FFF1225F30C82
:101B8E0080F07FFF1225F3801F900054E0146A70DE
:101B9E0017122561E4FCECC39B500D7FB012258B10
:0C1BAE007FFF1225F30C80EE0A021B13CF
:011BBA002208
:0421A500A3F07B0127
:0B21A900900051EFF0A3EDF0A3EBF06D
:1021B4001226CEE4900058F0900054E0FF900058AE
:1021C400E0C39F5042E4FC900053E0FFECC39F50F7
:1021D4002E900051E02CFF900058E0FE900052E059
:1021E4002EFD122586900055E0FBA3E475F0011244
:1021F4001418A9F0FA121382FF1225F30C80C89068
:072204000058E004F080B176
:01220B0022B0
:1017420090004F7440F0A37401F07B167D487F092E
:1017520090004CEFF0A3EDF0A3EBF0900050E0907E
:10176200004C7003021811E0FFA3E0FDA3E0FBA30D
:10177200E0900054F0A37401F0121B0790004CE0BB
:10178200FFA3E0FD9000547408F0A374FFF0A3746B
:1017920006F074EB1221A590004CE0FF90004FE0A0
:1017A200FE90004DE02E24F8FD9000547408F0A342
:1017B20074FFF0A37406F074FB1221A590004EE0B2
:1017C200FF90004CE02F14FFA3E0FD90005474083A
:1017D200F0A374FFF0A37406F0A374F3F07B01127C
:1017E20021A990004EE0FF90004CE02F14FF9000E2
:1017F2004FE0FE90004DE02E24F8FD900054740856
:10180200F0A374FFF0A37407F0A374030218BDE001
:10181200FFA3E0FDA3E0FBA3E0900054F0E4A3F0FB
:10182200121B0790004CE0FFA3E0FD9000547408E7
:10183200F0A374FFF0A37407F0A3740BF07B011202
:1018420021A990004CE0FF90004FE0FE90004DE097
:101852002E24F8FD9000547408F0A374FFF0A374D2
:1018620007F0A3741BF07B011221A990004EE0FF48
:1018720090004CE02F14FFA3E0FD9000547408F098
:10188200A374FFF0A37407F0A37413F07B01122179
:10189200A990004EE0FF90004CE02F14FF90004F03
:1018A200E0FE90004DE02E24F8FD9000547408F004
:1018B200A374FFF0A37407F0A37423F07B01122139
:0218C200A92259
:102722007FC0122547AE07EE4480FE7FC012258B84
:04273200FF0225F38A
:102736007FC4122547AE07EE4480FE7FC412258B68
:04274600FF0225F376
:1026A2007FC4122547AE07EE54FE4402FE7FC412D9
:0626B200258BFF0225F359
:1026B8007FC4122547AE07EE44014402FE7FC412D0
:0626C800258BFF0225F343
:1024F200EF2458FFEE34FCFEE434FFFDE434FFFC2D
:10250200E47B407A01F9F812142E7BB47AFC79FF4D
:0525120078FF12234CCC
:0125170022A1
:10251800EF2480FFEE34FCFEE434FFFDE434FFFCDE
:10252800E47BF0FAF9F812142E7BEC7AFC79FF7848
:04253800FF12234C1F
:01253C00227C
:100A0700E4F9900000E06003020AA3D3EF9400EE3C
:100A170094004027EF9460EE9400501FED94D0ECC3
:100A270094004017ED94F0EC9400500F900006E00E
:100A370064016003020C8B09020C8BD3EF9468EE00
:100A47009400401DEF94D0EE94005015ED94D0EC37
:100A57009400400DED94F0EC940050057902020CDF
:100A67008BD3EF94D8EE94005003020C8BEF94389D
:100A7700EE94014003020C8BED94D0EC94005003EC
:100A8700020C8BED94F0EC94004003020C8B900069
:100A970006E06003020C8B7903020C8B900000E0E8
:100AA70064037032D3EF94D8EE94005003020C8B9A
:100AB700EF9438EE94014003020C8BED94D0EC9444
:100AC700005003020C8BED94F0EC94004003020CF1
:100AD7008B7904020C8B900000E064016003020C28
:100AE70061D3EF9428EE9400401DEF9448EE9400F4
:100AF7005015ED944AEC9400400DED94AEEC940043
:100B070050057905020C8BD3EF9450EE9400401DED
:100B1700EF9470EE94005015ED944AEC9400400D5C
:100B2700ED94AEEC940050057906020C8BD3EF944C
:100B370078EE9400401DEF9498EE94005015ED94D4
:100B47004AEC9400400DED94AEEC94005005790703
:100B5700020C8BD3EF94A0EE9400401DEF94C0EEEF
:100B670094005015ED944AEC9400400DED94AEECD2
:100B7700940050057908020C8BD3EF94C8EE9400CB
:100B8700401DEF94E8EE94005015ED944AEC940064
:100B9700400DED94AEEC940050057909020C8BD30F
:100BA700EF94F0EE9400401DEF9410EE9401501571
:100BB700ED944AEC9400400DED94AEEC9400500592
:100BC700790A020C8BD3EF94A0EE9400401DEF94AA
:100BD700D8EE94005015ED940CEC9400400DED9474
:100BE7003CEC94005005790B020C8BD3EF94E8EEA4
:100BF7009400401CEF9420EE94015014ED940CECFB
:100C07009400400CED943CEC94005004790C8074F3
:100C1700D3EF9470EE9400401CEF94D0EE94005004
:100C270014ED94D0EC9400400CED94F0EC9400504B
:100C370004790D804FD3EF94D8EE94004046EF949B
:100C470038EE9401503EED94D0EC94004036ED948C
:100C5700F0EC9400502E790E802A900000E0B40248
:100C670023D3EF94D8EE9400401AEF9438EE940112
:100C77005012ED94D0EC9400400AED94F0EC9400FF
:060C87005002790FAF01DD
:010C8D002244
:1018C400E4900049F0FE7FC412258B7F811225F33A
:1018D4007FFF12258B1225F37F0F122547EF20E39C
:1018E400030219F2E4FD7F0F122547EF7003FE8017
:1018F4000BEDB431027E010DEDB432EAEE70030259
:1019040019E61226A27F647E001225B91226B87F3A
:10191400647E001225B97FC1122547AE077FFF12EE
:10192400258B1225F37FC2122547900048EFF01251
:10193400253DEF5403FD12253DEF540CF97FFF12B2
:10194400258B1225F3AF067E00EF7802C333CE3326
:10195400CED8F9FFED5403FDEF4DFDAC06900048E1
:10196400E07E007802C333CE33CED8F9FBAA067EDC
:1019740000E9540C7802CEC313CE13D8F9FFEE4A13
:10198400FEEF4BFF90004AEEF0A3EFF0C3ED94B4EA
:10199400EC9403504DED945EEC9400404590004A65
:1019A400E0FEA3E0FF94B0EE94035036EF945CEEB7
:1019B4009400402EAE04AF051224F290004CEEF0D9
:1019C400A3EFF090004AE0FEA3E0FF122518AD0754
:1019D400AC0690004CE0FEA3E0FF120A0790004919
:1019E400EFF07F0F122547EF54FEFE1225ED900015
:0319F40049E0FFC8
:0119F70022CD
:050C8E00900049EFF0A9
:100C930012268C12261D90004F7430F0A37401F0BD
:100CA3007B077D0C7F1412175290004F7430F0A312
:100CB3007401F07B077D0C7F1D121752E490004AEC
:100CC300F090004AE0FFC394085043EF75F008A486
:100CD300240FF582E43400F583E090004A6010E0CD
:100CE30075F005A4FF9000547464F0E4A3800FE052
:100CF30075F005A4FF9000547464F0A37401F07BB5
:100D0300047D4A121B0790004AE004F080B3900070
:100D130000E0B4011390004F7420F0A37401F07B42
:100D23000C7DD07F0E12175290004F7420F0A374E5
:100D330001F07B0C7DD07F1B121752900049E060BD
:100D43000312174212259C7BFF7A0479677D087F83
:100D5300011222D27BFF7A0479717D127F15122250
:100D6300D27BFF7A0479777D267F151222D27BFF0F
:100D73007A04797D7D127F1E1222D27BFF7A047959
:100D8300777D267F1E1222D27BFF7A0479837D60D2
:100D93007F011222D27BFF7A0479867D747F011250
:100DA30022D27BFF7A0479897D887F011222D29037
:100DB300004A7401F090004AE0FB75F008A4240D8A
:100DC300F582E43400F583E0FEA3E0FF7C007D3C84
:100DD3001213AD90004BEFF0FEEB75F005A404FF8A
:100DE300EE12275E90004AE075F005A42402FFA3EB
:100DF300E075F00A84E5F02430FB12276790004A7F
:100E03001222C390004AE075F005A404FF7BFF7A29
:100E130004798F7D881222D290004AE004F0E0C367
:100E2300940740917BFF7A0479837D607F241222AB
:100E3300D27BFF7A0479867D747F241222D27BFFD2
:100E43007A0479897D887F241222D27BFF7A047900
:100E5300927DB47F011222D27BFF7A0479957F06BB
:100E63001222D27BFF7A0479977F0B1222D27BFF67
:100E73007A0479997F101222D27BFF7A04799B7FBF
:100E8300151222D27BFF7A04799D7F1A1222D27B1C
:100E9300FF7A04799F7F1F1222D27BFF7A0479A104
:100EA3007F241222D2900000E0B4010D7BFF7A046C
:100EB30079A47DD87F111222D27BFF7A0479AB7D8E
:100EC300D87F1E1222D2900049E0603790004F7401
:100ED30040F0E4A312174B121AF7900049E0B40153
:100EE300087BFF7A0479B28013900049E07BFFB45A
:100EF30002067A0479BE80047A0479CA7D607F0E83
:090F03001222D212266002264AD5
:1023C40012268C1225A512261D1226761225A51278
:1023D400261D1226347F011223907BFF7A0479D6BE
:1023E4007D357F041222D27BFF7A0479E47D537F0A
:0423F400040222D2EB
:05001E00900049EFF025
:1000230012268C12261D9000547420F0A37401F044
:100033007B08E4FDFF121B079000547420F0A374A7
:1000430001F0E4FD7F08121B07E490004AF09000E2
:100053004AE0FFC39408504DEF75F005A42402FF56
:100063009000547408F0A374FFF0A37407F0A37412
:100073002BF07B017D2A1221A990004AE075F0053F
:10008300A42402FF9000547408F0A374FFF0A37437
:1000930007F0A3742BF07B017D3A1221A990004A4B
:1000A300E004F080A9900003E0FF20E02590000227
:1000B300E0700BEFC31375F005A4240280249000B5
:1000C30002E064027060A3E0C31375F005A4240288
:1000D300803A900002E07023A3E0C31375F005A4F7
:1000E3002404FF9000547408F0A374FFF0A3740772
:1000F300F0A37433F07B017D2A8028900002E0B4E2
:100103000224A3E0C31375F005A42404FF90005454
:100113007408F0A374FFF0A37407F0A37433F07BA7
:10012300017D3A1221A9E490004AF090004AE0FFD1
:10013300C394085043EF75F008A42408F582E4340F
:1001430000F583E090004A6010E075F005A4FF908D
:1001530000547464F0E4A3800FE075F005A4FF90ED
:1001630000547464F0A37401F07B047D4A121B07EE
:1001730090004AE004F080B3900049E0702D9000B5
:1001830006E0B4011390004F7420F0A37401F07BD8
:100193000C7DD0E4FF12175290004F7420F0A3742B
:1001A30001F07B0D7DD07F0D121752900006E07099
:1001B3001B900049E06402601390004F7420F0A389
:1001C3007401F07B0C7DD07F1B121752900049E025
:1001D300600312174212259C7BFF7A0479FA7D088B
:1001E3007F021222D2900006E07BFF70067A047928
:1001F300FF80067A0579047D087F0A1222D27BFFED
:100203007A0579097D087F161222D2900001E01445
:10021300601514601A14601F146024240470287B72
:10022300FF7A05791580267BFF7A05791A801E7B74
:10023300FF7A05791F80167BFF7A057924800E7B70
:10024300FF7A05792980067BFF7A05792E7D087F61
:10025300221222D2E490004AF090004AE0FFC394B5
:1002630008400302038AEF75F008A42408F582E42A
:100273003400F583E0702890004AE075F005A4048B
:10028300FF7BFF7A0579337D641222D290004AE026
:1002930075F005A404FF7BFF7A05793602037C9091
:1002A300004AE0FF75F008A42408F582E43400F561
:1002B30083E064027025EF75F005A404FF7BFF7AE9
:1002C3000579397D641222D290004AE075F005A4C5
:1002D30004FF7BFF7A05793C02037C90004AE0FF30
:1002E30060726407606EE075F008A4240BF582E485
:1002F3003400F583E0FCA3E0FDEF75F008A42409C6
:10030300F582E43400F583E0FEA3E0C39DFFEE9C99
:10031300FE7C007D3C1213ADAA0790004AE075F005
:1003230005A404FFEA12275EE075F005A42402FF8A
:10033300EA75F00A84E5F02430FB1227671222C322
:1003430090004AE075F005A404FF7BFF7A04798FDF
:100353007D88802790004AE075F005A404FF7BFFA9
:100363007A05793F7D641222D290004AE075F00548
:10037300A404FF7BFF7A0579427D841222D2900088
:100383004AE004F002025C7BFF7A0479927DB47F39
:10039300011222D27BFF7A0479957F061222D27B47
:1003A300FF7A0479977F0B1222D27BFF7A04799923
:1003B3007F101222D27BFF7A04799B7F151222D2FF
:1003C3007BFF7A04799D7F1A1222D27BFF7A04790C
:1003D3009F7F1F1222D27BFF7A0479A17F241222EE
:1003E300D2900049E07021900006E0B4010D7BFF3C
:1003F3007A0579457DD87F021222D27BFF7A05796F
:100403004E7DD87F0F1222D2900049E0B401087BC1
:10041300FF7A0579588012900049E0701390000626
:10042300E0700D7BFF7A0579617DD87F1D1222D2A2
:10043300900049E0602890004F7440F0E4A3121745
:100443004B121AF7900049E07BFFB401067A057955
:100453006A80047A0579767D607F0E1222D2122695
:040463006002264AC3
:102270001226761226F81225A5900001E0146015AA
:1022800014601A14601F146024240470287BFF7AE1
:1022900005791580267BFF7A05791A801E7BFF7AE7
:1022A00005791F80167BFF7A057924800E7BFF7AE3
:1022B00005792980067BFF7A05792E7D087F221219
:0322C00022D22205
:101F1F00AD0712268CED12147D1F47011F57021FAC
:101F2F009B031F9B041F680B1F790C1F8A0D1F9BA0
:101F3F000E1F9B0F00001FAD90004F7420F0E4A305
:101F4F00F07B0C7DD0FF805390004F7420F0E4A302
:101F5F00F07B0D7DD07F0D804290004F7430F0E408
:101F6F00A3F07B077D0C7F14803190004F7430F00D
:101F7F00E4A3F07B077D0C7F1D802090004F742021
:101F8F00F0E4A3F07B0C7DD07F0E800F90004F7498
:0F1F9F0020F0E4A3F07B0C7DD07F1B12175222A1
:1025B900EF1FAC0670011E4C601090004FE004F054
:0A25C90070EE90004EE004F080E692
:0125D30022E5
:0824A400900049EEF0A3EFF0F7
:1024AC00E4FBFAD390004AE09B900049E09A400E7E
:0E24BC007FDE7E011225B90BBB00010A80E510
:0124CA0022EF
:101DD10090004AE4F0A304F07F0A12274A7F007EB4
:101DE10001122605EF64EE6003021E6D900048F0BB
:101DF100A3F0900048E0FEA3E0FFC39408EE940036
:101E01005060EF25E0FFEE33FE122605EF7F00FE66
:101E1100C007C006900049E025E0FF900048E0338C
:101E2100FEEF2401FFE43EFE122605EFFDD0E0FCAB
:101E3100D0E04DFD900048E0FEA3E07803C333CE2F
:101E410033CED8F92409F58274003EF583ECF0A372
:101E5100EDF0900049E004F07098900048E004F043
:101E6100809090004AE4F0A304F08007E490004AD7
:091E7100F0A3F090004AA3E0FF89
:011E7A002245
:101E7B00E4900006F0900000F0FFEF75F008A4244A
:101E8B0008F582E43400F5837401F0EF75F008A4D3
:101E9B00240BF582E43400F583E4F0A3F00FEFB4E8
:101EAB0008D8E4900010F0121DD1EF704E9000098D
:101EBB007407F0A304F09000117402F0A374D0F037
:101ECB009000197402F0A374D0F09000217401F00B
:101EDB00A3742CF09000297401F0A3742CF09000E3
:101EEB00317401F0A3742CF09000397401F0A374D9
:101EFB002CF09000417407F0A304F0E4900001F083
:101F0B00A37402F0E4A3F0900005F0900007F090AA
:031F1B000004F0CF
:011F1E0022A0
:1015710090004BE4F0A304F07F0A12274AE4FFFE37
:1015810012270DE4900049F0A3F0900049E0FEA37A
:10159100E0FFC3EE9402501E122605EFF46007E44B
:1015A10090004BF0A3F090004AE004F070DC900052
:1015B10049E004F080D47F0A12274AE4900049F000
:1015C100A3F0900049E0FCA3E0FD25E0FFEC33FE31
:1015D100C006C007EDAE047803C333CE33CED8F9CD
:1015E100240DF58274003EF583E0FDD007D006128C
:1015F10025D4900049E0FCA3E0FD25E0FFEC33FE9B
:10160100EF2401FFE43EFEC006C007EDAE047803FF
:10161100C333CE33CED8F9240DF58274003EF58361
:10162100A3E0FDD007D0061225D490004AE004F0D3
:101631007006900049E004F0C390004AE0940890DD
:101641000049E0940050030215C37DEE7F007E0146
:101651001225D47F0A12274AE4900049F0A3F090A2
:101661000049E0FEA3E0FFC39408EE9400507CEF34
:1016710025E0FFEE33FE122605AD07900049E0FAA2
:10168100A3E0FBAE027803C333CE33CED8F9240DE9
:10169100F58274003EF583E06D6007E490004BF045
:1016A100A3F0EB25E0FFEA33FEEF2401FFE43EFE69
:1016B100122605AD07900049E0FEA3E07803C3338D
:1016C100CE33CED8F9240DF58274003EF583A3E024
:1016D1006D6007E490004BF0A3F090004AE004F045
:1016E1007006900049E004F0021660E4900049F0B1
:1016F100A3F0900049E0FEA3E0FFC39408EE94003C
:101701005038EF7803C333CE33CED8F9FF240DF52B
:101711008274003EF583E0FCA3E0FD74092FF5829D
:1017210074003EF583ECF0A3EDF090004AE004F084
:1017310070C0900049E004F080B890004BA3E0FF36
:011741002285
:10274A00AE071FEE600DE4FCFD0DED70010C4C6050
:03275A00EF80F617
:01275D002259
:0D000E00E4F5C7F5C5F5C675C380F5C4223D
:1026050075C78375C5018FC4EEF5C375C65A75C602
:07261500A500AFC212000E88
:01261C00229B
:1025D40075C78375C5028FC4EEF5C3AF058FC27589
:0925E400C65A75C6A50002000EDE
:10270D0075C78375C5038FC4EEF5C375C65A75C6F7
:05271D00A50002000E02
:101D2000E4FBEB75F008A42408F582E43400F583A5
:101D3000E064016003021DC7EB75F008A4240BF5F5
:101D400082E43400F583E475F001121402EB75F0BF
:101D500008A42409F582E43400F583E0FEA3E0FF43
:101D6000EB75F008A4240BF582E43400F583E0FC65
:101D7000A3E0C39FEC9E402CEB601764076013EB5D
:101D800075F008A42408F582E43400F5837402F0A9
:101D90008012EB75F008A4240BF582E43400F5837F
:101DA000E4F0A3F0EB75F008A4240BF582E4340012
:101DB000F583E0FEA3E0FF7C007D3C1213ADED4C0B
:101DC000700590000704F00BEB64086003021D220D
:011DD00022F0
:03000B000224CB01
:1024CB00C0E0C0F0C083C082C0D075D008758A2030
:1024DB00758CD1900064E004F0121C6ED0D0D082C9
:0724EB00D083D0F0D0E032F5
:03001B000220C4FC
:1020C400C0E0C0F0C083C082C0D075D008758BA0BA
:1020D400758D15900066E004F0900000E0640460E3
:1020E40047900066E0B4C828E4F0121D2090005B1D
:1020F400E004F0700690005AE004F0900065E004FB
:10210400F0E0B4050B9000077403F0900065E4F070
:10211400900066E020E011900006E07005120F0CBC
:10212400800312277A12220CD0D0D082D083D0F030
:03213400D0E032C6
:10247C00758EC0758911758A20758CD1D28CD2A9B4
:10248C00758BA0758D15D28ED2ABD2AFE490006651
:08249C00F0900064F0A3F022AF
:0423FC004100680034
:101C6E00900068E0FF700930B403021D1F04F022DB
:101C7E00EF6401704920B444900005E0FFB4021AED
:101C8E00900003E004F09000077401F0900003E070
:101C9E00D3940E4020740EF0801BEFB40117900009
:101CAE0003E014F09000077401F0900003E0D39469
:101CBE00C84002E4F09000687402F022804E90005A
:101CCE0068E0B4020730B4497403F02230B4429095
:101CDE000005E0FFB4021A900003E004F090000744
:101CEE007401F0900003E0D3940E4020740EF08047
:101CFE001BEFB40117900003E014F090000774017D
:101D0E00F0900003E0D394C84002E4F0E490006841
:021D1E00F022B1
:1024000041005C6442005D00024100596442005A90
:022410000000CA
:10114F0090005CE0B40C004003021380901162F831
:10115F002828730211860211890211E0021204027B
:10116F0012240212380211860212800212E10213B7
:10117F000702132602133E021275D390005BE09410
:10118F000290005AE094005003021381900003E094
:10119F00FED39F401AC2A0D2A19000057401F09017
:1011AF000001F0900007E060030213810212D6EEF7
:1011BF00C39F501AD2A0C2A19000057402F09000F4
:1011CF0001F0900007E060030213810212D60212B1
:1011DF00DA900003E06F600302138190005AF0A3CE
:1011EF00F0D2A0D2A1900001F0900007E07023741C
:1011FF0002F0021302D390005BE0940290005AE0D9
:10120F0094005003021381D292900007E070037490
:10121F0002F0021302C2909000017403F0900007D5
:10122F00E070037402F002130230B103021381D293
:10123F0090E4900002F0900001F0EFC313FE75F000
:10124F0008A42408F582E43400F583E4F0EE75F089
:10125F0008A4240BF582E43400F583E4F0A3F090A6
:10126F00000704F08067E490005AF0A3F0A3021384
:10127F003A90005DE0FEA3E0FFD390005BE09F900B
:10128F00005AE09E5003021381900003E0FFD39DAC
:10129F004019C2A0D2A19000057401F0900001F096
:1012AF00900007E06003021381801CEFC39D501B69
:1012BF00D2A0C2A19000057402F0900001F090003E
:1012CF0007E060030213817402F022D29290005C57
:1012DF008059900003E06D600302138190005AF073
:1012EF00A3F0D2A0D2A1900001F0900007E070030C
:1012FF007402F090005C8033D390005BE094029016
:10130F00005AE09400406BD292900007E070037493
:10131F0002F090005C8014C2919000017404F09070
:10132F000007E070037402F090005CE004F02220EC
:10133F00B240D2919000027402F0E4900001F0EDFF
:10134F00C313FF75F008A42408F582E43400F58375
:10135F007401F0EF75F008A4240BF582E43400F566
:10136F0083E4F0A3F090000704F090005C7464F045
:03137F0022002227
:10203A00900059E014601214603514605D24037036
:10204A0077E490005AF0A38049D390005BE09402B1
:10205A0090005AE094004061C2A09000057401F01B
:10206A00900001F0900007E070297402F0802420AB
:10207A00B047E490005AF0A3F0D2A0D2A190000594
:10208A00F0900001F0900007E070037402F0E49011
:10209A000003F0900059E004F022D390005BE09432
:1020AA000290005AE094004010E4F0A3F09000037C
:0A20BA00F09000597464F022002237
:0B276F00D2A0D2A1D290D291D292222F
:102412004100630041006000420061000041005F32
:0124220000B9
:100F0C00900063E012147D0F3B000F42010F53025F
:100F1C000F68030F7D040F92050FA6060FBA070F7B
:100F2C00E0080FF40910080A102B140000114DE40E
:100F3C0090005902106412203A900059E0646460E9
:100F4C000302114E0210247D0E7F0C12114F9000E3
:100F5C005CE06464600302114E0210247D0C7F0A75
:100F6C0012114F90005CE06464600302114E021099
:100F7C00247D0A7F0812114F90005CE064646003CA
:100F8C0002114E0210247D087F0612114F90005C56
:100F9C00E06464600302114E807E7D067F041211B2
:100FAC004F90005CE06464600302114E806A7D0621
:100FBC007F0212114F90005CE06464600302114EDA
:100FCC009000637414F0900000E06403600302115D
:100FDC004E0210887D04E4FF12114F90005CE06417
:100FEC0064600302114E80307D02E4FF12114F90B9
:100FFC00005CE06464600302114E801C9000047479
:10100C0001F0E4FD7F0E12114F90005CE06464600F
:10101C000302114E900004F09000637414F02290BF
:10102C000040E0FF7019900038E0B40212E4900028
:10103C005CF090005DF0A37402F0900063F02290DD
:10104C000038E0701A900030E0B40213E490005CB9
:10105C00F090005DF0A37402F090006304F0229015
:10106C000030E0701B900028E0B40214E490005CA7
:10107C00F090005DF0A3745AF09000637404F022B9
:10108C00900028E0701B900020E0B40214E4900063
:10109C005CF090005DF0A37402F09000637405F0B6
:1010AC0022900020E0FE701B900018E0B40214E4C3
:1010BC0090005CF090005DF0A3745AF090006374A3
:1010CC0006F022EE701B900010E0B40214E49000C5
:1010DC005CF090005DF0A3745AF09000637407F01C
:1010EC0022900018E0701B900008E0B40214E49009
:1010FC00005CF090005DF0A37402F0900063740843
:10110C00F022900010E0701B900008E0B40214E490
:10111C0090005CF090005DF0A37402F0900063749A
:10112C0009F022900008E07019EFB40215E4900069
:10113C005CF090005DF0A37402F0900063740AF010
:03114C002200225C
:09277A009000637414F002276F53
:04242300410069000B
:10220C00900069E014601714602114604924037075
:10221C005130950320964C9000697401F022309552
:10222C00032096389000697402F02220950F9000DC
:10223C0040E0B401087402F090000714F020960FEF
:10224C00900008E0B401087402F090000714F090BC
:10225C0000697403F02230950A309607E490006907
:04226C00F02200223A
:101FBA00022137E493A3F8E493A34003F68001F2E5
:101FCA0008DFF48029E493A3F85407240CC8C33328
:101FDA00C4540F4420C8834004F456800146F6DFF7
:101FEA00E4800B01020408102040809023F8E47E6C
:101FFA00019360BCA3FF543F30E509541FFEE493EC
:10200A00A360010ECF54C025E060A840B8E493A3B2
:10201A00FAE493A3F8E493A3C8C582C8CAC583CADD
:10202A00F0A3C8C582C8CAC583CADFE9DEE780BE95
:0124270000B4
:10138200BB010689828A83E0225002E722BBFE0269
:09139200E32289828A83E493229C
:10139B00EF8DF0A4A8F0CF8CF0A428CE8DF0A42E66
:0213AB00FE2220
:1013AD00BC000BBE0029EF8DF084FFADF022E4CC24
:1013BD00F875F008EF2FFFEE33FEEC33FCEE9DECED
:1013CD00984005FCEE9DFE0FD5F0E9E4CEFD22ED33
:1013DD00F8F5F0EE8420D21CFEADF075F008EF2F7D
:1013ED00FFED33FD4007985006D5F0F222C398FD6E
:0513FD000FD5F0EA220B
:10140200C5F0F8A3E028F0C5F0F8E5821582700275
:061412001583E038F02212
:10141800A3F8E0C5F025F0F0E58215827002158387
:06142800E0C838F0E822E4
:10142E00E88FF0A4CC8BF0A42CFCE98EF0A42CFC5D
:10143E008AF0EDA42CFCEA8EF0A4CDA8F08BF0A4DB
:10144E002DCC3825F0FDE98FF0A42CCD35F0FCEB3A
:10145E008EF0A4FEA9F0EB8FF0A4CFC5F02ECD39FF
:0F146E00FEE43CFCEAA42DCE35F0FDE43CFC226C
:10234C00C2D5E830E70FB2D5E4C39BFBE49AFAE4BC
:10235C0099F9E498F8EC30E717B2D51223821214ED
:10236C00DFE4C39BFBE49AFAE499F9E498F8800360
:10237C001214DF30D50DE4C39FFFE49EFEE49DFDF7
:04238C00E49CFC22AF
:10147D00D083D082F8E4937012740193700DA3A3FE
:10148D0093F8740193F5828883E473740293686012
:06149D00EFA3A3A380DF12
:1014A30075F008758200EF2FFFEE33FECD33CDCC00
:1014B30033CCC58233C5829BED9AEC99E582984083
:1014C3000CF582EE9BFEED9AFDEC99FC0FD5F0D660
:1014D300E4CEFBE4CDFAE4CCF9A88222B800C1B98A
:1014E3000059BA002DEC8BF084CFCECDFCE5F0CBC8
:1014F300F97818EF2FFFEE33FEED33FDEC33FCEB01
:1015030033FB10D703994004EB99FB0FD8E5E4F9BB
:10151300FA227818EF2FFFEE33FEED33FDEC33FCA8
:10152300C933C910D7059BE99A4007EC9BFCE99A9C
:10153300F90FD8E0E4C9FAE4CCFB2275F010EF2FE1
:10154300FFEE33FEED33FDCC33CCC833C810D707E1
:101553009BEC9AE899400AED9BFDEC9AFCE899F81C
:0E1563000FD5F0DAE4CDFBE4CCFAE4C8F922AF
:00000001FF
