:0300000002209843
:0C209800787FE4F6D8FD75810F0220DF90
:0424E200410067004E
:10251200900000E01460111460121460141460152D
:1025220024047016E4FF800FE4FF80027F01021290
:0B253200007F0180027F0212001E22C9
:1023F200E4FFEF75F008A42409F582E43400F583C4
:10240200E0FCA3E0FDEF75F008A4240DF582E434AE
:1024120000F583ECF0A3EDF0EF75F008A4240FF5BE
:1024220082E43400F583E4F00FEFB408C59000179E
:032432007401F042
:012435002284
:10253D00E4FEEE75F008A4240FF582E43400F58373
:10254D00E4F00EEEB408EBEF75F008A4240FF5825D
:08255D00E43400F5837401F081
:012565002253
:101AF400E4FEEE75F008A4240FF582E43400F583C7
:101B0400E0B40102AB060EEEB408E7EF6077EB75C4
:101B1400F008A4240DF582E43400F583E0FEA3E08C
:101B2400FF7C007D3C1214A9EF24FFFFEE34FFFE7E
:101B34007C007D3C121497EB75F008A4240DF5820B
:101B4400E43400F583EEF0A3EFF0EB75F008A42481
:101B54000DF582E43400F583E0FEA3E0FFD394089E
:101B6400EE9407500BEF9400EE94004003021BF236
:101B7400EB75F008A4240DF582E43400F5837407B2
:101B8400F0A304F022EB75F008A4240DF582E434EC
:101B940000F583E0FEA3E0FF7C007D3C1214A9EF76
:101BA4002401FFE43EFE7C007D3C121497EB75F0AB
:101BB40008A4240DF582E43400F583EEF0A3EFF0DD
:101BC400EB75F008A4240DF582E43400F583E0FEFF
:101BD400A3E0D39408EE94074014EB75F008A42412
:0E1BE4000DF582E43400F583E4F0A3743CF0C8
:011BF20022D0
:100A5500900048EFF0B410004003020CD2900A69F0
:100A6500F8282873020A99020A9C020AC2020AF0AF
:100A7500020B15020B38020B5C020B80020BA40261
:100A85000BC8020BEB020C0E020C31020C58020CC7
:100A950092020CB1020CD2900067E064026003027E
:100AA5000CD7900048E0FF1220097F647E001225D4
:100AB5008E9000007401F01223F2020B7B90006708
:100AC500E064026003020CD7900048E0FF122009A1
:100AD5007F647E0012258E900006E0B40104E4F0E8
:100AE50080069000067401F0E48044900067E0649D
:100AF500026003020CD7900048E0FF1220097F64D2
:100B05007E0012258E9000007403F07F01020CCD4B
:100B1500900067E064026003020CD7900048E0FF94
:100B25001220097F647E0012258EE4900000F0FFFC
:100B3500020CCD900067E064026003020CD79000C0
:100B450048E0FF1220097F647E0012258E7F011286
:100B5500253DE41F020C52900067E0640260030229
:100B65000CD7900048E0FF1220097F647E00122513
:100B75008E7F0212253DE4FF020C52900067E0646F
:100B8500026003020CD7900048E0FF1220097F6441
:100B95007E0012258E7F0312253DE4FF020C529044
:100BA5000067E064026003020CD7900048E0FF1282
:100BB50020097F647E0012258E7F0412253DE4FF07
:100BC500020C52900067E064026003020CD79000AB
:100BD50048E0FF1220097F647E0012258E7F0512F2
:100BE500253DE4FF8067900067E064026003020C26
:100BF500D7900048E0FF1220097F647E0012258E01
:100C05007F0612253DE4FF8044900067E0640260A2
:100C150003020CD7900048E0FF1220097F467E00B2
:100C250012258EE4FF121AF4E4FF8021900067E09C
:100C350064026003020CD7900048E0FF1220097F90
:100C4500467E0012258E7F01121AF4E4FF1212006F
:100C5500020CD7900067E064027077900048E0FFCF
:100C65001220097F647E0012258E7F031212001266
:100C7500166DEF60047F0180027F021212007FE88B
:100C85007E0312258EE4900000F0FF803B90006704
:100C9500E06402703D900048E0FF1220097F647E09
:100CA5000012258EE4900000F0FF801C900067E0A4
:100CB500B4021F900048E0FF1220097F647E0012F5
:100CC500258EE4900000F0FF12001E8005E49000E0
:100CD50067F0900048E0FFD394004012EF94105065
:100CE5000D900067E004F07F0A7E0002258EE490F7
:040CF5000067F02282
:10222100121CB71224AE7FD07E0712258E121EC655
:1022310012256612280C122820E4FF12001E121922
:10224100C0120A55900007E0B4010A122512E49069
:102251000007F080E9900007E0B4021E900000E062
:10226100FF640160D9EF640260D412235AE4900044
:1022710007F07F0AFE12258E80C4900007E0B403A8
:0E228100BD121CB7122512E4900007F080B0C9
:10046700B6A8CAB1C9E8D6C33A00BCD320D2BB00EC
:10047700B7D620D6D300BCF520D2BB00CEB400C976
:10048700E800D6C300B7D600D6D300BDF8003100C8
:1004970032003300340035003600B3F600B1A32034
:1004A70020B4E600B7B52020BBD800B1A320B4E63E
:1004B70020B3C920B9A600B1A320B4E620CAA7205B
:1004C700B0DC00B1A320B4E620D6D02E2E2E00C17A
:1004D700AACFB5C8CB3AC2BDD6BEB6AB00C1AACF6C
:1004E700B5B5E7BBB03A2031333536373430323320
:1004F700363700D7B4CCAC00D7D4B6AF00CAD6B61F
:10050700AF00BBFAD0B5B1DBB6AFD7F73A00BFD56E
:10051700CFD0003C2D2D2D002D2D2D3E00CFF2C923
:10052700CF00CFF2CFC200B4EDCEF300BFD500CFDE
:10053700D000BECD00D0F700C3A600C2B500B6A854
:10054700CAB1C9E8D6C300CAD6B6AF2FD7D4B6AF9B
:1005570000C8A1CFFBCFC2B0E000CFC2B0E0B0B4BB
:10056700BCFC00B9D820BBFA20D6D02E2E2E00B95D
:10057700D820BBFA20B3C920B9A600B2E2CAD4B3C7
:10058700CCD0F2B2B7CFFE202020202C20CEBAC18B
:10059700E9BEEA2020CEBAC1E9BEEAB9FEB9FE201B
:1005A700202020B2FAC6B7D0CDBAC53A2043483387
:1005B7003230323430422D322020352E37B4E733F3
:1005C700323078323430B5E3D5F320D6A7B3D652DC
:1005D70041383830332F524138383036BFD8D6C635
:1005E7002CD6A7B3D63556BACD332E3356B5E7D169
:1005F700B92020D6A7B3D6B4A5C3FE2CBCFCC5CC66
:10060700C9A8C3E8B9A6C4DC2020202020202020C8
:100617002020202020202020202020CFD4CABED771
:10062700D6D0CDBFC9B7C5B4F3B5BD3332783332F1
:10063700A1A2343878343820BBF2363478363420E7
:10064700202020C4DABDA8B4D6CCE5D7D6D0CED3E7
:10065700EBD0D0BEE0C9E8B6A8202020202020207B
:100667002020202020202020202020D6A7B3D6C657
:10067700C1C4BBCBAEC6BDBEEDB6AFBCB0B4B9D678
:10068700B1BEEDB6AFB9A6C4DC20202020202020C3
:10069700202020B9E2B1EAA1A2B7B4B0D7A1A2C97C
:1006A700C1CBB8B9A6C4DCA3ACB9E2B1EAB8DFB62E
:1006B700C8D3EBBFEDB6C8BFC9B5F7D6A7B3D6CE7B
:1006C700C4D7D6D3EBBBE6CDBCC1BDD6D6BBECBA3F
:1006D700CDCFD4CABEC4A3CABD202020202020204D
:1006E700202020000718204040808080E018040266
:1006F70002010101808080404020180701010102AA
:10070700020418E0071F3F7F7FFFFFFFE0F8FCFEB2
:10071700FEFFFFFFFFFFFF7F7F3F1F07FFFFFFFE7C
:10072700FEFCF8E01824428181422418183C7EFF21
:10073700FF7E3C18FFFFFFFFFFFFFFFF000001FCEC
:100747007FFC6618663066607FFE7E7A665A66DAD8
:0C0757007EB27FB2676600CE018C00000D
:0C266900AC071227CDAF041226537FB03F
:10267500C2A5D2A4D2A2C2A38F80C2A3D2A3D2A53F
:012685002232
:0626D7007F0F122675FFC3
:1026DD0030A6FDC2A5D2A4C2A28F80C2A3D2A3D21E
:0226ED00A52224
:0A2627007FFF1226751226DD7FC327
:10263100C2A5D2A2D2A48F80C2A3D2A37580FFC2A9
:09264100A2D2A3D2A4C2A4AF806E
:01264A00226D
:101CB700C2A77F327E0012258ED2A77F327E001206
:101CC700258EE4FF1226757F041226DD7F0112267A
:101CD700757F081226DD7F031226D91226D77F10BB
:101CE7001226D97F111226D97F121226751F1226A6
:101CF700DD7F201226757F271226DD7F21122675AC
:101D07007F271226DD7F301226757FEF1226DD7FB3
:101D1700311226757FEF1226DD7F401226D97F50BC
:101D27001226D97F601226D97F611226D97F6212C7
:101D370026D97F701226D97F711226D97F72122673
:101D4700D97F801226D97F901226757F801226DDD3
:101D57007FE01226D97FF01226D97FF1122675FF70
:031D67000226DD74
:08264B00900051E0FFE92AFDB7
:10265300AE077F60122675AF061226DD7F70122645
:0626630075AF050226DD43
:1027B800E4FF122631AE07EE54F7FEE4FF12267549
:0527C800AF060226DD52
:1027CD00E4FF122631AE07EE4408FEE4FF12267533
:0527DD00AF060226DD3D
:10271E007F12122631AE07EE549F4410FE7F121226
:06272E002675FF0226DD06
:102734007F12122631AE07EE54BF4430FE7F1212D0
:062744002675FF0226DDF0
:10274A007F12122631AE07EE54F74404FE7F1212AE
:06275A002675FF0226DDDA
:102760007F12122631AE07EE54FD4401FE7F121295
:062770002675FF0226DDC4
:102776007F12122631AE07EE54FE4402FE7F12127D
:062786002675FF0226DDAE
:102707001227B87FE0122675E4FF1226DD7FF0124C
:0727170026757FA80226DDF4
:1027E200E4FF122631AE07EE54FEFEE4FF12267518
:0527F200AF060226DD28
:092686001227601227071227E257
:10268F007F10122631AE07EE54DFFE7F1012267533
:04269F00FF0226DD33
:10247A00EF24FE601314601914601F240370247F74
:10248A00F1122675E4FF80187FF11226757F5080BD
:10249A000F7FF11226757FA080067FF11226751F25
:0424AA001226DD22F7
:0F23AD00E075F005A404FF7BFF7A04798C7D7442
:1023BC0090004CEBF0A3EAF0A3E9F0122669900030
:1023CC004CE0FBA3E0FAA3E0F912147E6017900036
:1023DC004CA3E475F001121514A9F0FA12147EFF47
:0623EC001226DD80D9225B
:0928480075F00A842430FB7D6068
:08285100122669AF030226DD27
:101BF3009000547430F0A37401F07B147D507F0A7D
:071C0300900051EFF0A9056C
:101C0A001227B8E4FA900054E0FFEAC39F400302A7
:101C1A001CB6EA701A12264BE4FCECC39B40030282
:101C2A001CB27FB01226757FFF1226DD0C80EBEA0C
:101C3A00D394004054900054E014FFEA9F504A9015
:101C4A000051E0FFE92AFD122670900055E0601B62
:101C5A007F801226DD7C01EB14FFECC39F5008E461
:101C6A00FF1226DD0C80F07F0180197FFF1226DD2E
:101C7A007C01EB14FFECC39F50087FFF1226DD0C9A
:101C8A0080F07FFF1226DD801F900054E0146A70F6
:101C9A001712264BE4FCECC39B500D7FB01226753D
:0C1CAA007FFF1226DD0C80EE0A021C0FEA
:011CB600220B
:04228F00A3F07B013C
:0B229300900051EFF0A3EDF0A3EBF082
:10229E001227B8E4900058F0900054E0FF900058D8
:1022AE00E0C39F5042E4FC900053E0FFECC39F500C
:1022BE002E900051E02CFF900058E0FE900052E06E
:1022CE002EFD122670900055E0FBA3E475F001126E
:1022DE001514A9F0FA12147EFF1226DD0C80C89098
:0722EE000058E004F080B18C
:0122F50022C6
:10183E0090004F7440F0A37401F07B167D487F0931
:10184E0090004CEFF0A3EDF0A3EBF0900050E09081
:10185E00004C700302190DE0FFA3E0FDA3E0FBA313
:10186E00E0900054F0A37401F0121C0390004CE0C1
:10187E00FFA3E0FD9000547408F0A374FFF0A3746E
:10188E0006F074EB12228F90004CE0FF90004FE0B8
:10189E00FE90004DE02E24F8FD9000547408F0A345
:1018AE0074FFF0A37406F074FB12228F90004EE0CA
:1018BE00FF90004CE02F14FFA3E0FD90005474083D
:1018CE00F0A374FFF0A37406F0A374F3F07B01127F
:1018DE00229390004EE0FF90004CE02F14FF9000FA
:1018EE004FE0FE90004DE02E24F8FD900054740859
:1018FE00F0A374FFF0A37407F0A374030219B9E008
:10190E00FFA3E0FDA3E0FBA3E0900054F0E4A3F0FE
:10191E00121C0390004CE0FFA3E0FD9000547408ED
:10192E00F0A374FFF0A37407F0A3740BF07B011205
:10193E00229390004CE0FF90004FE0FE90004DE0AF
:10194E002E24F8FD9000547408F0A374FFF0A374D5
:10195E0007F0A3741BF07B0112229390004EE0FF60
:10196E0090004CE02F14FFA3E0FD9000547408F09B
:10197E00A374FFF0A37407F0A37413F07B0112227B
:10198E009390004EE0FF90004CE02F14FF90004F1C
:10199E00E0FE90004DE02E24F8FD9000547408F007
:1019AE00A374FFF0A37407F0A37423F07B0112223B
:0219BE00932272
:10280C007FC0122631AE07EE4480FE7FC0122675C3
:04281C00FF0226DDB4
:102820007FC4122631AE07EE4480FE7FC4122675A7
:04283000FF0226DDA0
:10278C007FC4122631AE07EE54FE4402FE7FC41203
:06279C002675FF0226DD98
:1027A2007FC4122631AE07EE44014402FE7FC412FA
:0627B2002675FF0226DD82
:1025DC00EF2458FFEE34FCFEE434FFFDE434FFFC42
:1025EC00E47B407A01F9F812152A7BB47AFC79FF66
:0525FC0078FF122436F7
:0126010022B6
:10260200EF2480FFEE34FCFEE434FFFDE434FFFCF3
:10261200E47BF0FAF9F812152A7BEC7AFC79FF7860
:04262200FF12243649
:012626002291
:100CF900E4F9900000E06003020D95D3EF9400EE53
:100D090094004027EF9460EE9400501FED94D0ECCE
:100D190094004017ED94F0EC9400500F900006E019
:100D290064016003020F7D09020F7DD3EF9468EE21
:100D39009400401DEF94D0EE94005015ED94D0EC42
:100D49009400400DED94F0EC940050057902020FE7
:100D59007DD3EF94D8EE94005003020F7DEF9438C1
:100D6900EE94014003020F7DED94D0EC9400500302
:100D7900020F7DED94F0EC94004003020F7D90008A
:100D890006E06003020F7D7903020F7D900000E009
:100D990064037032D3EF94D8EE94005003020F7DB0
:100DA900EF9438EE94014003020F7DED94D0EC945A
:100DB900005003020F7DED94F0EC94004003020F04
:100DC9007D7904020F7D900000E064016003020F49
:100DD90053D3EF9428EE9400401DEF9448EE94000D
:100DE9005015ED944AEC9400400DED94AEEC94004E
:100DF90050057905020F7DD3EF9450EE9400401D04
:100E0900EF9470EE94005015ED944AEC9400400D67
:100E1900ED94AEEC940050057906020F7DD3EF9462
:100E290078EE9400401DEF9498EE94005015ED94DF
:100E39004AEC9400400DED94AEEC9400500579070E
:100E4900020F7DD3EF94A0EE9400401DEF94C0EE05
:100E590094005015ED944AEC9400400DED94AEECDD
:100E6900940050057908020F7DD3EF94C8EE9400E1
:100E7900401DEF94E8EE94005015ED944AEC94006F
:100E8900400DED94AEEC940050057909020F7DD325
:100E9900EF94F0EE9400401DEF9410EE940150157C
:100EA900ED944AEC9400400DED94AEEC940050059D
:100EB900790A020F7DD3EF94A0EE9400401DEF94C0
:100EC900D8EE94005015ED940CEC9400400DED947F
:100ED9003CEC94005005790B020F7DD3EF94E8EEBA
:100EE9009400401CEF9420EE94015014ED940CEC06
:100EF9009400400CED943CEC94005004790C8074FF
:100F0900D3EF9470EE9400401CEF94D0EE9400500F
:100F190014ED94D0EC9400400CED94F0EC94005056
:100F290004790D804FD3EF94D8EE94004046EF94A6
:100F390038EE9401503EED94D0EC94004036ED9497
:100F4900F0EC9400502E790E802A900000E0B40253
:100F590023D3EF94D8EE9400401AEF9438EE94011D
:100F69005012ED94D0EC9400400AED94F0EC94000A
:060F79005002790FAF01E8
:010F7F00224F
:1019C000E4900049F0FE7FC41226757F811226DD67
:1019D0007FFF1226751226DD7F0F122631EF20E3DE
:1019E00003021AEEE4FD7F0F122631EF7003FE8032
:1019F0000BEDB431027E010DEDB432EAEE7003025C
:101A00001AE212278C7F647E001226A31227A27F7F
:101A1000647E001226A37FC1122631AE077FFF121B
:101A200026751226DD7FC2122631900048EFF01293
:101A30002627EF5403FD122627EF540CF97FFF12DF
:101A400026751226DDAF067E00EF7802C333CE3353
:101A5000CED8F9FFED5403FDEF4DFDAC06900048E4
:101A6000E07E007802C333CE33CED8F9FBAA067EDF
:101A700000E9540C7802CEC313CE13D8F9FFEE4A16
:101A8000FEEF4BFF90004AEEF0A3EFF0C3ED94B4ED
:101A9000EC9403504DED945EEC9400404590004A68
:101AA000E0FEA3E0FF94B0EE94035036EF945CEEBA
:101AB0009400402EAE04AF051225DC90004CEEF0F1
:101AC000A3EFF090004AE0FEA3E0FF122602AD076C
:101AD000AC0690004CE0FEA3E0FF120CF990004928
:101AE000EFF07F0F122631EF54FEFE1226D7900042
:031AF00049E0FFCB
:011AF30022D0
:05120000900049EFF031
:1012050012277612270790004F7430F0A37401F06F
:101215007B077D0C7F1412184E90004F7430F0A39D
:101225007401F07B077D0C7F1D12184EE490004A77
:10123500F090004AE0FFC394085043EF75F008A40E
:10124500240FF582E43400F583E090004A6010E055
:1012550075F005A4FF9000547464F0E4A3800FE0DA
:1012650075F005A4FF9000547464F0A37401F07B3D
:10127500047D4A121C0390004AE004F080B39000FC
:1012850000E0B4011390004F7420F0A37401F07BCB
:101295000C7DD07F0E12184E90004F7420F0A37471
:1012A50001F07B0C7DD07F1B12184E900049E06049
:1012B5000312183E1226867BFF7A0479677D087F24
:1012C500011223BC7BFF7A0479717D127F151223ED
:1012D500BC7BFF7A0479777D267F151223BC7BFFC3
:1012E5007A04797D7D127F1E1223BC7BFF7A0479F7
:1012F500777D267F1E1223BC7BFF7A0479837D6070
:101305007F011223BC7BFF7A0479867D747F0112ED
:1013150023BC7BFF7A0479897D887F011223BC90E9
:10132500004A7401F090004AE0FB75F008A4240D12
:10133500F582E43400F583E0FEA3E0FF7C007D3C0C
:101345001214A990004BEFF0FEEB75F005A404FF15
:10135500EE12284890004AE075F005A42402FFA388
:10136500E075F00A84E5F02430FB12285190004A1C
:101375001223AD90004AE075F005A404FF7BFF7AC7
:1013850004798F7D881223BC90004AE004F0E0C305
:10139500940740917BFF7A0479837D607F24122333
:1013A500BC7BFF7A0479867D747F241223BC7BFF86
:1013B5007A0479897D887F241223BC7BFF7A04799E
:1013C500927DB47F011223BC7BFF7A0479957F0659
:1013D5001223BC7BFF7A0479977F0B1223BC7BFF1A
:1013E5007A0479997F101223BC7BFF7A04799B7F5D
:1013F500151223BC7BFF7A04799D7F1A1223BC7BCF
:10140500FF7A04799F7F1F1223BC7BFF7A0479A1A1
:101415007F241223BC900000E0B4010D7BFF7A0409
:1014250079A47DD87F111223BC7BFF7A0479AB7D2B
:10143500D87F1E1223BC900049E0603790004F749E
:1014450040F0E4A3121847121BF3900049E0B401E1
:10145500087BFF7A0479B28013900049E07BFFB4E2
:1014650002067A0479BE80047A0479CA7D607F0E0B
:091475001223BC12274A0227349D
:1024AE0012277612268F12270712276012268F12F6
:1024BE00270712271E7F0112247A7BFF7A0479D612
:1024CE007D357F041223BC7BFF7A0479E47D537F34
:0424DE00040223BC15
:05001E00900049EFF025
:100023001227761227079000547420F0A37401F06E
:100033007B08E4FDFF121C039000547420F0A374AA
:1000430001F0E4FD7F08121C03E490004AF09000E5
:100053004AE0FFC39408504DEF75F005A42402FF56
:100063009000547408F0A374FFF0A37407F0A37412
:100073002BF07B017D2A12229390004AE075F00554
:10008300A42402FF9000547408F0A374FFF0A37437
:1000930007F0A3742BF07B017D3A12229390004A60
:1000A300E004F080A9900003E0FF20E02590000227
:1000B300E0700BEFC31375F005A4240280249000B5
:1000C30002E064027060A3E0C31375F005A4240288
:1000D300803A900002E07023A3E0C31375F005A4F7
:1000E3002404FF9000547408F0A374FFF0A3740772
:1000F300F0A37433F07B017D2A8028900002E0B4E2
:100103000224A3E0C31375F005A42404FF90005454
:100113007408F0A374FFF0A37407F0A37433F07BA7
:10012300017D3A122293E490004AF090004AE0FFE6
:10013300C394085043EF75F008A42408F582E4340F
:1001430000F583E090004A6010E075F005A4FF908D
:1001530000547464F0E4A3800FE075F005A4FF90ED
:1001630000547464F0A37401F07B047D4A121C03F1
:1001730090004AE004F080B3900049E0702D9000B5
:1001830006E0B4011390004F7420F0A37401F07BD8
:100193000C7DD0E4FF12184E90004F7420F0A3742E
:1001A30001F07B0D7DD07F0D12184E900006E0709C
:1001B3001B900049E06402601390004F7420F0A389
:1001C3007401F07B0C7DD07F1B12184E900049E028
:1001D300600312183E1226867BFF7A0479FA7D08A3
:1001E3007F021223BC900006E07BFF70067A04793D
:1001F300FF80067A0579047D087F0A1223BC7BFF02
:100203007A0579097D087F161223BC900001E0145A
:10021300601514601A14601F146024240470287B72
:10022300FF7A05791580267BFF7A05791A801E7B74
:10023300FF7A05791F80167BFF7A057924800E7B70
:10024300FF7A05792980067BFF7A05792E7D087F61
:10025300221223BCE490004AF090004AE0FFC394CA
:1002630008400302038AEF75F008A42408F582E42A
:100273003400F583E0702890004AE075F005A4048B
:10028300FF7BFF7A0579337D641223BC90004AE03B
:1002930075F005A404FF7BFF7A05793602037C9091
:1002A300004AE0FF75F008A42408F582E43400F561
:1002B30083E064027025EF75F005A404FF7BFF7AE9
:1002C3000579397D641223BC90004AE075F005A4DA
:1002D30004FF7BFF7A05793C02037C90004AE0FF30
:1002E30060726407606EE075F008A4240BF582E485
:1002F3003400F583E0FCA3E0FDEF75F008A42409C6
:10030300F582E43400F583E0FEA3E0C39DFFEE9C99
:10031300FE7C007D3C1214A9AA0790004AE075F008
:1003230005A404FFEA122848E075F005A42402FF9F
:10033300EA75F00A84E5F02430FB1228511223AD4C
:1003430090004AE075F005A404FF7BFF7A04798FDF
:100353007D88802790004AE075F005A404FF7BFFA9
:100363007A05793F7D641223BC90004AE075F0055D
:10037300A404FF7BFF7A0579427D841223BC90009D
:100383004AE004F002025C7BFF7A0479927DB47F39
:10039300011223BC7BFF7A0479957F061223BC7B71
:1003A300FF7A0479977F0B1223BC7BFF7A04799938
:1003B3007F101223BC7BFF7A04799B7F151223BC29
:1003C3007BFF7A04799D7F1A1223BC7BFF7A047921
:1003D3009F7F1F1223BC7BFF7A0479A17F24122302
:1003E300BC900049E07021900006E0B4010D7BFF52
:1003F3007A0579457DD87F021223BC7BFF7A057984
:100403004E7DD87F0F1223BC900049E0B401087BD6
:10041300FF7A0579588012900049E0701390000626
:10042300E0700D7BFF7A0579617DD87F1D1223BCB7
:10043300900049E0602890004F7440F0E4A3121844
:1004430047121BF3900049E07BFFB401067A05795C
:100453006A80047A0579767D607F0E1223BC1227A9
:040463004A022734EE
:10235A001227601227E212268F900001E0146015FE
:10236A0014601A14601F146024240470287BFF7AF6
:10237A0005791580267BFF7A05791A801E7BFF7AFC
:10238A0005791F80167BFF7A057924800E7BFF7AF8
:10239A0005792980067BFF7A05792E7D087F22122E
:0323AA0023BC222F
:10200900AD07122776ED1215792031012041022002
:10201900850320850420520B20630C20740D208534
:102029000E20850F0000209790004F7420F0E4A344
:10203900F07B0C7DD0FF805390004F7420F0E4A317
:10204900F07B0D7DD07F0D804290004F7430F0E41D
:10205900A3F07B077D0C7F14803190004F7430F022
:10206900E4A3F07B077D0C7F1D802090004F742036
:10207900F0E4A3F07B0C7DD07F0E800F90004F74AD
:0F20890020F0E4A3F07B0C7DD07F1B12184E22B9
:1026A300EF1FAC0670011E4C601090004FE004F069
:0A26B30070EE90004EE004F080E6A7
:0126BD0022FA
:08258E00900049EEF0A3EFF00C
:10259600E4FBFAD390004AE09B900049E09A400E93
:0E25A6007FDE7E011226A30BBB00010A80E53A
:0125B4002204
:101E1C0090004AE4F0A304F07F0A1228347F007E7D
:101E2C00011226EFEF64EE6003021EB8900048F03A
:101E3C00A3F0900048E0FEA3E0FFC39408EE9400EA
:101E4C005060EF25E0FFEE33FE1226EFEF7F00FE31
:101E5C00C007C006900049E025E0FF900048E03341
:101E6C00FEEF2401FFE43EFE1226EFEFFDD0E0FC76
:101E7C00D0E04DFD900048E0FEA3E07803C333CEE4
:101E8C0033CED8F92409F58274003EF583ECF0A327
:101E9C00EDF0900049E004F07098900048E004F0F8
:101EAC00809090004AE4F0A304F08007E490004A8C
:091EBC00F0A3F090004AA3E0FF3E
:011EC50022FA
:101EC600E4900006F0900000F0FFEF75F008A424FF
:101ED60008F582E43400F5837401F0EF75F008A488
:101EE600240BF582E43400F583E4F0A3F00FEFB49D
:101EF60008D8E4900010F0900018F0121E1CEF7045
:101F06004E9000097407F0A304F09000117402F0DB
:101F1600A374D0F09000197402F0A374D0F090006E
:101F2600217401F0A3742CF09000297401F0A374BD
:101F36002CF09000317401F0A3742CF090003974E9
:101F460001F0A3742CF09000417407F0A304F0E4B0
:101F5600900001F0A37402F0E4A3F0900005F09065
:071F66000007F0900004F0F9
:011F6D002251
:10166D0090004BE4F0A304F07F0A122834E4FFFE4F
:10167D001227F7E4900049F0A3F0900049E0FEA393
:10168D00E0FFC3EE9402501E1226EFEFF46007E464
:10169D0090004BF0A3F090004AE004F070DC900055
:1016AD0049E004F080D47F0A122834E4900049F018
:1016BD00A3F0900049E0FCA3E0FD25E0FFEC33FE34
:1016CD00C006C007EDAE047803C333CE33CED8F9D0
:1016DD00240DF58274003EF583E0FDD007D006128F
:1016ED0026BE900049E0FCA3E0FD25E0FFEC33FEB3
:1016FD00EF2401FFE43EFEC006C007EDAE04780303
:10170D00C333CE33CED8F9240DF58274003EF58364
:10171D00A3E0FDD007D0061226BE90004AE004F0EB
:10172D007006900049E004F0C390004AE0940890E0
:10173D000049E0940050030216BF7DEE7F007E014C
:10174D001226BE7F0A122834E4900049F0A3F090CF
:10175D000049E0FEA3E0FFC39408EE9400507CEF37
:10176D0025E0FFEE33FE1226EFAD07900049E0FABB
:10177D00A3E0FBAE027803C333CE33CED8F9240DEC
:10178D00F58274003EF583E06D6007E490004BF048
:10179D00A3F0EB25E0FFEA33FEEF2401FFE43EFE6C
:1017AD001226EFAD07900049E0FEA3E07803C333A6
:1017BD00CE33CED8F9240DF58274003EF583A3E027
:1017CD006D6007E490004BF0A3F090004AE004F048
:1017DD007006900049E004F002175CE4900049F0B7
:1017ED00A3F0900049E0FEA3E0FFC39408EE94003F
:1017FD005038EF7803C333CE33CED8F9FF240DF52F
:10180D008274003EF583E0FCA3E0FD74092FF582A0
:10181D0074003EF583ECF0A3EDF090004AE004F087
:10182D0070C0900049E004F080B890004BA3E0FF39
:01183D002288
:10283400AE071FEE600DE4FCFD0DED70010C4C6065
:03284400EF80F62C
:01284700226E
:0D000E00E4F5C7F5C5F5C675C380F5C4223D
:1026EF0075C78375C5018FC4EEF5C375C65A75C618
:0726FF00A500AFC212000E9E
:0127060022B0
:1026BE0075C78375C5028FC4EEF5C3AF058FC2759E
:0926CE00C65A75C6A50002000EF3
:1027F70075C78375C5038FC4EEF5C375C65A75C60D
:05280700A50002000E17
:101F6E00E4FBEB75F008A4240BF582E43400F58352
:101F7E00E475F0011214FEEB75F008A42409F58245
:101F8E00E43400F583E0FEA3E0FFEB75F008A42433
:101F9E000BF582E43400F583E0FCA3E0C39FEC9ED6
:101FAE00402CEB601764076013EB75F008A424084F
:101FBE00F582E43400F5837402F08012EB75F008BC
:101FCE00A4240BF582E43400F583E4F0A3F0EB7562
:101FDE00F008A4240BF582E43400F583E0FEA3E0C0
:101FEE00FF7C007D3C1214A9ED4C70059000070497
:0A1FFE00F00BEB64086003021F7093
:0120080022B5
:03000B000225B516
:1025B500C0E0C0F0C083C082C0D075D008758A2045
:1025C500758CD1900064E004F0121D6AD0D0D082E1
:0725D500D083D0F0D0E0320A
:03001B000221AE11
:1021AE00C0E0C0F0C083C082C0D075D008758BA0CF
:1021BE00758D15900066E004F0900000E0640460F8
:1021CE0047900066E0B4C828E4F0121F6E90005BE2
:1021DE00E004F0700690005AE004F0900065E00410
:1021EE00F0E0B4050B9000077403F0900065E4F086
:1021FE00900066E020E011900006E07005120F805E
:10220E0080031228641222F6D0D0D082D083D0F070
:03221E00D0E032DB
:10256600758EC0758911758A20758CD1D28CD2A9C9
:10257600758BA0758D15D28ED2ABD2AFE490006666
:08258600F0900064F0A3F022C4
:0424E6004100680049
:101D6A00900068E0FF700930B403021E1B04F022E1
:101D7A00EF6401704920B444900005E0FFB4021AF0
:101D8A00900003E004F09000077401F0900003E073
:101D9A00D3940E4020740EF0801BEFB4011790000C
:101DAA0003E014F09000077401F0900003E0D3946C
:101DBA00C84002E4F09000687402F022804E90005D
:101DCA0068E0B4020730B4497403F02230B4429098
:101DDA000005E0FFB4021A900003E004F090000747
:101DEA007401F0900003E0D3940E4020740EF0804A
:101DFA001BEFB40117900003E014F0900007740180
:101E0A00F0900003E0D394C84002E4F0E490006844
:021E1A00F022B4
:1024EA0041005C6442005D00034100596442005AA5
:0224FA000000E0
:1007630090005CE0B40C004003020A53900776F853
:1007730028287302079A02079D0207F9020821023B
:1007830008930208A702079A0208EF02095902090F
:10079300840209F9020A110208E4D390005BE09491
:1007A3000390005AE094005003020A54900003E0BF
:1007B300FED39F401EC2A0D293D2A1D29490000533
:1007C3007401F0900001F0900007E06003020A5406
:1007D30002092BEEC39F5043D2A0D293C2A1D2945D
:1007E3009000057402F0900001F0900007E06003B0
:1007F300020A5402092B900003E06F6003020A54BB
:1008030090005AF0A3F0D2A0D293D2A1D294900038
:1008130001F0900007E070037402F002097ED390A8
:10082300005BE0940390005AE094005003020A54E2
:10083300900003E0FED39F401DD2A0C293D2A1D269
:10084300949000057401F0900001F0900007E070AF
:10085300257402F08020EEC39F5021D2A0D293D200
:10086300A1C2949000057402F0900001F09000077B
:10087300E070037402F090005C02094DD2A0D293A1
:10088300D2A1D294900007E070037402F002097EB3
:10089300C2909000017403F0900007E070037402AB
:1008A300F002097E30B103020A54D290E4900002B0
:1008B300F0900001F0EFC313FE75F008A42408F5CF
:1008C30082E43400F583E4F0EE75F008A4240BF51C
:1008D30082E43400F583E4F0A3F090000704F08091
:1008E3006FE490005AF0A3F0A3020A0D90005DE0BC
:1008F300FEA3E0FFD390005BE09F90005AE09E5080
:1009030003020A54900003E0FFD39D401DC2A0D20E
:1009130093D2A1D2949000057401F0900001F0905D
:100923000007E06003020A548020EFC39D501FD2EA
:10093300A0D293C2A1D2949000057402F09000015A
:10094300F0900007E06003020A547402F022D2928E
:1009530090005C020A0D900003E06D6003020A54EC
:1009630090005AF0A3F0D2A0D293D2A1D2949000D7
:1009730001F0900007E070037402F090005C020A3B
:100983000DD390005BE0940390005AE09400500371
:10099300020A54900003E0FFD39D401DD2A0C293EE
:1009A300D2A1D2949000057401F0900001F0900060
:1009B30007E070257402F08020EFC39D5022D2A07F
:1009C300D293D2A1C2949000057402F0900001F07A
:1009D300900007E070037402F090005C7408F0224A
:1009E300D2A0D293D2A1D294900007E070037402F4
:1009F300F090005C8014C2919000017404F09000A8
:100A030007E070037402F090005CE004F02220B26F
:100A130040D2919000027402F0E4900001F0EDC323
:100A230013FF75F008A42408F582E43400F58374F9
:100A330001F0EF75F008A4240BF582E43400F5838C
:100A4300E4F0A3F090000704F090005C7464F022DB
:020A530000227F
:10212400900059E014601214603514605D2403704B
:1021340077E490005AF0A38049D390005BE09403C5
:1021440090005AE094004061C2A09000057401F030
:10215400900001F0900007E070297402F0802420C0
:10216400B047E490005AF0A3F0D2A0D2A1900005A9
:10217400F0900001F0900007E070037402F0E49026
:102184000003F0900059E004F022D390005BE09447
:102194000390005AE094004010E4F0A3F090000390
:0A21A400F09000597464F02200224C
:0B285900D2A0D2A1D290D291D2922244
:1024FC004100630041006000420061000041005F48
:01250C0000CE
:100F8000900063E01215790FAF000FBA010FCB028A
:100F90000FE0030FF504100A05101E0610320710AB
:100FA0005808106C0910800A10A314000011FEE408
:100FB000900059F090006304F0221221249000590F
:100FC000E0646460030211FF02109C7D0E7F0C122E
:100FD000076390005CE0646460030211FF02109CF0
:100FE0007D0C7F0A12076390005CE064646003027A
:100FF00011FF02109C7D0A7F0812076390005CE0DD
:10100000646460030211FF02109C7D087F061207D2
:101010006390005CE0646460030211FF807E7D06E3
:101020007F0412076390005CE0646460030211FFB8
:10103000806A7D067F0212076390005CE064646052
:10104000030211FF9000637414F0900000E0640349
:1010500060030211FF0211007D04E4FF1207639098
:10106000005CE0646460030211FF80307D02E4FFF5
:1010700012076390005CE0646460030211FF801C4F
:101080009000047401F0E4FD7F0E12076390005C91
:10109000E0646460030211FF900004F09000637448
:1010A00014F022900040E0FF701A900038E0B40283
:1010B00013E490005CF090005DF0A37403F09000E6
:1010C0006314F022900038E07019900030E0B40210
:1010D00012E490005CF090005DF0A37403F09000C7
:1010E00063F022900030E0701B900028E0B40214FE
:1010F000E490005CF090005DF0A3745AF0900063FF
:101100007404F022900028E0701B900020E0B402EC
:1011100014E490005CF090005DF0A37403F0900084
:10112000637405F022900020E07073900018E0FED8
:10113000B4020D900010E0B40106E490005C804E13
:10114000900010E0FDB4020AEEB40106E490005CE9
:10115000802CED640260030211FF900018E064022D
:1011600060030211FF90001BE0FCA3E0FDD39000A0
:1011700014E09D900013E09CE490005C4010F0901F
:10118000005DF0A3745AF09000637407F022F090B1
:10119000005DF0A3745AF09000637406F022900092
:1011A00018E0701B900008E0B40214E490005CF0BA
:1011B00090005DF0A37403F09000637408F0229037
:1011C0000010E0701B900008E0B40214E490005C92
:1011D000F090005DF0A37403F09000637409F022B6
:1011E000900008E07019EFB40215E490005CF090F4
:1011F000005DF0A37403F0900063740AF0220022F3
:092864009000637414F00228597D
:04250D004100690020
:1022F600900069E01460171460211460492403708B
:102306005130950320964C9000697401F022309567
:10231600032096389000697402F02220950F9000F1
:1023260040E0B401087402F090000714F020960F04
:10233600900008E0B401087402F090000714F090D1
:1023460000697403F02230950A309607E49000691C
:04235600F02200224F
:1020A400022221E493A3F8E493A34003F68001F20F
:1020B40008DFF48029E493A3F85407240CC8C3333D
:1020C400C4540F4420C8834004F456800146F6DF0C
:1020D400E4800B01020408102040809024E2E47E96
:1020E400019360BCA3FF543F30E509541FFEE49301
:1020F400A360010ECF54C025E060A840B8E493A3C8
:10210400FAE493A3F8E493A3C8C582C8CAC583CAF2
:10211400F0A3C8C582C8CAC583CADFE9DEE780BEAA
:0125110000C9
:10147E00BB010689828A83E0225002E722BBFE026C
:09148E00E32289828A83E493229F
:10149700EF8DF0A4A8F0CF8CF0A428CE8DF0A42E69
:0214A700FE2223
:1014A900BC000BBE0029EF8DF084FFADF022E4CC27
:1014B900F875F008EF2FFFEE33FEEC33FCEE9DECF0
:1014C900984005FCEE9DFE0FD5F0E9E4CEFD22ED36
:1014D900F8F5F0EE8420D21CFEADF075F008EF2F80
:1014E900FFED33FD4007985006D5F0F222C398FD71
:0514F9000FD5F0EA220E
:1014FE00C5F0F8A3E028F0C5F0F8E5821582700279
:06150E001583E038F02215
:10151400A3F8E0C5F025F0F0E5821582700215838A
:06152400E0C838F0E822E7
:10152A00E88FF0A4CC8BF0A42CFCE98EF0A42CFC60
:10153A008AF0EDA42CFCEA8EF0A4CDA8F08BF0A4DE
:10154A002DCC3825F0FDE98FF0A42CCD35F0FCEB3D
:10155A008EF0A4FEA9F0EB8FF0A4CFC5F02ECD3902
:0F156A00FEE43CFCEAA42DCE35F0FDE43CFC226F
:10243600C2D5E830E70FB2D5E4C39BFBE49AFAE4D1
:1024460099F9E498F8EC30E717B2D512246C121516
:10245600DBE4C39BFBE49AFAE499F9E498F8800379
:102466001215DB30D50DE4C39FFFE49EFEE49DFD0F
:04247600E49CFC22C4
:10157900D083D082F8E4937012740193700DA3A301
:1015890093F8740193F5828883E473740293686015
:06159900EFA3A3A380DF15
:10159F0075F008758200EF2FFFEE33FECD33CDCC03
:1015AF0033CCC58233C5829BED9AEC99E582984086
:1015BF000CF582EE9BFEED9AFDEC99FC0FD5F0D663
:1015CF00E4CEFBE4CDFAE4CCF9A88222B800C1B98D
:1015DF000059BA002DEC8BF084CFCECDFCE5F0CBCB
:1015EF00F97818EF2FFFEE33FEED33FDEC33FCEB04
:1015FF0033FB10D703994004EB99FB0FD8E5E4F9BF
:10160F00FA227818EF2FFFEE33FEED33FDEC33FCAB
:10161F00C933C910D7059BE99A4007EC9BFCE99A9F
:10162F00F90FD8E0E4C9FAE4CCFB2275F010EF2FE4
:10163F00FFEE33FEED33FDCC33CCC833C810D707E4
:10164F009BEC9AE899400AED9BFDEC9AFCE899F81F
:0E165F000FD5F0DAE4CDFBE4CCFAE4C8F922B2
:00000001FF
