:03000000022128B2
:0C212800787FE4F6D8FD75810F02216F6E
:0425720041006800BC
:1025A200900000E01460111460121460141460159D
:1025B20024047016E4FF800FE4FF80027F01021200
:0B25C2008C7F0180027F0212001E22AD
:10248200E4FFEF75F008A4240AF582E43400F58332
:10249200E0FCA3E0FDEF75F008A4240EF582E4341D
:1024A20000F583ECF0A3EDF0EF75F008A42410F52D
:1024B20082E43400F583E4F00FEFB408C59000180D
:0324C2007401F0B2
:0124C50022F4
:1025CD00E4FEEE75F008A42410F582E43400F583E2
:1025DD00E4F00EEEB408EBEF75F008A42410F582CC
:0825ED00E43400F5837401F0F1
:0125F50022C3
:101B8000E4FEEE75F008A42410F582E43400F58339
:101B9000E0B40102AB060EEEB408E7EF6077EB7538
:101BA000F008A4240EF582E43400F583E0FEA3E0FF
:101BB000FF7C007D3C121535EF24FFFFEE34FFFE65
:101BC0007C007D3C121523EB75F008A4240EF582F1
:101BD000E43400F583EEF0A3EFF0EB75F008A424F5
:101BE0000EF582E43400F583E0FEA3E0FFD3940811
:101BF000EE9407500BEF9400EE94004003021C7E1D
:101C0000EB75F008A4240EF582E43400F583740724
:101C1000F0A304F022EB75F008A4240EF582E4345E
:101C200000F583E0FEA3E0FF7C007D3C121535EF5C
:101C30002401FFE43EFE7C007D3C121523EB75F091
:101C400008A4240EF582E43400F583EEF0A3EFF04F
:101C5000EB75F008A4240EF582E43400F583E0FE71
:101C6000A3E0D39408EE94074014EB75F008A42485
:0E1C70000EF582E43400F583E4F0A3743CF03A
:011C7E002243
:100ABE00900049EFF0B410004003020D3B900AD2B3
:100ACE00F8282873020B02020B05020B2B020B599E
:100ADE00020B7E020BA1020BC5020BE9020C0D02EA
:100AEE000C31020C54020C77020C9A020CC1020C4F
:100AFE00FB020D1A020D3B900068E06402600302D7
:100B0E000D40900049E0FF1220997F647E0012266E
:100B1E001E9000007401F0122482020BE490006813
:100B2E00E064026003020D40900049E0FF1220993C
:100B3E007F647E0012261E900007E0B40104E4F0EC
:100B4E0080069000077401F0E48044900068E06431
:100B5E00026003020D40900049E0FF1220997F646D
:100B6E007E0012261E9000007403F07F01020D36E7
:100B7E00900068E064026003020D40900049E0FFBF
:100B8E001220997F647E0012261EE4900000F0FF72
:100B9E00020D36900068E064026003020D40900082
:100BAE0049E0FF1220997F647E0012261E7F0112FB
:100BBE0025CDE41F020CBB900068E06402600302C6
:100BCE000D40900049E0FF1220997F647E001226AE
:100BDE001E7F021225CDE4FF020CBB900068E0647C
:100BEE00026003020D40900049E0FF1220997F64DD
:100BFE007E0012261E7F031225CDE4FF020CBB9051
:100C0E000068E064026003020D40900049E0FF12AC
:100C1E0020997F647E0012261E7F041225CDE4FFEC
:100C2E00020CBB900068E064026003020D4090006D
:100C3E0049E0FF1220997F647E0012261E7F051266
:100C4E0025CDE4FF8067900068E064026003020D2A
:100C5E0040900049E0FF1220997F647E0012261E0C
:100C6E007F061225CDE4FF8044900068E0640260A8
:100C7E0003020D40900049E0FF1220997F467E004E
:100C8E0012261EE4FF121B80E4FF8021900068E014
:100C9E0064026003020D40900049E0FF1220997F2C
:100CAE00467E0012261E7F01121B80E4FF12128C5C
:100CBE00020D40900068E064027077900049E0FFFA
:100CCE001220997F647E0012261E7F0312128C1250
:100CDE0016F9EF60047F0180027F0212128C7FE80A
:100CEE007E0312261EE4900000F0FF803B90006809
:100CFE00E06402703D900049E0FF1220997F647E0F
:100D0E000012261EE4900000F0FF801C900068E0A8
:100D1E00B4021F900049E0FF1220997F647E0012FA
:100D2E00261EE4900000F0FF12001E8005E49000E5
:100D3E0068F0900049E0FFD394004012EF941050F9
:100D4E000D900068E004F07F0A7E0002261EE490FB
:040D5E000068F02217
:1022B100121D4312253E7FD07E0712261E121EA834
:1022C1001225F612289C1228B0E4FF12001E121AE1
:1022D1004C120ABE900008E0B4010A1225A2E49053
:1022E1000008F080E9900008E0B4021E900000E0D0
:1022F100FF640160D9EF640260D41223EAE4900024
:1023010008F07F0AFE12261E80C4900008E0B40384
:0E231100BD121D431225A2E4900008F080B01A
:1007C200B6A8CAB1C9E8D6C33A00BCD320D2BB008E
:1007D200B7D620D6D300BCF520D2BB00CEB400C918
:1007E200E800D6C300B7D600D6D300BDF80031006A
:1007F20032003300340035003600B3F600B1A320D6
:1008020020B4E600B7B52020BBD800B1A320B4E6DF
:1008120020B3C920B9A600B1A320B4E620CAA720FC
:10082200B0DC00B1A320B4E620D6D02E2E2E00C11B
:10083200AACFB5C8CB3AC2BDD6BEB6AB00C1AACF0D
:10084200B5B5E7BBB03A20313335363734303233C1
:10085200363700D7B4CCAC00D7D4B6AF00CAD6B6C0
:10086200AF00BBFAD0B5B1DBB6AFD7F73A00BFD510
:10087200CFD0003C2D2D2D002D2D2D3E00CFF2C9C5
:10088200CF00CFF2CFC200B4EDCEF300BFD500CF80
:10089200D000BECD00D0F700C3A600C2B500B6A8F6
:1008A200CAB1C9E8D6C300CAD6B6AF2FD7D4B6AF3D
:1008B20000C8A1CFFBCFC2B0E000CFC2B0E0B0B45D
:1008C200BCFC00B9D820BBFA20D6D02E2E2E00B9FF
:1008D200D820BBFA20B3C920B9A600B2E2CAD4B369
:1008E200CCD0F2B2B7CFFE202020202C20CEBAC12D
:1008F200E9BEEA2020CEBAC1E9BEEAB9FEB9FE20BD
:10090200202020B2FAC6B7D0CDBAC53A2043483328
:100912003230323430422D322020352E37B4E73394
:10092200323078323430B5E3D5F320D6A7B3D6527D
:1009320041383830332F524138383036BFD8D6C6D6
:100942002CD6A7B3D63556BACD332E3356B5E7D10A
:10095200B92020D6A7B3D6B4A5C3FE2CBCFCC5CC07
:10096200C9A8C3E8B9A6C4DC20202020202020206A
:100972002020202020202020202020CFD4CABED713
:10098200D6D0CDBFC9B7C5B4F3B5BD333278333293
:10099200A1A2343878343820BBF236347836342089
:1009A200202020C4DABDA8B4D6CCE5D7D6D0CED389
:1009B200EBD0D0BEE0C9E8B6A8202020202020201D
:1009C2002020202020202020202020D6A7B3D6C6F9
:1009D200C1C4BBCBAEC6BDBEEDB6AFBCB0B4B9D61A
:1009E200B1BEEDB6AFB9A6C4DC2020202020202065
:1009F200202020B9E2B1EAA1A2B7B4B0D7A1A2C91E
:100A0200C1CBB8B9A6C4DCA3ACB9E2B1EAB8DFB6CF
:100A1200C8D3EBBFEDB6C8BFC9B5F7D6A7B3D6CE1C
:100A2200C4D7D6D3EBBBE6CDBCC1BDD6D6BBECBAE0
:100A3200CDCFD4CABEC4A3CABD20202020202020EE
:100A4200202020000718204040808080E018040207
:100A5200020101018080804040201807010101024B
:100A6200020418E0071F3F7F7FFFFFFFE0F8FCFE54
:100A7200FEFFFFFFFFFFFF7F7F3F1F07FFFFFFFE1E
:100A8200FEFCF8E01824428181422418183C7EFFC3
:100A9200FF7E3C18FFFFFFFFFFFFFFFF000001FC8E
:100AA2007FFC6618663066607FFE7E7A665A66DA7A
:0C0AB2007EB27FB2676600CE018C0000AF
:0C26F900AC0712285DAF041226E37FB08E
:10270500C2A5D2A4D2A2C2A38F80C2A3D2A3D2A5AE
:0127150022A1
:062767007F0F122705FFA1
:10276D0030A6FDC2A5D2A4C2A28F80C2A3D2A3D28D
:02277D00A52293
:0A26B7007FFF12270512276D7FC375
:1026C100C2A5D2A2D2A48F80C2A3D2A37580FFC219
:0926D100A2D2A3D2A4C2A4AF80DE
:0126DA0022DD
:101D4300C2A77F327E0012261ED2A77F327E0012E8
:101D5300261EE4FF1227057F0412276D7F01122739
:101D6300057F0812276D7F031227691227677F10EB
:101D73001227697F111227697F121227051F122765
:101D83006D7F201227057F2712276D7F21122705DC
:101D93007F2712276D7F301227057FEF12276D7F74
:101DA300311227057FEF12276D7F401227697F507D
:101DB3001227697F601227697F611227697F621288
:101DC30027697F701227697F711227697F72122733
:101DD300697F801227697F901227057F8012276D04
:101DE3007FE01227697FF01227697FF1122705FF31
:031DF30002276D57
:0826DB00900052E0FFE92AFD26
:1026E300AE077F60122705AF0612276D7F70122792
:0626F30005AF0502276D92
:10284800E4FF1226C1AE07EE54F7FEE4FF12270597
:05285800AF0602276D30
:10285D00E4FF1226C1AE07EE4408FEE4FF12270581
:05286D00AF0602276D1B
:1027AE007F121226C1AE07EE549F4410FE7F121206
:0627BE002705FF02276D54
:1027C4007F121226C1AE07EE54BF4430FE7F1212B0
:0627D4002705FF02276D3E
:1027DA007F121226C1AE07EE54F74404FE7F12128E
:0627EA002705FF02276D28
:1027F0007F121226C1AE07EE54FD4401FE7F121275
:062800002705FF02276D11
:102806007F121226C1AE07EE54FE4402FE7F12125C
:062816002705FF02276DFB
:102797001228487FE0122705E4FF12276D7FF01209
:0727A70027057FA802276D42
:10287200E4FF1226C1AE07EE54FEFEE4FF12270566
:05288200AF0602276D06
:092716001227F012279712287215
:10271F007F101226C1AE07EE54DFFE7F1012270581
:04272F00FF02276D11
:10250A00EF24FE601314601914601F240370247FE3
:10251A00F1122705E4FF80187FF11227057F50800A
:10252A000F7FF11227057FA080067FF11227051F72
:04253A0012276D22D5
:0F243D00E075F005A404FF7BFF7A0779E77D7453
:10244C0090004DEBF0A3EAF0A3E9F01226F990000E
:10245C004DE0FBA3E0FAA3E0F912150A6017900017
:10246C004DA3E475F0011215A0A9F0FA12150AFF9C
:06247C0012276D80D92239
:0928D80075F00A842430FB7D60D8
:0828E1001226F9AF0302276D76
:101C7F009000557430F0A37401F07B147D507F0AEF
:071C8F00900052EFF0A905DF
:101C9600122848E4FA900055E0FFEAC39F40030289
:101CA6001D42EA701A1226DBE4FCECC39B400302D9
:101CB6001D3E7FB01227057FFF12276D0C80EBEAD1
:101CC600D394004054900055E014FFEA9F504A9088
:101CD6000052E0FFE92AFD122700900056E0601B43
:101CE6007F8012276D7C01EB14FFECC39F5008E444
:101CF600FF12276D0C80F07F0180197FFF12276D80
:101D06007C01EB14FFECC39F50087FFF12276D0C7C
:101D160080F07FFF12276D801F900055E0146A70D7
:101D2600171226DBE4FCECC39B500D7FB01227058F
:0C1D36007FFF12276D0C80EE0A021C9B40
:011D4200227E
:04231F00A3F07B01AB
:0B232300900052EFF0A3EDF0A3EBF0F0
:10232E00122848E4900059F0900055E0FF900059B3
:10233E00E0C39F5042E4FC900054E0FFECC39F507A
:10234E002E900052E02CFF900059E0FE900053E0DA
:10235E002EFD122700900056E0FBA3E475F001124B
:10236E0015A0A9F0FA12150AFF12276D0C80C8905D
:07237E000059E004F080B1FA
:012385002235
:1018CA009000507440F0A37401F07B167D487F09A4
:1018DA0090004DEFF0A3EDF0A3EBF0900051E090F3
:1018EA00004D7003021999E0FFA3E0FDA3E0FBA3FA
:1018FA00E0900055F0A37401F0121C8F90004DE0A7
:10190A00FFA3E0FD9000557408F0A374FFF0A374E0
:10191A000AF0744612231F90004DE0FF900050E039
:10192A00FE90004EE02E24F8FD9000557408F0A3B6
:10193A0074FFF0A3740AF0745612231F90004FE04C
:10194A00FF90004DE02F14FFA3E0FD9000557408AE
:10195A00F0A374FFF0A3740AF0A3744EF07B011293
:10196A00232390004FE0FF90004DE02F14FF9000DA
:10197A0050E0FE90004EE02E24F8FD9000557408C9
:10198A00F0A374FFF0A3740AF0A3745E021A45E090
:10199A00FFA3E0FDA3E0FBA3E0900055F0E4A3F071
:1019AA00121C8F90004DE0FFA3E0FD9000557408D3
:1019BA00F0A374FFF0A3740AF0A37466F07B01121B
:1019CA00232390004DE0FF900050E0FE90004EE08F
:1019DA002E24F8FD9000557408F0A374FFF0A37448
:1019EA000AF0A37476F07B0112232390004FE0FFE4
:1019FA0090004DE02F14FFA3E0FD9000557408F00D
:101A0A00A374FFF0A3740AF0A3746EF07B0112238F
:101A1A002390004FE0FF90004DE02F14FF900050FC
:101A2A00E0FE90004EE02E24F8FD9000557408F078
:101A3A00A374FFF0A3740AF0A3747EF07B0112234F
:021A4A00232255
:10289C007FC01226C1AE07EE4480FE7FC012270512
:0428AC00FF02276D93
:1028B0007FC41226C1AE07EE4480FE7FC4122705F6
:0428C000FF02276D7F
:10281C007FC41226C1AE07EE54FE4402FE7FC412E2
:06282C002705FF02276DE5
:102832007FC41226C1AE07EE44014402FE7FC412D9
:062842002705FF02276DCF
:10266C00EF2458FFEE34FCFEE434FFFDE434FFFCB1
:10267C00E47B407A01F9F81215B67BB47AFC79FF49
:05268C0078FF1224C6D6
:012691002226
:10269200EF2480FFEE34FCFEE434FFFDE434FFFC63
:1026A200E47BF0FAF9F81215B67BEC7AFC79FF7844
:0426B200FF1224C629
:0126B6002201
:10100500E4F9900000E060030210A1D3EF9400EE34
:1010150094004027EF9460EE9400501FED94D0ECBF
:1010250094004017ED94F0EC9400500F900007E009
:101035006401600302128909021289D3EF9468EEF4
:101045009400401DEF94D0EE94005015ED94D0EC33
:101055009400400DED94F0EC9400500579020212D5
:1010650089D3EF94D8EE94005003021289EF943897
:10107500EE94014003021289ED94D0EC94005003E4
:10108500021289ED94F0EC9400400302128990005D
:1010950007E060030212897903021289900000E0DB
:1010A50064037032D3EF94D8EE9400500302128992
:1010B500EF9438EE94014003021289ED94D0EC943C
:1010C500005003021289ED94F0EC940040030212E3
:1010D500897904021289900000E06401600302121C
:1010E5005FD3EF9428EE9400401DEF9448EE9400F2
:1010F5005015ED944AEC9400400DED94AEEC94003F
:1011050050057905021289D3EF9450EE9400401DE5
:10111500EF9470EE94005015ED944AEC9400400D58
:10112500ED94AEEC940050057906021289D3EF9444
:1011350078EE9400401DEF9498EE94005015ED94D0
:101145004AEC9400400DED94AEEC940050057907FF
:10115500021289D3EF94A0EE9400401DEF94C0EEE7
:1011650094005015ED944AEC9400400DED94AEECCE
:10117500940050057908021289D3EF94C8EE9400C3
:10118500401DEF94E8EE94005015ED944AEC940060
:10119500400DED94AEEC940050057909021289D307
:1011A500EF94F0EE9400401DEF9410EE940150156D
:1011B500ED944AEC9400400DED94AEEC940050058E
:1011C500790A021289D3EF94A0EE9400401DEF94A2
:1011D500D8EE94005015ED940CEC9400400DED9470
:1011E5003CEC94005005790B021289D3EF94E8EE9C
:1011F5009400401CEF9420EE94015014ED940CECF7
:101205009400400CED943CEC94005004790C8074EF
:10121500D3EF9470EE9400401CEF94D0EE94005000
:1012250014ED94D0EC9400400CED94F0EC94005047
:1012350004790D804FD3EF94D8EE94004046EF9497
:1012450038EE9401503EED94D0EC94004036ED9488
:10125500F0EC9400502E790E802A900000E0B40244
:1012650023D3EF94D8EE9400401AEF9438EE94010E
:101275005012ED94D0EC9400400AED94F0EC9400FB
:061285005002790FAF01D9
:01128B002240
:101A4C00E490004AF0FE7FC41227057F8112276DB7
:101A5C007FFF12270512276D7F0F1226C1EF20E39F
:101A6C0003021B7AE4FD7F0F1226C1EF7003FE8088
:101A7C000BEDB431027E010DEDB432EAEE700302CF
:101A8C001B6E12281C7F647E001227331228327FB3
:101A9C00647E001227337FC11226C1AE077FFF126E
:101AAC00270512276D7FC21226C1900049EFF01254
:101ABC0026B7EF5403FD1226B7EF540CF97FFF1233
:101ACC00270512276DAF067E00EF7802C333CE33A5
:101ADC00CED8F9FFED5403FDEF4DFDAC0690004957
:101AEC00E07E007802C333CE33CED8F9FBAA067E53
:101AFC0000E9540C7802CEC313CE13D8F9FFEE4A8A
:101B0C00FEEF4BFF90004BEEF0A3EFF0C3ED94B45F
:101B1C00EC9403504DED945EEC9400404590004BDA
:101B2C00E0FEA3E0FF94B0EE94035036EF945CEE2D
:101B3C009400402EAE04AF0512266C90004DEEF0D2
:101B4C00A3EFF090004BE0FEA3E0FF122692AD074E
:101B5C00AC0690004DE0FEA3E0FF12100590004A89
:101B6C00EFF07F0F1226C1EF54FEFE122767900094
:031B7C004AE0FF3D
:011B7F002243
:05128C0090004AEFF0A4
:101291001228061227979000507430F0A37401F0C1
:1012A1007B077D0C7F141218DA9000507430F0A384
:1012B1007401F07B077D0C7F1D1218DAE490004B5E
:1012C100F090004BE0FFC394085043EF75F008A481
:1012D1002410F582E43400F583E090004B6010E0C7
:1012E10075F005A4FF9000557464F0E4A3800FE04D
:1012F10075F005A4FF9000557464F0A37401F07BB0
:10130100047D4A121C8F90004BE004F080B39000E2
:1013110000E0B401139000507420F0A37401F07B3D
:101321000C7DD07F0E1218DA9000507420F0A37457
:1013310001F07B0C7DD07F1B1218DA90004AE0602F
:10134100031218CA1227167BFF7A0779C27D087F1C
:101351000112244C7BFF7A0779CC7D127F15122470
:101361004C7BFF7A0779D27D267F1512244C7BFFB7
:101371007A0779D87D127F1E12244C7BFF7A077978
:10138100D27D267F1E12244C7BFF7A0779DE7D6099
:101391007F0112244C7BFF7A0779E17D747F011272
:1013A100244C7BFF7A0779E47D887F0112244C90DD
:1013B100004B7401F090004BE0FB75F008A4240E83
:1013C100F582E43400F583E0FEA3E0FF7C007D3C80
:1013D10012153590004CEFF0FEEB75F005A404FFFB
:1013E100EE1228D890004BE075F005A42402FFA36B
:1013F100E075F00A84E5F02430FB1228E190004BFF
:1014010012243D90004BE075F005A404FF7BFF7AA8
:101411000779EA7D8812244C90004BE004F0E0C388
:10142100940740917BFF7A0779DE7D607F24122447
:101431004C7BFF7A0779E17D747F2412244C7BFF7A
:101441007A0779E47D887F2412244C7BFF7A07791F
:10145100ED7DB47F0112244C7BFF7A0779F07F0682
:1014610012244C7BFF7A0779F27F0B12244C7BFF0D
:101471007A0779F47F1012244C7BFF7A0779F67F83
:101481001512244C7BFF7A0779F87F1A12244C7BC2
:10149100FF7A0779FA7F1F12244C7BFF7A0779FCC8
:1014A1007F2412244C900000E0B4010D7BFF7A07E9
:1014B10079FF7DD87F1112244C7BFF7A0879067D54
:1014C100D87F1E12244C90004AE06037900050747F
:1014D10040F0E4A31218D3121C7F90004AE0B4013B
:1014E100087BFF7A08790D801390004AE07BFFB4F6
:1014F10002067A08791980047A0879257D607F0EC1
:0915010012244C1227DA0227C45F
:10253E0012280612271F1227971227F012271F1292
:10254E0027971227AE7F0112250A7BFF7A08793171
:10255E007D357F0412244C7BFF7A08793F7D537FB3
:04256E000402244CF3
:05001E0090004AEFF024
:100023001228061227979000557420F0A37401F04C
:100033007B08E4FDFF121C8F9000557420F0A3741D
:1000430001F0E4FD7F08121C8FE490004BF0900058
:100053004BE0FFC39408504DEF75F005A42402FF55
:100063009000557408F0A374FFF0A3740AF0A3740E
:1000730086F07B017D2A12232390004BE075F00567
:10008300A42402FF9000557408F0A374FFF0A37436
:100093000AF0A37486F07B017D3A12232390004B70
:1000A300E004F080A9900004E0FF20E02590000325
:1000B300E0700BEFC31375F005A4240280249000B5
:1000C30003E064027060A3E0C31375F005A4240287
:1000D300803A900003E07023A3E0C31375F005A4F6
:1000E3002404FF9000557408F0A374FFF0A3740A6E
:1000F300F0A3748EF07B017D2A8028900003E0B486
:100103000224A3E0C31375F005A42404FF90005553
:100113007408F0A374FFF0A3740AF0A3748EF07B49
:10012300017D3A122323E490004BF090004BE0FF53
:10013300C394085043EF75F008A42409F582E4340E
:1001430000F583E090004B6010E075F005A4FF908C
:1001530000557464F0E4A3800FE075F005A4FF90EC
:1001630000557464F0A37401F07B047D4A121C8F64
:1001730090004BE004F080B390004AE0702D9000B3
:1001830007E0B401139000507420F0A37401F07BD6
:100193000C7DD0E4FF1218DA9000507420F0A374A1
:1001A30001F07B0D7DD07F0D1218DA900007E0700F
:1001B3001B90004AE0640260139000507420F0A387
:1001C3007401F07B0C7DD07F1B1218DA90004AE09B
:1001D30060031218CA1227167BFF7A0879557D0827
:1001E3007F0212244C900007E07BFF70067A0879A7
:1001F3005A80067A08795F7D087F0A12244C7BFFB8
:100203007A0879647D087F1612244C900002E0146A
:10021300601514601A14601F146024240470287B72
:10022300FF7A08797080267BFF7A087975801E7BB8
:10023300FF7A08797A80167BFF7A08797F800E7BB4
:10024300FF7A08798480067BFF7A0879897D087FA5
:100253002212244CE490004BF090004BE0FFC39437
:1002630008400302038AEF75F008A42409F582E429
:100273003400F583E0702890004BE075F005A4048A
:10028300FF7BFF7A08798E7D6412244C90004BE04B
:1002930075F005A404FF7BFF7A08799102037C9033
:1002A300004BE0FF75F008A42409F582E43400F55F
:1002B30083E064027025EF75F005A404FF7BFF7AE9
:1002C3000879947D6412244C90004BE075F005A4EA
:1002D30004FF7BFF7A08799702037C90004BE0FFD1
:1002E30060726407606EE075F008A4240CF582E484
:1002F3003400F583E0FCA3E0FDEF75F008A4240AC5
:10030300F582E43400F583E0FEA3E0C39DFFEE9C99
:10031300FE7C007D3C121535AA0790004BE075F07A
:1003230005A404FFEA1228D8E075F005A42402FF0F
:10033300EA75F00A84E5F02430FB1228E112243D2B
:1003430090004BE075F005A404FF7BFF7A0779EA80
:100353007D88802790004BE075F005A404FF7BFFA8
:100363007A08799A7D6412244C90004BE075F0056D
:10037300A404FF7BFF7A08799D7D8412244C9000AE
:100383004BE004F002025C7BFF7A0779ED7DB47FDA
:100393000112244C7BFF7A0779F07F0612244C7BF1
:1003A300FF7A0779F27F0B12244C7BFF7A0779F4EB
:1003B3007F1012244C7BFF7A0779F67F1512244CA9
:1003C3007BFF7A0779F87F1A12244C7BFF7A07792F
:1003D300FA7F1F12244C7BFF7A0779FC7F241224B7
:1003E3004C90004AE07021900007E0B4010D7BFFC0
:1003F3007A0879A07DD87F0212244C7BFF7A087992
:10040300A97DD87F0F12244C90004AE0B401087BE9
:10041300FF7A0879B3801290004AE07013900007C6
:10042300E0700D7BFF7A0879BC7DD87F1D12244CC8
:1004330090004AE060289000507440F0E4A3121842
:10044300D3121C7F90004AE07BFFB401067A08793F
:10045300C580047A0879D17D607F0E12244C12275F
:04046300DA0227C4CE
:1023EA001227F012287212271F900002E0146015BB
:1023FA0014601A14601F146024240470287BFF7A66
:10240A0008797080267BFF7A087975801E7BFF7AAF
:10241A0008797A80167BFF7A08797F800E7BFF7AAB
:10242A0008798480067BFF7A0879897D087F2212E1
:03243A00244C220D
:10209900AD07122806ED12160520C10120D1022133
:1020A900150321150420E20B20F30C21040D211541
:1020B9000E21150F000021279000507420F0E4A391
:1020C900F07B0C7DD0FF80539000507420F0E4A386
:1020D900F07B0D7DD07F0D80429000507430F0E48C
:1020E900A3F07B077D0C7F1480319000507430F091
:1020F900E4A3F07B077D0C7F1D80209000507420A5
:10210900F0E4A3F07B0C7DD07F0E800F900050741B
:0F21190020F0E4A3F07B0C7DD07F1B1218DA229C
:10273300EF1FAC0670011E4C6010900050E004F0D7
:0A27430070EE90004FE004F080E615
:01274D002269
:08261E0090004AEEF0A3EFF07A
:10262600E4FBFAD390004BE09B90004AE09A400E00
:0E2636007FDE7E011227330BBB00010A80E518
:012644002273
:101F540090004BE4F0A304F07F0A1228C47F007EB3
:101F64000112277FEF64EE6003021FF0900049F036
:101F7400A3F0900049E0FEA3E0FFC39408EE9400B0
:101F84005060EF25E0FFEE33FE12277FEF7F00FE67
:101F9400C007C00690004AE025E0FF900049E03306
:101FA400FEEF2401FFE43EFE12277FEFFDD0E0FCAC
:101FB400D0E04DFD900049E0FEA3E07803C333CEAA
:101FC40033CED8F9240AF58274003EF583ECF0A3ED
:101FD400EDF090004AE004F07098900049E004F0BD
:101FE400809090004BE4F0A304F08007E490004B51
:091FF400F0A3F090004BA3E0FF04
:011FFD0022C1
:101EA800E4900007F0900000F0FFEF75F008A4241C
:101EB80009F582E43400F5837401F0EF75F008A4A5
:101EC800240CF582E43400F583E4F0A3F00FEFB4BA
:101ED80008D8E4900011F0900019F0121F54EF7028
:101EE8004E90000A7407F0A304F09000127402F0F8
:101EF800A374D0F090001A7402F0A374D0F090008C
:101F0800227401F0A3742CF090002A7401F0A374D9
:101F18002CF09000327401F0A3742CF090003A7405
:101F280001F0A3742CF09000427407F0A304F0E4CD
:101F3800900002F0A37402F0E4A3F0900006F09081
:0B1F48000008F0900001F0900005F090
:011F5300226B
:1016F90090004CE4F0A304F07F0A1228C4E4FFFE32
:10170900122887E490004AF0A3F090004AE0FEA373
:10171900E0FFC3EE9402501E12277FEFF46007E446
:1017290090004CF0A3F090004BE004F070DC9000C6
:101739004AE004F080D47F0A1228C4E490004AF0F9
:10174900A3F090004AE0FCA3E0FD25E0FFEC33FEA6
:10175900C006C007EDAE047803C333CE33CED8F943
:10176900240EF58274003EF583E0FDD007D0061201
:10177900274E90004AE0FCA3E0FD25E0FFEC33FE94
:10178900EF2401FFE43EFEC006C007EDAE04780376
:10179900C333CE33CED8F9240EF58274003EF583D7
:1017A900A3E0FDD007D00612274E90004BE004F0CD
:1017B900700690004AE004F0C390004BE094089052
:1017C900004AE09400500302174B7DEE7F007E0132
:1017D90012274E7F0A1228C4E490004AF0A3F09021
:1017E900004AE0FEA3E0FFC39408EE9400507CEFAA
:1017F90025E0FFEE33FE12277FAD0790004AE0FA9D
:10180900A3E0FBAE027803C333CE33CED8F9240E5E
:10181900F58274003EF583E06D6007E490004CF0BA
:10182900A3F0EB25E0FFEA33FEEF2401FFE43EFEDF
:1018390012277FAD0790004AE0FEA3E07803C33387
:10184900CE33CED8F9240EF58274003EF583A3E099
:101859006D6007E490004CF0A3F090004BE004F0B9
:10186900700690004AE004F00217E8E490004AF09C
:10187900A3F090004AE0FEA3E0FFC39408EE9400B1
:101889005038EF7803C333CE33CED8F9FF240EF5A1
:101899008274003EF583E0FCA3E0FD740A2FF58213
:1018A90074003EF583ECF0A3EDF090004BE004F0FA
:1018B90070C090004AE004F080B890004CA3E0FFAB
:0118C90022FC
:1028C400AE071FEE600DE4FCFD0DED70010C4C60D5
:0328D400EF80F69C
:0128D70022DE
:0D000E00E4F5C7F5C5F5C675C380F5C4223D
:10277F0075C78375C5018FC4EEF5C375C65A75C687
:07278F00A500AFC212000E0D
:012796002220
:10274E0075C78375C5028FC4EEF5C3AF058FC2750D
:09275E00C65A75C6A50002000E62
:1028870075C78375C5038FC4EEF5C375C65A75C67C
:05289700A50002000E87
:101FFE00E4FBEB75F008A4240CF582E43400F583C1
:10200E00E475F00112158AEB75F008A4240AF58226
:10201E00E43400F583E0FEA3E0FFEB75F008A424A2
:10202E000CF582E43400F583E0FCA3E0C39FEC9E44
:10203E00402CEB601764076013EB75F008A42409BD
:10204E00F582E43400F5837402F08012EB75F0082B
:10205E00A4240CF582E43400F583E4F0A3F0EB75D0
:10206E00F008A4240CF582E43400F583E0FEA3E02E
:10207E00FF7C007D3C121535ED4C70059000080478
:0A208E00F00BEB6408600302200071
:012098002225
:03000B0002264585
:10264500C0E0C0F0C083C082C0D075D008758A20B4
:10265500758CD1900065E004F0121DF6D0D0D082C3
:07266500D083D0F0D0E03279
:03001B0002223E80
:10223E00C0E0C0F0C083C082C0D075D008758BA03E
:10224E00758D15900067E004F0900000E064046066
:10225E0047900067E0B4C828E4F0121FFE90005CBF
:10226E00E004F0700690005BE004F0900066E0047D
:10227E00F0E0B4050B9000087403F0900066E4F0F3
:10228E00900067E020E011900007E07005120D62EB
:10229E0080031228F4122386D0D0D082D083D0F0BF
:0322AE00D0E0324B
:1025F600758EC0758911758A20758CD1D28CD2A939
:10260600758BA0758D15D28ED2ABD2AFE4900067D4
:08261600F0900065F0A3F02232
:0425760041006900B7
:101DF600900069E0FF700930B403021EA704F022C8
:101E0600EF6401704920B444900006E0FFB4021A62
:101E1600900004E004F09000087401F0900004E0E3
:101E2600D3940E4020740EF0801BEFB4011790007F
:101E360004E014F09000087401F0900004E0D394DC
:101E4600C84002E4F09000697402F022804E9000CF
:101E560069E0B4020730B4497403F02230B442900A
:101E66000006E0FFB4021A900004E004F0900008B7
:101E76007401F0900004E0D3940E4020740EF080BC
:101E86001BEFB40117900004E014F09000087401F1
:101E9600F0900004E0D394C84002E4F0E4900069B6
:021EA600F02228
:10257A0041005D6442005E000341005A6442005B10
:02258A0000004F
:1004670090005DE0B40C0040030207C090047AF8E6
:1004770028287302049E0204A102053502055602CC
:1004870005C80205DC02049E0206250206CA02060A
:10049700F102076602077E02061A900005EFF0D305
:1004A70090005CE0940390005BE094005003020727
:1004B700C1900004E0FED39F4036C2A0D2A19000B5
:1004C70001E0FCB40106C292D293800EECB402069E
:1004D700D292C2938004D292D2939000067401F014
:1004E700900002F0900008E060030207C102067E58
:1004F700EEC39F5036D2A0C2A1900001E0FEB40126
:1005070006C292D293800EEEB40206D292C29380B4
:1005170004D292D2939000067402F0900002F090F9
:100527000008E060030207C102067E0206BC9000D5
:1005370004E0B50717E490005BF0A3F0900002F029
:10054700900008E070067402F00206E50206E5D3A3
:1005570090005CE0940390005BE094005003020776
:10056700C1900004E0FED39F401DC2A0D2A1D29249
:10057700C2939000067401F0900002F0900008E02A
:1005870070257402F08020EEC39F5021D2A0C2A133
:10059700D292C2939000067402F0900002F090008D
:1005A70008E070037402F090005D0206B8D2A0D292
:1005B700A1D292D293900008E070037402F0020671
:1005C700E5C2909000027403F0900008E070037495
:1005D70002F00206E530B1030207C1D290E49000B1
:1005E70003F0900002F0EFC313FE75F008A424098E
:1005F700F582E43400F583E4F0EE75F008A4240CEA
:10060700F582E43400F583E4F0A3F090000804F0E9
:100617000206C4E490005BF0A3F0A302077A9000FF
:1006270005EDF090005EE0FEA3E0FFD390005CE0F4
:100637009F90005BE09E50030207C1900004E0FF1B
:10064700D39D4035C2A0D2A1900001E0FEB40106BF
:10065700C292D293800EEEB40206D292C293800465
:10066700D292D2939000067401F0900002F09000AD
:1006770008E060030207C18038EFC39D5037D2A05E
:10068700C2A1900001E0FFB40106C292D293800E8E
:10069700EFB40206D292C2938004D292D293900012
:1006A700067402F0900002F0900008E06003020771
:1006B700C17402F022D2A0D2A1D292D29390005D4F
:1006C70002077A900004E0B5051AE490005BF0A3F6
:1006D700F0900002F0900008E070037402F09000C0
:1006E7005D02077A90005D02077AD390005CE09480
:1006F7000390005BE0940050030207C1900004E000
:10070700FFD39D401DC2A0D2A1D292C293900006F2
:100717007401F0900002F0900008E070257402F078
:100727008020EFC39D5022D2A0C2A1D292C2939043
:1007370000067402F0900002F0900008E070037465
:1007470002F090005D7408F022D2A0D2A1D292C22A
:1007570093900008E070037402F090005D8014C26B
:10076700919000027404F0900008E070037402F0A6
:1007770090005DE004F02220B240D2919000037413
:1007870002F0E4900002F0EDC313FF75F008A42413
:1007970009F582E43400F5837401F0EF75F008A4DD
:1007A700240CF582E43400F583E4F0A3F09000080C
:0B07B70004F090005D7464F02200224A
:1021B40090005AE014601214603514605D240370BA
:1021C40077E490005BF0A38049D390005CE0940333
:1021D40090005BE094004061C2A09000067401F09E
:1021E400900002F0900008E070297402F08024202E
:1021F400B047E490005BF0A3F0D2A0D2A190000617
:10220400F0900002F0900008E070037402F0E49093
:102214000004F090005AE004F022D390005CE094B3
:102224000390005BE094004010E4F0A3F0900004FD
:0A223400F090005A7464F0220022BA
:0B28E900D2A0D2A1D290D291D29222B4
:10258C0041006400410061004200620000410060B3
:01259C00003E
:100D6200900004E0FE900005E0FDD39E4005ED9E5C
:100D7200FF800C900005E0FF900004E0C39FFFEFAE
:100D8200D3940240089000017401F08005E49000C1
:100D920001F0900064E01216050DC3000DCE010DA6
:100DA200DF020DF4030E09040E1E050E32060E4676
:100DB200070E6C080E80090E940A0EAD1400001086
:100DC20003E490005AF090006404F0221221B490DF
:100DD200005AE064646003021004020EA67D0E7FD6
:100DE2000C12046790005DE0646460030210040268
:100DF2000EA67D0C7F0A12046790005DE0646460B9
:100E020003021004020EA67D0A7F081204679000F6
:100E12005DE064646003021004020EA67D087F0692
:100E220012046790005DE064646003021004807441
:100E32007D067F0412046790005DE0646460030233
:100E4200100480607D067F0212046790005DE064FA
:100E52006460030210049000647414F0900000E0D7
:100E620064036003021004020F6E7D04E4FF1204A7
:100E72006790005DE06464600302100480267D02D6
:100E8200E4FF12046790005DE064646003021004F2
:100E92008012E4FD7F0E12046790005DE0646460DE
:100EA200030210049000647414F022900019E0FF11
:100EB200701B900009E0B40214E490005DF0900011
:100EC2005EF0A37403F09000647408F022900011A5
:100ED200E0FE701B900009E0B40214E490005DF0A3
:100EE20090005EF0A37403F09000647409F0229005
:100EF2000009E0701B900041E0B40214E490005D30
:100F0200F090005EF0A37403F0900064740AF02283
:100F1200900041E0701A900039E0B40213E49000AE
:100F22005DF090005EF0A37403F090006414F02270
:100F3200900039E07019900031E0B40212E49000A0
:100F42005DF090005EF0A37403F0900064F02290D4
:100F52000031E0701B900029E0B40214E490005DBF
:100F6200F090005EF0A3745AF09000647404F022D2
:100F7200900029E0701B900021E0B40214E490007C
:100F82005DF090005EF0A37403F09000647405F0CD
:100F920022900021E0706BEFB4020AEEB40106E485
:100FA20090005D804C900011E0B4020D900019E0B9
:100FB200B40106E490005D8028900011E0640270A4
:100FC20041900019E0B4023A90001CE0FEA3E0FF59
:100FD200D3900015E09F900014E09EE490005D40E5
:100FE20010F090005EF0A3745AF09000647407F061
:100FF20022F090005EF0A3745AF09000647406F040
:021002002200CA
:0110040022C9
:0928F4009000647414F00228E95C
:04259D0041006A008F
:1023860090006AE0146017146021146049240370F9
:102396005130950320964C90006A7401F0223095D6
:1023A6000320963890006A7402F02220950F900060
:1023B60041E0B401087402F090000814F020960F72
:1023C600900009E0B401087402F090000814F0903F
:1023D600006A7403F02230950A309607E490006A8A
:0423E600F0220022BF
:102134000222B1E493A3F8E493A34003F68001F2EE
:1021440008DFF48029E493A3F85407240CC8C333AC
:10215400C4540F4420C8834004F456800146F6DF7B
:10216400E4800B0102040810204080902572E47E74
:10217400019360BCA3FF543F30E509541FFEE49370
:10218400A360010ECF54C025E060A840B8E493A337
:10219400FAE493A3F8E493A3C8C582C8CAC583CA62
:1021A400F0A3C8C582C8CAC583CADFE9DEE780BE1A
:0125A1000039
:10150A00BB010689828A83E0225002E722BBFE02DF
:09151A00E32289828A83E4932212
:10152300EF8DF0A4A8F0CF8CF0A428CE8DF0A42EDC
:02153300FE2296
:10153500BC000BBE0029EF8DF084FFADF022E4CC9A
:10154500F875F008EF2FFFEE33FEEC33FCEE9DEC63
:10155500984005FCEE9DFE0FD5F0E9E4CEFD22EDA9
:10156500F8F5F0EE8420D21CFEADF075F008EF2FF3
:10157500FFED33FD4007985006D5F0F222C398FDE4
:051585000FD5F0EA2281
:10158A00C5F0F8A3E028F0C5F0F8E58215827002EC
:06159A001583E038F02289
:1015A000A3F8E0C5F025F0F0E582158270021583FE
:0615B000E0C838F0E8225B
:1015B600E88FF0A4CC8BF0A42CFCE98EF0A42CFCD4
:1015C6008AF0EDA42CFCEA8EF0A4CDA8F08BF0A452
:1015D6002DCC3825F0FDE98FF0A42CCD35F0FCEBB1
:1015E6008EF0A4FEA9F0EB8FF0A4CFC5F02ECD3976
:0F15F600FEE43CFCEAA42DCE35F0FDE43CFC22E3
:1024C600C2D5E830E70FB2D5E4C39BFBE49AFAE441
:1024D60099F9E498F8EC30E717B2D51224FC1216F5
:1024E60067E4C39BFBE49AFAE499F9E498F880035D
:1024F60012166730D50DE4C39FFFE49EFEE49DFDF2
:04250600E49CFC2233
:10160500D083D082F8E4937012740193700DA3A374
:1016150093F8740193F5828883E473740293686088
:06162500EFA3A3A380DF88
:10162B0075F008758200EF2FFFEE33FECD33CDCC76
:10163B0033CCC58233C5829BED9AEC99E5829840F9
:10164B000CF582EE9BFEED9AFDEC99FC0FD5F0D6D6
:10165B00E4CEFBE4CDFAE4CCF9A88222B800C1B900
:10166B000059BA002DEC8BF084CFCECDFCE5F0CB3E
:10167B00F97818EF2FFFEE33FEED33FDEC33FCEB77
:10168B0033FB10D703994004EB99FB0FD8E5E4F932
:10169B00FA227818EF2FFFEE33FEED33FDEC33FC1F
:1016AB00C933C910D7059BE99A4007EC9BFCE99A13
:1016BB00F90FD8E0E4C9FAE4CCFB2275F010EF2F58
:1016CB00FFEE33FEED33FDCC33CCC833C810D70758
:1016DB009BEC9AE899400AED9BFDEC9AFCE899F893
:0E16EB000FD5F0DAE4CDFBE4CCFAE4C8F92226
:00000001FF
