:0300000002204398
:0C204300787FE4F6D8FD75810F02208A3A
:04248D0041006700A3
:1024BD00900000E014601114601214601414601583
:1024CD0024047016E4FF800FE4FF80027F01020FE9
:0B24DD004E7F0180027F0212001E22D1
:10239D00E4FFEF75F008A42409F582E43400F58319
:1023AD00E0FCA3E0FDEF75F008A4240DF582E43404
:1023BD0000F583ECF0A3EDF0EF75F008A4240FF514
:1023CD0082E43400F583E4F00FEFB408C5900017F4
:0323DD007401F098
:0123E00022DA
:1024E800E4FEEE75F008A4240FF582E43400F583C9
:1024F800E4F00EEEB408EBEF75F008A4240FF582B3
:08250800E43400F5837401F0D6
:0125100022A8
:101A8900E4FEEE75F008A4240FF582E43400F58332
:101A9900E0B40102AB060EEEB408E7EF6077EB7530
:101AA900F008A4240DF582E43400F583E0FEA3E0F8
:101AB900FF7C007D3C12143EEF24FFFFEE34FFFE55
:101AC9007C007D3C12142CEB75F008A4240DF582E2
:101AD900E43400F583EEF0A3EFF0EB75F008A424ED
:101AE9000DF582E43400F583E0FEA3E0FFD394080A
:101AF900EE9407500BEF9400EE94004003021B870D
:101B0900EB75F008A4240DF582E43400F58374071D
:101B1900F0A304F022EB75F008A4240DF582E43457
:101B290000F583E0FEA3E0FF7C007D3C12143EEF4C
:101B39002401FFE43EFE7C007D3C12142CEB75F081
:101B490008A4240DF582E43400F583EEF0A3EFF048
:101B5900EB75F008A4240DF582E43400F583E0FE6A
:101B6900A3E0D39408EE94074014EB75F008A4247D
:0E1B79000DF582E43400F583E4F0A3743CF033
:011B8700223B
:100A2300900048EFF0B410004003020CA0900A3786
:100A3300F8282873020A67020A6A020A90020ABEA9
:100A4300020AE3020B06020B2A020B4E020B72028E
:100A53000B96020BB9020BDC020BFF020C26020CF5
:100A630060020C7F020CA0900067E0640260030246
:100A73000CA5900048E0FF121FB47F647E0012258E
:100A8300399000007401F012239D020B4990006716
:100A9300E064026003020CA5900048E0FF121FB45B
:100AA3007F647E00122539900006E0B40104E4F06F
:100AB30080069000067401F0E48044900067E064CF
:100AC300026003020CA5900048E0FF121FB47F648C
:100AD3007E001225399000007403F07F01020C9B05
:100AE300900067E064026003020CA5900048E0FFF9
:100AF300121FB47F647E00122539E4900000F0FFDA
:100B0300020C9B900067E064026003020CA5900056
:100B130048E0FF121FB47F647E001225397F011263
:100B230024E8E41F020C20900067E06402600302E3
:100B33000CA5900048E0FF121FB47F647E001225CD
:100B4300397F021224E8E4FF020C20900067E0647E
:100B5300026003020CA5900048E0FF121FB47F64FB
:100B63007E001225397F031224E8E4FF020C209053
:100B73000067E064026003020CA5900048E0FF12E6
:100B83001FB47F647E001225397F041224E8E4FF3A
:100B9300020C20900067E064026003020CA5900041
:100BA30048E0FF121FB47F647E001225397F0512CF
:100BB30024E8E4FF8067900067E064026003020CAE
:100BC300A5900048E0FF121FB47F647E0012253910
:100BD3007F061224E8E4FF8044900067E06402602B
:100BE30003020CA5900048E0FF121FB47F467E006D
:100BF300122539E4FF121A89E4FF8021900067E08F
:100C030064026003020CA5900048E0FF121FB47F4A
:100C1300467E001225397F01121A89E4FF120F4E16
:100C2300020CA5900067E064027077900048E0FF33
:100C3300121FB47F647E001225397F03120F4E12F8
:100C43001602EF60047F0180027F02120F4E7FE8DD
:100C53007E03122539E4900000F0FF803B9000678B
:100C6300E06402703D900048E0FF121FB47F647E91
:100C730000122539E4900000F0FF801C900067E02B
:100C8300B4021F900048E0FF121FB47F647E00127D
:100C93002539E4900000F0FF12001E8005E4900067
:100CA30067F0900048E0FFD394004012EF94105097
:100CB3000D900067E004F07F0A7E00022539E4907E
:040CC3000067F022B4
:1021CC00121C4C1224597FD07E07122539121F0C79
:1021DC001225111227B71227CBE4FF12001E121979
:1021EC0055120A23900007E0B4010A1224BDE490B2
:1021FC000007F080E9900007E0B4021E900000E0B8
:10220C00FF640160D9EF640260D4122305E49000EE
:10221C0007F07F0AFE12253980C4900007E0B40352
:0E222C00BD121C4C1224BDE4900007F080B0DF
:10046700B6A8CAB1C9E8D6C33A00BCD320D2BB00EC
:10047700B7D620D6D300BCF520D2BB00CEB400C976
:10048700E800D6C300B7D600D6D300BDF8003100C8
:1004970032003300340035003600B3F600B1A32034
:1004A70020B4E600B7B52020BBD800B1A320B4E63E
:1004B70020B3C920B9A600B1A320B4E620CAA7205B
:1004C700B0DC00B1A320B4E620D6D02E2E2E00C17A
:1004D700AACFB5C8CB3AC2BDD6BEB6AB00C1AACF6C
:1004E700B5B5E7BBB03A2031333536373430323320
:1004F700363700D7B4CCAC00D7D4B6AF00CAD6B61F
:10050700AF00BBFAD0B5B1DBB6AFD7F73A00BFD56E
:10051700CFD0003C2D2D2D002D2D2D3E00CFF2C923
:10052700CF00CFF2CFC200B4EDCEF300BFD500CFDE
:10053700D000BECD00D0F700C3A600C2B500B6A854
:10054700CAB1C9E8D6C300CAD6B6AF2FD7D4B6AF9B
:1005570000C8A1CFFBCFC2B0E000CFC2B0E0B0B4BB
:10056700BCFC00B9D820BBFA20D6D02E2E2E00B95D
:10057700D820BBFA20B3C920B9A600B2E2CAD4B3C7
:10058700CCD0F2B2B7CFFE202020202C20CEBAC18B
:10059700E9BEEA2020CEBAC1E9BEEAB9FEB9FE201B
:1005A700202020B2FAC6B7D0CDBAC53A2043483387
:1005B7003230323430422D322020352E37B4E733F3
:1005C700323078323430B5E3D5F320D6A7B3D652DC
:1005D70041383830332F524138383036BFD8D6C635
:1005E7002CD6A7B3D63556BACD332E3356B5E7D169
:1005F700B92020D6A7B3D6B4A5C3FE2CBCFCC5CC66
:10060700C9A8C3E8B9A6C4DC2020202020202020C8
:100617002020202020202020202020CFD4CABED771
:10062700D6D0CDBFC9B7C5B4F3B5BD3332783332F1
:10063700A1A2343878343820BBF2363478363420E7
:10064700202020C4DABDA8B4D6CCE5D7D6D0CED3E7
:10065700EBD0D0BEE0C9E8B6A8202020202020207B
:100667002020202020202020202020D6A7B3D6C657
:10067700C1C4BBCBAEC6BDBEEDB6AFBCB0B4B9D678
:10068700B1BEEDB6AFB9A6C4DC20202020202020C3
:10069700202020B9E2B1EAA1A2B7B4B0D7A1A2C97C
:1006A700C1CBB8B9A6C4DCA3ACB9E2B1EAB8DFB62E
:1006B700C8D3EBBFEDB6C8BFC9B5F7D6A7B3D6CE7B
:1006C700C4D7D6D3EBBBE6CDBCC1BDD6D6BBECBA3F
:1006D700CDCFD4CABEC4A3CABD202020202020204D
:1006E700202020000718204040808080E018040266
:1006F70002010101808080404020180701010102AA
:10070700020418E0071F3F7F7FFFFFFFE0F8FCFEB2
:10071700FEFFFFFFFFFFFF7F7F3F1F07FFFFFFFE7C
:10072700FEFCF8E01824428181422418183C7EFF21
:10073700FF7E3C18FFFFFFFFFFFFFFFF000001FCEC
:100747007FFC6618663066607FFE7E7A665A66DAD8
:0C0757007EB27FB2676600CE018C00000D
:0C261400AC07122778AF041225FE7FB03F
:10262000C2A5D2A4D2A2C2A38F80C2A3D2A3D2A594
:012630002287
:062682007F0F122620FF6D
:1026880030A6FDC2A5D2A4C2A28F80C2A3D2A3D273
:02269800A52279
:0A25D2007FFF1226201226887FC327
:1025DC00C2A5D2A2D2A48F80C2A3D2A37580FFC2FF
:0925EC00A2D2A3D2A4C2A4AF80C4
:0125F50022C3
:101C4C00C2A77F327E00122539D2A77F327E0012C6
:101C5C002539E4FF1226207F041226887F011226E4
:101C6C00207F081226887F031226841226827F107A
:101C7C001226847F111226847F121226201F122610
:101C8C00887F201226207F271226887F211226206B
:101C9C007F271226887F301226207FEF1226887F1E
:101CAC00311226207FEF1226887F401226847F5027
:101CBC001226847F601226847F611226847F621232
:101CCC0026847F701226847F711226847F721226DE
:101CDC00847F801226847F901226207F8012268893
:101CEC007FE01226847FF01226847FF1122620FFDB
:031CFC0002268835
:0825F600900051E0FFE92AFD0D
:1025FE00AE077F60122620AF061226887F70122645
:06260E0020AF0502268842
:10276300E4FF1225DCAE07EE54F7FEE4FF12262049
:05277300AF06022688FC
:10277800E4FF1225DCAE07EE4408FEE4FF12262033
:05278800AF06022688E7
:1026C9007F121225DCAE07EE549F4410FE7F1212D2
:0626D9002620FF02268806
:1026DF007F121225DCAE07EE54BF4430FE7F12127C
:0626EF002620FF022688F0
:1026F5007F121225DCAE07EE54F74404FE7F12125A
:062705002620FF022688D9
:10270B007F121225DCAE07EE54FD4401FE7F121240
:06271B002620FF022688C3
:102721007F121225DCAE07EE54FE4402FE7F121228
:062731002620FF022688AD
:1026B2001227637FE0122620E4FF1226887FF012A1
:0726C20026207FA8022688F4
:10278D00E4FF1225DCAE07EE54FEFEE4FF12262018
:05279D00AF06022688D2
:0926310012270B1226B212278DAC
:10263A007F101225DCAE07EE54DFFE7F1012262033
:04264A00FF022688DD
:10242500EF24FE601314601914601F240370247FC9
:10243500F1122620E4FF80187FF11226207F5080BC
:102445000F7FF11226207FA080067FF11226201F24
:0424550012268822A1
:0F235800E075F005A404FF7BFF7A04798C7D7497
:1023670090004CEBF0A3EAF0A3E9F01226149000DA
:102377004CE0FBA3E0FAA3E0F912141360179000F6
:102387004CA3E475F0011214A9A9F0FA121413FF73
:0623970012268880D92205
:0927F30075F00A842430FB7D60BE
:0827FC00122614AF0302268827
:101B88009000547430F0A37401F07B147D507F0AE8
:071B9800900051EFF0A905D8
:101B9F00122763E4FA900054E0FFEAC39F40030268
:101BAF001C4BEA701A1225F6E4FCECC39B400302AF
:101BBF001C477FB01226207FFF1226880C80EBEA8D
:101BCF00D394004054900054E014FFEA9F504A9081
:101BDF000051E0FFE92AFD12261B900055E0601B23
:101BEF007F801226887C01EB14FFECC39F5008E422
:101BFF00FF1226880C80F07F0180197FFF12268844
:101C0F007C01EB14FFECC39F50087FFF1226880C5A
:101C1F0080F07FFF122688801F900054E0146A70B6
:101C2F00171225F6E4FCECC39B500D7FB012262053
:0C1C3F007FFF1226880C80EE0A021BA416
:011C4B002276
:04223A00A3F07B0191
:0B223E00900051EFF0A3EDF0A3EBF0D7
:10224900122763E4900058F0900054E0FF90005882
:10225900E0C39F5042E4FC900053E0FFECC39F5061
:102269002E900051E02CFF900058E0FE900052E0C3
:102279002EFD12261B900055E0FBA3E475F0011218
:1022890014A9A9F0FA121413FF1226880C80C89019
:072299000058E004F080B1E1
:0122A000221B
:1017D30090004F7440F0A37401F07B167D487F099D
:1017E30090004CEFF0A3EDF0A3EBF0900050E090ED
:1017F300004C70030218A2E0FFA3E0FDA3E0FBA3EB
:10180300E0900054F0A37401F0121B9890004CE098
:10181300FFA3E0FD9000547408F0A374FFF0A374D9
:1018230006F074EB12223A90004CE0FF90004FE078
:10183300FE90004DE02E24F8FD9000547408F0A3B0
:1018430074FFF0A37406F074FB12223A90004EE08A
:10185300FF90004CE02F14FFA3E0FD9000547408A8
:10186300F0A374FFF0A37406F0A374F3F07B0112EA
:10187300223E90004EE0FF90004CE02F14FF9000BA
:101883004FE0FE90004DE02E24F8FD9000547408C4
:10189300F0A374FFF0A37407F0A3740302194EE0DE
:1018A300FFA3E0FDA3E0FBA3E0900054F0E4A3F06A
:1018B300121B9890004CE0FFA3E0FD9000547408C5
:1018C300F0A374FFF0A37407F0A3740BF07B011271
:1018D300223E90004CE0FF90004FE0FE90004DE070
:1018E3002E24F8FD9000547408F0A374FFF0A37441
:1018F30007F0A3741BF07B0112223E90004EE0FF21
:1019030090004CE02F14FFA3E0FD9000547408F006
:10191300A374FFF0A37407F0A37413F07B011222E6
:101923003E90004EE0FF90004CE02F14FF90004FDC
:10193300E0FE90004DE02E24F8FD9000547408F072
:10194300A374FFF0A37407F0A37423F07B011222A6
:021953003E2232
:1027B7007FC01225DCAE07EE4480FE7FC0122620C4
:0427C700FF0226885F
:1027CB007FC41225DCAE07EE4480FE7FC4122620A8
:0427DB00FF0226884B
:102737007FC41225DCAE07EE54FE4402FE7FC412AE
:062747002620FF02268897
:10274D007FC41225DCAE07EE44014402FE7FC412A5
:06275D002620FF02268881
:10258700EF2458FFEE34FCFEE434FFFDE434FFFC97
:10259700E47B407A01F9F81214BF7BB47AFC79FF27
:0525A70078FF1223E1A2
:0125AC00220C
:1025AD00EF2480FFEE34FCFEE434FFFDE434FFFC49
:1025BD00E47BF0FAF9F81214BF7BEC7AFC79FF7822
:0425CD00FF1223E1F5
:0125D10022E7
:100CC700E4F9900000E06003020D63D3EF9400EEB7
:100CD70094004027EF9460EE9400501FED94D0EC01
:100CE70094004017ED94F0EC9400500F900006E04C
:100CF70064016003020F4B09020F4BD3EF9468EEB8
:100D07009400401DEF94D0EE94005015ED94D0EC74
:100D17009400400DED94F0EC940050057902020F19
:100D27004BD3EF94D8EE94005003020F4BEF943857
:100D3700EE94014003020F4BED94D0EC9400500366
:100D4700020F4BED94F0EC94004003020F4B900020
:100D570006E06003020F4B7903020F4B900000E09F
:100D670064037032D3EF94D8EE94005003020F4B14
:100D7700EF9438EE94014003020F4BED94D0EC94BE
:100D8700005003020F4BED94F0EC94004003020F68
:100D97004B7904020F4B900000E064016003020FDF
:100DA70021D3EF9428EE9400401DEF9448EE940071
:100DB7005015ED944AEC9400400DED94AEEC940080
:100DC70050057905020F4BD3EF9450EE9400401D68
:100DD700EF9470EE94005015ED944AEC9400400D9A
:100DE700ED94AEEC940050057906020F4BD3EF94C7
:100DF70078EE9400401DEF9498EE94005015ED9412
:100E07004AEC9400400DED94AEEC94005005790740
:100E1700020F4BD3EF94A0EE9400401DEF94C0EE69
:100E270094005015ED944AEC9400400DED94AEEC0F
:100E3700940050057908020F4BD3EF94C8EE940045
:100E4700401DEF94E8EE94005015ED944AEC9400A1
:100E5700400DED94AEEC940050057909020F4BD389
:100E6700EF94F0EE9400401DEF9410EE94015015AE
:100E7700ED944AEC9400400DED94AEEC94005005CF
:100E8700790A020F4BD3EF94A0EE9400401DEF9424
:100E9700D8EE94005015ED940CEC9400400DED94B1
:100EA7003CEC94005005790B020F4BD3EF94E8EE1E
:100EB7009400401CEF9420EE94015014ED940CEC38
:100EC7009400400CED943CEC94005004790C807431
:100ED700D3EF9470EE9400401CEF94D0EE94005042
:100EE70014ED94D0EC9400400CED94F0EC94005089
:100EF70004790D804FD3EF94D8EE94004046EF94D9
:100F070038EE9401503EED94D0EC94004036ED94C9
:100F1700F0EC9400502E790E802A900000E0B40285
:100F270023D3EF94D8EE9400401AEF9438EE94014F
:100F37005012ED94D0EC9400400AED94F0EC94003C
:060F47005002790FAF011A
:010F4D002281
:10195500E4900049F0FE7FC41226207F811226887C
:101965007FFF1226201226887F0F1225DCEF20E349
:1019750003021A83E4FD7F0F1225DCEF7003FE805E
:101985000BEDB431027E010DEDB432EAEE700302C7
:101995001A771227377F647E0012264E12274D7F55
:1019A500647E0012264E7FC11225DCAE077FFF1232
:1019B50026201226887FC21225DC900048EFF012FF
:1019C50025D2EF5403FD1225D2EF540CF97FFF12F7
:1019D5002620122688AF067E00EF7802C333CE3369
:1019E500CED8F9FFED5403FDEF4DFDAC0690004850
:1019F500E07E007802C333CE33CED8F9FBAA067E4B
:101A050000E9540C7802CEC313CE13D8F9FFEE4A81
:101A1500FEEF4BFF90004AEEF0A3EFF0C3ED94B458
:101A2500EC9403504DED945EEC9400404590004AD3
:101A3500E0FEA3E0FF94B0EE94035036EF945CEE25
:101A45009400402EAE04AF0512258790004CEEF0B1
:101A5500A3EFF090004AE0FEA3E0FF1225ADAD072D
:101A6500AC0690004CE0FEA3E0FF120CC7900049C5
:101A7500EFF07F0F1225DCEF54FEFE122682900058
:031A850049E0FF36
:011A8800223B
:050F4E00900049EFF0E6
:100F53001227211226B290004F7430F0A37401F0CF
:100F63007B077D0C7F141217E390004F7430F0A3BE
:100F73007401F07B077D0C7F1D1217E3E490004A98
:100F8300F090004AE0FFC394085043EF75F008A4C3
:100F9300240FF582E43400F583E090004A6010E00A
:100FA30075F005A4FF9000547464F0E4A3800FE08F
:100FB30075F005A4FF9000547464F0A37401F07BF2
:100FC300047D4A121B9890004AE004F080B390001D
:100FD30000E0B4011390004F7420F0A37401F07B80
:100FE3000C7DD07F0E1217E390004F7420F0A37492
:100FF30001F07B0C7DD07F1B1217E3900049E0606A
:10100300031217D31226317BFF7A0479677D087F99
:10101300011223677BFF7A0479717D127F151223F6
:10102300677BFF7A0479777D267F151223677BFF21
:101033007A04797D7D127F1E1223677BFF7A047900
:10104300777D267F1E1223677BFF7A0479837D6079
:101053007F011223677BFF7A0479867D747F0112F7
:1010630023677BFF7A0479897D887F011223679048
:10107300004A7401F090004AE0FB75F008A4240DC7
:10108300F582E43400F583E0FEA3E0FF7C007D3CC1
:1010930012143E90004BEFF0FEEB75F005A404FF35
:1010A300EE1227F390004AE075F005A42402FFA393
:1010B300E075F00A84E5F02430FB1227FC90004A27
:1010C30012235890004AE075F005A404FF7BFF7AD1
:1010D30004798F7D8812236790004AE004F0E0C30F
:1010E300940740917BFF7A0479837D607F241223E8
:1010F300677BFF7A0479867D747F241223677BFFE5
:101103007A0479897D887F241223677BFF7A0479A7
:10111300927DB47F011223677BFF7A0479957F0662
:101123001223677BFF7A0479977F0B1223677BFF78
:101133007A0479997F101223677BFF7A04799B7F66
:10114300151223677BFF7A04799D7F1A1223677B2D
:10115300FF7A04799F7F1F1223677BFF7A0479A1AB
:101163007F24122367900000E0B4010D7BFF7A0413
:1011730079A47DD87F111223677BFF7A0479AB7D35
:10118300D87F1E122367900049E0603790004F74A8
:1011930040F0E4A31217DC121B88900049E0B4016D
:1011A300087BFF7A0479B28013900049E07BFFB497
:1011B30002067A0479BE80047A0479CA7D607F0EC0
:0911C3001223671226F50226DF53
:1024590012272112263A1226B212270B12263A12F5
:1024690026B21226C97F011224257BFF7A0479D668
:102479007D357F041223677BFF7A0479E47D537FDE
:0424890004022367BF
:05001E00900049EFF025
:100023001227211226B29000547420F0A37401F019
:100033007B08E4FDFF121B989000547420F0A37416
:1000430001F0E4FD7F08121B98E490004AF0900051
:100053004AE0FFC39408504DEF75F005A42402FF56
:100063009000547408F0A374FFF0A37407F0A37412
:100073002BF07B017D2A12223E90004AE075F005A9
:10008300A42402FF9000547408F0A374FFF0A37437
:1000930007F0A3742BF07B017D3A12223E90004AB5
:1000A300E004F080A9900003E0FF20E02590000227
:1000B300E0700BEFC31375F005A4240280249000B5
:1000C30002E064027060A3E0C31375F005A4240288
:1000D300803A900002E07023A3E0C31375F005A4F7
:1000E3002404FF9000547408F0A374FFF0A3740772
:1000F300F0A37433F07B017D2A8028900002E0B4E2
:100103000224A3E0C31375F005A42404FF90005454
:100113007408F0A374FFF0A37407F0A37433F07BA7
:10012300017D3A12223EE490004AF090004AE0FF3B
:10013300C394085043EF75F008A42408F582E4340F
:1001430000F583E090004A6010E075F005A4FF908D
:1001530000547464F0E4A3800FE075F005A4FF90ED
:1001630000547464F0A37401F07B047D4A121B985D
:1001730090004AE004F080B3900049E0702D9000B5
:1001830006E0B4011390004F7420F0A37401F07BD8
:100193000C7DD0E4FF1217E390004F7420F0A3749A
:1001A30001F07B0D7DD07F0D1217E3900006E07008
:1001B3001B900049E06402601390004F7420F0A389
:1001C3007401F07B0C7DD07F1B1217E3900049E094
:1001D30060031217D31226317BFF7A0479FA7D0864
:1001E3007F02122367900006E07BFF70067A047992
:1001F300FF80067A0579047D087F0A1223677BFF57
:100203007A0579097D087F16122367900001E014AF
:10021300601514601A14601F146024240470287B72
:10022300FF7A05791580267BFF7A05791A801E7B74
:10023300FF7A05791F80167BFF7A057924800E7B70
:10024300FF7A05792980067BFF7A05792E7D087F61
:1002530022122367E490004AF090004AE0FFC3941F
:1002630008400302038AEF75F008A42408F582E42A
:100273003400F583E0702890004AE075F005A4048B
:10028300FF7BFF7A0579337D6412236790004AE090
:1002930075F005A404FF7BFF7A05793602037C9091
:1002A300004AE0FF75F008A42408F582E43400F561
:1002B30083E064027025EF75F005A404FF7BFF7AE9
:1002C3000579397D6412236790004AE075F005A42F
:1002D30004FF7BFF7A05793C02037C90004AE0FF30
:1002E30060726407606EE075F008A4240BF582E485
:1002F3003400F583E0FCA3E0FDEF75F008A42409C6
:10030300F582E43400F583E0FEA3E0C39DFFEE9C99
:10031300FE7C007D3C12143EAA0790004AE075F073
:1003230005A404FFEA1227F3E075F005A42402FFF5
:10033300EA75F00A84E5F02430FB1227FC122358F7
:1003430090004AE075F005A404FF7BFF7A04798FDF
:100353007D88802790004AE075F005A404FF7BFFA9
:100363007A05793F7D6412236790004AE075F005B2
:10037300A404FF7BFF7A0579427D841223679000F2
:100383004AE004F002025C7BFF7A0479927DB47F39
:10039300011223677BFF7A0479957F061223677B1B
:1003A300FF7A0479977F0B1223677BFF7A0479998D
:1003B3007F101223677BFF7A04799B7F15122367D3
:1003C3007BFF7A04799D7F1A1223677BFF7A047976
:1003D3009F7F1F1223677BFF7A0479A17F24122357
:1003E30067900049E07021900006E0B4010D7BFFA7
:1003F3007A0579457DD87F021223677BFF7A0579D9
:100403004E7DD87F0F122367900049E0B401087B2B
:10041300FF7A0579588012900049E0701390000626
:10042300E0700D7BFF7A0579617DD87F1D1223670C
:10043300900049E0602890004F7440F0E4A3121745
:10044300DC121B88900049E07BFFB401067A057932
:100453006A80047A0579767D607F0E1223671226FF
:04046300F50226DF99
:1023050012270B12278D12263A900001E014601552
:1023150014601A14601F146024240470287BFF7A4B
:1023250005791580267BFF7A05791A801E7BFF7A51
:1023350005791F80167BFF7A057924800E7BFF7A4D
:1023450005792980067BFF7A05792E7D087F221283
:03235500236722D9
:101FB400AD07122721ED12150E1FDC011FEC0220C4
:101FC40030032030041FFD0B200E0C201F0D203089
:101FD4000E20300F0000204290004F7420F0E4A344
:101FE400F07B0C7DD0FF805390004F7420F0E4A36D
:101FF400F07B0D7DD07F0D804290004F7430F0E473
:10200400A3F07B077D0C7F14803190004F7430F077
:10201400E4A3F07B077D0C7F1D802090004F74208B
:10202400F0E4A3F07B0C7DD07F0E800F90004F7402
:0F20340020F0E4A3F07B0C7DD07F1B1217E3227A
:10264E00EF1FAC0670011E4C601090004FE004F0BE
:0A265E0070EE90004EE004F080E6FC
:01266800224F
:08253900900049EEF0A3EFF061
:10254100E4FBFAD390004AE09B900049E09A400EE8
:0E2551007FDE7E0112264E0BBB00010A80E5E4
:01255F002259
:101E620090004AE4F0A304F07F0A1227DF7F007E8D
:101E72000112269AEF64EE6003021EFE900048F003
:101E8200A3F0900048E0FEA3E0FFC39408EE9400A4
:101E92005060EF25E0FFEE33FE12269AEF7F00FE40
:101EA200C007C006900049E025E0FF900048E033FB
:101EB200FEEF2401FFE43EFE12269AEFFDD0E0FC85
:101EC200D0E04DFD900048E0FEA3E07803C333CE9E
:101ED20033CED8F92409F58274003EF583ECF0A3E1
:101EE200EDF0900049E004F07098900048E004F0B2
:101EF200809090004AE4F0A304F08007E490004A46
:091F0200F0A3F090004AA3E0FFF7
:011F0B0022B3
:101F0C00E4900006F0900000F0FFEF75F008A424B8
:101F1C0008F582E43400F5837401F0EF75F008A441
:101F2C00240BF582E43400F583E4F0A3F00FEFB456
:101F3C0008D8E4900010F0900018F0121E62EF70B8
:101F4C004E9000097407F0A304F09000117402F095
:101F5C00A374D0F09000197402F0A374D0F0900028
:101F6C00217401F0A3742CF09000297401F0A37477
:101F7C002CF09000317401F0A3742CF090003974A3
:101F8C0001F0A3742CF09000417407F0A304F0E46A
:101F9C00900001F0A37402F0E4A3F0900005F0901F
:071FAC000007F0900004F0B3
:011FB300220B
:1016020090004BE4F0A304F07F0A1227DFE4FFFE10
:101612001227A2E4900049F0A3F0900049E0FEA353
:10162200E0FFC3EE9402501E12269AEFF46007E424
:1016320090004BF0A3F090004AE004F070DC9000C0
:1016420049E004F080D47F0A1227DFE4900049F0D9
:10165200A3F0900049E0FCA3E0FD25E0FFEC33FE9F
:10166200C006C007EDAE047803C333CE33CED8F93B
:10167200240DF58274003EF583E0FDD007D00612FA
:101682002669900049E0FCA3E0FD25E0FFEC33FE73
:10169200EF2401FFE43EFEC006C007EDAE0478036E
:1016A200C333CE33CED8F9240DF58274003EF583D0
:1016B200A3E0FDD007D00612266990004AE004F0AC
:1016C2007006900049E004F0C390004AE09408904C
:1016D2000049E0940050030216547DEE7F007E0123
:1016E2001226697F0A1227DFE4900049F0A3F090E6
:1016F2000049E0FEA3E0FFC39408EE9400507CEFA3
:1017020025E0FFEE33FE12269AAD07900049E0FA7B
:10171200A3E0FBAE027803C333CE33CED8F9240D57
:10172200F58274003EF583E06D6007E490004BF0B3
:10173200A3F0EB25E0FFEA33FEEF2401FFE43EFED7
:1017420012269AAD07900049E0FEA3E07803C33366
:10175200CE33CED8F9240DF58274003EF583A3E092
:101762006D6007E490004BF0A3F090004AE004F0B3
:101772007006900049E004F00216F1E4900049F08E
:10178200A3F0900049E0FEA3E0FFC39408EE9400AA
:101792005038EF7803C333CE33CED8F9FF240DF59A
:1017A2008274003EF583E0FCA3E0FD74092FF5820C
:1017B20074003EF583ECF0A3EDF090004AE004F0F3
:1017C20070C0900049E004F080B890004BA3E0FFA5
:0117D20022F4
:1027DF00AE071FEE600DE4FCFD0DED70010C4C60BB
:0327EF00EF80F682
:0127F20022C4
:0D000E00E4F5C7F5C5F5C675C380F5C4223D
:10269A0075C78375C5018FC4EEF5C375C65A75C66D
:0726AA00A500AFC212000EF3
:0126B1002206
:1026690075C78375C5028FC4EEF5C3AF058FC275F3
:09267900C65A75C6A50002000E48
:1027A20075C78375C5038FC4EEF5C375C65A75C662
:0527B200A50002000E6D
:101DB100E4FBEB75F008A42408F582E43400F58314
:101DC100E064016003021E58EB75F008A4240BF5D2
:101DD10082E43400F583E475F001121493EB75F09D
:101DE10008A42409F582E43400F583E0FEA3E0FFB2
:101DF100EB75F008A4240BF582E43400F583E0FCD4
:101E0100A3E0C39FEC9E402CEB601764076013EBCB
:101E110075F008A42408F582E43400F5837402F017
:101E21008012EB75F008A4240BF582E43400F583ED
:101E3100E4F0A3F0EB75F008A4240BF582E4340080
:101E4100F583E0FEA3E0FF7C007D3C12143EED4CE7
:101E5100700590000704F00BEB64086003021DB3EA
:011E6100225E
:03000B000225606B
:10256000C0E0C0F0C083C082C0D075D008758A209A
:10257000758CD1900064E004F0121CFFD0D0D082A2
:07258000D083D0F0D0E0325F
:03001B0002215966
:10215900C0E0C0F0C083C082C0D075D008758BA024
:10216900758D15900066E004F0900000E06404604D
:1021790047900066E0B4C828E4F0121DB190005BF6
:10218900E004F0700690005AE004F0900065E00465
:10219900F0E0B4050B9000077403F0900065E4F0DB
:1021A900900066E020E011900006E070051211CC65
:1021B900800312280F1222A1D0D0D082D083D0F070
:0321C900D0E03231
:10251100758EC0758911758A20758CD1D28CD2A91E
:10252100758BA0758D15D28ED2ABD2AFE4900066BB
:08253100F0900064F0A3F02219
:04249100410068009E
:101CFF00900068E0FF700930B403021DB004F022B9
:101D0F00EF6401704920B444900005E0FFB4021A5B
:101D1F00900003E004F09000077401F0900003E0DE
:101D2F00D3940E4020740EF0801BEFB40117900077
:101D3F0003E014F09000077401F0900003E0D394D7
:101D4F00C84002E4F09000687402F022804E9000C8
:101D5F0068E0B4020730B4497403F02230B4429003
:101D6F000005E0FFB4021A900003E004F0900007B2
:101D7F007401F0900003E0D3940E4020740EF080B5
:101D8F001BEFB40117900003E014F09000077401EB
:101D9F00F0900003E0D394C84002E4F0E4900068B0
:021DAF00F02220
:1024950041005C6442005D00034100596442005AFA
:0224A500000035
:1007630090005CE0B40C004003020A21900776F885
:1007730028287302079A02079D0207F40208180249
:10078300087C02089002079A0208D802093A020973
:10079300600209C70209DF0208CDD390005BE09431
:1007A3000390005AE094005003020A22900003E0F1
:1007B300FED39F401AC2A0D2A19000057401F0900D
:1007C3000001F0900007E06003020A22020910EE24
:1007D300C39F501AD2A0C2A19000057402F09000EA
:1007E30001F0900007E06003020A220209100209E7
:1007F30032900003E06F6003020A2290005AF0A3D4
:10080300F0D2A0D2A1900001F0900007E0706774CD
:1008130002F002095BD390005BE0940390005AE07E
:1008230094005003020A22900003E0FED39F401974
:10083300C2A0D2A19000057401F0900001F09000D5
:1008430007E070217402F0801CEEC39F501DD2A0FC
:10085300C2A19000057402F0900001F0900007E03F
:1008630070037402F090005C02092ED2929000078C
:10087300E070037402F002095BC2909000017403FC
:10088300F0900007E070037402F002095B30B103DB
:10089300020A22D290E4900002F0900001F0EFC32C
:1008A30013FE75F008A42408F582E43400F583E40C
:1008B300F0EE75F008A4240BF582E43400F583E42C
:1008C300F0A3F090000704F08067E490005AF0A3CF
:1008D300F0A30209DB90005DE0FEA3E0FFD39000EC
:1008E3005BE09F90005AE09E5003020A22900003AF
:1008F300E0FFD39D4019C2A0D2A19000057401F07E
:10090300900001F0900007E06003020A22801CEFD0
:10091300C39D501BD2A0C2A19000057402F09000A9
:1009230001F0900007E06003020A227402F022D271
:100933009290005C0209DB900003E06D6003020A01
:100943002290005AF0A3F0D2A0D2A1900001F0901F
:100953000007E070037402F090005C807BD390008A
:100963005BE0940390005AE094005003020A229043
:100973000003E0FFD39D4019C2A0D2A190000574EB
:1009830001F0900001F0900007E070217402F08004
:100993001CEFC39D501ED2A0C2A19000057402F0AB
:1009A300900001F0900007E070037402F090005C87
:1009B3007408F022D292900007E070037402F09062
:1009C300005C8014C2919000017404F0900007E071
:1009D30070037402F090005CE004F02220B240D275
:1009E300919000027402F0E4900001F0EDC313FF54
:1009F30075F008A42408F582E43400F5837401F04B
:100A0300EF75F008A4240BF582E43400F583E4F0D9
:100A1300A3F090000704F090005C7464F0220022BD
:1020CF00900059E014601214603514605D240370A1
:1020DF0077E490005AF0A38049D390005BE094031B
:1020EF0090005AE094004061C2A09000057401F086
:1020FF00900001F0900007E070297402F080242016
:10210F00B047E490005AF0A3F0D2A0D2A1900005FE
:10211F00F0900001F0900007E070037402F0E4907B
:10212F000003F0900059E004F022D390005BE0949C
:10213F000390005AE094004010E4F0A3F0900003E5
:0A214F00F09000597464F0220022A1
:0B280400D2A0D2A1D290D291D2922299
:1024A7004100630041006000420061000041005F9D
:0124B7000024
:1011CC00900063E012150E11FB00120601121702BB
:1011DC00122C03124104125605126A06127E0712D3
:1011EC00A40812B80912CC0A12EF1400001411E46E
:1011FC00900059F090006304F0221220CF90005917
:10120C00E0646460030214120212E87D0E7F0C127B
:10121C00076390005CE0646460030214120212E83D
:10122C007D0C7F0A12076390005CE064646003022B
:10123C0014120212E87D0A7F0812076390005CE02A
:10124C00646460030214120212E87D087F06120720
:10125C006390005CE064646003021412807E7D067F
:10126C007F0412076390005CE06464600302141254
:10127C00806A7D067F0212076390005CE064646004
:10128C00030214129000637414F0900000E06403E5
:10129C00600302141202134C7D04E4FF12076390E6
:1012AC00005CE06464600302141280307D02E4FF91
:1012BC0012076390005CE064646003021412801CEB
:1012CC009000047401F0E4FD7F0E12076390005C43
:1012DC00E064646003021412900004F090006374E4
:1012EC0014F022900040E0FF701A900038E0B40235
:1012FC0013E490005CF090005DF0A37403F0900098
:10130C006314F022900038E07019900030E0B402C1
:10131C0012E490005CF090005DF0A37403F0900078
:10132C0063F022900030E0701B900028E0B40214AF
:10133C00E490005CF090005DF0A3745AF0900063B0
:10134C007404F022900028E0701B900020E0B4029E
:10135C0014E490005CF090005DF0A37403F0900036
:10136C00637405F022900020E0FE701B900018E0E2
:10137C00B40214E490005CF090005DF0A3745AF099
:10138C009000637406F022EE701B900010E0B40223
:10139C0014E490005CF090005DF0A3745AF090009F
:1013AC00637407F022900018E0701B900008E0B402
:1013BC000214E490005CF090005DF0A37403F090D4
:1013CC0000637408F022900010E0701B900008E09D
:1013DC00B40214E490005CF090005DF0A37403F090
:1013EC009000637409F022900008E07019EFB402C9
:1013FC0015E490005CF090005DF0A37403F0900095
:07140C0063740AF0220022C4
:09280F009000637414F002280427
:0424B8004100690076
:1022A100900069E0146017146021146049240370E0
:1022B1005130950320964C9000697401F0223095BD
:1022C100032096389000697402F02220950F900047
:1022D10040E0B401087402F090000714F020960F5A
:1022E100900008E0B401087402F090000714F09027
:1022F10000697403F02230950A309607E490006972
:04230100F0220022A4
:10204F000221CCE493A3F8E493A34003F68001F2BA
:10205F0008DFF48029E493A3F85407240CC8C33392
:10206F00C4540F4420C8834004F456800146F6DF61
:10207F00E4800B010204081020408090248DE47E40
:10208F00019360BCA3FF543F30E509541FFEE49356
:10209F00A360010ECF54C025E060A840B8E493A31D
:1020AF00FAE493A3F8E493A3C8C582C8CAC583CA48
:1020BF00F0A3C8C582C8CAC583CADFE9DEE780BE00
:0124BC00001F
:10141300BB010689828A83E0225002E722BBFE02D7
:09142300E32289828A83E493220A
:10142C00EF8DF0A4A8F0CF8CF0A428CE8DF0A42ED4
:02143C00FE228E
:10143E00BC000BBE0029EF8DF084FFADF022E4CC92
:10144E00F875F008EF2FFFEE33FEEC33FCEE9DEC5B
:10145E00984005FCEE9DFE0FD5F0E9E4CEFD22EDA1
:10146E00F8F5F0EE8420D21CFEADF075F008EF2FEB
:10147E00FFED33FD4007985006D5F0F222C398FDDC
:05148E000FD5F0EA2279
:10149300C5F0F8A3E028F0C5F0F8E58215827002E4
:0614A3001583E038F02281
:1014A900A3F8E0C5F025F0F0E582158270021583F6
:0614B900E0C838F0E82253
:1014BF00E88FF0A4CC8BF0A42CFCE98EF0A42CFCCC
:1014CF008AF0EDA42CFCEA8EF0A4CDA8F08BF0A44A
:1014DF002DCC3825F0FDE98FF0A42CCD35F0FCEBA9
:1014EF008EF0A4FEA9F0EB8FF0A4CFC5F02ECD396E
:0F14FF00FEE43CFCEAA42DCE35F0FDE43CFC22DB
:1023E100C2D5E830E70FB2D5E4C39BFBE49AFAE427
:1023F10099F9E498F8EC30E717B2D51224171215C1
:1024010070E4C39BFBE49AFAE499F9E498F8800339
:1024110012157030D50DE4C39FFFE49EFEE49DFDCF
:04242100E49CFC2219
:10150E00D083D082F8E4937012740193700DA3A36C
:10151E0093F8740193F5828883E473740293686080
:06152E00EFA3A3A380DF80
:1015340075F008758200EF2FFFEE33FECD33CDCC6E
:1015440033CCC58233C5829BED9AEC99E5829840F1
:101554000CF582EE9BFEED9AFDEC99FC0FD5F0D6CE
:10156400E4CEFBE4CDFAE4CCF9A88222B800C1B9F8
:101574000059BA002DEC8BF084CFCECDFCE5F0CB36
:10158400F97818EF2FFFEE33FEED33FDEC33FCEB6F
:1015940033FB10D703994004EB99FB0FD8E5E4F92A
:1015A400FA227818EF2FFFEE33FEED33FDEC33FC17
:1015B400C933C910D7059BE99A4007EC9BFCE99A0B
:1015C400F90FD8E0E4C9FAE4CCFB2275F010EF2F50
:1015D400FFEE33FEED33FDCC33CCC833C810D70750
:1015E4009BEC9AE899400AED9BFDEC9AFCE899F88B
:0E15F4000FD5F0DAE4CDFBE4CCFAE4C8F9221E
:00000001FF
