:03000000022134A6
:0C213400787FE4F6D8FD75810F02217B56
:04260100410069002B
:10263100900000E01460111460121460141460150D
:1026410024047016E4FF800FE4FF80027F01021270
:0B265100977F0180027F0212001E2212
:1024DD00E4FFEF75F008A4240AF582E43400F583D7
:1024ED00E0FCA3E0FDEF75F008A4240EF582E434C2
:1024FD0000F583ECF0A3EDF0EF75F008A42410F5D2
:10250D0082E43400F583E4F00FEFB408C5900018B1
:03251D007401F056
:012520002298
:10265C00E4FEEE75F008A42410F582E43400F58352
:10266C00E4F00EEEB408EBEF75F008A42410F5823C
:08267C00E43400F5837401F061
:012684002233
:101B8B00E4FEEE75F008A42410F582E43400F5832E
:101B9B00E0B40102AB060EEEB408E7EF6077EB752D
:101BAB00F008A4240EF582E43400F583E0FEA3E0F4
:101BBB00FF7C007D3C121540EF24FFFFEE34FFFE4F
:101BCB007C007D3C12152EEB75F008A4240EF582DB
:101BDB00E43400F583EEF0A3EFF0EB75F008A424EA
:101BEB000EF582E43400F583E0FEA3E0FFD3940806
:101BFB00EE9407500BEF9400EE94004003021C8907
:101C0B00EB75F008A4240EF582E43400F583740719
:101C1B00F0A304F022EB75F008A4240EF582E43453
:101C2B0000F583E0FEA3E0FF7C007D3C121540EF46
:101C3B002401FFE43EFE7C007D3C12152EEB75F07B
:101C4B0008A4240EF582E43400F583EEF0A3EFF044
:101C5B00EB75F008A4240EF582E43400F583E0FE66
:101C6B00A3E0D39408EE94074014EB75F008A4247A
:0E1C7B000EF582E43400F583E4F0A3743CF02F
:011C89002238
:100AC900900049EFF0B410004003020D46900ADD92
:100AD900F8282873020B0D020B10020B36020B6467
:100AE900020B89020BAC020BD0020BF4020C1802A8
:100AF9000C3C020C5F020C82020CA5020CCC020D0C
:100B090006020D25020D46900069E06402600302A9
:100B19000D4B900049E0FF1220A57F647E0012264C
:100B2900AD9000007401F01224DD020BEF90006912
:100B3900E064026003020D4B900049E0FF1220A51A
:100B49007F647E001226AD900007E0B40104E4F052
:100B590080069000077401F0E48044900069E06425
:100B6900026003020D4B900049E0FF1220A57F644B
:100B79007E001226AD9000007403F07F01020D4142
:100B8900900069E064026003020D4B900049E0FFA8
:100B99001220A57F647E001226ADE4900000F0FFCC
:100BA900020D41900069E064026003020D4B900060
:100BB90049E0FF1220A57F647E001226AD7F011255
:100BC900265CE41F020CC6900069E064026003021F
:100BD9000D4B900049E0FF1220A57F647E0012268C
:100BE900AD7F0212265CE4FF020CC6900069E06446
:100BF900026003020D4B900049E0FF1220A57F64BB
:100C09007E001226AD7F0312265CE4FF020CC6901B
:100C19000069E064026003020D4B900049E0FF1295
:100C290020A57F647E001226AD7F0412265CE4FFB6
:100C3900020CC6900069E064026003020D4B90004B
:100C490049E0FF1220A57F647E001226AD7F0512C0
:100C5900265CE4FF8067900069E064026003020D8E
:100C69004B900049E0FF1220A57F647E001226AD5B
:100C79007F0612265CE4FF8044900069E06402600C
:100C890003020D4B900049E0FF1220A57F467E002C
:100C99001226ADE4FF121B8BE4FF8021900069E06E
:100CA90064026003020D4B900049E0FF1220A57F0A
:100CB900467E001226AD7F01121B8BE4FF121297AC
:100CC900020D4B900069E064027077900049E0FFE3
:100CD9001220A57F647E001226AD7F03121297129F
:100CE9001704EF60047F0180027F021212977FE8E8
:100CF9007E031226ADE4900000F0FF803B9000696E
:100D0900E06402703D900049E0FF1220A57F647EF7
:100D1900001226ADE4900000F0FF801C900069E00D
:100D2900B4021F900049E0FF1220A57F647E0012E3
:100D390026ADE4900000F0FF12001E8005E490004B
:100D490069F0900049E0FFD394004012EF941050ED
:100D59000D900069E004F07F0A7E000226ADE49060
:040D69000069F0220B
:10224A00121E051225997FD07E071226AD121EB8DE
:10225A00122685122904122918E4FF12001E121AE6
:10226A0057120AC9900008E0B4010A122631E49014
:10227A000008F080E9900008E0B4021E900000E037
:10228A00FF640160D9EF640260D41223FCE4900079
:10229A0008F07F0AFE1226AD80C4900008E0B4035D
:1022AA00BD121E05122904122918122631E49000C3
:0422BA0008F080AAFE
:1007CD00B6A8CAB1C9E8D6C33A00BCD320D2BB0083
:1007DD00B7D620D6D300BCF520D2BB00CEB400C90D
:1007ED00E800D6C300B7D600D6D300BDF80031005F
:1007FD0032003300340035003600B3F600B1A320CB
:10080D0020B4E600B7B52020BBD800B1A320B4E6D4
:10081D0020B3C920B9A600B1A320B4E620CAA720F1
:10082D00B0DC00B1A320B4E620D6D02E2E2E00C110
:10083D00AACFB5C8CB3AC2BDD6BEB6AB00C1AACF02
:10084D00B5B5E7BBB03A20313335363734303233B6
:10085D00363700D7B4CCAC00D7D4B6AF00CAD6B6B5
:10086D00AF00BBFAD0B5B1DBB6AFD7F73A00BFD505
:10087D00CFD0003C2D2D2D002D2D2D3E00CFF2C9BA
:10088D00CF00CFF2CFC200B4EDCEF300BFD500CF75
:10089D00D000BECD00D0F700C3A600C2B500B6A8EB
:1008AD00CAB1C9E8D6C300CAD6B6AF2FD7D4B6AF32
:1008BD0000C8A1CFFBCFC2B0E000CFC2B0E0B0B452
:1008CD00BCFC00B9D820BBFA20D6D02E2E2E00B9F4
:1008DD00D820BBFA20B3C920B9A600B2E2CAD4B35E
:1008ED00CCD0F2B2B7CFFE202020202C20CEBAC122
:1008FD00E9BEEA2020CEBAC1E9BEEAB9FEB9FE20B2
:10090D00202020B2FAC6B7D0CDBAC53A204348331D
:10091D003230323430422D322020352E37B4E73389
:10092D00323078323430B5E3D5F320D6A7B3D65272
:10093D0041383830332F524138383036BFD8D6C6CB
:10094D002CD6A7B3D63556BACD332E3356B5E7D1FF
:10095D00B92020D6A7B3D6B4A5C3FE2CBCFCC5CCFC
:10096D00C9A8C3E8B9A6C4DC20202020202020205F
:10097D002020202020202020202020CFD4CABED708
:10098D00D6D0CDBFC9B7C5B4F3B5BD333278333288
:10099D00A1A2343878343820BBF23634783634207E
:1009AD00202020C4DABDA8B4D6CCE5D7D6D0CED37E
:1009BD00EBD0D0BEE0C9E8B6A82020202020202012
:1009CD002020202020202020202020D6A7B3D6C6EE
:1009DD00C1C4BBCBAEC6BDBEEDB6AFBCB0B4B9D60F
:1009ED00B1BEEDB6AFB9A6C4DC202020202020205A
:1009FD00202020B9E2B1EAA1A2B7B4B0D7A1A2C913
:100A0D00C1CBB8B9A6C4DCA3ACB9E2B1EAB8DFB6C4
:100A1D00C8D3EBBFEDB6C8BFC9B5F7D6A7B3D6CE11
:100A2D00C4D7D6D3EBBBE6CDBCC1BDD6D6BBECBAD5
:100A3D00CDCFD4CABEC4A3CABD20202020202020E3
:100A4D00202020000718204040808080E0180402FC
:100A5D000201010180808040402018070101010240
:100A6D00020418E0071F3F7F7FFFFFFFE0F8FCFE49
:100A7D00FEFFFFFFFFFFFF7F7F3F1F07FFFFFFFE13
:100A8D00FEFCF8E01824428181422418183C7EFFB8
:100A9D00FF7E3C18FFFFFFFFFFFFFFFF000001FC83
:100AAD007FFC6618663066607FFE7E7A665A66DA6F
:0C0ABD007EB27FB2676600CE018C0000A4
:0C276100AC071228C5AF0412274B7FB054
:10276D00C2A5D2A4D2A2C2A38F80C2A3D2A3D2A546
:01277D002239
:0627CF007F0F12276DFFD1
:1027D50030A6FDC2A5D2A4C2A28F80C2A3D2A3D225
:0227E500A5222B
:0A271F007FFF12276D1227D57FC33C
:10272900C2A5D2A2D2A48F80C2A3D2A37580FFC2B0
:09273900A2D2A3D2A4C2A4AF8075
:012742002274
:101E0500C2A77F327E001226ADD2A77F327E001296
:101E150026ADE4FF12276D7F041227D57F01122717
:101E25006D7F081227D57F031227D11227CF7F1088
:101E35001227D17F111227D17F1212276D1F12276A
:101E4500D57F2012276D7F271227D57F2112276D79
:101E55007F271227D57F3012276D7FEF1227D57F79
:101E65003112276D7FEF1227D57F401227D17F5082
:101E75001227D17F601227D17F611227D17F62128D
:101E850027D17F701227D17F711227D17F72122738
:101E9500D17F801227D17F9012276D7F801227D5A1
:101EA5007FE01227D17FF01227D17FF112276DFF36
:031EB5000227D52C
:08274300900052E0FFE92AFDBD
:10274B00AE077F6012276DAF061227D57F70122759
:06275B006DAF050227D559
:1028B000E4FF122729AE07EE54F7FEE4FF12276D5E
:0528C000AF060227D560
:1028C500E4FF122729AE07EE4408FEE4FF12276D48
:0528D500AF060227D54B
:102816007F12122729AE07EE549F4410FE7F121234
:06282600276DFF0227D51B
:10282C007F12122729AE07EE54BF4430FE7F1212DE
:06283C00276DFF0227D505
:102842007F12122729AE07EE54F74404FE7F1212BC
:06285200276DFF0227D5EF
:102858007F12122729AE07EE54FD4401FE7F1212A3
:06286800276DFF0227D5D9
:10286E007F12122729AE07EE54FE4402FE7F12128B
:06287E00276DFF0227D5C3
:1027FF001228B07FE012276DE4FF1227D57FF01269
:07280F00276D7FA80227D509
:1028DA00E4FF122729AE07EE54FEFEE4FF12276D2D
:0528EA00AF060227D536
:09277E001228581227FF1228DA74
:102787007F10122729AE07EE54DFFE7F1012276D48
:04279700FF0227D541
:10256500EF24FE601314601914601F240370247F88
:10257500F112276DE4FF80187FF112276D7F5080DF
:102585000F7FF112276D7FA080067FF112276D1F47
:042595001227D52212
:0F249800E075F005A404FF7BFF7A0779F27D74ED
:1024A70090004DEBF0A3EAF0A3E9F012276190004A
:1024B7004DE0FBA3E0FAA3E0F912151560179000B1
:1024C7004DA3E475F0011215ABA9F0FA121515FF2B
:0624D7001227D580D92276
:0929400075F00A842430FB7D606F
:08294900122761AF030227D53C
:101C8A009000557430F0A37401F07B147D507F0AE4
:071C9A00900052EFF0A905D4
:101CA1001228B0E4FA900055E0FFEAC39F40030216
:101CB1001D4DEA701A122743E4FCECC39B4003025A
:101CC1001D497FB012276D7FFF1227D50C80EBEAEB
:101CD100D394004054900055E014FFEA9F504A907D
:101CE1000052E0FFE92AFD122768900056E0601BD0
:101CF1007F801227D57C01EB14FFECC39F5008E4D1
:101D0100FF1227D50C80F07F0180197FFF1227D5A4
:101D11007C01EB14FFECC39F50087FFF1227D50C09
:101D210080F07FFF1227D5801F900055E0146A7064
:101D310017122743E4FCECC39B500D7FB012276DB3
:0C1D41007FFF1227D50C80EE0A021CA6C2
:011D4D002273
:04233100A3F07B0199
:0B233500900052EFF0A3EDF0A3EBF0DE
:102340001228B0E4900059F0900055E0FF90005939
:10235000E0C39F5042E4FC900054E0FFECC39F5068
:102360002E900052E02CFF900059E0FE900053E0C8
:102370002EFD122768900056E0FBA3E475F00112D1
:1023800015ABA9F0FA121515FF1227D50C80C890CD
:072390000059E004F080B1E8
:012397002223
:1018D5009000507440F0A37401F07B167D487F0999
:1018E50090004DEFF0A3EDF0A3EBF0900051E090E8
:1018F500004D70030219A4E0FFA3E0FDA3E0FBA3E4
:10190500E0900055F0A37401F0121C9A90004DE090
:10191500FFA3E0FD9000557408F0A374FFF0A374D5
:101925000AF0745112233190004DE0FF900050E011
:10193500FE90004EE02E24F8FD9000557408F0A3AB
:1019450074FFF0A3740AF0746112233190004FE024
:10195500FF90004DE02F14FFA3E0FD9000557408A3
:10196500F0A374FFF0A3740AF0A37459F07B01127D
:10197500233590004FE0FF90004DE02F14FF9000BD
:1019850050E0FE90004EE02E24F8FD9000557408BE
:10199500F0A374FFF0A3740AF0A37469021A50E06F
:1019A500FFA3E0FDA3E0FBA3E0900055F0E4A3F066
:1019B500121C9A90004DE0FFA3E0FD9000557408BD
:1019C500F0A374FFF0A3740AF0A37471F07B011205
:1019D500233590004DE0FF900050E0FE90004EE072
:1019E5002E24F8FD9000557408F0A374FFF0A3743D
:1019F5000AF0A37481F07B0112233590004FE0FFBC
:101A050090004DE02F14FFA3E0FD9000557408F001
:101A1500A374FFF0A3740AF0A37479F07B01122379
:101A25003590004FE0FF90004DE02F14FF900050DF
:101A3500E0FE90004EE02E24F8FD9000557408F06D
:101A4500A374FFF0A3740AF0A37489F07B01122339
:021A5500352238
:102904007FC0122729AE07EE4480FE7FC012276DD8
:04291400FF0227D5C2
:102918007FC4122729AE07EE4480FE7FC412276DBC
:04292800FF0227D5AE
:102884007FC4122729AE07EE54FE4402FE7FC41211
:06289400276DFF0227D5AD
:10289A007FC4122729AE07EE44014402FE7FC41208
:0628AA00276DFF0227D597
:1026D400EF2458FFEE34FCFEE434FFFDE434FFFC49
:1026E400E47B407A01F9F81215C17BB47AFC79FFD6
:0526F40078FF12252112
:0126F90022BE
:1026FA00EF2480FFEE34FCFEE434FFFDE434FFFCFB
:10270A00E47BF0FAF9F81215C17BEC7AFC79FF78D0
:04271A00FF12252164
:01271E002298
:10101000E4F9900000E060030210ACD3EF9400EE1E
:1010200094004027EF9460EE9400501FED94D0ECB4
:1010300094004017ED94F0EC9400500F900007E0FE
:101040006401600302129409021294D3EF9468EED3
:101050009400401DEF94D0EE94005015ED94D0EC28
:101060009400400DED94F0EC9400500579020212CA
:1010700094D3EF94D8EE94005003021294EF943876
:10108000EE94014003021294ED94D0EC94005003CE
:10109000021294ED94F0EC9400400302129490003C
:1010A00007E060030212947903021294900000E0BA
:1010B00064037032D3EF94D8EE940050030212947C
:1010C000EF9438EE94014003021294ED94D0EC9426
:1010D000005003021294ED94F0EC940040030212CD
:1010E000947904021294900000E0640160030212FB
:1010F0006AD3EF9428EE9400401DEF9448EE9400DC
:101100005015ED944AEC9400400DED94AEEC940033
:1011100050057905021294D3EF9450EE9400401DCF
:10112000EF9470EE94005015ED944AEC9400400D4D
:10113000ED94AEEC940050057906021294D3EF942E
:1011400078EE9400401DEF9498EE94005015ED94C5
:101150004AEC9400400DED94AEEC940050057907F4
:10116000021294D3EF94A0EE9400401DEF94C0EED1
:1011700094005015ED944AEC9400400DED94AEECC3
:10118000940050057908021294D3EF94C8EE9400AD
:10119000401DEF94E8EE94005015ED944AEC940055
:1011A000400DED94AEEC940050057909021294D3F1
:1011B000EF94F0EE9400401DEF9410EE9401501562
:1011C000ED944AEC9400400DED94AEEC9400500583
:1011D000790A021294D3EF94A0EE9400401DEF948C
:1011E000D8EE94005015ED940CEC9400400DED9465
:1011F0003CEC94005005790B021294D3EF94E8EE86
:101200009400401CEF9420EE94015014ED940CECEB
:101210009400400CED943CEC94005004790C8074E4
:10122000D3EF9470EE9400401CEF94D0EE940050F5
:1012300014ED94D0EC9400400CED94F0EC9400503C
:1012400004790D804FD3EF94D8EE94004046EF948C
:1012500038EE9401503EED94D0EC94004036ED947D
:10126000F0EC9400502E790E802A900000E0B40239
:1012700023D3EF94D8EE9400401AEF9438EE940103
:101280005012ED94D0EC9400400AED94F0EC9400F0
:061290005002790FAF01CE
:011296002235
:101A5700E490004AF0FE7FC412276D7F811227D5DC
:101A67007FFF12276D1227D57F0F122729EF20E35B
:101A770003021B85E4FD7F0F122729EF7003FE8009
:101A87000BEDB431027E010DEDB432EAEE700302C4
:101A97001B791228847F647E0012279B12289A7F65
:101AA700647E0012279B7FC1122729AE077FFF1292
:101AB700276D1227D57FC2122729900049EFF01210
:101AC700271FEF5403FD12271FEF540CF97FFF1256
:101AD700276D1227D5AF067E00EF7802C333CE33CA
:101AE700CED8F9FFED5403FDEF4DFDAC069000494C
:101AF700E07E007802C333CE33CED8F9FBAA067E48
:101B070000E9540C7802CEC313CE13D8F9FFEE4A7E
:101B1700FEEF4BFF90004BEEF0A3EFF0C3ED94B454
:101B2700EC9403504DED945EEC9400404590004BCF
:101B3700E0FEA3E0FF94B0EE94035036EF945CEE22
:101B47009400402EAE04AF051226D490004DEEF05F
:101B5700A3EFF090004BE0FEA3E0FF1226FAAD07DB
:101B6700AC0690004DE0FEA3E0FF12101090004A73
:101B7700EFF07F0F122729EF54FEFE1227CF9000B8
:031B87004AE0FF32
:011B8A002238
:0512970090004AEFF099
:10129C0012286E1227FF9000507430F0A37401F0E6
:1012AC007B077D0C7F141218E59000507430F0A36E
:1012BC007401F07B077D0C7F1D1218E5E490004B48
:1012CC00F090004BE0FFC394085043EF75F008A476
:1012DC002410F582E43400F583E090004B6010E0BC
:1012EC0075F005A4FF9000557464F0E4A3800FE042
:1012FC0075F005A4FF9000557464F0A37401F07BA5
:10130C00047D4A121C9A90004BE004F080B39000CC
:10131C0000E0B401139000507420F0A37401F07B32
:10132C000C7DD07F0E1218E59000507420F0A37441
:10133C0001F07B0C7DD07F1B1218E590004AE06019
:10134C00031218D512277E7BFF7A0779CD7D087F93
:10135C00011224A77BFF7A0779D77D127F151224FF
:10136C00A77BFF7A0779DD7D267F151224A77BFFEB
:10137C007A0779E37D127F1E1224A77BFF7A077907
:10138C00DD7D267F1E1224A77BFF7A0779E97D601D
:10139C007F011224A77BFF7A0779EC7D747F011201
:1013AC0024A77BFF7A0779EF7D887F011224A79011
:1013BC00004B7401F090004BE0FB75F008A4240E78
:1013CC00F582E43400F583E0FEA3E0FF7C007D3C75
:1013DC0012154090004CEFF0FEEB75F005A404FFE5
:1013EC00EE12294090004BE075F005A42402FFA3F7
:1013FC00E075F00A84E5F02430FB12294990004B8B
:10140C0012249890004BE075F005A404FF7BFF7A42
:10141C000779F57D881224A790004BE004F0E0C317
:10142C00940740917BFF7A0779E97D607F24122431
:10143C00A77BFF7A0779EC7D747F241224A77BFFAE
:10144C007A0779EF7D887F241224A77BFF7A0779AE
:10145C00F87DB47F011224A77BFF7A0779FB7F0606
:10146C001224A77BFF7A0779FD7F0B1224A77BFF41
:10147C007A0779FF7F101224A77BFF7A0879017F06
:10148C00151224A77BFF7A0879037F1A1224A77BF5
:10149C00FF7A0879057F1F1224A77BFF7A0879074A
:1014AC007F241224A7900000E0B4010D7BFF7A0882
:1014BC00790A7DD87F111224A77BFF7A0879117DD8
:1014CC00D87F1E1224A790004AE060379000507419
:1014DC0040F0E4A31218DE121C8A90004AE0B4011A
:1014EC00087BFF7A087918801390004AE07BFFB4E0
:1014FC0002067A08792480047A0879307D607F0EA0
:09150C001224A712284202282C27
:1025990012286E1227871227FF122858122787122E
:1025A90027FF1228167F011225657BFF7A08793CDF
:1025B9007D357F041224A77BFF7A08794A7D537FF2
:0425C900040224A73D
:05001E0090004AEFF024
:1000230012286E1227FF9000557420F0A37401F07C
:100033007B08E4FDFF121C9A9000557420F0A37412
:1000430001F0E4FD7F08121C9AE490004BF090004D
:100053004BE0FFC39408504DEF75F005A42402FF55
:100063009000557408F0A374FFF0A3740AF0A3740E
:1000730091F07B017D2A12233590004BE075F0054A
:10008300A42402FF9000557408F0A374FFF0A37436
:100093000AF0A37491F07B017D3A12233590004B53
:1000A300E004F080A9900004E0FF20E02590000325
:1000B300E0700BEFC31375F005A4240280249000B5
:1000C30003E064027060A3E0C31375F005A4240287
:1000D300803A900003E07023A3E0C31375F005A4F6
:1000E3002404FF9000557408F0A374FFF0A3740A6E
:1000F300F0A37499F07B017D2A8028900003E0B47B
:100103000224A3E0C31375F005A42404FF90005553
:100113007408F0A374FFF0A3740AF0A37499F07B3E
:10012300017D3A122335E490004BF090004BE0FF41
:10013300C394085043EF75F008A42409F582E4340E
:1001430000F583E090004B6010E075F005A4FF908C
:1001530000557464F0E4A3800FE075F005A4FF90EC
:1001630000557464F0A37401F07B047D4A121C9A59
:1001730090004BE004F080B390004AE0702D9000B3
:1001830007E0B401139000507420F0A37401F07BD6
:100193000C7DD0E4FF1218E59000507420F0A37496
:1001A30001F07B0D7DD07F0D1218E5900007E07004
:1001B3001B90004AE0640260139000507420F0A387
:1001C3007401F07B0C7DD07F1B1218E590004AE090
:1001D30060031218D512277E7BFF7A0879607D08A9
:1001E3007F021224A7900007E07BFF70067A08794C
:1001F3006580067A08796A7D087F0A1224A77BFF47
:100203007A08796F7D087F161224A7900002E01404
:10021300601514601A14601F146024240470287B72
:10022300FF7A08797B80267BFF7A087980801E7BA2
:10023300FF7A08798580167BFF7A08798A800E7B9E
:10024300FF7A08798F80067BFF7A0879947D087F8F
:10025300221224A7E490004BF090004BE0FFC394DC
:1002630008400302038AEF75F008A42409F582E429
:100273003400F583E0702890004BE075F005A4048A
:10028300FF7BFF7A0879997D641224A790004BE0E5
:1002930075F005A404FF7BFF7A08799C02037C9028
:1002A300004BE0FF75F008A42409F582E43400F55F
:1002B30083E064027025EF75F005A404FF7BFF7AE9
:1002C30008799F7D641224A790004BE075F005A484
:1002D30004FF7BFF7A0879A202037C90004BE0FFC6
:1002E30060726407606EE075F008A4240CF582E484
:1002F3003400F583E0FCA3E0FDEF75F008A4240AC5
:10030300F582E43400F583E0FEA3E0C39DFFEE9C99
:10031300FE7C007D3C121540AA0790004BE075F06F
:1003230005A404FFEA122940E075F005A42402FFA6
:10033300EA75F00A84E5F02430FB12294912249867
:1003430090004BE075F005A404FF7BFF7A0779F575
:100353007D88802790004BE075F005A404FF7BFFA8
:100363007A0879A57D641224A790004BE075F00507
:10037300A404FF7BFF7A0879A87D841224A7900048
:100383004BE004F002025C7BFF7A0779F87DB47FCF
:10039300011224A77BFF7A0779FB7F061224A77B30
:1003A300FF7A0779FD7F0B1224A77BFF7A0779FF7A
:1003B3007F101224A77BFF7A0879017F151224A7E7
:1003C3007BFF7A0879037F1A1224A77BFF7A0879C7
:1003D300057F1F1224A77BFF7A0879077F24122445
:1003E300A790004AE07021900007E0B4010D7BFF65
:1003F3007A0879AB7DD87F021224A77BFF7A08792C
:10040300B47DD87F0F1224A790004AE0B401087B83
:10041300FF7A0879BE801290004AE07013900007BB
:10042300E0700D7BFF7A0879C77DD87F1D1224A762
:1004330090004AE060289000507440F0E4A3121842
:10044300DE121C8A90004AE07BFFB401067A087929
:10045300D080047A0879DC7D607F0E1224A71228ED
:040463004202282CFD
:1023FC001228581228DA122787900002E014601570
:10240C0014601A14601F146024240470287BFF7A53
:10241C0008797B80267BFF7A087980801E7BFF7A87
:10242C0008798580167BFF7A08798A800E7BFF7A83
:10243C0008798F80067BFF7A0879947D087F2212B9
:03244C0024A722A0
:1020A500AD0712286EED12161020CD0120DD02219C
:1020B500210321210420EE0B20FF0C21100D2121ED
:1020C5000E21210F000021339000507420F0E4A36D
:1020D500F07B0C7DD0FF80539000507420F0E4A37A
:1020E500F07B0D7DD07F0D80429000507430F0E480
:1020F500A3F07B077D0C7F1480319000507430F085
:10210500E4A3F07B077D0C7F1D8020900050742098
:10211500F0E4A3F07B0C7DD07F0E800F900050740F
:0F21250020F0E4A3F07B0C7DD07F1B1218E52285
:10279B00EF1FAC0670011E4C6010900050E004F06F
:0A27AB0070EE90004FE004F080E6AD
:0127B5002201
:0826AD0090004AEEF0A3EFF0EB
:1026B500E4FBFAD390004BE09B90004AE09A400E71
:0E26C5007FDE7E0112279B0BBB00010A80E521
:0126D30022E4
:101F640090004BE4F0A304F07F0A12292C7F007E3A
:101F7400011227E7EF64EE6003022000900049F0AD
:101F8400A3F0900049E0FEA3E0FFC39408EE9400A0
:101F94005060EF25E0FFEE33FE1227E7EF7F00FEEF
:101FA400C007C00690004AE025E0FF900049E033F6
:101FB400FEEF2401FFE43EFE1227E7EFFDD0E0FC34
:101FC400D0E04DFD900049E0FEA3E07803C333CE9A
:101FD40033CED8F9240AF58274003EF583ECF0A3DD
:101FE400EDF090004AE004F07098900049E004F0AD
:101FF400809090004BE4F0A304F08007E490004B41
:09200400F0A3F090004BA3E0FFF3
:01200D0022B0
:101EB800E4900007F0900000F0FFEF75F008A4240C
:101EC80009F582E43400F5837401F0EF75F008A495
:101ED800240CF582E43400F583E4F0A3F00FEFB4AA
:101EE80008D8E4900011F0900019F0121F64EF7008
:101EF8004E90000A7407F0A304F09000127402F0E8
:101F0800A374D0F090001A7402F0A374D0F090007B
:101F1800227401F0A3742CF090002A7401F0A374C9
:101F28002CF09000327401F0A3742CF090003A74F5
:101F380001F0A3742CF09000427407F0A304F0E4BD
:101F4800900002F0A37402F0E4A3F0900006F09071
:0B1F58000008F0900001F0900005F080
:011F6300225B
:1017040090004CE4F0A304F07F0A12292CE4FFFEBD
:101714001228EFE490004AF0A3F090004AE0FEA300
:10172400E0FFC3EE9402501E1227E7EFF46007E4D3
:1017340090004CF0A3F090004BE004F070DC9000BB
:101744004AE004F080D47F0A12292CE490004AF085
:10175400A3F090004AE0FCA3E0FD25E0FFEC33FE9B
:10176400C006C007EDAE047803C333CE33CED8F938
:10177400240EF58274003EF583E0FDD007D00612F6
:1017840027B690004AE0FCA3E0FD25E0FFEC33FE21
:10179400EF2401FFE43EFEC006C007EDAE0478036B
:1017A400C333CE33CED8F9240EF58274003EF583CC
:1017B400A3E0FDD007D0061227B690004BE004F05A
:1017C400700690004AE004F0C390004BE094089047
:1017D400004AE0940050030217567DEE7F007E011C
:1017E4001227B67F0A12292CE490004AF0A3F09045
:1017F400004AE0FEA3E0FFC39408EE9400507CEF9F
:1018040025E0FFEE33FE1227E7AD0790004AE0FA29
:10181400A3E0FBAE027803C333CE33CED8F9240E53
:10182400F58274003EF583E06D6007E490004CF0AF
:10183400A3F0EB25E0FFEA33FEEF2401FFE43EFED4
:101844001227E7AD0790004AE0FEA3E07803C33314
:10185400CE33CED8F9240EF58274003EF583A3E08E
:101864006D6007E490004CF0A3F090004BE004F0AE
:10187400700690004AE004F00217F3E490004AF086
:10188400A3F090004AE0FEA3E0FFC39408EE9400A6
:101894005038EF7803C333CE33CED8F9FF240EF596
:1018A4008274003EF583E0FCA3E0FD740A2FF58208
:1018B40074003EF583ECF0A3EDF090004BE004F0EF
:1018C40070C090004AE004F080B890004CA3E0FFA0
:0118D40022F1
:10292C00AE071FEE600DE4FCFD0DED70010C4C606C
:03293C00EF80F633
:01293F002275
:0D000E00E4F5C7F5C5F5C675C380F5C4223D
:1027E70075C78375C5018FC4EEF5C375C65A75C61F
:0727F700A500AFC212000EA5
:0127FE0022B8
:1027B60075C78375C5028FC4EEF5C3AF058FC275A5
:0927C600C65A75C6A50002000EFA
:1028EF0075C78375C5038FC4EEF5C375C65A75C614
:0528FF00A50002000E1F
:101D4E00E4FBEB75F008A42409F582E43400F58376
:101D5E00E0FF64016008EF64026003021DFBEB7597
:101D6E00F008A4240CF582E43400F583E475F00148
:101D7E00121595EB75F008A4240AF582E43400F5EB
:101D8E0083E0FEA3E0FFEB75F008A4240CF582E4DB
:101D9E003400F583E0FCA3E0C39FEC9E402CEB6087
:101DAE001764076013EB75F008A42409F582E43478
:101DBE0000F5837402F08012EB75F008A4240CF584
:101DCE0082E43400F583E4F0A3F0EB75F008A4246C
:101DDE000CF582E43400F583E0FEA3E0FF7C007D89
:101DEE003C121540ED4C700590000804F00BEB64AE
:061DFE00086003021D5005
:011E040022BB
:03000B000225CDFE
:1025CD00C0E0C0F0C083C082C0D075D008758A202D
:1025DD00758CD1900066E004F0900006E0FF640277
:1025ED006004EFB4010312200ED0D0D082D083D07E
:0425FD00F0D0E03208
:03001B000222BE00
:1022BE00C0E0C0F0C083C082C0D075D008758BA0BE
:1022CE00758D15900068E004F0900000E0640460E5
:1022DE0047900068E0B4C828E4F0121D4E90005DEF
:1022EE00E004F0700690005CE004F0900067E004FB
:1022FE00F0E0B4050B9000087403F0900067E4F072
:10230E00900068E020E011900007E07005120D6D5E
:10231E00800312295C122398D0D0D082D083D0F0C3
:03232E00D0E032CA
:10268500758EC0758911758A20758CD1D28CD2A9A9
:10269500758BA0758D15D28ED2ABD2AFE490006844
:0826A500F0900066F0A3F022A2
:0426050041006A0026
:10244F00E5B0B4FE037F0022E5B0B4FD037F0222A6
:10245F00E5B0B4FB037F0422E5B0B4F7037F062297
:10246F00E5B0B4EF037F0822E5B0B4DF037F0A22A3
:10247F00E5B0B4BF037F0C22E5B0B47F037F0E221B
:09248F009000077401F07F642243
:10200E00E490005AF090006AE0FF700CE5B0F470B6
:10201E00030220A47401F022EF64017022E5B0F4F3
:10202E00606F900006E0FEB402028004EEB4010878
:10203E0012244F900004EFF090006A7402F0229088
:10204E00006AE0B40209E5B0F4704B7403F022E5C7
:10205E00B0F47042900006E0FFB4021A900004E063
:10206E0004F09000087401F0900004E0D3940E4048
:10207E0020740EF0801BEFB40117900004E014F0F2
:10208E009000087401F0900004E0D394C84002E47C
:06209E00F0E490006AF07E
:0120A4002219
:1026090041005E6442005F000341005B6442005C7C
:022619000000BF
:1004670090005EE0B40C0040030207CB90047AF8DA
:1004770028287302049E0204A102053502055D02C5
:1004870005CF0205E302049E02062C0206D10206EE
:10049700FC020771020789020621900005EFF0D3DD
:1004A70090005DE0940390005CE094005003020725
:1004B700CC900004E0FED39F4036C2A0D2A19000AA
:1004C70001E0FCB40106C292D293800EECB402069E
:1004D700D292C2938004D292D2939000067401F014
:1004E700900002F0900008E060030207CC02068546
:1004F700EEC39F5036D2A0C2A1900001E0FEB40126
:1005070006C292D293800EEEB40206D292C29380B4
:1005170004D292D2939000067402F0900002F090F9
:100527000008E060030207CC0206850206C39000BC
:1005370004E06F60030207CCD2A0D2A1D292D2937B
:1005470090005CF0A3F0900002F0900008E0707556
:100557007402F00206F6D390005DE0940390005C0D
:10056700E0940050030207CC900004E0FED39F40C4
:100577001DC2A0D2A1D292C2939000067401F0903E
:100587000002F0900008E070257402F08020EEC3AE
:100597009F5021D2A0C2A1D292C2939000067402AA
:1005A700F0900002F0900008E070037402F09000F1
:1005B7005E0206BFD2A0D2A1D292D293900008E0E9
:1005C70070037402F00206F6C2909000027403F002
:1005D700900008E070037402F00206F630940302FC
:1005E70007CCD290E4900003F0900002F0EFC31321
:1005F700FE75F008A42409F582E43400F583E4F0DD
:10060700EE75F008A4240CF582E43400F583E4F0D9
:10061700A3F090000804F00206CBE490005CF0A37E
:10062700F0A3020785900005EDF090005FE0FEA3C0
:10063700E0FFD390005DE09F90005CE09E500302D6
:1006470007CC900004E0FFD39D4035C2A0D2A19013
:100657000001E0FEB40106C292D293800EEEB4020E
:1006670006D292C2938004D292D29390000674016C
:10067700F0900002F0900008E060030207CC803899
:10068700EFC39D5037D2A0C2A1900001E0FFB40193
:1006970006C292D293800EEFB40206D292C2938022
:1006A70004D292D2939000067402F0900002F09068
:1006B7000008E060030207CC7402F022D2A0D2A1A6
:1006C700D292D29390005E020785900004E06D609D
:1006D700030207CCD2A0D2A1D292D29390005CF0B1
:1006E700A3F0900002F0900008E070037402F0900D
:1006F700005E020785D390005DE0940390005CE004
:10070700940050030207CC900004E0FFD39D401DE6
:10071700C2A0D2A1D292C2939000067401F09000B9
:1007270002F0900008E070257402F08020EFC39D6E
:100737005022D2A0C2A1D292C2939000067402F0B6
:10074700900002F0900008E070037402F090005EE1
:100757007408F022D2A0D2A1D292D293900008E0DE
:1007670070037402F090005E8014C29190000274CE
:1007770004F0900008E070037402F090005EE0045B
:10078700F022209740D2919000037402F0E4900089
:1007970002F0EDC313FF75F008A42409F582E434D1
:1007A70000F5837401F0EF75F008A4240CF582E4DA
:1007B7003400F583E4F0A3F090000804F090005EA5
:0607C7007464F022002220
:1021C00090005BE014601214603514605D240370AD
:1021D00077E490005CF0A38049D390005DE0940325
:1021E00090005CE094004061C2A09000067401F091
:1021F000900002F0900008E070297402F080242022
:10220000B047E490005CF0A3F0D2A0D2A190000609
:10221000F0900002F0900008E070037402F0E49087
:102220000004F090005BE004F022D390005DE094A5
:102230000390005CE094004010E4F0A3F0900004F0
:0A224000F090005B7464F0220022AD
:0B295100D2A0D2A1D290D291D292224B
:10261B00410065004100620042006300004100611F
:01262B0000AE
:100D6D00900004E0FE900005E0FDD39E4005ED9E51
:100D7D00FF800C900005E0FF900004E0C39FFFEFA3
:100D8D00D3940240089000017401F08005E49000B6
:100D9D0001F0900065E01216100DCE000DD9010D79
:100DAD00EA020DFF030E14040E29050E3D060E5129
:100DBD00070E77080E8B090E9F0A0EB8140000104F
:100DCD000EE490005BF090006504F0221221C090BB
:100DDD00005BE06464600302100F020EB17D0E7FB4
:100DED000C12046790005EE06464600302100F0251
:100DFD000EB17D0C7F0A12046790005EE0646460A2
:100E0D000302100F020EB17D0A7F081204679000D5
:100E1D005EE06464600302100F020EB17D087F0670
:100E2D0012046790005EE06464600302100F80742A
:100E3D007D067F0412046790005EE0646460030227
:100E4D00100F80607D067F0212046790005EE064E3
:100E5D0064600302100F9000657414F0900000E0C0
:100E6D006403600302100F020F797D04E4FF120486
:100E7D006790005EE06464600302100F80267D02BF
:100E8D00E4FF12046790005EE06464600302100FDB
:100E9D008012E4FD7F0E12046790005EE0646460D2
:100EAD000302100F9000657414F022900019E0FFFA
:100EBD00701B900009E0B40214E490005EF0900005
:100ECD005FF0A37403F09000657408F02290001198
:100EDD00E0FE701B900009E0B40214E490005EF097
:100EED0090005FF0A37403F09000657409F02290F8
:100EFD000009E0701B900041E0B40214E490005E24
:100F0D00F090005FF0A37403F0900065740AF02276
:100F1D00900041E0701A900039E0B40213E49000A3
:100F2D005EF090005FF0A37403F090006514F02262
:100F3D00900039E07019900031E0B40212E4900095
:100F4D005EF090005FF0A37403F0900065F02290C6
:100F5D000031E0701B900029E0B40214E490005EB3
:100F6D00F090005FF0A3745AF09000657404F022C5
:100F7D00900029E0701B900021E0B40214E4900071
:100F8D005EF090005FF0A37403F09000657405F0BF
:100F9D0022900021E0706BEFB4020AEEB40106E47A
:100FAD0090005E804C900011E0B4020D900019E0AD
:100FBD00B40106E490005E8028900011E064027098
:100FCD0041900019E0B4023A90001CE0FEA3E0FF4E
:100FDD00D3900015E09F900014E09EE490005E40D9
:100FED0010F090005FF0A3745AF09000657407F054
:100FFD0022F090005FF0A3745AF09000657406F033
:02100D002200BF
:01100F0022BE
:09295C009000657414F002295189
:04262C0041006B00FE
:1023980090006BE0146017146021146049240370E6
:1023A8005130950320964C90006B7401F0223095C3
:1023B8000320963890006B7402F02220950F90004D
:1023C80041E0B401087402F090000814F020960F60
:1023D800900009E0B401087402F090000814F0902D
:1023E800006B7403F02230950A309607E490006B76
:0423F800F0220022AD
:1021400002224AE493A3F8E493A34003F68001F249
:1021500008DFF48029E493A3F85407240CC8C333A0
:10216000C4540F4420C8834004F456800146F6DF6F
:10217000E4800B0102040810204080902601E47ED8
:10218000019360BCA3FF543F30E509541FFEE49364
:10219000A360010ECF54C025E060A840B8E493A32B
:1021A000FAE493A3F8E493A3C8C582C8CAC583CA56
:1021B000F0A3C8C582C8CAC583CADFE9DEE780BE0E
:0126300000A9
:10151500BB010689828A83E0225002E722BBFE02D4
:09152500E32289828A83E4932207
:10152E00EF8DF0A4A8F0CF8CF0A428CE8DF0A42ED1
:02153E00FE228B
:10154000BC000BBE0029EF8DF084FFADF022E4CC8F
:10155000F875F008EF2FFFEE33FEEC33FCEE9DEC58
:10156000984005FCEE9DFE0FD5F0E9E4CEFD22ED9E
:10157000F8F5F0EE8420D21CFEADF075F008EF2FE8
:10158000FFED33FD4007985006D5F0F222C398FDD9
:051590000FD5F0EA2276
:10159500C5F0F8A3E028F0C5F0F8E58215827002E1
:0615A5001583E038F0227E
:1015AB00A3F8E0C5F025F0F0E582158270021583F3
:0615BB00E0C838F0E82250
:1015C100E88FF0A4CC8BF0A42CFCE98EF0A42CFCC9
:1015D1008AF0EDA42CFCEA8EF0A4CDA8F08BF0A447
:1015E1002DCC3825F0FDE98FF0A42CCD35F0FCEBA6
:1015F1008EF0A4FEA9F0EB8FF0A4CFC5F02ECD396B
:0F160100FEE43CFCEAA42DCE35F0FDE43CFC22D7
:10252100C2D5E830E70FB2D5E4C39BFBE49AFAE4E5
:1025310099F9E498F8EC30E717B2D512255712163D
:1025410072E4C39BFBE49AFAE499F9E498F88003F6
:1025510012167230D50DE4C39FFFE49EFEE49DFD8B
:04256100E49CFC22D8
:10161000D083D082F8E4937012740193700DA3A369
:1016200093F8740193F5828883E47374029368607D
:06163000EFA3A3A380DF7D
:1016360075F008758200EF2FFFEE33FECD33CDCC6B
:1016460033CCC58233C5829BED9AEC99E5829840EE
:101656000CF582EE9BFEED9AFDEC99FC0FD5F0D6CB
:10166600E4CEFBE4CDFAE4CCF9A88222B800C1B9F5
:101676000059BA002DEC8BF084CFCECDFCE5F0CB33
:10168600F97818EF2FFFEE33FEED33FDEC33FCEB6C
:1016960033FB10D703994004EB99FB0FD8E5E4F927
:1016A600FA227818EF2FFFEE33FEED33FDEC33FC14
:1016B600C933C910D7059BE99A4007EC9BFCE99A08
:1016C600F90FD8E0E4C9FAE4CCFB2275F010EF2F4D
:1016D600FFEE33FEED33FDCC33CCC833C810D7074D
:1016E6009BEC9AE899400AED9BFDEC9AFCE899F888
:0E16F6000FD5F0DAE4CDFBE4CCFAE4C8F9221B
:00000001FF
