:0300000002203F9C
:0C203F00787FE4F6D8FD75810F02208642
:0424BB004100670075
:1024EB00900000E014601114601214601414601555
:1024FB0024047016E4FF800FE4FF80027F01020FBB
:0B250B004E7F0180027F0212001E22A2
:10239900E4FFEF75F008A42409F582E43400F5831D
:1023A900E0FCA3E0FDEF75F008A4240DF582E43408
:1023B90000F583ECF0A3EDF0EF75F008A4240FF518
:1023C90082E43400F583E4F00FEFB408C5900017F8
:0323D9007401F09C
:0123DC0022DE
:10251600E4FEEE75F008A4240FF582E43400F5839A
:10252600E4F00EEEB408EBEF75F008A4240FF58284
:08253600E43400F5837401F0A8
:01253E00227A
:101A8900E4FEEE75F008A4240FF582E43400F58332
:101A9900E0B40102AB060EEEB408E7EF6077EB7530
:101AA900F008A4240DF582E43400F583E0FEA3E0F8
:101AB900FF7C007D3C12143EEF24FFFFEE34FFFE55
:101AC9007C007D3C12142CEB75F008A4240DF582E2
:101AD900E43400F583EEF0A3EFF0EB75F008A424ED
:101AE9000DF582E43400F583E0FEA3E0FFD394080A
:101AF900EE9407500BEF9400EE94004003021B870D
:101B0900EB75F008A4240DF582E43400F58374071D
:101B1900F0A304F022EB75F008A4240DF582E43457
:101B290000F583E0FEA3E0FF7C007D3C12143EEF4C
:101B39002401FFE43EFE7C007D3C12142CEB75F081
:101B490008A4240DF582E43400F583EEF0A3EFF048
:101B5900EB75F008A4240DF582E43400F583E0FE6A
:101B6900A3E0D39408EE94074014EB75F008A4247D
:0E1B79000DF582E43400F583E4F0A3743CF033
:011B8700223B
:100A2300900048EFF0B410004003020CA0900A3786
:100A3300F8282873020A67020A6A020A90020ABEA9
:100A4300020AE3020B06020B2A020B4E020B72028E
:100A53000B96020BB9020BDC020BFF020C26020CF5
:100A630060020C7F020CA0900067E0640260030246
:100A73000CA5900048E0FF121FB07F647E00122592
:100A8300679000007401F0122399020B49900067EC
:100A9300E064026003020CA5900048E0FF121FB05F
:100AA3007F647E00122567900006E0B40104E4F041
:100AB30080069000067401F0E48044900067E064CF
:100AC300026003020CA5900048E0FF121FB07F6490
:100AD3007E001225679000007403F07F01020C9BD7
:100AE300900067E064026003020CA5900048E0FFF9
:100AF300121FB07F647E00122567E4900000F0FFB0
:100B0300020C9B900067E064026003020CA5900056
:100B130048E0FF121FB07F647E001225677F011239
:100B23002516E41F020C20900067E06402600302B4
:100B33000CA5900048E0FF121FB07F647E001225D1
:100B4300677F02122516E4FF020C20900067E06421
:100B5300026003020CA5900048E0FF121FB07F64FF
:100B63007E001225677F03122516E4FF020C2090F6
:100B73000067E064026003020CA5900048E0FF12E6
:100B83001FB07F647E001225677F04122516E4FFE1
:100B9300020C20900067E064026003020CA5900041
:100BA30048E0FF121FB07F647E001225677F0512A5
:100BB3002516E4FF8067900067E064026003020C7F
:100BC300A5900048E0FF121FB07F647E00122567E6
:100BD3007F06122516E4FF8044900067E0640260FC
:100BE30003020CA5900048E0FF121FB07F467E0071
:100BF300122567E4FF121A89E4FF8021900067E061
:100C030064026003020CA5900048E0FF121FB07F4E
:100C1300467E001225677F01121A89E4FF120F4EE8
:100C2300020CA5900067E064027077900048E0FF33
:100C3300121FB07F647E001225677F03120F4E12CE
:100C43001602EF60047F0180027F02120F4E7FE8DD
:100C53007E03122567E4900000F0FF803B9000675D
:100C6300E06402703D900048E0FF121FB07F647E95
:100C730000122567E4900000F0FF801C900067E0FD
:100C8300B4021F900048E0FF121FB07F647E001281
:100C93002567E4900000F0FF12001E8005E4900039
:100CA30067F0900048E0FFD394004012EF94105097
:100CB3000D900067E004F07F0A7E00022567E49050
:040CC3000067F022B4
:1021C800121C4C1224557FD07E07122567121F0C53
:1021D80012253F1227BE1227D2E4FF12001E121941
:1021E80055120A23900007E0B4010A1224EBE49088
:1021F8000007F080E9900007E0B4021E900000E0BC
:10220800FF640160D9EF640260D4122301E49000F6
:1022180007F07F0AFE12256780C4900007E0B40328
:0E222800BD121C4C1224EBE4900007F080B0B5
:10046700B6A8CAB1C9E8D6C33A00BCD320D2BB00EC
:10047700B7D620D6D300BCF520D2BB00CEB400C976
:10048700E800D6C300B7D600D6D300BDF8003100C8
:1004970032003300340035003600B3F600B1A32034
:1004A70020B4E600B7B52020BBD800B1A320B4E63E
:1004B70020B3C920B9A600B1A320B4E620CAA7205B
:1004C700B0DC00B1A320B4E620D6D02E2E2E00C17A
:1004D700AACFB5C8CB3AC2BDD6BEB6AB00C1AACF6C
:1004E700B5B5E7BBB03A2031333536373430323320
:1004F700363700D7B4CCAC00D7D4B6AF00CAD6B61F
:10050700AF00BBFAD0B5B1DBB6AFD7F73A00BFD56E
:10051700CFD0003C2D2D2D002D2D2D3E00CFF2C923
:10052700CF00CFF2CFC200B4EDCEF300BFD500CFDE
:10053700D000BECD00D0F700C3A600C2B500B6A854
:10054700CAB1C9E8D6C300CAD6B6AF2FD7D4B6AF9B
:1005570000C8A1CFFBCFC2B0E000CFC2B0E0B0B4BB
:10056700BCFC00B9D820BBFA20D6D02E2E2E00B95D
:10057700D820BBFA20B3C920B9A600B2E2CAD4B3C7
:10058700CCD0F2B2B7CFFE202020202C20CEBAC18B
:10059700E9BEEA2020CEBAC1E9BEEAB9FEB9FE201B
:1005A700202020B2FAC6B7D0CDBAC53A2043483387
:1005B7003230323430422D322020352E37B4E733F3
:1005C700323078323430B5E3D5F320D6A7B3D652DC
:1005D70041383830332F524138383036BFD8D6C635
:1005E7002CD6A7B3D63556BACD332E3356B5E7D169
:1005F700B92020D6A7B3D6B4A5C3FE2CBCFCC5CC66
:10060700C9A8C3E8B9A6C4DC2020202020202020C8
:100617002020202020202020202020CFD4CABED771
:10062700D6D0CDBFC9B7C5B4F3B5BD3332783332F1
:10063700A1A2343878343820BBF2363478363420E7
:10064700202020C4DABDA8B4D6CCE5D7D6D0CED3E7
:10065700EBD0D0BEE0C9E8B6A8202020202020207B
:100667002020202020202020202020D6A7B3D6C657
:10067700C1C4BBCBAEC6BDBEEDB6AFBCB0B4B9D678
:10068700B1BEEDB6AFB9A6C4DC20202020202020C3
:10069700202020B9E2B1EAA1A2B7B4B0D7A1A2C97C
:1006A700C1CBB8B9A6C4DCA3ACB9E2B1EAB8DFB62E
:1006B700C8D3EBBFEDB6C8BFC9B5F7D6A7B3D6CE7B
:1006C700C4D7D6D3EBBBE6CDBCC1BDD6D6BBECBA3F
:1006D700CDCFD4CABEC4A3CABD202020202020204D
:1006E700202020000718204040808080E018040266
:1006F70002010101808080404020180701010102AA
:10070700020418E0071F3F7F7FFFFFFFE0F8FCFEB2
:10071700FEFFFFFFFFFFFF7F7F3F1F07FFFFFFFE7C
:10072700FEFCF8E01824428181422418183C7EFF21
:10073700FF7E3C18FFFFFFFFFFFFFFFF000001FCEC
:100747007FFC6618663066607FFE7E7A665A66DAD8
:0C0757007EB27FB2676600CE018C00000D
:0C261B00AC0712277FAF041226057FB029
:10262700C2A5D2A4D2A2C2A38F80C2A3D2A3D2A58D
:012637002280
:062689007F0F122627FF5F
:10268F0030A6FDC2A5D2A4C2A28F80C2A3D2A3D26C
:02269F00A52272
:0A25D9007FFF12262712268F7FC312
:1025E300C2A5D2A2D2A48F80C2A3D2A37580FFC2F8
:0925F300A2D2A3D2A4C2A4AF80BD
:0125FC0022BC
:101C4C00C2A77F327E00122567D2A77F327E001298
:101C5C002567E4FF1226277F0412268F7F011226A8
:101C6C00277F0812268F7F0312268B1226897F105E
:101C7C0012268B7F1112268B7F121226271F1226FB
:101C8C008F7F201226277F2712268F7F211226274F
:101C9C007F2712268F7F301226277FEF12268F7F09
:101CAC00311226277FEF12268F7F4012268B7F5012
:101CBC0012268B7F6012268B7F6112268B7F62121D
:101CCC00268B7F7012268B7F7112268B7F721226C9
:101CDC008B7F8012268B7F901226277F8012268F77
:101CEC007FE012268B7FF012268B7FF1122627FFC6
:031CFC0002268F2E
:0825FD00900051E0FFE92AFD06
:10260500AE077F60122627AF0612268F7F7012262F
:0626150027AF0502268F2D
:10276A00E4FF1225E3AE07EE54F7FEE4FF12262734
:05277A00AF0602268FEE
:10277F00E4FF1225E3AE07EE4408FEE4FF1226271E
:05278F00AF0602268FD9
:1026D0007F121225E3AE07EE549F4410FE7F1212C4
:0626E0002627FF02268FF1
:1026E6007F121225E3AE07EE54BF4430FE7F12126E
:0626F6002627FF02268FDB
:1026FC007F121225E3AE07EE54F74404FE7F12124C
:06270C002627FF02268FC4
:102712007F121225E3AE07EE54FD4401FE7F121232
:062722002627FF02268FAE
:102728007F121225E3AE07EE54FE4402FE7F12121A
:062738002627FF02268F98
:1026B90012276A7FE0122627E4FF12268F7FF01285
:0726C90026277FA802268FDF
:10279400E4FF1225E3AE07EE54FEFEE4FF12262703
:0527A400AF0602268FC4
:092638001227121226B912279490
:102641007F101225E3AE07EE54DFFE7F101226271E
:04265100FF02268FCF
:10242100EF24FE601314601914601F240370247FCD
:10243100F1122627E4FF80187FF11226277F5080B2
:102441000F7FF11226277FA080067FF11226271F1A
:0424510012268F229E
:0F235400E075F005A404FF7BFF7A04798C7D749B
:1023630090004CEBF0A3EAF0A3E9F012261B9000D7
:102373004CE0FBA3E0FAA3E0F912141360179000FA
:102383004CA3E475F0011214A9A9F0FA121413FF77
:0623930012268F80D92202
:0927FA0075F00A842430FB7D60B7
:0828030012261BAF0302268F11
:101B88009000547430F0A37401F07B147D507F0AE8
:071B9800900051EFF0A905D8
:101B9F0012276AE4FA900054E0FFEAC39F40030261
:101BAF001C4BEA701A1225FDE4FCECC39B400302A8
:101BBF001C477FB01226277FFF12268F0C80EBEA7F
:101BCF00D394004054900054E014FFEA9F504A9081
:101BDF000051E0FFE92AFD122622900055E0601B1C
:101BEF007F8012268F7C01EB14FFECC39F5008E41B
:101BFF00FF12268F0C80F07F0180197FFF12268F36
:101C0F007C01EB14FFECC39F50087FFF12268F0C53
:101C1F0080F07FFF12268F801F900054E0146A70AF
:101C2F00171225FDE4FCECC39B500D7FB012262745
:0C1C3F007FFF12268F0C80EE0A021BA40F
:011C4B002276
:04223600A3F07B0195
:0B223A00900051EFF0A3EDF0A3EBF0DB
:1022450012276AE4900058F0900054E0FF9000587F
:10225500E0C39F5042E4FC900053E0FFECC39F5065
:102265002E900051E02CFF900058E0FE900052E0C7
:102275002EFD122622900055E0FBA3E475F0011215
:1022850014A9A9F0FA121413FF12268F0C80C89016
:072295000058E004F080B1E5
:01229C00221F
:1017D30090004F7440F0A37401F07B167D487F099D
:1017E30090004CEFF0A3EDF0A3EBF0900050E090ED
:1017F300004C70030218A2E0FFA3E0FDA3E0FBA3EB
:10180300E0900054F0A37401F0121B9890004CE098
:10181300FFA3E0FD9000547408F0A374FFF0A374D9
:1018230006F074EB12223690004CE0FF90004FE07C
:10183300FE90004DE02E24F8FD9000547408F0A3B0
:1018430074FFF0A37406F074FB12223690004EE08E
:10185300FF90004CE02F14FFA3E0FD9000547408A8
:10186300F0A374FFF0A37406F0A374F3F07B0112EA
:10187300223A90004EE0FF90004CE02F14FF9000BE
:101883004FE0FE90004DE02E24F8FD9000547408C4
:10189300F0A374FFF0A37407F0A3740302194EE0DE
:1018A300FFA3E0FDA3E0FBA3E0900054F0E4A3F06A
:1018B300121B9890004CE0FFA3E0FD9000547408C5
:1018C300F0A374FFF0A37407F0A3740BF07B011271
:1018D300223A90004CE0FF90004FE0FE90004DE074
:1018E3002E24F8FD9000547408F0A374FFF0A37441
:1018F30007F0A3741BF07B0112223A90004EE0FF25
:1019030090004CE02F14FFA3E0FD9000547408F006
:10191300A374FFF0A37407F0A37413F07B011222E6
:101923003A90004EE0FF90004CE02F14FF90004FE0
:10193300E0FE90004DE02E24F8FD9000547408F072
:10194300A374FFF0A37407F0A37423F07B011222A6
:021953003A2236
:1027BE007FC01225E3AE07EE4480FE7FC0122627AF
:0427CE00FF02268F51
:1027D2007FC41225E3AE07EE4480FE7FC412262793
:0427E200FF02268F3D
:10273E007FC41225E3AE07EE54FE4402FE7FC412A0
:06274E002627FF02268F82
:102754007FC41225E3AE07EE44014402FE7FC41297
:062764002627FF02268F6C
:10258E00EF2458FFEE34FCFEE434FFFDE434FFFC90
:10259E00E47B407A01F9F81214BF7BB47AFC79FF20
:0525AE0078FF1223DD9F
:0125B3002205
:1025B400EF2480FFEE34FCFEE434FFFDE434FFFC42
:1025C400E47BF0FAF9F81214BF7BEC7AFC79FF781B
:0425D400FF1223DDF2
:0125D80022E0
:100CC700E4F9900000E06003020D63D3EF9400EEB7
:100CD70094004027EF9460EE9400501FED94D0EC01
:100CE70094004017ED94F0EC9400500F900006E04C
:100CF70064016003020F4B09020F4BD3EF9468EEB8
:100D07009400401DEF94D0EE94005015ED94D0EC74
:100D17009400400DED94F0EC940050057902020F19
:100D27004BD3EF94D8EE94005003020F4BEF943857
:100D3700EE94014003020F4BED94D0EC9400500366
:100D4700020F4BED94F0EC94004003020F4B900020
:100D570006E06003020F4B7903020F4B900000E09F
:100D670064037032D3EF94D8EE94005003020F4B14
:100D7700EF9438EE94014003020F4BED94D0EC94BE
:100D8700005003020F4BED94F0EC94004003020F68
:100D97004B7904020F4B900000E064016003020FDF
:100DA70021D3EF9428EE9400401DEF9448EE940071
:100DB7005015ED944AEC9400400DED94AEEC940080
:100DC70050057905020F4BD3EF9450EE9400401D68
:100DD700EF9470EE94005015ED944AEC9400400D9A
:100DE700ED94AEEC940050057906020F4BD3EF94C7
:100DF70078EE9400401DEF9498EE94005015ED9412
:100E07004AEC9400400DED94AEEC94005005790740
:100E1700020F4BD3EF94A0EE9400401DEF94C0EE69
:100E270094005015ED944AEC9400400DED94AEEC0F
:100E3700940050057908020F4BD3EF94C8EE940045
:100E4700401DEF94E8EE94005015ED944AEC9400A1
:100E5700400DED94AEEC940050057909020F4BD389
:100E6700EF94F0EE9400401DEF9410EE94015015AE
:100E7700ED944AEC9400400DED94AEEC94005005CF
:100E8700790A020F4BD3EF94A0EE9400401DEF9424
:100E9700D8EE94005015ED940CEC9400400DED94B1
:100EA7003CEC94005005790B020F4BD3EF94E8EE1E
:100EB7009400401CEF9420EE94015014ED940CEC38
:100EC7009400400CED943CEC94005004790C807431
:100ED700D3EF9470EE9400401CEF94D0EE94005042
:100EE70014ED94D0EC9400400CED94F0EC94005089
:100EF70004790D804FD3EF94D8EE94004046EF94D9
:100F070038EE9401503EED94D0EC94004036ED94C9
:100F1700F0EC9400502E790E802A900000E0B40285
:100F270023D3EF94D8EE9400401AEF9438EE94014F
:100F37005012ED94D0EC9400400AED94F0EC94003C
:060F47005002790FAF011A
:010F4D002281
:10195500E4900049F0FE7FC41226277F8112268F6E
:101965007FFF12262712268F7F0F1225E3EF20E334
:1019750003021A83E4FD7F0F1225E3EF7003FE8057
:101985000BEDB431027E010DEDB432EAEE700302C7
:101995001A7712273E7F647E001226551227547F40
:1019A500647E001226557FC11225E3AE077FFF1224
:1019B500262712268F7FC21225E3900048EFF012EA
:1019C50025D9EF5403FD1225D9EF540CF97FFF12E9
:1019D500262712268FAF067E00EF7802C333CE335B
:1019E500CED8F9FFED5403FDEF4DFDAC0690004850
:1019F500E07E007802C333CE33CED8F9FBAA067E4B
:101A050000E9540C7802CEC313CE13D8F9FFEE4A81
:101A1500FEEF4BFF90004AEEF0A3EFF0C3ED94B458
:101A2500EC9403504DED945EEC9400404590004AD3
:101A3500E0FEA3E0FF94B0EE94035036EF945CEE25
:101A45009400402EAE04AF0512258E90004CEEF0AA
:101A5500A3EFF090004AE0FEA3E0FF1225B4AD0726
:101A6500AC0690004CE0FEA3E0FF120CC7900049C5
:101A7500EFF07F0F1225E3EF54FEFE12268990004A
:031A850049E0FF36
:011A8800223B
:050F4E00900049EFF0E6
:100F53001227281226B990004F7430F0A37401F0C1
:100F63007B077D0C7F141217E390004F7430F0A3BE
:100F73007401F07B077D0C7F1D1217E3E490004A98
:100F8300F090004AE0FFC394085043EF75F008A4C3
:100F9300240FF582E43400F583E090004A6010E00A
:100FA30075F005A4FF9000547464F0E4A3800FE08F
:100FB30075F005A4FF9000547464F0A37401F07BF2
:100FC300047D4A121B9890004AE004F080B390001D
:100FD30000E0B4011390004F7420F0A37401F07B80
:100FE3000C7DD07F0E1217E390004F7420F0A37492
:100FF30001F07B0C7DD07F1B1217E3900049E0606A
:10100300031217D31226387BFF7A0479677D087F92
:10101300011223637BFF7A0479717D127F151223FA
:10102300637BFF7A0479777D267F151223637BFF29
:101033007A04797D7D127F1E1223637BFF7A047904
:10104300777D267F1E1223637BFF7A0479837D607D
:101053007F011223637BFF7A0479867D747F0112FB
:1010630023637BFF7A0479897D887F011223639050
:10107300004A7401F090004AE0FB75F008A4240DC7
:10108300F582E43400F583E0FEA3E0FF7C007D3CC1
:1010930012143E90004BEFF0FEEB75F005A404FF35
:1010A300EE1227FA90004AE075F005A42402FFA38C
:1010B300E075F00A84E5F02430FB12280390004A1F
:1010C30012235490004AE075F005A404FF7BFF7AD5
:1010D30004798F7D8812236390004AE004F0E0C313
:1010E300940740917BFF7A0479837D607F241223E8
:1010F300637BFF7A0479867D747F241223637BFFED
:101103007A0479897D887F241223637BFF7A0479AB
:10111300927DB47F011223637BFF7A0479957F0666
:101123001223637BFF7A0479977F0B1223637BFF80
:101133007A0479997F101223637BFF7A04799B7F6A
:10114300151223637BFF7A04799D7F1A1223637B35
:10115300FF7A04799F7F1F1223637BFF7A0479A1AF
:101163007F24122363900000E0B4010D7BFF7A0417
:1011730079A47DD87F111223637BFF7A0479AB7D39
:10118300D87F1E122363900049E0603790004F74AC
:1011930040F0E4A31217DC121B88900049E0B4016D
:1011A300087BFF7A0479B28013900049E07BFFB497
:1011B30002067A0479BE80047A0479CA7D607F0EC0
:0911C3001223631226FC0226E649
:102455001227281226411226B912271212264112D6
:1024650026B91226D07F011224217BFF7A0479D662
:102475007D357F041223637BFF7A0479E47D537FE6
:0424850004022363C7
:05001E00900049EFF025
:100023001227281226B99000547420F0A37401F00B
:100033007B08E4FDFF121B989000547420F0A37416
:1000430001F0E4FD7F08121B98E490004AF0900051
:100053004AE0FFC39408504DEF75F005A42402FF56
:100063009000547408F0A374FFF0A37407F0A37412
:100073002BF07B017D2A12223A90004AE075F005AD
:10008300A42402FF9000547408F0A374FFF0A37437
:1000930007F0A3742BF07B017D3A12223A90004AB9
:1000A300E004F080A9900003E0FF20E02590000227
:1000B300E0700BEFC31375F005A4240280249000B5
:1000C30002E064027060A3E0C31375F005A4240288
:1000D300803A900002E07023A3E0C31375F005A4F7
:1000E3002404FF9000547408F0A374FFF0A3740772
:1000F300F0A37433F07B017D2A8028900002E0B4E2
:100103000224A3E0C31375F005A42404FF90005454
:100113007408F0A374FFF0A37407F0A37433F07BA7
:10012300017D3A12223AE490004AF090004AE0FF3F
:10013300C394085043EF75F008A42408F582E4340F
:1001430000F583E090004A6010E075F005A4FF908D
:1001530000547464F0E4A3800FE075F005A4FF90ED
:1001630000547464F0A37401F07B047D4A121B985D
:1001730090004AE004F080B3900049E0702D9000B5
:1001830006E0B4011390004F7420F0A37401F07BD8
:100193000C7DD0E4FF1217E390004F7420F0A3749A
:1001A30001F07B0D7DD07F0D1217E3900006E07008
:1001B3001B900049E06402601390004F7420F0A389
:1001C3007401F07B0C7DD07F1B1217E3900049E094
:1001D30060031217D31226387BFF7A0479FA7D085D
:1001E3007F02122363900006E07BFF70067A047996
:1001F300FF80067A0579047D087F0A1223637BFF5B
:100203007A0579097D087F16122363900001E014B3
:10021300601514601A14601F146024240470287B72
:10022300FF7A05791580267BFF7A05791A801E7B74
:10023300FF7A05791F80167BFF7A057924800E7B70
:10024300FF7A05792980067BFF7A05792E7D087F61
:1002530022122363E490004AF090004AE0FFC39423
:1002630008400302038AEF75F008A42408F582E42A
:100273003400F583E0702890004AE075F005A4048B
:10028300FF7BFF7A0579337D6412236390004AE094
:1002930075F005A404FF7BFF7A05793602037C9091
:1002A300004AE0FF75F008A42408F582E43400F561
:1002B30083E064027025EF75F005A404FF7BFF7AE9
:1002C3000579397D6412236390004AE075F005A433
:1002D30004FF7BFF7A05793C02037C90004AE0FF30
:1002E30060726407606EE075F008A4240BF582E485
:1002F3003400F583E0FCA3E0FDEF75F008A42409C6
:10030300F582E43400F583E0FEA3E0C39DFFEE9C99
:10031300FE7C007D3C12143EAA0790004AE075F073
:1003230005A404FFEA1227FAE075F005A42402FFEE
:10033300EA75F00A84E5F02430FB122803122354F3
:1003430090004AE075F005A404FF7BFF7A04798FDF
:100353007D88802790004AE075F005A404FF7BFFA9
:100363007A05793F7D6412236390004AE075F005B6
:10037300A404FF7BFF7A0579427D841223639000F6
:100383004AE004F002025C7BFF7A0479927DB47F39
:10039300011223637BFF7A0479957F061223637B23
:1003A300FF7A0479977F0B1223637BFF7A04799991
:1003B3007F101223637BFF7A04799B7F15122363DB
:1003C3007BFF7A04799D7F1A1223637BFF7A04797A
:1003D3009F7F1F1223637BFF7A0479A17F2412235B
:1003E30063900049E07021900006E0B4010D7BFFAB
:1003F3007A0579457DD87F021223637BFF7A0579DD
:100403004E7DD87F0F122363900049E0B401087B2F
:10041300FF7A0579588012900049E0701390000626
:10042300E0700D7BFF7A0579617DD87F1D12236310
:10043300900049E0602890004F7440F0E4A3121745
:10044300DC121B88900049E07BFFB401067A057932
:100453006A80047A0579767D607F0E122363122603
:04046300FC0226E68B
:10230100122712122794122641900001E014601541
:1023110014601A14601F146024240470287BFF7A4F
:1023210005791580267BFF7A05791A801E7BFF7A55
:1023310005791F80167BFF7A057924800E7BFF7A51
:1023410005792980067BFF7A05792E7D087F221287
:03235100236322E1
:101FB000AD07122728ED12150E1FD8011FE80220C9
:101FC0002C03202C041FF90B200A0C201B0D202CA5
:101FD0000E202C0F0000203E90004F7420F0E4A350
:101FE000F07B0C7DD0FF805390004F7420F0E4A371
:101FF000F07B0D7DD07F0D804290004F7430F0E477
:10200000A3F07B077D0C7F14803190004F7430F07B
:10201000E4A3F07B077D0C7F1D802090004F74208F
:10202000F0E4A3F07B0C7DD07F0E800F90004F7406
:0F20300020F0E4A3F07B0C7DD07F1B1217E3227E
:10265500EF1FAC0670011E4C601090004FE004F0B7
:0A26650070EE90004EE004F080E6F5
:01266F002248
:08256700900049EEF0A3EFF033
:10256F00E4FBFAD390004AE09B900049E09A400EBA
:0E257F007FDE7E011226550BBB00010A80E5AF
:01258D00222B
:101E620090004AE4F0A304F07F0A1227E67F007E86
:101E7200011226A1EF64EE6003021EFE900048F0FC
:101E8200A3F0900048E0FEA3E0FFC39408EE9400A4
:101E92005060EF25E0FFEE33FE1226A1EF7F00FE39
:101EA200C007C006900049E025E0FF900048E033FB
:101EB200FEEF2401FFE43EFE1226A1EFFDD0E0FC7E
:101EC200D0E04DFD900048E0FEA3E07803C333CE9E
:101ED20033CED8F92409F58274003EF583ECF0A3E1
:101EE200EDF0900049E004F07098900048E004F0B2
:101EF200809090004AE4F0A304F08007E490004A46
:091F0200F0A3F090004AA3E0FFF7
:011F0B0022B3
:101F0C00E4900006F0900000F0FFEF75F008A424B8
:101F1C0008F582E43400F5837401F0EF75F008A441
:101F2C00240BF582E43400F583E4F0A3F00FEFB456
:101F3C0008D8E4900010F0121E62EF704E90000969
:101F4C007407F0A304F09000117402F0A374D0F0A5
:101F5C009000197402F0A374D0F09000217401F079
:101F6C00A3742CF09000297401F0A3742CF0900051
:101F7C00317401F0A3742CF09000397401F0A37447
:101F8C002CF09000417407F0A304F0E4900001F0F1
:101F9C00A37402F0E4A3F0900005F0900007F09019
:031FAC000004F03E
:011FAF00220F
:1016020090004BE4F0A304F07F0A1227E6E4FFFE09
:101612001227A9E4900049F0A3F0900049E0FEA34C
:10162200E0FFC3EE9402501E1226A1EFF46007E41D
:1016320090004BF0A3F090004AE004F070DC9000C0
:1016420049E004F080D47F0A1227E6E4900049F0D2
:10165200A3F0900049E0FCA3E0FD25E0FFEC33FE9F
:10166200C006C007EDAE047803C333CE33CED8F93B
:10167200240DF58274003EF583E0FDD007D00612FA
:101682002670900049E0FCA3E0FD25E0FFEC33FE6C
:10169200EF2401FFE43EFEC006C007EDAE0478036E
:1016A200C333CE33CED8F9240DF58274003EF583D0
:1016B200A3E0FDD007D00612267090004AE004F0A5
:1016C2007006900049E004F0C390004AE09408904C
:1016D2000049E0940050030216547DEE7F007E0123
:1016E2001226707F0A1227E6E4900049F0A3F090D8
:1016F2000049E0FEA3E0FFC39408EE9400507CEFA3
:1017020025E0FFEE33FE1226A1AD07900049E0FA74
:10171200A3E0FBAE027803C333CE33CED8F9240D57
:10172200F58274003EF583E06D6007E490004BF0B3
:10173200A3F0EB25E0FFEA33FEEF2401FFE43EFED7
:101742001226A1AD07900049E0FEA3E07803C3335F
:10175200CE33CED8F9240DF58274003EF583A3E092
:101762006D6007E490004BF0A3F090004AE004F0B3
:101772007006900049E004F00216F1E4900049F08E
:10178200A3F0900049E0FEA3E0FFC39408EE9400AA
:101792005038EF7803C333CE33CED8F9FF240DF59A
:1017A2008274003EF583E0FCA3E0FD74092FF5820C
:1017B20074003EF583ECF0A3EDF090004AE004F0F3
:1017C20070C0900049E004F080B890004BA3E0FFA5
:0117D20022F4
:1027E600AE071FEE600DE4FCFD0DED70010C4C60B4
:0327F600EF80F67B
:0127F90022BD
:0D000E00E4F5C7F5C5F5C675C380F5C4223D
:1026A10075C78375C5018FC4EEF5C375C65A75C666
:0726B100A500AFC212000EEC
:0126B80022FF
:1026700075C78375C5028FC4EEF5C3AF058FC275EC
:09268000C65A75C6A50002000E41
:1027A90075C78375C5038FC4EEF5C375C65A75C65B
:0527B900A50002000E66
:101DB100E4FBEB75F008A42408F582E43400F58314
:101DC100E064016003021E58EB75F008A4240BF5D2
:101DD10082E43400F583E475F001121493EB75F09D
:101DE10008A42409F582E43400F583E0FEA3E0FFB2
:101DF100EB75F008A4240BF582E43400F583E0FCD4
:101E0100A3E0C39FEC9E402CEB601764076013EBCB
:101E110075F008A42408F582E43400F5837402F017
:101E21008012EB75F008A4240BF582E43400F583ED
:101E3100E4F0A3F0EB75F008A4240BF582E4340080
:101E4100F583E0FEA3E0FF7C007D3C12143EED4CE7
:101E5100700590000704F00BEB64086003021DB3EA
:011E6100225E
:03000B0002248943
:10248900C0E0C0F0C083C082C0D075D008758A2072
:10249900758CD1900064E004F0E0D39432400812C6
:1024A9001CFF900064E4F0D0D0D082D083D0F0D06B
:0224B900E0320F
:03001B000221556A
:10215500C0E0C0F0C083C082C0D075D008758BA028
:10216500758D15900066E004F0900000E064046051
:1021750047900066E0B4C828E4F0121DB190005BFA
:10218500E004F0700690005AE004F0900065E00469
:10219500F0E0B4050B9000077403F0900065E4F0DF
:1021A500900066E020E011900006E070051211CC69
:1021B500800312281612229DD0D0D082D083D0F071
:0321C500D0E03235
:10253F00758EC0758911758A20758CD1D28CD2A9F0
:10254F00758BA0758D15D28ED2ABD2AFE49000668D
:08255F00F0900064F0A3F022EB
:0424BF004100680070
:101CFF00900068E0FF700930B403021DB004F022B9
:101D0F00EF6401704920B444900005E0FFB4021A5B
:101D1F00900003E004F09000077401F0900003E0DE
:101D2F00D3940E4020740EF0801BEFB40117900077
:101D3F0003E014F09000077401F0900003E0D394D7
:101D4F00C84002E4F09000687402F022804E9000C8
:101D5F0068E0B4020730B4497403F02230B4429003
:101D6F000005E0FFB4021A900003E004F0900007B2
:101D7F007401F0900003E0D3940E4020740EF080B5
:101D8F001BEFB40117900003E014F09000077401EB
:101D9F00F0900003E0D394C84002E4F0E4900068B0
:021DAF00F02220
:1024C30041005C6442005D00034100596442005ACC
:0224D300000007
:1007630090005CE0B40C004003020A21900776F885
:1007730028287302079A02079D0207F40208180249
:10078300087C02089002079A0208D802093A020973
:10079300600209C70209DF0208CDD390005BE09431
:1007A3000390005AE094005003020A22900003E0F1
:1007B300FED39F401AC2A0D2A19000057401F0900D
:1007C3000001F0900007E06003020A22020910EE24
:1007D300C39F501AD2A0C2A19000057402F09000EA
:1007E30001F0900007E06003020A220209100209E7
:1007F30032900003E06F6003020A2290005AF0A3D4
:10080300F0D2A0D2A1900001F0900007E0706774CD
:1008130002F002095BD390005BE0940390005AE07E
:1008230094005003020A22900003E0FED39F401974
:10083300C2A0D2A19000057401F0900001F09000D5
:1008430007E070217402F0801CEEC39F501DD2A0FC
:10085300C2A19000057402F0900001F0900007E03F
:1008630070037402F090005C02092ED2929000078C
:10087300E070037402F002095BC2909000017403FC
:10088300F0900007E070037402F002095B30B103DB
:10089300020A22D290E4900002F0900001F0EFC32C
:1008A30013FE75F008A42408F582E43400F583E40C
:1008B300F0EE75F008A4240BF582E43400F583E42C
:1008C300F0A3F090000704F08067E490005AF0A3CF
:1008D300F0A30209DB90005DE0FEA3E0FFD39000EC
:1008E3005BE09F90005AE09E5003020A22900003AF
:1008F300E0FFD39D4019C2A0D2A19000057401F07E
:10090300900001F0900007E06003020A22801CEFD0
:10091300C39D501BD2A0C2A19000057402F09000A9
:1009230001F0900007E06003020A227402F022D271
:100933009290005C0209DB900003E06D6003020A01
:100943002290005AF0A3F0D2A0D2A1900001F0901F
:100953000007E070037402F090005C807BD390008A
:100963005BE0940390005AE094005003020A229043
:100973000003E0FFD39D4019C2A0D2A190000574EB
:1009830001F0900001F0900007E070217402F08004
:100993001CEFC39D501ED2A0C2A19000057402F0AB
:1009A300900001F0900007E070037402F090005C87
:1009B3007408F022D292900007E070037402F09062
:1009C300005C8014C2919000017404F0900007E071
:1009D30070037402F090005CE004F02220B240D275
:1009E300919000027402F0E4900001F0EDC313FF54
:1009F30075F008A42408F582E43400F5837401F04B
:100A0300EF75F008A4240BF582E43400F583E4F0D9
:100A1300A3F090000704F090005C7464F0220022BD
:1020CB00900059E014601214603514605D240370A5
:1020DB0077E490005AF0A38049D390005BE094031F
:1020EB0090005AE094004061C2A09000057401F08A
:1020FB00900001F0900007E070297402F08024201A
:10210B00B047E490005AF0A3F0D2A0D2A190000502
:10211B00F0900001F0900007E070037402F0E4907F
:10212B000003F0900059E004F022D390005BE094A0
:10213B000390005AE094004010E4F0A3F0900003E9
:0A214B00F09000597464F0220022A5
:0B280B00D2A0D2A1D290D291D2922292
:1024D5004100630041006000420061000041005F6F
:0124E50000F6
:1011CC00900063E012150E11FB00120601121702BB
:1011DC00122C03124104125605126A06127E0712D3
:1011EC00A40812B80912CC0A12EF1400001411E46E
:1011FC00900059F090006304F0221220CB9000591B
:10120C00E0646460030214120212E87D0E7F0C127B
:10121C00076390005CE0646460030214120212E83D
:10122C007D0C7F0A12076390005CE064646003022B
:10123C0014120212E87D0A7F0812076390005CE02A
:10124C00646460030214120212E87D087F06120720
:10125C006390005CE064646003021412807E7D067F
:10126C007F0412076390005CE06464600302141254
:10127C00806A7D067F0212076390005CE064646004
:10128C00030214129000637414F0900000E06403E5
:10129C00600302141202134C7D04E4FF12076390E6
:1012AC00005CE06464600302141280307D02E4FF91
:1012BC0012076390005CE064646003021412801CEB
:1012CC009000047401F0E4FD7F0E12076390005C43
:1012DC00E064646003021412900004F090006374E4
:1012EC0014F022900040E0FF701A900038E0B40235
:1012FC0013E490005CF090005DF0A37403F0900098
:10130C006314F022900038E07019900030E0B402C1
:10131C0012E490005CF090005DF0A37403F0900078
:10132C0063F022900030E0701B900028E0B40214AF
:10133C00E490005CF090005DF0A3745AF0900063B0
:10134C007404F022900028E0701B900020E0B4029E
:10135C0014E490005CF090005DF0A37403F0900036
:10136C00637405F022900020E0FE701B900018E0E2
:10137C00B40214E490005CF090005DF0A3745AF099
:10138C009000637406F022EE701B900010E0B40223
:10139C0014E490005CF090005DF0A3745AF090009F
:1013AC00637407F022900018E0701B900008E0B402
:1013BC000214E490005CF090005DF0A37403F090D4
:1013CC0000637408F022900010E0701B900008E09D
:1013DC00B40214E490005CF090005DF0A37403F090
:1013EC009000637409F022900008E07019EFB402C9
:1013FC0015E490005CF090005DF0A37403F0900095
:07140C0063740AF0220022C4
:092816009000637414F002280B19
:0424E6004100690048
:10229D00900069E0146017146021146049240370E4
:1022AD005130950320964C9000697401F0223095C1
:1022BD00032096389000697402F02220950F90004B
:1022CD0040E0B401087402F090000714F020960F5E
:1022DD00900008E0B401087402F090000714F0902B
:1022ED0000697403F02230950A309607E490006976
:0422FD00F0220022A9
:10204B000221C8E493A3F8E493A34003F68001F2C2
:10205B0008DFF48029E493A3F85407240CC8C33396
:10206B00C4540F4420C8834004F456800146F6DF65
:10207B00E4800B01020408102040809024BBE47E16
:10208B00019360BCA3FF543F30E509541FFEE4935A
:10209B00A360010ECF54C025E060A840B8E493A321
:1020AB00FAE493A3F8E493A3C8C582C8CAC583CA4C
:1020BB00F0A3C8C582C8CAC583CADFE9DEE780BE04
:0124EA0000F1
:10141300BB010689828A83E0225002E722BBFE02D7
:09142300E32289828A83E493220A
:10142C00EF8DF0A4A8F0CF8CF0A428CE8DF0A42ED4
:02143C00FE228E
:10143E00BC000BBE0029EF8DF084FFADF022E4CC92
:10144E00F875F008EF2FFFEE33FEEC33FCEE9DEC5B
:10145E00984005FCEE9DFE0FD5F0E9E4CEFD22EDA1
:10146E00F8F5F0EE8420D21CFEADF075F008EF2FEB
:10147E00FFED33FD4007985006D5F0F222C398FDDC
:05148E000FD5F0EA2279
:10149300C5F0F8A3E028F0C5F0F8E58215827002E4
:0614A3001583E038F02281
:1014A900A3F8E0C5F025F0F0E582158270021583F6
:0614B900E0C838F0E82253
:1014BF00E88FF0A4CC8BF0A42CFCE98EF0A42CFCCC
:1014CF008AF0EDA42CFCEA8EF0A4CDA8F08BF0A44A
:1014DF002DCC3825F0FDE98FF0A42CCD35F0FCEBA9
:1014EF008EF0A4FEA9F0EB8FF0A4CFC5F02ECD396E
:0F14FF00FEE43CFCEAA42DCE35F0FDE43CFC22DB
:1023DD00C2D5E830E70FB2D5E4C39BFBE49AFAE42B
:1023ED0099F9E498F8EC30E717B2D51224131215C9
:1023FD0070E4C39BFBE49AFAE499F9E498F880033E
:10240D0012157030D50DE4C39FFFE49EFEE49DFDD3
:04241D00E49CFC221D
:10150E00D083D082F8E4937012740193700DA3A36C
:10151E0093F8740193F5828883E473740293686080
:06152E00EFA3A3A380DF80
:1015340075F008758200EF2FFFEE33FECD33CDCC6E
:1015440033CCC58233C5829BED9AEC99E5829840F1
:101554000CF582EE9BFEED9AFDEC99FC0FD5F0D6CE
:10156400E4CEFBE4CDFAE4CCF9A88222B800C1B9F8
:101574000059BA002DEC8BF084CFCECDFCE5F0CB36
:10158400F97818EF2FFFEE33FEED33FDEC33FCEB6F
:1015940033FB10D703994004EB99FB0FD8E5E4F92A
:1015A400FA227818EF2FFFEE33FEED33FDEC33FC17
:1015B400C933C910D7059BE99A4007EC9BFCE99A0B
:1015C400F90FD8E0E4C9FAE4CCFB2275F010EF2F50
:1015D400FFEE33FEED33FDCC33CCC833C810D70750
:1015E4009BEC9AE899400AED9BFDEC9AFCE899F88B
:0E15F4000FD5F0DAE4CDFBE4CCFAE4C8F9221E
:00000001FF
