:03000000022133A7
:0C213300787FE4F6D8FD75810F02217A58
:0425880041006800A6
:1025B800900000E014601114601214601414601587
:1025C80024047016E4FF800FE4FF80027F010212EA
:0B25D800977F0180027F0212001E228C
:10249800E4FFEF75F008A4240AF582E43400F5831C
:1024A800E0FCA3E0FDEF75F008A4240EF582E43407
:1024B80000F583ECF0A3EDF0EF75F008A42410F517
:1024C80082E43400F583E4F00FEFB408C5900018F7
:0324D8007401F09C
:0124DB0022DE
:1025E300E4FEEE75F008A42410F582E43400F583CC
:1025F300E4F00EEEB408EBEF75F008A42410F582B6
:08260300E43400F5837401F0DA
:01260B0022AC
:101B8B00E4FEEE75F008A42410F582E43400F5832E
:101B9B00E0B40102AB060EEEB408E7EF6077EB752D
:101BAB00F008A4240EF582E43400F583E0FEA3E0F4
:101BBB00FF7C007D3C121540EF24FFFFEE34FFFE4F
:101BCB007C007D3C12152EEB75F008A4240EF582DB
:101BDB00E43400F583EEF0A3EFF0EB75F008A424EA
:101BEB000EF582E43400F583E0FEA3E0FFD3940806
:101BFB00EE9407500BEF9400EE94004003021C8907
:101C0B00EB75F008A4240EF582E43400F583740719
:101C1B00F0A304F022EB75F008A4240EF582E43453
:101C2B0000F583E0FEA3E0FF7C007D3C121540EF46
:101C3B002401FFE43EFE7C007D3C12152EEB75F07B
:101C4B0008A4240EF582E43400F583EEF0A3EFF044
:101C5B00EB75F008A4240EF582E43400F583E0FE66
:101C6B00A3E0D39408EE94074014EB75F008A4247A
:0E1C7B000EF582E43400F583E4F0A3743CF02F
:011C89002238
:100AC900900049EFF0B410004003020D46900ADD92
:100AD900F8282873020B0D020B10020B36020B6467
:100AE900020B89020BAC020BD0020BF4020C1802A8
:100AF9000C3C020C5F020C82020CA5020CCC020D0C
:100B090006020D25020D46900068E06402600302AA
:100B19000D4B900049E0FF1220A47F647E0012264D
:100B2900349000007401F0122498020BEF900068D1
:100B3900E064026003020D4B900049E0FF1220A41B
:100B49007F647E00122634900007E0B40104E4F0CB
:100B590080069000077401F0E48044900068E06426
:100B6900026003020D4B900049E0FF1220A47F644C
:100B79007E001226349000007403F07F01020D41BB
:100B8900900068E064026003020D4B900049E0FFA9
:100B99001220A47F647E00122634E4900000F0FF46
:100BA900020D41900068E064026003020D4B900061
:100BB90049E0FF1220A47F647E001226347F0112CF
:100BC90025E3E41F020CC6900068E064026003029A
:100BD9000D4B900049E0FF1220A47F647E0012268D
:100BE900347F021225E3E4FF020CC6900068E0643A
:100BF900026003020D4B900049E0FF1220A47F64BC
:100C09007E001226347F031225E3E4FF020CC6900E
:100C19000068E064026003020D4B900049E0FF1296
:100C290020A47F647E001226347F041225E3E4FFAA
:100C3900020CC6900068E064026003020D4B90004C
:100C490049E0FF1220A47F647E001226347F05123A
:100C590025E3E4FF8067900068E064026003020D09
:100C69004B900049E0FF1220A47F647E00122634D5
:100C79007F061225E3E4FF8044900068E064026087
:100C890003020D4B900049E0FF1220A47F467E002D
:100C9900122634E4FF121B8BE4FF8021900068E0E8
:100CA90064026003020D4B900049E0FF1220A47F0B
:100CB900467E001226347F01121B8BE4FF12129725
:100CC900020D4B900068E064027077900049E0FFE4
:100CD9001220A47F647E001226347F031212971219
:100CE9001704EF60047F0180027F021212977FE8E8
:100CF9007E03122634E4900000F0FF803B900068E8
:100D0900E06402703D900049E0FF1220A47F647EF8
:100D190000122634E4900000F0FF801C900068E087
:100D2900B4021F900049E0FF1220A47F647E0012E4
:100D39002634E4900000F0FF12001E8005E49000C4
:100D490068F0900049E0FFD394004012EF941050EE
:100D59000D900068E004F07F0A7E00022634E490DA
:040D69000068F0220C
:10224900121D4E1225547FD07E07122634121EB35A
:1022590012260C1228B21228C6E4FF12001E121A06
:1022690057120AC9900008E0B4010A1225B8E4908F
:102279000008F080E9900008E0B4021E900000E038
:10228900FF640160D9EF640260D4122400E4900075
:1022990008F07F0AFE12263480C4900008E0B403D7
:1022A900BD121D4E1228B21228C6E4FF12001E12DA
:0922B90025B8E4900008F080A5AE
:1007CD00B6A8CAB1C9E8D6C33A00BCD320D2BB0083
:1007DD00B7D620D6D300BCF520D2BB00CEB400C90D
:1007ED00E800D6C300B7D600D6D300BDF80031005F
:1007FD0032003300340035003600B3F600B1A320CB
:10080D0020B4E600B7B52020BBD800B1A320B4E6D4
:10081D0020B3C920B9A600B1A320B4E620CAA720F1
:10082D00B0DC00B1A320B4E620D6D02E2E2E00C110
:10083D00AACFB5C8CB3AC2BDD6BEB6AB00C1AACF02
:10084D00B5B5E7BBB03A20313335363734303233B6
:10085D00363700D7B4CCAC00D7D4B6AF00CAD6B6B5
:10086D00AF00BBFAD0B5B1DBB6AFD7F73A00BFD505
:10087D00CFD0003C2D2D2D002D2D2D3E00CFF2C9BA
:10088D00CF00CFF2CFC200B4EDCEF300BFD500CF75
:10089D00D000BECD00D0F700C3A600C2B500B6A8EB
:1008AD00CAB1C9E8D6C300CAD6B6AF2FD7D4B6AF32
:1008BD0000C8A1CFFBCFC2B0E000CFC2B0E0B0B452
:1008CD00BCFC00B9D820BBFA20D6D02E2E2E00B9F4
:1008DD00D820BBFA20B3C920B9A600B2E2CAD4B35E
:1008ED00CCD0F2B2B7CFFE202020202C20CEBAC122
:1008FD00E9BEEA2020CEBAC1E9BEEAB9FEB9FE20B2
:10090D00202020B2FAC6B7D0CDBAC53A204348331D
:10091D003230323430422D322020352E37B4E73389
:10092D00323078323430B5E3D5F320D6A7B3D65272
:10093D0041383830332F524138383036BFD8D6C6CB
:10094D002CD6A7B3D63556BACD332E3356B5E7D1FF
:10095D00B92020D6A7B3D6B4A5C3FE2CBCFCC5CCFC
:10096D00C9A8C3E8B9A6C4DC20202020202020205F
:10097D002020202020202020202020CFD4CABED708
:10098D00D6D0CDBFC9B7C5B4F3B5BD333278333288
:10099D00A1A2343878343820BBF23634783634207E
:1009AD00202020C4DABDA8B4D6CCE5D7D6D0CED37E
:1009BD00EBD0D0BEE0C9E8B6A82020202020202012
:1009CD002020202020202020202020D6A7B3D6C6EE
:1009DD00C1C4BBCBAEC6BDBEEDB6AFBCB0B4B9D60F
:1009ED00B1BEEDB6AFB9A6C4DC202020202020205A
:1009FD00202020B9E2B1EAA1A2B7B4B0D7A1A2C913
:100A0D00C1CBB8B9A6C4DCA3ACB9E2B1EAB8DFB6C4
:100A1D00C8D3EBBFEDB6C8BFC9B5F7D6A7B3D6CE11
:100A2D00C4D7D6D3EBBBE6CDBCC1BDD6D6BBECBAD5
:100A3D00CDCFD4CABEC4A3CABD20202020202020E3
:100A4D00202020000718204040808080E0180402FC
:100A5D000201010180808040402018070101010240
:100A6D00020418E0071F3F7F7FFFFFFFE0F8FCFE49
:100A7D00FEFFFFFFFFFFFF7F7F3F1F07FFFFFFFE13
:100A8D00FEFCF8E01824428181422418183C7EFFB8
:100A9D00FF7E3C18FFFFFFFFFFFFFFFF000001FC83
:100AAD007FFC6618663066607FFE7E7A665A66DA6F
:0C0ABD007EB27FB2676600CE018C0000A4
:0C270F00AC07122873AF041226F97FB04B
:10271B00C2A5D2A4D2A2C2A38F80C2A3D2A3D2A598
:01272B00228B
:06277D007F0F12271BFF75
:1027830030A6FDC2A5D2A4C2A28F80C2A3D2A3D277
:02279300A5227D
:0A26CD007FFF12271B1227837FC333
:1026D700C2A5D2A2D2A48F80C2A3D2A37580FFC203
:0926E700A2D2A3D2A4C2A4AF80C8
:0126F00022C7
:101D4E00C2A77F327E00122634D2A77F327E0012C7
:101D5E002634E4FF12271B7F041227837F011227EC
:101D6E001B7F081227837F0312277F12277D7F1088
:101D7E0012277F7F1112277F7F1212271B1F122718
:101D8E00837F2012271B7F271227837F2112271B79
:101D9E007F271227837F3012271B7FEF1227837F27
:101DAE003112271B7FEF1227837F4012277F7F5030
:101DBE0012277F7F6012277F7F6112277F7F62123B
:101DCE00277F7F7012277F7F7112277F7F721227E6
:101DDE007F7F8012277F7F9012271B7F80122783A1
:101DEE007FE012277F7FF012277F7FF112271BFFE4
:031DFE0002278336
:0826F100900052E0FFE92AFD10
:1026F900AE077F6012271BAF061227837F70122750
:062709001BAF050227834F
:10285E00E4FF1226D7AE07EE54F7FEE4FF12271B55
:05286E00AF0602278304
:10287300E4FF1226D7AE07EE4408FEE4FF12271B3F
:05288300AF06022783EF
:1027C4007F121226D7AE07EE549F4410FE7F1212DA
:0627D400271BFF02278312
:1027DA007F121226D7AE07EE54BF4430FE7F121284
:0627EA00271BFF022783FC
:1027F0007F121226D7AE07EE54F74404FE7F121262
:06280000271BFF022783E5
:102806007F121226D7AE07EE54FD4401FE7F121248
:06281600271BFF022783CF
:10281C007F121226D7AE07EE54FE4402FE7F121230
:06282C00271BFF022783B9
:1027AD0012285E7FE012271BE4FF1227837FF012B1
:0727BD00271B7FA802278300
:10288800E4FF1226D7AE07EE54FEFEE4FF12271B24
:05289800AF06022783DA
:09272C001228061227AD122888BC
:102735007F101226D7AE07EE54DFFE7F1012271B3F
:04274500FF022783E5
:10252000EF24FE601314601914601F240370247FCD
:10253000F112271BE4FF80187FF112271B7F5080C8
:102540000F7FF112271B7FA080067FF112271B1F30
:0425500012278322A9
:0F245300E075F005A404FF7BFF7A0779F27D7432
:1024620090004DEBF0A3EAF0A3E9F012270F9000E1
:102472004DE0FBA3E0FAA3E0F912151560179000F6
:102482004DA3E475F0011215ABA9F0FA121515FF70
:0624920012278380D9220D
:0928EE0075F00A842430FB7D60C2
:0828F70012270FAF0302278333
:101C8A009000557430F0A37401F07B147D507F0AE4
:071C9A00900052EFF0A905D4
:101CA10012285EE4FA900055E0FFEAC39F40030268
:101CB1001D4DEA701A1226F1E4FCECC39B400302AD
:101CC1001D497FB012271B7FFF1227830C80EBEA8F
:101CD100D394004054900055E014FFEA9F504A907D
:101CE1000052E0FFE92AFD122716900056E0601B22
:101CF1007F801227837C01EB14FFECC39F5008E423
:101D0100FF1227830C80F07F0180197FFF12278348
:101D11007C01EB14FFECC39F50087FFF1227830C5B
:101D210080F07FFF122783801F900055E0146A70B6
:101D3100171226F1E4FCECC39B500D7FB012271B58
:0C1D41007FFF1227830C80EE0A021CA614
:011D4D002273
:04233500A3F07B0195
:0B233900900052EFF0A3EDF0A3EBF0DA
:1023440012285EE4900059F0900055E0FF90005987
:10235400E0C39F5042E4FC900054E0FFECC39F5064
:102364002E900052E02CFF900059E0FE900053E0C4
:102374002EFD122716900056E0FBA3E475F001121F
:1023840015ABA9F0FA121515FF1227830C80C8901B
:072394000059E004F080B1E4
:01239B00221F
:1018D5009000507440F0A37401F07B167D487F0999
:1018E50090004DEFF0A3EDF0A3EBF0900051E090E8
:1018F500004D70030219A4E0FFA3E0FDA3E0FBA3E4
:10190500E0900055F0A37401F0121C9A90004DE090
:10191500FFA3E0FD9000557408F0A374FFF0A374D5
:101925000AF0745112233590004DE0FF900050E00D
:10193500FE90004EE02E24F8FD9000557408F0A3AB
:1019450074FFF0A3740AF0746112233590004FE020
:10195500FF90004DE02F14FFA3E0FD9000557408A3
:10196500F0A374FFF0A3740AF0A37459F07B01127D
:10197500233990004FE0FF90004DE02F14FF9000B9
:1019850050E0FE90004EE02E24F8FD9000557408BE
:10199500F0A374FFF0A3740AF0A37469021A50E06F
:1019A500FFA3E0FDA3E0FBA3E0900055F0E4A3F066
:1019B500121C9A90004DE0FFA3E0FD9000557408BD
:1019C500F0A374FFF0A3740AF0A37471F07B011205
:1019D500233990004DE0FF900050E0FE90004EE06E
:1019E5002E24F8FD9000557408F0A374FFF0A3743D
:1019F5000AF0A37481F07B0112233990004FE0FFB8
:101A050090004DE02F14FFA3E0FD9000557408F001
:101A1500A374FFF0A3740AF0A37479F07B01122379
:101A25003990004FE0FF90004DE02F14FF900050DB
:101A3500E0FE90004EE02E24F8FD9000557408F06D
:101A4500A374FFF0A3740AF0A37489F07B01122339
:021A5500392234
:1028B2007FC01226D7AE07EE4480FE7FC012271BD0
:0428C200FF02278367
:1028C6007FC41226D7AE07EE4480FE7FC412271BB4
:0428D600FF02278353
:102832007FC41226D7AE07EE54FE4402FE7FC412B6
:06284200271BFF022783A3
:102848007FC41226D7AE07EE44014402FE7FC412AD
:06285800271BFF0227838D
:10268200EF2458FFEE34FCFEE434FFFDE434FFFC9B
:10269200E47B407A01F9F81215C17BB47AFC79FF28
:0526A20078FF1224DCAA
:0126A7002210
:1026A800EF2480FFEE34FCFEE434FFFDE434FFFC4D
:1026B800E47BF0FAF9F81215C17BEC7AFC79FF7823
:0426C800FF1224DCFD
:0126CC0022EB
:10101000E4F9900000E060030210ACD3EF9400EE1E
:1010200094004027EF9460EE9400501FED94D0ECB4
:1010300094004017ED94F0EC9400500F900007E0FE
:101040006401600302129409021294D3EF9468EED3
:101050009400401DEF94D0EE94005015ED94D0EC28
:101060009400400DED94F0EC9400500579020212CA
:1010700094D3EF94D8EE94005003021294EF943876
:10108000EE94014003021294ED94D0EC94005003CE
:10109000021294ED94F0EC9400400302129490003C
:1010A00007E060030212947903021294900000E0BA
:1010B00064037032D3EF94D8EE940050030212947C
:1010C000EF9438EE94014003021294ED94D0EC9426
:1010D000005003021294ED94F0EC940040030212CD
:1010E000947904021294900000E0640160030212FB
:1010F0006AD3EF9428EE9400401DEF9448EE9400DC
:101100005015ED944AEC9400400DED94AEEC940033
:1011100050057905021294D3EF9450EE9400401DCF
:10112000EF9470EE94005015ED944AEC9400400D4D
:10113000ED94AEEC940050057906021294D3EF942E
:1011400078EE9400401DEF9498EE94005015ED94C5
:101150004AEC9400400DED94AEEC940050057907F4
:10116000021294D3EF94A0EE9400401DEF94C0EED1
:1011700094005015ED944AEC9400400DED94AEECC3
:10118000940050057908021294D3EF94C8EE9400AD
:10119000401DEF94E8EE94005015ED944AEC940055
:1011A000400DED94AEEC940050057909021294D3F1
:1011B000EF94F0EE9400401DEF9410EE9401501562
:1011C000ED944AEC9400400DED94AEEC9400500583
:1011D000790A021294D3EF94A0EE9400401DEF948C
:1011E000D8EE94005015ED940CEC9400400DED9465
:1011F0003CEC94005005790B021294D3EF94E8EE86
:101200009400401CEF9420EE94015014ED940CECEB
:101210009400400CED943CEC94005004790C8074E4
:10122000D3EF9470EE9400401CEF94D0EE940050F5
:1012300014ED94D0EC9400400CED94F0EC9400503C
:1012400004790D804FD3EF94D8EE94004046EF948C
:1012500038EE9401503EED94D0EC94004036ED947D
:10126000F0EC9400502E790E802A900000E0B40239
:1012700023D3EF94D8EE9400401AEF9438EE940103
:101280005012ED94D0EC9400400AED94F0EC9400F0
:061290005002790FAF01CE
:011296002235
:101A5700E490004AF0FE7FC412271B7F8112278380
:101A67007FFF12271B1227837F0F1226D7EF20E352
:101A770003021B85E4FD7F0F1226D7EF7003FE805C
:101A87000BEDB431027E010DEDB432EAEE700302C4
:101A97001B791228327F647E001227491228487F5B
:101AA700647E001227497FC11226D7AE077FFF1237
:101AB700271B1227837FC21226D7900049EFF01207
:101AC70026CDEF5403FD1226CDEF540CF97FFF12FC
:101AD700271B122783AF067E00EF7802C333CE336E
:101AE700CED8F9FFED5403FDEF4DFDAC069000494C
:101AF700E07E007802C333CE33CED8F9FBAA067E48
:101B070000E9540C7802CEC313CE13D8F9FFEE4A7E
:101B1700FEEF4BFF90004BEEF0A3EFF0C3ED94B454
:101B2700EC9403504DED945EEC9400404590004BCF
:101B3700E0FEA3E0FF94B0EE94035036EF945CEE22
:101B47009400402EAE04AF0512268290004DEEF0B1
:101B5700A3EFF090004BE0FEA3E0FF1226A8AD072D
:101B6700AC0690004DE0FEA3E0FF12101090004A73
:101B7700EFF07F0F1226D7EF54FEFE12277D90005D
:031B87004AE0FF32
:011B8A002238
:0512970090004AEFF099
:10129C0012281C1227AD9000507430F0A37401F08A
:1012AC007B077D0C7F141218E59000507430F0A36E
:1012BC007401F07B077D0C7F1D1218E5E490004B48
:1012CC00F090004BE0FFC394085043EF75F008A476
:1012DC002410F582E43400F583E090004B6010E0BC
:1012EC0075F005A4FF9000557464F0E4A3800FE042
:1012FC0075F005A4FF9000557464F0A37401F07BA5
:10130C00047D4A121C9A90004BE004F080B39000CC
:10131C0000E0B401139000507420F0A37401F07B32
:10132C000C7DD07F0E1218E59000507420F0A37441
:10133C0001F07B0C7DD07F1B1218E590004AE06019
:10134C00031218D512272C7BFF7A0779CD7D087FE5
:10135C00011224627BFF7A0779D77D127F15122444
:10136C00627BFF7A0779DD7D267F151224627BFF75
:10137C007A0779E37D127F1E1224627BFF7A07794C
:10138C00DD7D267F1E1224627BFF7A0779E97D6062
:10139C007F011224627BFF7A0779EC7D747F011246
:1013AC0024627BFF7A0779EF7D887F01122462909B
:1013BC00004B7401F090004BE0FB75F008A4240E78
:1013CC00F582E43400F583E0FEA3E0FF7C007D3C75
:1013DC0012154090004CEFF0FEEB75F005A404FFE5
:1013EC00EE1228EE90004BE075F005A42402FFA34A
:1013FC00E075F00A84E5F02430FB1228F790004BDE
:10140C0012245390004BE075F005A404FF7BFF7A87
:10141C000779F57D8812246290004BE004F0E0C35C
:10142C00940740917BFF7A0779E97D607F24122431
:10143C00627BFF7A0779EC7D747F241224627BFF38
:10144C007A0779EF7D887F241224627BFF7A0779F3
:10145C00F87DB47F011224627BFF7A0779FB7F064B
:10146C001224627BFF7A0779FD7F0B1224627BFFCB
:10147C007A0779FF7F101224627BFF7A0879017F4B
:10148C00151224627BFF7A0879037F1A1224627B7F
:10149C00FF7A0879057F1F1224627BFF7A0879078F
:1014AC007F24122462900000E0B4010D7BFF7A08C7
:1014BC00790A7DD87F111224627BFF7A0879117D1D
:1014CC00D87F1E12246290004AE06037900050745E
:1014DC0040F0E4A31218DE121C8A90004AE0B4011A
:1014EC00087BFF7A087918801390004AE07BFFB4E0
:1014FC0002067A08792480047A0879307D607F0EA0
:09150C001224621227F00227DA12
:1025540012281C1227351227AD122806122735120D
:1025640027AD1227C47F011225207BFF7A08793C0E
:102574007D357F041224627BFF7A08794A7D537F7C
:0425840004022462C7
:05001E0090004AEFF024
:1000230012281C1227AD9000557420F0A37401F020
:100033007B08E4FDFF121C9A9000557420F0A37412
:1000430001F0E4FD7F08121C9AE490004BF090004D
:100053004BE0FFC39408504DEF75F005A42402FF55
:100063009000557408F0A374FFF0A3740AF0A3740E
:1000730091F07B017D2A12233990004BE075F00546
:10008300A42402FF9000557408F0A374FFF0A37436
:100093000AF0A37491F07B017D3A12233990004B4F
:1000A300E004F080A9900004E0FF20E02590000325
:1000B300E0700BEFC31375F005A4240280249000B5
:1000C30003E064027060A3E0C31375F005A4240287
:1000D300803A900003E07023A3E0C31375F005A4F6
:1000E3002404FF9000557408F0A374FFF0A3740A6E
:1000F300F0A37499F07B017D2A8028900003E0B47B
:100103000224A3E0C31375F005A42404FF90005553
:100113007408F0A374FFF0A3740AF0A37499F07B3E
:10012300017D3A122339E490004BF090004BE0FF3D
:10013300C394085043EF75F008A42409F582E4340E
:1001430000F583E090004B6010E075F005A4FF908C
:1001530000557464F0E4A3800FE075F005A4FF90EC
:1001630000557464F0A37401F07B047D4A121C9A59
:1001730090004BE004F080B390004AE0702D9000B3
:1001830007E0B401139000507420F0A37401F07BD6
:100193000C7DD0E4FF1218E59000507420F0A37496
:1001A30001F07B0D7DD07F0D1218E5900007E07004
:1001B3001B90004AE0640260139000507420F0A387
:1001C3007401F07B0C7DD07F1B1218E590004AE090
:1001D30060031218D512272C7BFF7A0879607D08FB
:1001E3007F02122462900007E07BFF70067A087991
:1001F3006580067A08796A7D087F0A1224627BFF8C
:100203007A08796F7D087F16122462900002E01449
:10021300601514601A14601F146024240470287B72
:10022300FF7A08797B80267BFF7A087980801E7BA2
:10023300FF7A08798580167BFF7A08798A800E7B9E
:10024300FF7A08798F80067BFF7A0879947D087F8F
:1002530022122462E490004BF090004BE0FFC39421
:1002630008400302038AEF75F008A42409F582E429
:100273003400F583E0702890004BE075F005A4048A
:10028300FF7BFF7A0879997D6412246290004BE02A
:1002930075F005A404FF7BFF7A08799C02037C9028
:1002A300004BE0FF75F008A42409F582E43400F55F
:1002B30083E064027025EF75F005A404FF7BFF7AE9
:1002C30008799F7D6412246290004BE075F005A4C9
:1002D30004FF7BFF7A0879A202037C90004BE0FFC6
:1002E30060726407606EE075F008A4240CF582E484
:1002F3003400F583E0FCA3E0FDEF75F008A4240AC5
:10030300F582E43400F583E0FEA3E0C39DFFEE9C99
:10031300FE7C007D3C121540AA0790004BE075F06F
:1003230005A404FFEA1228EEE075F005A42402FFF9
:10033300EA75F00A84E5F02430FB1228F7122453FF
:1003430090004BE075F005A404FF7BFF7A0779F575
:100353007D88802790004BE075F005A404FF7BFFA8
:100363007A0879A57D6412246290004BE075F0054C
:10037300A404FF7BFF7A0879A87D8412246290008D
:100383004BE004F002025C7BFF7A0779F87DB47FCF
:10039300011224627BFF7A0779FB7F061224627BBA
:1003A300FF7A0779FD7F0B1224627BFF7A0779FFBF
:1003B3007F101224627BFF7A0879017F1512246271
:1003C3007BFF7A0879037F1A1224627BFF7A08790C
:1003D300057F1F1224627BFF7A0879077F2412248A
:1003E3006290004AE07021900007E0B4010D7BFFAA
:1003F3007A0879AB7DD87F021224627BFF7A087971
:10040300B47DD87F0F12246290004AE0B401087BC8
:10041300FF7A0879BE801290004AE07013900007BB
:10042300E0700D7BFF7A0879C77DD87F1D122462A7
:1004330090004AE060289000507440F0E4A3121842
:10044300DE121C8A90004AE07BFFB401067A087929
:10045300D080047A0879DC7D607F0E122462122733
:04046300F00227DAA2
:10240000122806122888122735900002E014601561
:1024100014601A14601F146024240470287BFF7A4F
:1024200008797B80267BFF7A087980801E7BFF7A83
:1024300008798580167BFF7A08798A800E7BFF7A7F
:1024400008798F80067BFF7A0879947D087F2212B5
:03245000246222E1
:1020A400AD0712281CED12161020CC0120DC0221F1
:1020B400200321200420ED0B20FE0C210F0D2120F4
:1020C4000E21200F000021329000507420F0E4A370
:1020D400F07B0C7DD0FF80539000507420F0E4A37B
:1020E400F07B0D7DD07F0D80429000507430F0E481
:1020F400A3F07B077D0C7F1480319000507430F086
:10210400E4A3F07B077D0C7F1D8020900050742099
:10211400F0E4A3F07B0C7DD07F0E800F9000507410
:0F21240020F0E4A3F07B0C7DD07F1B1218E52286
:10274900EF1FAC0670011E4C6010900050E004F0C1
:0A27590070EE90004FE004F080E6FF
:012763002253
:0826340090004AEEF0A3EFF064
:10263C00E4FBFAD390004BE09B90004AE09A400EEA
:0E264C007FDE7E011227490BBB00010A80E5EC
:01265A00225D
:101F5F0090004BE4F0A304F07F0A1228DA7F007E92
:101F6F0001122795EF64EE6003021FFB900049F00A
:101F7F00A3F0900049E0FEA3E0FFC39408EE9400A5
:101F8F005060EF25E0FFEE33FE122795EF7F00FE46
:101F9F00C007C00690004AE025E0FF900049E033FB
:101FAF00FEEF2401FFE43EFE122795EFFDD0E0FC8B
:101FBF00D0E04DFD900049E0FEA3E07803C333CE9F
:101FCF0033CED8F9240AF58274003EF583ECF0A3E2
:101FDF00EDF090004AE004F07098900049E004F0B2
:101FEF00809090004BE4F0A304F08007E490004B46
:091FFF00F0A3F090004BA3E0FFF9
:0120080022B5
:101EB300E4900007F0900000F0FFEF75F008A42411
:101EC30009F582E43400F5837401F0EF75F008A49A
:101ED300240CF582E43400F583E4F0A3F00FEFB4AF
:101EE30008D8E4900011F0900019F0121F5FEF7012
:101EF3004E90000A7407F0A304F09000127402F0ED
:101F0300A374D0F090001A7402F0A374D0F0900080
:101F1300227401F0A3742CF090002A7401F0A374CE
:101F23002CF09000327401F0A3742CF090003A74FA
:101F330001F0A3742CF09000427407F0A304F0E4C2
:101F4300900002F0A37402F0E4A3F0900006F09076
:0B1F53000008F0900001F0900005F085
:011F5E002260
:1017040090004CE4F0A304F07F0A1228DAE4FFFE10
:1017140012289DE490004AF0A3F090004AE0FEA352
:10172400E0FFC3EE9402501E122795EFF46007E425
:1017340090004CF0A3F090004BE004F070DC9000BB
:101744004AE004F080D47F0A1228DAE490004AF0D8
:10175400A3F090004AE0FCA3E0FD25E0FFEC33FE9B
:10176400C006C007EDAE047803C333CE33CED8F938
:10177400240EF58274003EF583E0FDD007D00612F6
:10178400276490004AE0FCA3E0FD25E0FFEC33FE73
:10179400EF2401FFE43EFEC006C007EDAE0478036B
:1017A400C333CE33CED8F9240EF58274003EF583CC
:1017B400A3E0FDD007D00612276490004BE004F0AC
:1017C400700690004AE004F0C390004BE094089047
:1017D400004AE0940050030217567DEE7F007E011C
:1017E4001227647F0A1228DAE490004AF0A3F090EA
:1017F400004AE0FEA3E0FFC39408EE9400507CEF9F
:1018040025E0FFEE33FE122795AD0790004AE0FA7B
:10181400A3E0FBAE027803C333CE33CED8F9240E53
:10182400F58274003EF583E06D6007E490004CF0AF
:10183400A3F0EB25E0FFEA33FEEF2401FFE43EFED4
:10184400122795AD0790004AE0FEA3E07803C33366
:10185400CE33CED8F9240EF58274003EF583A3E08E
:101864006D6007E490004CF0A3F090004BE004F0AE
:10187400700690004AE004F00217F3E490004AF086
:10188400A3F090004AE0FEA3E0FFC39408EE9400A6
:101894005038EF7803C333CE33CED8F9FF240EF596
:1018A4008274003EF583E0FCA3E0FD740A2FF58208
:1018B40074003EF583ECF0A3EDF090004BE004F0EF
:1018C40070C090004AE004F080B890004CA3E0FFA0
:0118D40022F1
:1028DA00AE071FEE600DE4FCFD0DED70010C4C60BF
:0328EA00EF80F686
:0128ED0022C8
:0D000E00E4F5C7F5C5F5C675C380F5C4223D
:1027950075C78375C5018FC4EEF5C375C65A75C671
:0727A500A500AFC212000EF7
:0127AC00220A
:1027640075C78375C5028FC4EEF5C3AF058FC275F7
:09277400C65A75C6A50002000E4C
:10289D0075C78375C5038FC4EEF5C375C65A75C666
:0528AD00A50002000E71
:10200900E4FBEB75F008A4240CF582E43400F583B5
:10201900E475F001121595EB75F008A4240AF58210
:10202900E43400F583E0FEA3E0FFEB75F008A42497
:102039000CF582E43400F583E0FCA3E0C39FEC9E39
:10204900402CEB601764076013EB75F008A42409B2
:10205900F582E43400F5837402F08012EB75F00820
:10206900A4240CF582E43400F583E4F0A3F0EB75C5
:10207900F008A4240CF582E43400F583E0FEA3E023
:10208900FF7C007D3C121540ED4C70059000080462
:0A209900F00BEB6408600302200B5B
:0120A300221A
:03000B0002265B6F
:10265B00C0E0C0F0C083C082C0D075D008758A209E
:10266B00758CD1900065E004F0121E01D0D0D082A1
:07267B00D083D0F0D0E03263
:03001B000222C2FC
:1022C200C0E0C0F0C083C082C0D075D008758BA0BA
:1022D200758D15900067E004F0900000E0640460E2
:1022E20047900067E0B4C828E4F012200990005C2F
:1022F200E004F0700690005BE004F0900066E004F9
:10230200F0E0B4050B9000087403F0900066E4F06E
:10231200900067E020E011900007E07005120D6D5B
:10232200800312290A12239CD0D0D082D083D0F00D
:03233200D0E032C6
:10260C00758EC0758911758A20758CD1D28CD2A922
:10261C00758BA0758D15D28ED2ABD2AFE4900067BE
:08262C00F0900065F0A3F0221C
:04258C0041006900A1
:101E0100900069E0FF700930B403021EB204F022B1
:101E1100EF6401704920B444900006E0FFB4021A57
:101E2100900004E004F09000087401F0900004E0D8
:101E3100D3940E4020740EF0801BEFB40117900074
:101E410004E014F09000087401F0900004E0D394D1
:101E5100C84002E4F09000697402F022804E9000C4
:101E610069E0B4020730B4497403F02230B44290FF
:101E71000006E0FFB4021A900004E004F0900008AC
:101E81007401F0900004E0D3940E4020740EF080B1
:101E91001BEFB40117900004E014F09000087401E6
:101EA100F0900004E0D394C84002E4F0E4900069AB
:021EB100F0221D
:1025900041005D6442005E000341005A6442005BFA
:0225A000000039
:1004670090005DE0B40C0040030207CB90047AF8DB
:1004770028287302049E0204A102053502055D02C5
:1004870005CF0205E302049E02062C0206D10206EE
:10049700FC020771020789020621900005EFF0D3DD
:1004A70090005CE0940390005BE094005003020727
:1004B700CC900004E0FED39F4036C2A0D2A19000AA
:1004C70001E0FCB40106C292D293800EECB402069E
:1004D700D292C2938004D292D2939000067401F014
:1004E700900002F0900008E060030207CC02068546
:1004F700EEC39F5036D2A0C2A1900001E0FEB40126
:1005070006C292D293800EEEB40206D292C29380B4
:1005170004D292D2939000067402F0900002F090F9
:100527000008E060030207CC0206850206C39000BC
:1005370004E06F60030207CCD2A0D2A1D292D2937B
:1005470090005BF0A3F0900002F0900008E0707557
:100557007402F00206F6D390005CE0940390005B0F
:10056700E0940050030207CC900004E0FED39F40C4
:100577001DC2A0D2A1D292C2939000067401F0903E
:100587000002F0900008E070257402F08020EEC3AE
:100597009F5021D2A0C2A1D292C2939000067402AA
:1005A700F0900002F0900008E070037402F09000F1
:1005B7005D0206BFD2A0D2A1D292D293900008E0EA
:1005C70070037402F00206F6C2909000027403F002
:1005D700900008E070037402F00206F630B10302DF
:1005E70007CCD290E4900003F0900002F0EFC31321
:1005F700FE75F008A42409F582E43400F583E4F0DD
:10060700EE75F008A4240CF582E43400F583E4F0D9
:10061700A3F090000804F00206CBE490005BF0A37F
:10062700F0A3020785900005EDF090005EE0FEA3C1
:10063700E0FFD390005CE09F90005BE09E500302D8
:1006470007CC900004E0FFD39D4035C2A0D2A19013
:100657000001E0FEB40106C292D293800EEEB4020E
:1006670006D292C2938004D292D29390000674016C
:10067700F0900002F0900008E060030207CC803899
:10068700EFC39D5037D2A0C2A1900001E0FFB40193
:1006970006C292D293800EEFB40206D292C2938022
:1006A70004D292D2939000067402F0900002F09068
:1006B7000008E060030207CC7402F022D2A0D2A1A6
:1006C700D292D29390005D020785900004E06D609E
:1006D700030207CCD2A0D2A1D292D29390005BF0B2
:1006E700A3F0900002F0900008E070037402F0900D
:1006F700005D020785D390005CE0940390005BE007
:10070700940050030207CC900004E0FFD39D401DE6
:10071700C2A0D2A1D292C2939000067401F09000B9
:1007270002F0900008E070257402F08020EFC39D6E
:100737005022D2A0C2A1D292C2939000067402F0B6
:10074700900002F0900008E070037402F090005DE2
:100757007408F022D2A0D2A1D292D293900008E0DE
:1007670070037402F090005D8014C29190000274CF
:1007770004F0900008E070037402F090005DE0045C
:10078700F02220B240D2919000037402F0E490006E
:1007970002F0EDC313FF75F008A42409F582E434D1
:1007A70000F5837401F0EF75F008A4240CF582E4DA
:1007B7003400F583E4F0A3F090000804F090005DA6
:0607C7007464F022002220
:1021BF0090005AE014601214603514605D240370AF
:1021CF0077E490005BF0A38049D390005CE0940328
:1021DF0090005BE094004061C2A09000067401F093
:1021EF00900002F0900008E070297402F080242023
:1021FF00B047E490005BF0A3F0D2A0D2A19000060C
:10220F00F0900002F0900008E070037402F0E49088
:10221F000004F090005AE004F022D390005CE094A8
:10222F000390005BE094004010E4F0A3F0900004F2
:0A223F00F090005A7464F0220022AF
:0B28FF00D2A0D2A1D290D291D292229E
:1025A200410064004100610042006200004100609D
:0125B2000028
:100D6D00900004E0FE900005E0FDD39E4005ED9E51
:100D7D00FF800C900005E0FF900004E0C39FFFEFA3
:100D8D00D3940240089000017401F08005E49000B6
:100D9D0001F0900064E01216100DCE000DD9010D7A
:100DAD00EA020DFF030E14040E29050E3D060E5129
:100DBD00070E77080E8B090E9F0A0EB8140000104F
:100DCD000EE490005AF090006404F0221221BF90BE
:100DDD00005AE06464600302100F020EB17D0E7FB5
:100DED000C12046790005DE06464600302100F0252
:100DFD000EB17D0C7F0A12046790005DE0646460A3
:100E0D000302100F020EB17D0A7F081204679000D5
:100E1D005DE06464600302100F020EB17D087F0671
:100E2D0012046790005DE06464600302100F80742B
:100E3D007D067F0412046790005DE0646460030228
:100E4D00100F80607D067F0212046790005DE064E4
:100E5D0064600302100F9000647414F0900000E0C1
:100E6D006403600302100F020F797D04E4FF120486
:100E7D006790005DE06464600302100F80267D02C0
:100E8D00E4FF12046790005DE06464600302100FDC
:100E9D008012E4FD7F0E12046790005DE0646460D3
:100EAD000302100F9000647414F022900019E0FFFB
:100EBD00701B900009E0B40214E490005DF0900006
:100ECD005EF0A37403F09000647408F0229000119A
:100EDD00E0FE701B900009E0B40214E490005DF098
:100EED0090005EF0A37403F09000647409F02290FA
:100EFD000009E0701B900041E0B40214E490005D25
:100F0D00F090005EF0A37403F0900064740AF02278
:100F1D00900041E0701A900039E0B40213E49000A3
:100F2D005DF090005EF0A37403F090006414F02265
:100F3D00900039E07019900031E0B40212E4900095
:100F4D005DF090005EF0A37403F0900064F02290C9
:100F5D000031E0701B900029E0B40214E490005DB4
:100F6D00F090005EF0A3745AF09000647404F022C7
:100F7D00900029E0701B900021E0B40214E4900071
:100F8D005DF090005EF0A37403F09000647405F0C2
:100F9D0022900021E0706BEFB4020AEEB40106E47A
:100FAD0090005D804C900011E0B4020D900019E0AE
:100FBD00B40106E490005D8028900011E064027099
:100FCD0041900019E0B4023A90001CE0FEA3E0FF4E
:100FDD00D3900015E09F900014E09EE490005D40DA
:100FED0010F090005EF0A3745AF09000647407F056
:100FFD0022F090005EF0A3745AF09000647406F035
:02100D002200BF
:01100F0022BE
:09290A009000647414F00228FF2F
:0425B30041006A0079
:10239C0090006AE0146017146021146049240370E3
:1023AC005130950320964C90006A7401F0223095C0
:1023BC000320963890006A7402F02220950F90004A
:1023CC0041E0B401087402F090000814F020960F5C
:1023DC00900009E0B401087402F090000814F09029
:1023EC00006A7403F02230950A309607E490006A74
:0423FC00F0220022A9
:10213F00022249E493A3F8E493A34003F68001F24B
:10214F0008DFF48029E493A3F85407240CC8C333A1
:10215F00C4540F4420C8834004F456800146F6DF70
:10216F00E4800B0102040810204080902588E47E53
:10217F00019360BCA3FF543F30E509541FFEE49365
:10218F00A360010ECF54C025E060A840B8E493A32C
:10219F00FAE493A3F8E493A3C8C582C8CAC583CA57
:1021AF00F0A3C8C582C8CAC583CADFE9DEE780BE0F
:0125B7000023
:10151500BB010689828A83E0225002E722BBFE02D4
:09152500E32289828A83E4932207
:10152E00EF8DF0A4A8F0CF8CF0A428CE8DF0A42ED1
:02153E00FE228B
:10154000BC000BBE0029EF8DF084FFADF022E4CC8F
:10155000F875F008EF2FFFEE33FEEC33FCEE9DEC58
:10156000984005FCEE9DFE0FD5F0E9E4CEFD22ED9E
:10157000F8F5F0EE8420D21CFEADF075F008EF2FE8
:10158000FFED33FD4007985006D5F0F222C398FDD9
:051590000FD5F0EA2276
:10159500C5F0F8A3E028F0C5F0F8E58215827002E1
:0615A5001583E038F0227E
:1015AB00A3F8E0C5F025F0F0E582158270021583F3
:0615BB00E0C838F0E82250
:1015C100E88FF0A4CC8BF0A42CFCE98EF0A42CFCC9
:1015D1008AF0EDA42CFCEA8EF0A4CDA8F08BF0A447
:1015E1002DCC3825F0FDE98FF0A42CCD35F0FCEBA6
:1015F1008EF0A4FEA9F0EB8FF0A4CFC5F02ECD396B
:0F160100FEE43CFCEAA42DCE35F0FDE43CFC22D7
:1024DC00C2D5E830E70FB2D5E4C39BFBE49AFAE42B
:1024EC0099F9E498F8EC30E717B2D51225121216C8
:1024FC0072E4C39BFBE49AFAE499F9E498F880033C
:10250C0012167230D50DE4C39FFFE49EFEE49DFDD0
:04251C00E49CFC221D
:10161000D083D082F8E4937012740193700DA3A369
:1016200093F8740193F5828883E47374029368607D
:06163000EFA3A3A380DF7D
:1016360075F008758200EF2FFFEE33FECD33CDCC6B
:1016460033CCC58233C5829BED9AEC99E5829840EE
:101656000CF582EE9BFEED9AFDEC99FC0FD5F0D6CB
:10166600E4CEFBE4CDFAE4CCF9A88222B800C1B9F5
:101676000059BA002DEC8BF084CFCECDFCE5F0CB33
:10168600F97818EF2FFFEE33FEED33FDEC33FCEB6C
:1016960033FB10D703994004EB99FB0FD8E5E4F927
:1016A600FA227818EF2FFFEE33FEED33FDEC33FC14
:1016B600C933C910D7059BE99A4007EC9BFCE99A08
:1016C600F90FD8E0E4C9FAE4CCFB2275F010EF2F4D
:1016D600FFEE33FEED33FDCC33CCC833C810D7074D
:1016E6009BEC9AE899400AED9BFDEC9AFCE899F888
:0E16F6000FD5F0DAE4CDFBE4CCFAE4C8F9221B
:00000001FF
