:030000000220D308
:0C20D300787FE4F6D8FD75810F02211A19
:0425570041006800D7
:10258700900000E0146011146012146014146015B8
:1025970024047016E4FF800FE4FF80027F0102121B
:0B25A7001B7F0180027F0212001E2239
:10243300E4FFEF75F008A4240AF582E43400F58381
:10244300E0FCA3E0FDEF75F008A4240EF582E4346C
:1024530000F583ECF0A3EDF0EF75F008A42410F57C
:1024630082E43400F583E4F00FEFB408C59000185C
:032473007401F001
:012476002243
:1025B200E4FEEE75F008A42410F582E43400F583FD
:1025C200E4F00EEEB408EBEF75F008A42410F582E7
:0825D200E43400F5837401F00C
:0125DA0022DE
:101B0F00E4FEEE75F008A42410F582E43400F583AA
:101B1F00E0B40102AB060EEEB408E7EF6077EB75A9
:101B2F00F008A4240EF582E43400F583E0FEA3E070
:101B3F00FF7C007D3C1214C4EF24FFFFEE34FFFE48
:101B4F007C007D3C1214B2EB75F008A4240EF582D4
:101B5F00E43400F583EEF0A3EFF0EB75F008A42466
:101B6F000EF582E43400F583E0FEA3E0FFD3940882
:101B7F00EE9407500BEF9400EE94004003021C0DFF
:101B8F00EB75F008A4240EF582E43400F583740796
:101B9F00F0A304F022EB75F008A4240EF582E434D0
:101BAF0000F583E0FEA3E0FF7C007D3C1214C4EF40
:101BBF002401FFE43EFE7C007D3C1214B2EB75F075
:101BCF0008A4240EF582E43400F583EEF0A3EFF0C1
:101BDF00EB75F008A4240EF582E43400F583E0FEE3
:101BEF00A3E0D39408EE94074014EB75F008A424F7
:0E1BFF000EF582E43400F583E4F0A3743CF0AC
:011C0D0022B4
:100A4F00900049EFF0B410004003020CCC900A6301
:100A5F00F8282873020A93020A96020ABC020AEACD
:100A6F00020B0F020B32020B56020B7A020B9E0285
:100A7F000BC2020BE5020C08020C2B020C52020CEB
:100A8F008C020CAB020CCC900068E0640260030295
:100A9F000CD1900049E0FF1220447F647E001226A3
:100AAF00039000007401F0122433020B759000685C
:100ABF00E064026003020CD1900049E0FF12204471
:100ACF007F647E00122603900007E0B40104E4F077
:100ADF0080069000077401F0E48044900068E064A1
:100AEF00026003020CD1900049E0FF1220447F64A2
:100AFF007E001226039000007403F07F01020CC7E2
:100B0F00900068E064026003020CD1900049E0FF9E
:100B1F001220447F647E00122603E4900000F0FF51
:100B2F00020CC7900068E064026003020CD19000D1
:100B3F0049E0FF1220447F647E001226037F0112DA
:100B4F0025B2E41F020C4C900068E06402600302BF
:100B5F000CD1900049E0FF1220447F647E001226E2
:100B6F00037F021225B2E4FF020C4C900068E06490
:100B7F00026003020CD1900049E0FF1220447F6411
:100B8F007E001226037F031225B2E4FF020C4C9065
:100B9F000068E064026003020CD1900049E0FF128C
:100BAF0020447F647E001226037F041225B2E4FFE7
:100BBF00020C4C900068E064026003020CD19000BC
:100BCF0049E0FF1220447F647E001226037F051246
:100BDF0025B2E4FF8067900068E064026003020CB6
:100BEF00D1900049E0FF1220447F647E001226035B
:100BFF007F061225B2E4FF8044900068E064026033
:100C0F0003020CD1900049E0FF1220447F467E0082
:100C1F00122603E4FF121B0FE4FF8021900068E00F
:100C2F0064026003020CD1900049E0FF1220447F60
:100C3F00467E001226037F01121B0FE4FF12121BC8
:100C4F00020CD1900068E064027077900049E0FFD9
:100C5F001220447F647E001226037F0312121B12A0
:100C6F001688EF60047F0180027F0212121B7FE85B
:100C7F007E03122603E4900000F0FF803B90006893
:100C8F00E06402703D900049E0FF1220447F647ED3
:100C9F0000122603E4900000F0FF801C900068E033
:100CAF00B4021F900049E0FF1220447F647E0012BF
:100CBF002603E4900000F0FF12001E8005E4900070
:100CCF0068F0900049E0FFD394004012EF94105069
:100CDF000D900068E004F07F0A7E00022603E49086
:040CEF000068F02287
:1021E900121D891224EF7FD07E07122603121EEEDC
:1021F9001225DB12285A12286EE4FF12001E12194A
:10220900DB120A4F900008E0B4010A122587E49016
:102219000008F080E9900008E0B4021E900000E098
:10222900FF640160D9EF640260D412239BE490003B
:1022390008F07F0AFE12260380C4900008E0B40368
:10224900BD121D8912285A12286E122587E49000A2
:0422590008F080AA5F
:10046700B6A8CAB1C9E8D6C33A00BCD320D2BB00EC
:10047700B7D620D6D300BCF520D2BB00CEB400C976
:10048700E800D6C300B7D600D6D300BDF8003100C8
:1004970032003300340035003600B3F600B1A32034
:1004A70020B4E600B7B52020BBD800B1A320B4E63E
:1004B70020B3C920B9A600B1A320B4E620CAA7205B
:1004C700B0DC00B1A320B4E620D6D02E2E2E00C17A
:1004D700AACFB5C8CB3AC2BDD6BEB6AB00C1AACF6C
:1004E700B5B5E7BBB03A2031333536373430323320
:1004F700363700D7B4CCAC00D7D4B6AF00CAD6B61F
:10050700AF00BBFAD0B5B1DBB6AFD7F73A00BFD56E
:10051700CFD0003C2D2D2D002D2D2D3E00CFF2C923
:10052700CF00CFF2CFC200B4EDCEF300BFD500CFDE
:10053700D000BECD00D0F700C3A600C2B500B6A854
:10054700CAB1C9E8D6C300CAD6B6AF2FD7D4B6AF9B
:1005570000C8A1CFFBCFC2B0E000CFC2B0E0B0B4BB
:10056700BCFC00B9D820BBFA20D6D02E2E2E00B95D
:10057700D820BBFA20B3C920B9A600B2E2CAD4B3C7
:10058700CCD0F2B2B7CFFE202020202C20CEBAC18B
:10059700E9BEEA2020CEBAC1E9BEEAB9FEB9FE201B
:1005A700202020B2FAC6B7D0CDBAC53A2043483387
:1005B7003230323430422D322020352E37B4E733F3
:1005C700323078323430B5E3D5F320D6A7B3D652DC
:1005D70041383830332F524138383036BFD8D6C635
:1005E7002CD6A7B3D63556BACD332E3356B5E7D169
:1005F700B92020D6A7B3D6B4A5C3FE2CBCFCC5CC66
:10060700C9A8C3E8B9A6C4DC2020202020202020C8
:100617002020202020202020202020CFD4CABED771
:10062700D6D0CDBFC9B7C5B4F3B5BD3332783332F1
:10063700A1A2343878343820BBF2363478363420E7
:10064700202020C4DABDA8B4D6CCE5D7D6D0CED3E7
:10065700EBD0D0BEE0C9E8B6A8202020202020207B
:100667002020202020202020202020D6A7B3D6C657
:10067700C1C4BBCBAEC6BDBEEDB6AFBCB0B4B9D678
:10068700B1BEEDB6AFB9A6C4DC20202020202020C3
:10069700202020B9E2B1EAA1A2B7B4B0D7A1A2C97C
:1006A700C1CBB8B9A6C4DCA3ACB9E2B1EAB8DFB62E
:1006B700C8D3EBBFEDB6C8BFC9B5F7D6A7B3D6CE7B
:1006C700C4D7D6D3EBBBE6CDBCC1BDD6D6BBECBA3F
:1006D700CDCFD4CABEC4A3CABD202020202020204D
:1006E700202020000718204040808080E018040266
:1006F70002010101808080404020180701010102AA
:10070700020418E0071F3F7F7FFFFFFFE0F8FCFEB2
:10071700FEFFFFFFFFFFFF7F7F3F1F07FFFFFFFE7C
:10072700FEFCF8E01824428181422418183C7EFF21
:10073700FF7E3C18FFFFFFFFFFFFFFFF000001FCEC
:100747007FFC6618663066607FFE7E7A665A66DAD8
:0C0757007EB27FB2676600CE018C00000D
:0C26B700AC0712281BAF041226A17FB054
:1026C300C2A5D2A4D2A2C2A38F80C2A3D2A3D2A5F1
:0126D30022E4
:062725007F0F1226C3FF26
:10272B0030A6FDC2A5D2A4C2A28F80C2A3D2A3D2CF
:02273B00A522D5
:0A2675007FFF1226C312272B7FC33C
:10267F00C2A5D2A2D2A48F80C2A3D2A37580FFC25B
:09268F00A2D2A3D2A4C2A4AF8020
:01269800221F
:101D8900C2A77F327E00122603D2A77F327E0012BD
:101D99002603E4FF1226C37F0412272B7F01122694
:101DA900C37F0812272B7F031227271227257F10AD
:101DB9001227277F111227277F121226C31F1227E6
:101DC9002B7F201226C37F2712272B7F211226C3A0
:101DD9007F2712272B7F301226C37FEF12272B7FF5
:101DE900311226C37FEF12272B7F401227277F50FE
:101DF9001227277F601227277F611227277F621208
:101E090027277F701227277F711227277F721227B2
:101E1900277F801227277F901226C37F8012272BC6
:101E29007FE01227277FF01227277FF11226C3FFB1
:031E390002272B52
:08269900900052E0FFE92AFD68
:1026A100AE077F601226C3AF0612272B7F7012265A
:0626B100C3AF0502272B58
:10280600E4FF12267FAE07EE54F7FEE4FF1226C35E
:05281600AF0602272BB4
:10281B00E4FF12267FAE07EE4408FEE4FF1226C348
:05282B00AF0602272B9F
:10276C007F1212267FAE07EE549F4410FE7F12128A
:06277C0026C3FF02272B1B
:102782007F1212267FAE07EE54BF4430FE7F121234
:0627920026C3FF02272B05
:102798007F1212267FAE07EE54F74404FE7F121212
:0627A80026C3FF02272BEF
:1027AE007F1212267FAE07EE54FD4401FE7F1212F9
:0627BE0026C3FF02272BD9
:1027C4007F1212267FAE07EE54FE4402FE7F1212E1
:0627D40026C3FF02272BC3
:102755001228067FE01226C3E4FF12272B7FF01212
:0727650026C37FA802272B09
:10283000E4FF12267FAE07EE54FEFEE4FF1226C32D
:05284000AF0602272B8A
:0926D4001227AE1227551228301E
:1026DD007F1012267FAE07EE54DFFE7F101226C349
:0426ED00FF02272B96
:1024BB00EF24FE601314601914601F240370247F33
:1024CB00F11226C3E4FF80187FF11226C37F5080E0
:1024DB000F7FF11226C37FA080067FF11226C31F48
:0424EB0012272B2267
:0F23EE00E075F005A404FF7BFF7A04798C7D7401
:1023FD0090004DEBF0A3EAF0A3E9F01226B79000A0
:10240D004DE0FBA3E0FAA3E0F912149960179000D8
:10241D004DA3E475F00112152FA9F0FA121499FFCE
:06242D0012272B80D922CA
:0928960075F00A842430FB7D601A
:08289F001226B7AF0302272B3C
:101C0E009000557430F0A37401F07B147D507F0A60
:071C1E00900052EFF0A90550
:101C2500122806E4FA900055E0FFEAC39F4003023C
:101C35001CD1EA701A122699E4FCECC39B400302FE
:101C45001CCD7FB01226C37FFF12272B0C80EBEA39
:101C5500D394004054900055E014FFEA9F504A90F9
:101C65000052E0FFE92AFD1226BE900056E0601BF7
:101C75007F8012272B7C01EB14FFECC39F5008E4F7
:101C8500FF12272B0C80F07F0180197FFF12272B75
:101C95007C01EB14FFECC39F50087FFF12272B0C30
:101CA50080F07FFF12272B801F900055E0146A708B
:101CB50017122699E4FCECC39B500D7FB01226C386
:0C1CC5007FFF12272B0C80EE0A021C2A65
:011CD10022F0
:0422D000A3F07B01FB
:0B22D400900052EFF0A3EDF0A3EBF040
:1022DF00122806E4900059F0900055E0FF90005945
:1022EF00E0C39F5042E4FC900054E0FFECC39F50CA
:1022FF002E900052E02CFF900059E0FE900053E02A
:10230F002EFD1226BE900056E0FBA3E475F00112DD
:10231F00152FA9F0FA121499FF12272B0C80C890D1
:07232F000059E004F080B149
:012336002284
:101859009000507440F0A37401F07B167D487F0915
:1018690090004DEFF0A3EDF0A3EBF0900051E09064
:10187900004D7003021928E0FFA3E0FDA3E0FBA3DC
:10188900E0900055F0A37401F0121C1E90004DE089
:10189900FFA3E0FD9000557408F0A374FFF0A37452
:1018A90006F074EB1222D090004DE0FF900050E05A
:1018B900FE90004EE02E24F8FD9000557408F0A328
:1018C90074FFF0A37406F074FB1222D090004FE06D
:1018D900FF90004DE02F14FFA3E0FD900055740820
:1018E900F0A374FFF0A37406F0A374F3F07B011264
:1018F90022D490004FE0FF90004DE02F14FF90009C
:1019090050E0FE90004EE02E24F8FD90005574083A
:10191900F0A374FFF0A37407F0A374030219D4E0D1
:10192900FFA3E0FDA3E0FBA3E0900055F0E4A3F0E2
:10193900121C1E90004DE0FFA3E0FD9000557408B5
:10194900F0A374FFF0A37407F0A3740BF07B0112EA
:1019590022D490004DE0FF900050E0FE90004EE050
:101969002E24F8FD9000557408F0A374FFF0A374B9
:1019790007F0A3741BF07B011222D490004FE0FF03
:1019890090004DE02F14FFA3E0FD9000557408F07E
:10199900A374FFF0A37407F0A37413F07B01122260
:1019A900D490004FE0FF90004DE02F14FF900050BD
:1019B900E0FE90004EE02E24F8FD9000557408F0EA
:1019C900A374FFF0A37407F0A37423F07B01122220
:0219D900D42216
:10285A007FC012267FAE07EE4480FE7FC01226C3D9
:04286A00FF02272B17
:10286E007FC412267FAE07EE4480FE7FC41226C3BD
:04287E00FF02272B03
:1027DA007FC412267FAE07EE54FE4402FE7FC41267
:0627EA0026C3FF02272BAD
:1027F0007FC412267FAE07EE44014402FE7FC4125E
:0628000026C3FF02272B96
:10262A00EF2458FFEE34FCFEE434FFFDE434FFFCF3
:10263A00E47B407A01F9F81215457BB47AFC79FFFC
:05264A0078FF12247767
:01264F002268
:10265000EF2480FFEE34FCFEE434FFFDE434FFFCA5
:10266000E47BF0FAF9F81215457BEC7AFC79FF78F7
:04267000FF122477BA
:012674002243
:100F9400E4F9900000E06003021030D3EF9400EE17
:100FA40094004027EF9460EE9400501FED94D0EC31
:100FB40094004017ED94F0EC9400500F900007E07B
:100FC4006401600302121809021218D3EF9468EE48
:100FD4009400401DEF94D0EE94005015ED94D0ECA5
:100FE4009400400DED94F0EC940050057902021247
:100FF40018D3EF94D8EE94005003021218EF9438EB
:10100400EE94014003021218ED94D0EC94005003C6
:10101400021218ED94F0EC940040030212189000B0
:1010240007E060030212187903021218900000E02E
:1010340064037032D3EF94D8EE9400500302121874
:10104400EF9438EE94014003021218ED94D0EC941E
:10105400005003021218ED94F0EC940040030212C5
:10106400187904021218900000E064016003021170
:10107400EED3EF9428EE9400401DEF9448EE9400D4
:101084005015ED944AEC9400400DED94AEEC9400B0
:1010940050057905021218D3EF9450EE9400401DC8
:1010A400EF9470EE94005015ED944AEC9400400DCA
:1010B400ED94AEEC940050057906021218D3EF9427
:1010C40078EE9400401DEF9498EE94005015ED9442
:1010D4004AEC9400400DED94AEEC94005005790771
:1010E400021218D3EF94A0EE9400401DEF94C0EECA
:1010F40094005015ED944AEC9400400DED94AEEC40
:10110400940050057908021218D3EF94C8EE9400A5
:10111400401DEF94E8EE94005015ED944AEC9400D1
:10112400400DED94AEEC940050057909021218D3E9
:10113400EF94F0EE9400401DEF9410EE94015015DE
:10114400ED944AEC9400400DED94AEEC94005005FF
:10115400790A021218D3EF94A0EE9400401DEF9484
:10116400D8EE94005015ED940CEC9400400DED94E1
:101174003CEC94005005790B021218D3EF94E8EE7E
:101184009400401CEF9420EE94015014ED940CEC68
:101194009400400CED943CEC94005004790C807461
:1011A400D3EF9470EE9400401CEF94D0EE94005072
:1011B40014ED94D0EC9400400CED94F0EC940050B9
:1011C40004790D804FD3EF94D8EE94004046EF9409
:1011D40038EE9401503EED94D0EC94004036ED94FA
:1011E400F0EC9400502E790E802A900000E0B402B6
:1011F40023D3EF94D8EE9400401AEF9438EE940180
:101204005012ED94D0EC9400400AED94F0EC94006C
:061214005002790FAF014A
:01121A0022B1
:1019DB00E490004AF0FE7FC41226C37F8112272BAE
:1019EB007FFF1226C312272B7F0F12267FEF20E3D8
:1019FB0003021B09E4FD7F0F12267FEF7003FE80AD
:101A0B000BEDB431027E010DEDB432EAEE70030240
:101A1B001AFD1227DA7F647E001226F11227F07F5F
:101A2B00647E001226F17FC112267FAE077FFF1264
:101A3B0026C312272B7FC212267F900049EFF0128C
:101A4B002675EF5403FD122675EF540CF97FFF1228
:101A5B0026C312272BAF067E00EF7802C333CE339B
:101A6B00CED8F9FFED5403FDEF4DFDAC06900049C8
:101A7B00E07E007802C333CE33CED8F9FBAA067EC4
:101A8B0000E9540C7802CEC313CE13D8F9FFEE4AFB
:101A9B00FEEF4BFF90004BEEF0A3EFF0C3ED94B4D1
:101AAB00EC9403504DED945EEC9400404590004B4C
:101ABB00E0FEA3E0FF94B0EE94035036EF945CEE9F
:101ACB009400402EAE04AF0512262A90004DEEF086
:101ADB00A3EFF090004BE0FEA3E0FF122650AD0702
:101AEB00AC0690004DE0FEA3E0FF120F9490004A6D
:101AFB00EFF07F0F12267FEF54FEFE12272590008A
:031B0B004AE0FFAE
:011B0E0022B4
:05121B0090004AEFF015
:101220001227C41227559000507430F0A37401F0B7
:101230007B077D0C7F141218699000507430F0A366
:101240007401F07B077D0C7F1D121869E490004B40
:10125000F090004BE0FFC394085043EF75F008A4F2
:101260002410F582E43400F583E090004B6010E038
:1012700075F005A4FF9000557464F0E4A3800FE0BE
:1012800075F005A4FF9000557464F0A37401F07B21
:10129000047D4A121C1E90004BE004F080B39000C5
:1012A00000E0B401139000507420F0A37401F07BAF
:1012B0000C7DD07F0E1218699000507420F0A3743A
:1012C00001F07B0C7DD07F1B12186990004AE06012
:1012D000031218591226D47BFF7A0479677D087FA0
:1012E000011223FD7BFF7A0479717D127F15122391
:1012F000FD7BFF7A0479777D267F151223FD7BFF26
:101300007A04797D7D127F1E1223FD7BFF7A04799A
:10131000777D267F1E1223FD7BFF7A0479837D6013
:101320007F011223FD7BFF7A0479867D747F011291
:1013300023FD7BFF7A0479897D887F011223FD904C
:10134000004B7401F090004BE0FB75F008A4240EF4
:10135000F582E43400F583E0FEA3E0FF7C007D3CF1
:101360001214C490004CEFF0FEEB75F005A404FFDE
:10137000EE12289690004BE075F005A42402FFA31E
:10138000E075F00A84E5F02430FB12289F90004BB2
:101390001223EE90004BE075F005A404FF7BFF7A6A
:1013A00004798F7D881223FD90004BE004F0E0C3A8
:1013B000940740917BFF7A0479837D607F24122318
:1013C000FD7BFF7A0479867D747F241223FD7BFFE9
:1013D0007A0479897D887F241223FD7BFF7A047942
:1013E000927DB47F011223FD7BFF7A0479957F06FD
:1013F0001223FD7BFF7A0479977F0B1223FD7BFF7D
:101400007A0479997F101223FD7BFF7A04799B7F00
:10141000151223FD7BFF7A04799D7F1A1223FD7B31
:10142000FF7A04799F7F1F1223FD7BFF7A0479A145
:101430007F241223FD900000E0B4010D7BFF7A04AD
:1014400079A47DD87F111223FD7BFF7A0479AB7DCF
:10145000D87F1E1223FD90004AE060379000507440
:1014600040F0E4A3121862121C0E90004AE0B4018E
:10147000087BFF7A0479B2801390004AE07BFFB4C6
:1014800002067A0479BE80047A0479CA7D607F0EF0
:091490001223FD122798022782A5
:1024EF001227C41226DD1227551227AE1226DD122F
:1024FF00275512276C7F011224BB7BFF7A0479D6F4
:10250F007D357F041223FD7BFF7A0479E47D537FB1
:04251F00040223FD92
:05001E0090004AEFF024
:100023001227C41227559000557420F0A37401F0D1
:100033007B08E4FDFF121C1E9000557420F0A3748E
:1000430001F0E4FD7F08121C1EE490004BF09000C9
:100053004BE0FFC39408504DEF75F005A42402FF55
:100063009000557408F0A374FFF0A37407F0A37411
:100073002BF07B017D2A1222D490004BE075F00512
:10008300A42402FF9000557408F0A374FFF0A37436
:1000930007F0A3742BF07B017D3A1222D490004B1E
:1000A300E004F080A9900004E0FF20E02590000325
:1000B300E0700BEFC31375F005A4240280249000B5
:1000C30003E064027060A3E0C31375F005A4240287
:1000D300803A900003E07023A3E0C31375F005A4F6
:1000E3002404FF9000557408F0A374FFF0A3740771
:1000F300F0A37433F07B017D2A8028900003E0B4E1
:100103000224A3E0C31375F005A42404FF90005553
:100113007408F0A374FFF0A37407F0A37433F07BA7
:10012300017D3A1222D4E490004BF090004BE0FFA3
:10013300C394085043EF75F008A42409F582E4340E
:1001430000F583E090004B6010E075F005A4FF908C
:1001530000557464F0E4A3800FE075F005A4FF90EC
:1001630000557464F0A37401F07B047D4A121C1ED5
:1001730090004BE004F080B390004AE0702D9000B3
:1001830007E0B401139000507420F0A37401F07BD6
:100193000C7DD0E4FF1218699000507420F0A37412
:1001A30001F07B0D7DD07F0D121869900007E07080
:1001B3001B90004AE0640260139000507420F0A387
:1001C3007401F07B0C7DD07F1B12186990004AE00C
:1001D30060031218591226D47BFF7A0479FA7D083A
:1001E3007F021223FD900007E07BFF70067A0479FB
:1001F300FF80067A0579047D087F0A1223FD7BFFC1
:100203007A0579097D087F161223FD900002E01418
:10021300601514601A14601F146024240470287B72
:10022300FF7A05791580267BFF7A05791A801E7B74
:10023300FF7A05791F80167BFF7A057924800E7B70
:10024300FF7A05792980067BFF7A05792E7D087F61
:10025300221223FDE490004BF090004BE0FFC39487
:1002630008400302038AEF75F008A42409F582E429
:100273003400F583E0702890004BE075F005A4048A
:10028300FF7BFF7A0579337D641223FD90004BE0F9
:1002930075F005A404FF7BFF7A05793602037C9091
:1002A300004BE0FF75F008A42409F582E43400F55F
:1002B30083E064027025EF75F005A404FF7BFF7AE9
:1002C3000579397D641223FD90004BE075F005A498
:1002D30004FF7BFF7A05793C02037C90004BE0FF2F
:1002E30060726407606EE075F008A4240CF582E484
:1002F3003400F583E0FCA3E0FDEF75F008A4240AC5
:10030300F582E43400F583E0FEA3E0C39DFFEE9C99
:10031300FE7C007D3C1214C4AA0790004BE075F0EC
:1003230005A404FFEA122896E075F005A42402FF51
:10033300EA75F00A84E5F02430FB12289F1223EEBD
:1003430090004BE075F005A404FF7BFF7A04798FDE
:100353007D88802790004BE075F005A404FF7BFFA8
:100363007A05793F7D641223FD90004BE075F0051B
:10037300A404FF7BFF7A0579427D841223FD90005C
:100383004BE004F002025C7BFF7A0479927DB47F38
:10039300011223FD7BFF7A0479957F061223FD7BEF
:1003A300FF7A0479977F0B1223FD7BFF7A047999F7
:1003B3007F101223FD7BFF7A04799B7F151223FDA7
:1003C3007BFF7A04799D7F1A1223FD7BFF7A0479E0
:1003D3009F7F1F1223FD7BFF7A0479A17F241223C1
:1003E300FD90004AE07021900007E0B4010D7BFF0F
:1003F3007A0579457DD87F021223FD7BFF7A057943
:100403004E7DD87F0F1223FD90004AE0B401087B94
:10041300FF7A057958801290004AE0701390000724
:10042300E0700D7BFF7A0579617DD87F1D1223FD76
:1004330090004AE060289000507440F0E4A3121842
:1004430062121C0E90004AE07BFFB401067A057924
:100453006A80047A0579767D607F0E1223FD122768
:040463009802278252
:10239B001227AE1228301226DD900002E0146015D1
:1023AB0014601A14601F146024240470287BFF7AB5
:1023BB0005791580267BFF7A05791A801E7BFF7ABB
:1023CB0005791F80167BFF7A057924800E7BFF7AB7
:1023DB0005792980067BFF7A05792E7D087F2212ED
:0323EB0023FD22AD
:10204400AD071227C4ED121594206C01207C0220E8
:10205400C00320C004208D0B209E0C20AF0D20C097
:102064000E20C00F000020D29000507420F0E4A392
:10207400F07B0C7DD0FF80539000507420F0E4A3DB
:10208400F07B0D7DD07F0D80429000507430F0E4E1
:10209400A3F07B077D0C7F1480319000507430F0E6
:1020A400E4A3F07B077D0C7F1D80209000507420FA
:1020B400F0E4A3F07B0C7DD07F0E800F9000507471
:0F20C40020F0E4A3F07B0C7DD07F1B1218692263
:1026F100EF1FAC0670011E4C6010900050E004F01A
:0A27010070EE90004FE004F080E657
:01270B0022AB
:0826030090004AEEF0A3EFF095
:10260B00E4FBFAD390004BE09B90004AE09A400E1B
:0E261B007FDE7E011226F10BBB00010A80E576
:01262900228E
:101F9A0090004BE4F0A304F07F0A1228827F007EAF
:101FAA000112273DEF64EE6003022036900049F0EB
:101FBA00A3F0900049E0FEA3E0FFC39408EE94006A
:101FCA005060EF25E0FFEE33FE12273DEF7F00FE63
:101FDA00C007C00690004AE025E0FF900049E033C0
:101FEA00FEEF2401FFE43EFE12273DEFFDD0E0FCA8
:101FFA00D0E04DFD900049E0FEA3E07803C333CE64
:10200A0033CED8F9240AF58274003EF583ECF0A3A6
:10201A00EDF090004AE004F07098900049E004F076
:10202A00809090004BE4F0A304F08007E490004B0A
:09203A00F0A3F090004BA3E0FFBD
:01204300227A
:101EEE00E4900007F0900000F0FFEF75F008A424D6
:101EFE0009F582E43400F5837401F0EF75F008A45F
:101F0E00240CF582E43400F583E4F0A3F00FEFB473
:101F1E0008D8E4900011F0900019F0121F9AEF709B
:101F2E004E90000A7407F0A304F09000127402F0B1
:101F3E00A374D0F090001A7402F0A374D0F0900045
:101F4E00227401F0A3742CF090002A7401F0A37493
:101F5E002CF09000327401F0A3742CF090003A74BF
:101F6E0001F0A3742CF09000427407F0A304F0E487
:101F7E00900002F0A37402F0E4A3F0900006F0903B
:0B1F8E000008F0900001F0900005F04A
:011F99002225
:1016880090004CE4F0A304F07F0A122882E4FFFEE5
:10169800122845E490004AF0A3F090004AE0FEA327
:1016A800E0FFC3EE9402501E12273DEFF46007E4FA
:1016B80090004CF0A3F090004BE004F070DC900038
:1016C8004AE004F080D47F0A122882E490004AF0AD
:1016D800A3F090004AE0FCA3E0FD25E0FFEC33FE18
:1016E800C006C007EDAE047803C333CE33CED8F9B5
:1016F800240EF58274003EF583E0FDD007D0061273
:10170800270C90004AE0FCA3E0FD25E0FFEC33FE47
:10171800EF2401FFE43EFEC006C007EDAE047803E7
:10172800C333CE33CED8F9240EF58274003EF58348
:10173800A3E0FDD007D00612270C90004BE004F080
:10174800700690004AE004F0C390004BE0940890C3
:10175800004AE0940050030216DA7DEE7F007E0115
:1017680012270C7F0A122882E490004AF0A3F09016
:10177800004AE0FEA3E0FFC39408EE9400507CEF1B
:1017880025E0FFEE33FE12273DAD0790004AE0FA50
:10179800A3E0FBAE027803C333CE33CED8F9240ED0
:1017A800F58274003EF583E06D6007E490004CF02C
:1017B800A3F0EB25E0FFEA33FEEF2401FFE43EFE51
:1017C80012273DAD0790004AE0FEA3E07803C3333B
:1017D800CE33CED8F9240EF58274003EF583A3E00B
:1017E8006D6007E490004CF0A3F090004BE004F02B
:1017F800700690004AE004F0021777E490004AF07F
:10180800A3F090004AE0FEA3E0FFC39408EE940022
:101818005038EF7803C333CE33CED8F9FF240EF512
:101828008274003EF583E0FCA3E0FD740A2FF58284
:1018380074003EF583ECF0A3EDF090004BE004F06B
:1018480070C090004AE004F080B890004CA3E0FF1C
:01185800226D
:10288200AE071FEE600DE4FCFD0DED70010C4C6017
:03289200EF80F6DE
:012895002220
:0D000E00E4F5C7F5C5F5C675C380F5C4223D
:10273D0075C78375C5018FC4EEF5C375C65A75C6C9
:07274D00A500AFC212000E4F
:012754002262
:10270C0075C78375C5028FC4EEF5C3AF058FC2754F
:09271C00C65A75C6A50002000EA4
:1028450075C78375C5038FC4EEF5C375C65A75C6BE
:05285500A50002000EC9
:101CD200E4FBEB75F008A42409F582E43400F583F3
:101CE200E0FF64016008EF64026003021D7FEB7590
:101CF200F008A4240CF582E43400F583E475F001C5
:101D0200121519EB75F008A4240AF582E43400F5E3
:101D120083E0FEA3E0FFEB75F008A4240CF582E457
:101D22003400F583E0FCA3E0C39FEC9E402CEB6003
:101D32001764076013EB75F008A42409F582E434F4
:101D420000F5837402F08012EB75F008A4240CF500
:101D520082E43400F583E4F0A3F0EB75F008A424E8
:101D62000CF582E43400F583E0FEA3E0FF7C007D05
:101D72003C1214C4ED4C700590000804F00BEB64A7
:061D8200086003021CD4FE
:011D88002238
:03000B00022523A8
:10252300C0E0C0F0C083C082C0D075D008758A20D7
:10253300758CD1900065E004F0900006E0FF640222
:102543006004EFB40103121E3CD0D0D082D083D0FC
:04255300F0D0E032B2
:03001B0002225D61
:10225D00C0E0C0F0C083C082C0D075D008758BA01F
:10226D00758D15900067E004F0900000E064046047
:10227D0047900067E0B4C828E4F0121CD290005CCF
:10228D00E004F0700690005BE004F0900066E0045E
:10229D00F0E0B4050B9000087403F0900066E4F0D4
:1022AD00900067E020E011900007E07005120CF33C
:1022BD0080031228B2122337D0D0D082D083D0F031
:0322CD00D0E0322C
:1025DB00758EC0758911758A20758CD1D28CD2A954
:1025EB00758BA0758D15D28ED2ABD2AFE4900067F0
:0825FB00F0900065F0A3F0224E
:04255B0041006900D2
:101E3C00900069E0FF700930B403021EED04F0223B
:101E4C00EF6401704920B444900006E0FFB4021A1C
:101E5C00900004E004F09000087401F0900004E09D
:101E6C00D3940E4020740EF0801BEFB40117900039
:101E7C0004E014F09000087401F0900004E0D39496
:101E8C00C84002E4F09000697402F022804E900089
:101E9C0069E0B4020730B4497403F02230B44290C4
:101EAC000006E0FFB4021A900004E004F090000871
:101EBC007401F0900004E0D3940E4020740EF08076
:101ECC001BEFB40117900004E014F09000087401AB
:101EDC00F0900004E0D394C84002E4F0E490006970
:021EEC00F022E2
:10255F0041005D6442005E000341005A6442005B2B
:02256F0000006A
:1007630090005DE0B40C004003020A4D900776F858
:1007730028287302079A0207A602083A02086202AF
:1007830008940208A80208E60208F1020995020982
:10079300BF0209F3020A0BE490005BF0A3F0D294CA
:1007A3000208ED900005EFF0D390005CE094039015
:1007B300005BE094005003020A4E900004E0FED375
:1007C3009F4036C2A0D2A1900001E0FCB40106C252
:1007D30092D293800EECB40206D292C2938004D2DA
:1007E30092D2939000067401F0900002F0900008FA
:1007F300E06003020A4E020984EEC39F5036D2A082
:10080300C2A1900001E0FEB40106C292D293800E11
:10081300EEB40206D292C2938004D292D293900095
:10082300067402F0900002F0900008E06003020AF0
:100833004E020984020988900004E06F6003020AF3
:100843004ED2A0D2A1D292D29390005BF0A3F090AB
:100853000002F0900008E070357402F00209BAD388
:1008630090005CE0940390005BE094005003020A64
:100873004E900004E06F6003C29422D294D2A0D2BF
:10088300A1D292D293900008E070037402F002099F
:10089300BAC2909000027403F0900008E0700374F1
:1008A30002F00209BA30B103020A4ED290E490007A
:1008B30003F0900002F0EFC313FE75F008A42409BF
:1008C300F582E43400F583E4F0EE75F008A4240C1B
:1008D300F582E43400F583E4F0A3F090000804F01B
:1008E300020990E490005BF0A3F0A3020A079000D2
:1008F30005EDF090005EE0FEA3E0FFD390005CE026
:100903009F90005BE09E5003020A4E900004E0FFBC
:10091300D39D4035C2A0D2A1900001E0FEB40106F0
:10092300C292D293800EEEB40206D292C293800496
:10093300D292D2939000067401F0900002F09000DE
:1009430008E06003020A4E8038EFC39D5037D2A0FF
:10095300C2A1900001E0FFB40106C292D293800EBF
:10096300EFB40206D292C2938004D292D293900043
:10097300067402F0900002F0900008E06003020A9F
:100983004E7402F022D2A0D2A1D292D29390005DF3
:100993008072900004E06D6003020A4ED2A0D2A1DF
:1009A300D292D29390005BF0A3F0900002F09000FB
:1009B30008E070037402F090005D8048D390005CFF
:1009C300E0940390005BE094005003020A4E900011
:1009D30004E06D6003C29422D294D2A0D2A1D29239
:1009E300D293900008E070037402F090005D8014CD
:1009F300C2919000027404F0900008E07003740246
:100A0300F090005DE004F02220B240D29190000308
:100A13007402F0E4900002F0EDC313FF75F008A434
:100A23002409F582E43400F5837401F0EF75F008CE
:100A3300A4240CF582E43400F583E4F0A3F09000E1
:0C0A43000804F090005D7464F0220022B2
:10215F0090005AE014601214603514605D2403700F
:10216F0077E490005BF0A38049D390005CE0940388
:10217F0090005BE094004061C2A09000067401F0F3
:10218F00900002F0900008E070297402F080242083
:10219F00B047E490005BF0A3F0D2A0D2A19000066C
:1021AF00F0900002F0900008E070037402F0E490E9
:1021BF000004F090005AE004F022D390005CE09409
:1021CF000390005BE094004010E4F0A3F090000453
:0A21DF00F090005A7464F022002210
:0B28A700D2A0D2A1D290D291D29222F6
:1025710041006400410061004200620000410060CE
:012581000059
:100CF300900004E0FE900005E0FDD39E4005ED9ECC
:100D0300FF800C900005E0FF900004E0C39FFFEF1D
:100D1300D3940290000140057401F080037402F043
:100D2300900064E01215940D52000D5D010D6E02EA
:100D33000D83030D98040DAD050DC1060DD5070DEB
:100D4300FB080E0F090E230A0E3C1400000F92E459
:100D530090005AF090006404F02212215F90005A30
:100D6300E064646003020F93020E357D0E7F0C1264
:100D7300076390005DE064646003020F93020E3525
:100D83007D0C7F0A12076390005DE06464600302D8
:100D93000F93020E357D0A7F0812076390005DE012
:100DA30064646003020F93020E357D087F06120709
:100DB3006390005DE064646003020F9380747D06BA
:100DC3007F0412076390005DE064646003020F9385
:100DD30080607D067F0212076390005DE0646460BB
:100DE30003020F939000647414F0900000E0640316
:100DF3006003020F93020EFD7D04E4FF120763906C
:100E0300005DE064646003020F9380267D02E4FFCB
:100E130012076390005DE064646003020F93801225
:100E2300E4FD7F0E12076390005DE06464600302DB
:100E33000F939000647414F022900019E0FF701B6C
:100E4300900009E0B40214E490005DF090005EF0BD
:100E5300A37403F09000647408F022900011E0FE84
:100E6300701B900009E0B40214E490005DF0900060
:100E73005EF0A37403F09000647409F022900009FB
:100E8300E0701B900041E0B40214E490005DF09028
:100E9300005EF0A37403F0900064740AF0229000E3
:100EA30041E0701A900039E0B40213E490005DF061
:100EB30090005EF0A37403F090006414F02290009D
:100EC30039E07019900031E0B40212E490005DF053
:100ED30090005EF0A37403F0900064F02290003160
:100EE300E0701B900029E0B40214E490005DF090E0
:100EF300005EF0A3745AF09000647404F022900032
:100F030029E0701B900021E0B40214E490005DF02E
:100F130090005EF0A37403F09000647405F02290D7
:100F23000021E0706BEFB4020AEEB40106E4900016
:100F33005D804C900011E0B4020D900019E0B40103
:100F430006E490005D8028900011E06402704190F7
:100F53000019E0B4023A90001CE0FEA3E0FFD39036
:100F63000015E09F900014E09EE490005D4010F0B7
:100F730090005EF0A3745AF09000647407F022F0BE
:100F830090005EF0A3745AF09000647406F022009F
:010F9300223B
:0928B2009000647414F00228A7E0
:0425820041006A00AA
:1023370090006AE014601714602114604924037048
:102347005130950320964C90006A7401F022309525
:102357000320963890006A7402F02220950F9000AF
:1023670041E0B401087402F090000814F020960FC1
:10237700900009E0B401087402F090000814F0908E
:10238700006A7403F02230950A309607E490006AD9
:04239700F02200220E
:1020DF000221E9E493A3F8E493A34003F68001F20D
:1020EF0008DFF48029E493A3F85407240CC8C33302
:1020FF00C4540F4420C8834004F456800146F6DFD1
:10210F00E4800B0102040810204080902557E47EE4
:10211F00019360BCA3FF543F30E509541FFEE493C5
:10212F00A360010ECF54C025E060A840B8E493A38C
:10213F00FAE493A3F8E493A3C8C582C8CAC583CAB7
:10214F00F0A3C8C582C8CAC583CADFE9DEE780BE6F
:012586000054
:10149900BB010689828A83E0225002E722BBFE0251
:0914A900E32289828A83E4932284
:1014B200EF8DF0A4A8F0CF8CF0A428CE8DF0A42E4E
:0214C200FE2208
:1014C400BC000BBE0029EF8DF084FFADF022E4CC0C
:1014D400F875F008EF2FFFEE33FEEC33FCEE9DECD5
:1014E400984005FCEE9DFE0FD5F0E9E4CEFD22ED1B
:1014F400F8F5F0EE8420D21CFEADF075F008EF2F65
:10150400FFED33FD4007985006D5F0F222C398FD55
:051514000FD5F0EA22F2
:10151900C5F0F8A3E028F0C5F0F8E582158270025D
:061529001583E038F022FA
:10152F00A3F8E0C5F025F0F0E5821582700215836F
:06153F00E0C838F0E822CC
:10154500E88FF0A4CC8BF0A42CFCE98EF0A42CFC45
:101555008AF0EDA42CFCEA8EF0A4CDA8F08BF0A4C3
:101565002DCC3825F0FDE98FF0A42CCD35F0FCEB22
:101575008EF0A4FEA9F0EB8FF0A4CFC5F02ECD39E7
:0F158500FEE43CFCEAA42DCE35F0FDE43CFC2254
:10247700C2D5E830E70FB2D5E4C39BFBE49AFAE490
:1024870099F9E498F8EC30E717B2D51224AD121594
:10249700F6E4C39BFBE49AFAE499F9E498F880031D
:1024A7001215F630D50DE4C39FFFE49EFEE49DFDB3
:0424B700E49CFC2283
:10159400D083D082F8E4937012740193700DA3A3E6
:1015A40093F8740193F5828883E4737402936860FA
:0615B400EFA3A3A380DFFA
:1015BA0075F008758200EF2FFFEE33FECD33CDCCE8
:1015CA0033CCC58233C5829BED9AEC99E58298406B
:1015DA000CF582EE9BFEED9AFDEC99FC0FD5F0D648
:1015EA00E4CEFBE4CDFAE4CCF9A88222B800C1B972
:1015FA000059BA002DEC8BF084CFCECDFCE5F0CBB0
:10160A00F97818EF2FFFEE33FEED33FDEC33FCEBE8
:10161A0033FB10D703994004EB99FB0FD8E5E4F9A3
:10162A00FA227818EF2FFFEE33FEED33FDEC33FC90
:10163A00C933C910D7059BE99A4007EC9BFCE99A84
:10164A00F90FD8E0E4C9FAE4CCFB2275F010EF2FC9
:10165A00FFEE33FEED33FDCC33CCC833C810D707C9
:10166A009BEC9AE899400AED9BFDEC9AFCE899F804
:0E167A000FD5F0DAE4CDFBE4CCFAE4C8F92297
:00000001FF
